{
	"compilerInput": "{\"language\":\"Solidity\",\"sources\":{\"ZiggiToken.sol\":{\"content\":\"// SPDX-License-Identifier: MIT\\r\\npragma solidity ^0.8.20;\\r\\n\\r\\nimport \\\"@openzeppelin/contracts/token/ERC20/ERC20.sol\\\";\\r\\nimport \\\"@openzeppelin/contracts/access/Ownable.sol\\\";\\r\\n\\r\\ncontract ZiggiToken is ERC20, Ownable {\\r\\n    mapping(address => bool) private isBlacklisted;\\r\\n    mapping(address => bool) private isExcludedFromFees;\\r\\n\\r\\n    uint256 public burnFee = 2; // 2% Burn Fee\\r\\n    uint256 public rewardFee = 1; // 1% Reward Fee\\r\\n    uint256 public devFee = 1; // 1% Dev Fee\\r\\n    uint256 public liquidityFee = 5; // 5% Liquidity Fee\\r\\n    uint256 public maxTxAmount; // Max transfer amount\\r\\n    bool public tradingEnabled = false;\\r\\n    \\r\\n    address public devWallet;\\r\\n\\r\\n    constructor() ERC20(\\\"Ziggi\\\", \\\"ZIGGI\\\") Ownable(msg.sender) {\\r\\n        uint256 totalSupply = 1_000_000 * 10 ** decimals();\\r\\n        _mint(msg.sender, totalSupply);\\r\\n        maxTxAmount = totalSupply / 100; // 1% of total supply\\r\\n        devWallet = msg.sender;\\r\\n        isExcludedFromFees[msg.sender] = true;\\r\\n    }\\r\\n\\r\\n    function enableTrading() external onlyOwner {\\r\\n        tradingEnabled = true;\\r\\n    }\\r\\n\\r\\n    function setBlacklist(address account, bool status) external onlyOwner {\\r\\n        isBlacklisted[account] = status;\\r\\n    }\\r\\n\\r\\n    function excludeFromFees(address account, bool status) external onlyOwner {\\r\\n        isExcludedFromFees[account] = status;\\r\\n    }\\r\\n\\r\\n    function setFees(uint256 _burnFee, uint256 _rewardFee, uint256 _devFee, uint256 _liquidityFee) external onlyOwner {\\r\\n        burnFee = _burnFee;\\r\\n        rewardFee = _rewardFee;\\r\\n        devFee = _devFee;\\r\\n        liquidityFee = _liquidityFee;\\r\\n    }\\r\\n\\r\\n    function setMaxTxAmount(uint256 _maxTxAmount) external onlyOwner {\\r\\n        maxTxAmount = _maxTxAmount;\\r\\n    }\\r\\n\\r\\n    function setDevWallet(address _devWallet) external onlyOwner {\\r\\n        devWallet = _devWallet;\\r\\n    }\\r\\n\\r\\n    function _update(address from, address to, uint256 amount) internal override {\\r\\n        require(!isBlacklisted[from] && !isBlacklisted[to], \\\"Address is blacklisted\\\");\\r\\n        require(tradingEnabled || isExcludedFromFees[from], \\\"Trading is not enabled yet\\\");\\r\\n        require(amount <= maxTxAmount || isExcludedFromFees[from], \\\"Transfer amount exceeds max limit\\\");\\r\\n\\r\\n        uint256 burnAmount = (amount * burnFee) / 100;\\r\\n        uint256 rewardAmount = (amount * rewardFee) / 100;\\r\\n        uint256 devAmount = (amount * devFee) / 100;\\r\\n        uint256 liquidityAmount = (amount * liquidityFee) / 100;\\r\\n        uint256 sendAmount = amount - burnAmount - rewardAmount - devAmount - liquidityAmount;\\r\\n\\r\\n        if (burnAmount > 0) {\\r\\n            _burn(from, burnAmount);\\r\\n        }\\r\\n        if (devAmount > 0) {\\r\\n            super._update(from, devWallet, devAmount);\\r\\n        }\\r\\n\\r\\n        super._update(from, to, sendAmount);\\r\\n    }\\r\\n}\"},\"@openzeppelin/contracts/access/Ownable.sol\":{\"content\":\"// SPDX-License-Identifier: MIT\\n// OpenZeppelin Contracts (last updated v5.0.0) (access/Ownable.sol)\\n\\npragma solidity ^0.8.20;\\n\\nimport {Context} from \\\"../utils/Context.sol\\\";\\n\\n/**\\n * @dev Contract module which provides a basic access control mechanism, where\\n * there is an account (an owner) that can be granted exclusive access to\\n * specific functions.\\n *\\n * The initial owner is set to the address provided by the deployer. This can\\n * later be changed with {transferOwnership}.\\n *\\n * This module is used through inheritance. It will make available the modifier\\n * `onlyOwner`, which can be applied to your functions to restrict their use to\\n * the owner.\\n */\\nabstract contract Ownable is Context {\\n    address private _owner;\\n\\n    /**\\n     * @dev The caller account is not authorized to perform an operation.\\n     */\\n    error OwnableUnauthorizedAccount(address account);\\n\\n    /**\\n     * @dev The owner is not a valid owner account. (eg. `address(0)`)\\n     */\\n    error OwnableInvalidOwner(address owner);\\n\\n    event OwnershipTransferred(address indexed previousOwner, address indexed newOwner);\\n\\n    /**\\n     * @dev Initializes the contract setting the address provided by the deployer as the initial owner.\\n     */\\n    constructor(address initialOwner) {\\n        if (initialOwner == address(0)) {\\n            revert OwnableInvalidOwner(address(0));\\n        }\\n        _transferOwnership(initialOwner);\\n    }\\n\\n    /**\\n     * @dev Throws if called by any account other than the owner.\\n     */\\n    modifier onlyOwner() {\\n        _checkOwner();\\n        _;\\n    }\\n\\n    /**\\n     * @dev Returns the address of the current owner.\\n     */\\n    function owner() public view virtual returns (address) {\\n        return _owner;\\n    }\\n\\n    /**\\n     * @dev Throws if the sender is not the owner.\\n     */\\n    function _checkOwner() internal view virtual {\\n        if (owner() != _msgSender()) {\\n            revert OwnableUnauthorizedAccount(_msgSender());\\n        }\\n    }\\n\\n    /**\\n     * @dev Leaves the contract without owner. It will not be possible to call\\n     * `onlyOwner` functions. Can only be called by the current owner.\\n     *\\n     * NOTE: Renouncing ownership will leave the contract without an owner,\\n     * thereby disabling any functionality that is only available to the owner.\\n     */\\n    function renounceOwnership() public virtual onlyOwner {\\n        _transferOwnership(address(0));\\n    }\\n\\n    /**\\n     * @dev Transfers ownership of the contract to a new account (`newOwner`).\\n     * Can only be called by the current owner.\\n     */\\n    function transferOwnership(address newOwner) public virtual onlyOwner {\\n        if (newOwner == address(0)) {\\n            revert OwnableInvalidOwner(address(0));\\n        }\\n        _transferOwnership(newOwner);\\n    }\\n\\n    /**\\n     * @dev Transfers ownership of the contract to a new account (`newOwner`).\\n     * Internal function without access restriction.\\n     */\\n    function _transferOwnership(address newOwner) internal virtual {\\n        address oldOwner = _owner;\\n        _owner = newOwner;\\n        emit OwnershipTransferred(oldOwner, newOwner);\\n    }\\n}\\n\"},\"@openzeppelin/contracts/token/ERC20/ERC20.sol\":{\"content\":\"// SPDX-License-Identifier: MIT\\n// OpenZeppelin Contracts (last updated v5.2.0) (token/ERC20/ERC20.sol)\\n\\npragma solidity ^0.8.20;\\n\\nimport {IERC20} from \\\"./IERC20.sol\\\";\\nimport {IERC20Metadata} from \\\"./extensions/IERC20Metadata.sol\\\";\\nimport {Context} from \\\"../../utils/Context.sol\\\";\\nimport {IERC20Errors} from \\\"../../interfaces/draft-IERC6093.sol\\\";\\n\\n/**\\n * @dev Implementation of the {IERC20} interface.\\n *\\n * This implementation is agnostic to the way tokens are created. This means\\n * that a supply mechanism has to be added in a derived contract using {_mint}.\\n *\\n * TIP: For a detailed writeup see our guide\\n * https://forum.openzeppelin.com/t/how-to-implement-erc20-supply-mechanisms/226[How\\n * to implement supply mechanisms].\\n *\\n * The default value of {decimals} is 18. To change this, you should override\\n * this function so it returns a different value.\\n *\\n * We have followed general OpenZeppelin Contracts guidelines: functions revert\\n * instead returning `false` on failure. This behavior is nonetheless\\n * conventional and does not conflict with the expectations of ERC-20\\n * applications.\\n */\\nabstract contract ERC20 is Context, IERC20, IERC20Metadata, IERC20Errors {\\n    mapping(address account => uint256) private _balances;\\n\\n    mapping(address account => mapping(address spender => uint256)) private _allowances;\\n\\n    uint256 private _totalSupply;\\n\\n    string private _name;\\n    string private _symbol;\\n\\n    /**\\n     * @dev Sets the values for {name} and {symbol}.\\n     *\\n     * All two of these values are immutable: they can only be set once during\\n     * construction.\\n     */\\n    constructor(string memory name_, string memory symbol_) {\\n        _name = name_;\\n        _symbol = symbol_;\\n    }\\n\\n    /**\\n     * @dev Returns the name of the token.\\n     */\\n    function name() public view virtual returns (string memory) {\\n        return _name;\\n    }\\n\\n    /**\\n     * @dev Returns the symbol of the token, usually a shorter version of the\\n     * name.\\n     */\\n    function symbol() public view virtual returns (string memory) {\\n        return _symbol;\\n    }\\n\\n    /**\\n     * @dev Returns the number of decimals used to get its user representation.\\n     * For example, if `decimals` equals `2`, a balance of `505` tokens should\\n     * be displayed to a user as `5.05` (`505 / 10 ** 2`).\\n     *\\n     * Tokens usually opt for a value of 18, imitating the relationship between\\n     * Ether and Wei. This is the default value returned by this function, unless\\n     * it's overridden.\\n     *\\n     * NOTE: This information is only used for _display_ purposes: it in\\n     * no way affects any of the arithmetic of the contract, including\\n     * {IERC20-balanceOf} and {IERC20-transfer}.\\n     */\\n    function decimals() public view virtual returns (uint8) {\\n        return 18;\\n    }\\n\\n    /**\\n     * @dev See {IERC20-totalSupply}.\\n     */\\n    function totalSupply() public view virtual returns (uint256) {\\n        return _totalSupply;\\n    }\\n\\n    /**\\n     * @dev See {IERC20-balanceOf}.\\n     */\\n    function balanceOf(address account) public view virtual returns (uint256) {\\n        return _balances[account];\\n    }\\n\\n    /**\\n     * @dev See {IERC20-transfer}.\\n     *\\n     * Requirements:\\n     *\\n     * - `to` cannot be the zero address.\\n     * - the caller must have a balance of at least `value`.\\n     */\\n    function transfer(address to, uint256 value) public virtual returns (bool) {\\n        address owner = _msgSender();\\n        _transfer(owner, to, value);\\n        return true;\\n    }\\n\\n    /**\\n     * @dev See {IERC20-allowance}.\\n     */\\n    function allowance(address owner, address spender) public view virtual returns (uint256) {\\n        return _allowances[owner][spender];\\n    }\\n\\n    /**\\n     * @dev See {IERC20-approve}.\\n     *\\n     * NOTE: If `value` is the maximum `uint256`, the allowance is not updated on\\n     * `transferFrom`. This is semantically equivalent to an infinite approval.\\n     *\\n     * Requirements:\\n     *\\n     * - `spender` cannot be the zero address.\\n     */\\n    function approve(address spender, uint256 value) public virtual returns (bool) {\\n        address owner = _msgSender();\\n        _approve(owner, spender, value);\\n        return true;\\n    }\\n\\n    /**\\n     * @dev See {IERC20-transferFrom}.\\n     *\\n     * Skips emitting an {Approval} event indicating an allowance update. This is not\\n     * required by the ERC. See {xref-ERC20-_approve-address-address-uint256-bool-}[_approve].\\n     *\\n     * NOTE: Does not update the allowance if the current allowance\\n     * is the maximum `uint256`.\\n     *\\n     * Requirements:\\n     *\\n     * - `from` and `to` cannot be the zero address.\\n     * - `from` must have a balance of at least `value`.\\n     * - the caller must have allowance for ``from``'s tokens of at least\\n     * `value`.\\n     */\\n    function transferFrom(address from, address to, uint256 value) public virtual returns (bool) {\\n        address spender = _msgSender();\\n        _spendAllowance(from, spender, value);\\n        _transfer(from, to, value);\\n        return true;\\n    }\\n\\n    /**\\n     * @dev Moves a `value` amount of tokens from `from` to `to`.\\n     *\\n     * This internal function is equivalent to {transfer}, and can be used to\\n     * e.g. implement automatic token fees, slashing mechanisms, etc.\\n     *\\n     * Emits a {Transfer} event.\\n     *\\n     * NOTE: This function is not virtual, {_update} should be overridden instead.\\n     */\\n    function _transfer(address from, address to, uint256 value) internal {\\n        if (from == address(0)) {\\n            revert ERC20InvalidSender(address(0));\\n        }\\n        if (to == address(0)) {\\n            revert ERC20InvalidReceiver(address(0));\\n        }\\n        _update(from, to, value);\\n    }\\n\\n    /**\\n     * @dev Transfers a `value` amount of tokens from `from` to `to`, or alternatively mints (or burns) if `from`\\n     * (or `to`) is the zero address. All customizations to transfers, mints, and burns should be done by overriding\\n     * this function.\\n     *\\n     * Emits a {Transfer} event.\\n     */\\n    function _update(address from, address to, uint256 value) internal virtual {\\n        if (from == address(0)) {\\n            // Overflow check required: The rest of the code assumes that totalSupply never overflows\\n            _totalSupply += value;\\n        } else {\\n            uint256 fromBalance = _balances[from];\\n            if (fromBalance < value) {\\n                revert ERC20InsufficientBalance(from, fromBalance, value);\\n            }\\n            unchecked {\\n                // Overflow not possible: value <= fromBalance <= totalSupply.\\n                _balances[from] = fromBalance - value;\\n            }\\n        }\\n\\n        if (to == address(0)) {\\n            unchecked {\\n                // Overflow not possible: value <= totalSupply or value <= fromBalance <= totalSupply.\\n                _totalSupply -= value;\\n            }\\n        } else {\\n            unchecked {\\n                // Overflow not possible: balance + value is at most totalSupply, which we know fits into a uint256.\\n                _balances[to] += value;\\n            }\\n        }\\n\\n        emit Transfer(from, to, value);\\n    }\\n\\n    /**\\n     * @dev Creates a `value` amount of tokens and assigns them to `account`, by transferring it from address(0).\\n     * Relies on the `_update` mechanism\\n     *\\n     * Emits a {Transfer} event with `from` set to the zero address.\\n     *\\n     * NOTE: This function is not virtual, {_update} should be overridden instead.\\n     */\\n    function _mint(address account, uint256 value) internal {\\n        if (account == address(0)) {\\n            revert ERC20InvalidReceiver(address(0));\\n        }\\n        _update(address(0), account, value);\\n    }\\n\\n    /**\\n     * @dev Destroys a `value` amount of tokens from `account`, lowering the total supply.\\n     * Relies on the `_update` mechanism.\\n     *\\n     * Emits a {Transfer} event with `to` set to the zero address.\\n     *\\n     * NOTE: This function is not virtual, {_update} should be overridden instead\\n     */\\n    function _burn(address account, uint256 value) internal {\\n        if (account == address(0)) {\\n            revert ERC20InvalidSender(address(0));\\n        }\\n        _update(account, address(0), value);\\n    }\\n\\n    /**\\n     * @dev Sets `value` as the allowance of `spender` over the `owner` s tokens.\\n     *\\n     * This internal function is equivalent to `approve`, and can be used to\\n     * e.g. set automatic allowances for certain subsystems, etc.\\n     *\\n     * Emits an {Approval} event.\\n     *\\n     * Requirements:\\n     *\\n     * - `owner` cannot be the zero address.\\n     * - `spender` cannot be the zero address.\\n     *\\n     * Overrides to this logic should be done to the variant with an additional `bool emitEvent` argument.\\n     */\\n    function _approve(address owner, address spender, uint256 value) internal {\\n        _approve(owner, spender, value, true);\\n    }\\n\\n    /**\\n     * @dev Variant of {_approve} with an optional flag to enable or disable the {Approval} event.\\n     *\\n     * By default (when calling {_approve}) the flag is set to true. On the other hand, approval changes made by\\n     * `_spendAllowance` during the `transferFrom` operation set the flag to false. This saves gas by not emitting any\\n     * `Approval` event during `transferFrom` operations.\\n     *\\n     * Anyone who wishes to continue emitting `Approval` events on the`transferFrom` operation can force the flag to\\n     * true using the following override:\\n     *\\n     * ```solidity\\n     * function _approve(address owner, address spender, uint256 value, bool) internal virtual override {\\n     *     super._approve(owner, spender, value, true);\\n     * }\\n     * ```\\n     *\\n     * Requirements are the same as {_approve}.\\n     */\\n    function _approve(address owner, address spender, uint256 value, bool emitEvent) internal virtual {\\n        if (owner == address(0)) {\\n            revert ERC20InvalidApprover(address(0));\\n        }\\n        if (spender == address(0)) {\\n            revert ERC20InvalidSpender(address(0));\\n        }\\n        _allowances[owner][spender] = value;\\n        if (emitEvent) {\\n            emit Approval(owner, spender, value);\\n        }\\n    }\\n\\n    /**\\n     * @dev Updates `owner` s allowance for `spender` based on spent `value`.\\n     *\\n     * Does not update the allowance value in case of infinite allowance.\\n     * Revert if not enough allowance is available.\\n     *\\n     * Does not emit an {Approval} event.\\n     */\\n    function _spendAllowance(address owner, address spender, uint256 value) internal virtual {\\n        uint256 currentAllowance = allowance(owner, spender);\\n        if (currentAllowance < type(uint256).max) {\\n            if (currentAllowance < value) {\\n                revert ERC20InsufficientAllowance(spender, currentAllowance, value);\\n            }\\n            unchecked {\\n                _approve(owner, spender, currentAllowance - value, false);\\n            }\\n        }\\n    }\\n}\\n\"},\"@openzeppelin/contracts/interfaces/draft-IERC6093.sol\":{\"content\":\"// SPDX-License-Identifier: MIT\\n// OpenZeppelin Contracts (last updated v5.1.0) (interfaces/draft-IERC6093.sol)\\npragma solidity ^0.8.20;\\n\\n/**\\n * @dev Standard ERC-20 Errors\\n * Interface of the https://eips.ethereum.org/EIPS/eip-6093[ERC-6093] custom errors for ERC-20 tokens.\\n */\\ninterface IERC20Errors {\\n    /**\\n     * @dev Indicates an error related to the current `balance` of a `sender`. Used in transfers.\\n     * @param sender Address whose tokens are being transferred.\\n     * @param balance Current balance for the interacting account.\\n     * @param needed Minimum amount required to perform a transfer.\\n     */\\n    error ERC20InsufficientBalance(address sender, uint256 balance, uint256 needed);\\n\\n    /**\\n     * @dev Indicates a failure with the token `sender`. Used in transfers.\\n     * @param sender Address whose tokens are being transferred.\\n     */\\n    error ERC20InvalidSender(address sender);\\n\\n    /**\\n     * @dev Indicates a failure with the token `receiver`. Used in transfers.\\n     * @param receiver Address to which tokens are being transferred.\\n     */\\n    error ERC20InvalidReceiver(address receiver);\\n\\n    /**\\n     * @dev Indicates a failure with the `spender`’s `allowance`. Used in transfers.\\n     * @param spender Address that may be allowed to operate on tokens without being their owner.\\n     * @param allowance Amount of tokens a `spender` is allowed to operate with.\\n     * @param needed Minimum amount required to perform a transfer.\\n     */\\n    error ERC20InsufficientAllowance(address spender, uint256 allowance, uint256 needed);\\n\\n    /**\\n     * @dev Indicates a failure with the `approver` of a token to be approved. Used in approvals.\\n     * @param approver Address initiating an approval operation.\\n     */\\n    error ERC20InvalidApprover(address approver);\\n\\n    /**\\n     * @dev Indicates a failure with the `spender` to be approved. Used in approvals.\\n     * @param spender Address that may be allowed to operate on tokens without being their owner.\\n     */\\n    error ERC20InvalidSpender(address spender);\\n}\\n\\n/**\\n * @dev Standard ERC-721 Errors\\n * Interface of the https://eips.ethereum.org/EIPS/eip-6093[ERC-6093] custom errors for ERC-721 tokens.\\n */\\ninterface IERC721Errors {\\n    /**\\n     * @dev Indicates that an address can't be an owner. For example, `address(0)` is a forbidden owner in ERC-20.\\n     * Used in balance queries.\\n     * @param owner Address of the current owner of a token.\\n     */\\n    error ERC721InvalidOwner(address owner);\\n\\n    /**\\n     * @dev Indicates a `tokenId` whose `owner` is the zero address.\\n     * @param tokenId Identifier number of a token.\\n     */\\n    error ERC721NonexistentToken(uint256 tokenId);\\n\\n    /**\\n     * @dev Indicates an error related to the ownership over a particular token. Used in transfers.\\n     * @param sender Address whose tokens are being transferred.\\n     * @param tokenId Identifier number of a token.\\n     * @param owner Address of the current owner of a token.\\n     */\\n    error ERC721IncorrectOwner(address sender, uint256 tokenId, address owner);\\n\\n    /**\\n     * @dev Indicates a failure with the token `sender`. Used in transfers.\\n     * @param sender Address whose tokens are being transferred.\\n     */\\n    error ERC721InvalidSender(address sender);\\n\\n    /**\\n     * @dev Indicates a failure with the token `receiver`. Used in transfers.\\n     * @param receiver Address to which tokens are being transferred.\\n     */\\n    error ERC721InvalidReceiver(address receiver);\\n\\n    /**\\n     * @dev Indicates a failure with the `operator`’s approval. Used in transfers.\\n     * @param operator Address that may be allowed to operate on tokens without being their owner.\\n     * @param tokenId Identifier number of a token.\\n     */\\n    error ERC721InsufficientApproval(address operator, uint256 tokenId);\\n\\n    /**\\n     * @dev Indicates a failure with the `approver` of a token to be approved. Used in approvals.\\n     * @param approver Address initiating an approval operation.\\n     */\\n    error ERC721InvalidApprover(address approver);\\n\\n    /**\\n     * @dev Indicates a failure with the `operator` to be approved. Used in approvals.\\n     * @param operator Address that may be allowed to operate on tokens without being their owner.\\n     */\\n    error ERC721InvalidOperator(address operator);\\n}\\n\\n/**\\n * @dev Standard ERC-1155 Errors\\n * Interface of the https://eips.ethereum.org/EIPS/eip-6093[ERC-6093] custom errors for ERC-1155 tokens.\\n */\\ninterface IERC1155Errors {\\n    /**\\n     * @dev Indicates an error related to the current `balance` of a `sender`. Used in transfers.\\n     * @param sender Address whose tokens are being transferred.\\n     * @param balance Current balance for the interacting account.\\n     * @param needed Minimum amount required to perform a transfer.\\n     * @param tokenId Identifier number of a token.\\n     */\\n    error ERC1155InsufficientBalance(address sender, uint256 balance, uint256 needed, uint256 tokenId);\\n\\n    /**\\n     * @dev Indicates a failure with the token `sender`. Used in transfers.\\n     * @param sender Address whose tokens are being transferred.\\n     */\\n    error ERC1155InvalidSender(address sender);\\n\\n    /**\\n     * @dev Indicates a failure with the token `receiver`. Used in transfers.\\n     * @param receiver Address to which tokens are being transferred.\\n     */\\n    error ERC1155InvalidReceiver(address receiver);\\n\\n    /**\\n     * @dev Indicates a failure with the `operator`’s approval. Used in transfers.\\n     * @param operator Address that may be allowed to operate on tokens without being their owner.\\n     * @param owner Address of the current owner of a token.\\n     */\\n    error ERC1155MissingApprovalForAll(address operator, address owner);\\n\\n    /**\\n     * @dev Indicates a failure with the `approver` of a token to be approved. Used in approvals.\\n     * @param approver Address initiating an approval operation.\\n     */\\n    error ERC1155InvalidApprover(address approver);\\n\\n    /**\\n     * @dev Indicates a failure with the `operator` to be approved. Used in approvals.\\n     * @param operator Address that may be allowed to operate on tokens without being their owner.\\n     */\\n    error ERC1155InvalidOperator(address operator);\\n\\n    /**\\n     * @dev Indicates an array length mismatch between ids and values in a safeBatchTransferFrom operation.\\n     * Used in batch transfers.\\n     * @param idsLength Length of the array of token identifiers\\n     * @param valuesLength Length of the array of token amounts\\n     */\\n    error ERC1155InvalidArrayLength(uint256 idsLength, uint256 valuesLength);\\n}\\n\"},\"@openzeppelin/contracts/utils/Context.sol\":{\"content\":\"// SPDX-License-Identifier: MIT\\n// OpenZeppelin Contracts (last updated v5.0.1) (utils/Context.sol)\\n\\npragma solidity ^0.8.20;\\n\\n/**\\n * @dev Provides information about the current execution context, including the\\n * sender of the transaction and its data. While these are generally available\\n * via msg.sender and msg.data, they should not be accessed in such a direct\\n * manner, since when dealing with meta-transactions the account sending and\\n * paying for execution may not be the actual sender (as far as an application\\n * is concerned).\\n *\\n * This contract is only required for intermediate, library-like contracts.\\n */\\nabstract contract Context {\\n    function _msgSender() internal view virtual returns (address) {\\n        return msg.sender;\\n    }\\n\\n    function _msgData() internal view virtual returns (bytes calldata) {\\n        return msg.data;\\n    }\\n\\n    function _contextSuffixLength() internal view virtual returns (uint256) {\\n        return 0;\\n    }\\n}\\n\"},\"@openzeppelin/contracts/token/ERC20/extensions/IERC20Metadata.sol\":{\"content\":\"// SPDX-License-Identifier: MIT\\n// OpenZeppelin Contracts (last updated v5.1.0) (token/ERC20/extensions/IERC20Metadata.sol)\\n\\npragma solidity ^0.8.20;\\n\\nimport {IERC20} from \\\"../IERC20.sol\\\";\\n\\n/**\\n * @dev Interface for the optional metadata functions from the ERC-20 standard.\\n */\\ninterface IERC20Metadata is IERC20 {\\n    /**\\n     * @dev Returns the name of the token.\\n     */\\n    function name() external view returns (string memory);\\n\\n    /**\\n     * @dev Returns the symbol of the token.\\n     */\\n    function symbol() external view returns (string memory);\\n\\n    /**\\n     * @dev Returns the decimals places of the token.\\n     */\\n    function decimals() external view returns (uint8);\\n}\\n\"},\"@openzeppelin/contracts/token/ERC20/IERC20.sol\":{\"content\":\"// SPDX-License-Identifier: MIT\\n// OpenZeppelin Contracts (last updated v5.1.0) (token/ERC20/IERC20.sol)\\n\\npragma solidity ^0.8.20;\\n\\n/**\\n * @dev Interface of the ERC-20 standard as defined in the ERC.\\n */\\ninterface IERC20 {\\n    /**\\n     * @dev Emitted when `value` tokens are moved from one account (`from`) to\\n     * another (`to`).\\n     *\\n     * Note that `value` may be zero.\\n     */\\n    event Transfer(address indexed from, address indexed to, uint256 value);\\n\\n    /**\\n     * @dev Emitted when the allowance of a `spender` for an `owner` is set by\\n     * a call to {approve}. `value` is the new allowance.\\n     */\\n    event Approval(address indexed owner, address indexed spender, uint256 value);\\n\\n    /**\\n     * @dev Returns the value of tokens in existence.\\n     */\\n    function totalSupply() external view returns (uint256);\\n\\n    /**\\n     * @dev Returns the value of tokens owned by `account`.\\n     */\\n    function balanceOf(address account) external view returns (uint256);\\n\\n    /**\\n     * @dev Moves a `value` amount of tokens from the caller's account to `to`.\\n     *\\n     * Returns a boolean value indicating whether the operation succeeded.\\n     *\\n     * Emits a {Transfer} event.\\n     */\\n    function transfer(address to, uint256 value) external returns (bool);\\n\\n    /**\\n     * @dev Returns the remaining number of tokens that `spender` will be\\n     * allowed to spend on behalf of `owner` through {transferFrom}. This is\\n     * zero by default.\\n     *\\n     * This value changes when {approve} or {transferFrom} are called.\\n     */\\n    function allowance(address owner, address spender) external view returns (uint256);\\n\\n    /**\\n     * @dev Sets a `value` amount of tokens as the allowance of `spender` over the\\n     * caller's tokens.\\n     *\\n     * Returns a boolean value indicating whether the operation succeeded.\\n     *\\n     * IMPORTANT: Beware that changing an allowance with this method brings the risk\\n     * that someone may use both the old and the new allowance by unfortunate\\n     * transaction ordering. One possible solution to mitigate this race\\n     * condition is to first reduce the spender's allowance to 0 and set the\\n     * desired value afterwards:\\n     * https://github.com/ethereum/EIPs/issues/20#issuecomment-263524729\\n     *\\n     * Emits an {Approval} event.\\n     */\\n    function approve(address spender, uint256 value) external returns (bool);\\n\\n    /**\\n     * @dev Moves a `value` amount of tokens from `from` to `to` using the\\n     * allowance mechanism. `value` is then deducted from the caller's\\n     * allowance.\\n     *\\n     * Returns a boolean value indicating whether the operation succeeded.\\n     *\\n     * Emits a {Transfer} event.\\n     */\\n    function transferFrom(address from, address to, uint256 value) external returns (bool);\\n}\\n\"}},\"settings\":{\"optimizer\":{\"enabled\":false,\"runs\":200},\"outputSelection\":{\"*\":{\"\":[\"ast\"],\"*\":[\"abi\",\"metadata\",\"devdoc\",\"userdoc\",\"storageLayout\",\"evm.legacyAssembly\",\"evm.bytecode\",\"evm.deployedBytecode\",\"evm.methodIdentifiers\",\"evm.gasEstimates\",\"evm.assembly\"]}},\"remappings\":[]}}",
	"name": "ZiggiToken",
	"bytecode": {
		"linkReferences": {},
		"object": "6080604052600260085560016009556001600a556005600b555f600d5f6101000a81548160ff02191690831515021790555034801561003c575f5ffd5b50336040518060400160405280600581526020017f5a696767690000000000000000000000000000000000000000000000000000008152506040518060400160405280600581526020017f5a4947474900000000000000000000000000000000000000000000000000000081525081600390816100b99190610b87565b5080600490816100c99190610b87565b5050505f73ffffffffffffffffffffffffffffffffffffffff168173ffffffffffffffffffffffffffffffffffffffff160361013c575f6040517f1e4fbdf70000000000000000000000000000000000000000000000000000000081526004016101339190610c95565b60405180910390fd5b61014b8161023660201b60201c565b505f61015b6102f960201b60201c565b600a6101679190610e16565b620f42406101759190610e60565b9050610187338261030160201b60201c565b6064816101949190610ece565b600c8190555033600d60016101000a81548173ffffffffffffffffffffffffffffffffffffffff021916908373ffffffffffffffffffffffffffffffffffffffff160217905550600160075f3373ffffffffffffffffffffffffffffffffffffffff1673ffffffffffffffffffffffffffffffffffffffff1681526020019081526020015f205f6101000a81548160ff0219169083151502179055505061112f565b5f60055f9054906101000a900473ffffffffffffffffffffffffffffffffffffffff1690508160055f6101000a81548173ffffffffffffffffffffffffffffffffffffffff021916908373ffffffffffffffffffffffffffffffffffffffff1602179055508173ffffffffffffffffffffffffffffffffffffffff168173ffffffffffffffffffffffffffffffffffffffff167f8be0079c531659141344cd1fd0a4f28419497f9722a3daafe3b4186f6b6457e060405160405180910390a35050565b5f6012905090565b5f73ffffffffffffffffffffffffffffffffffffffff168273ffffffffffffffffffffffffffffffffffffffff1603610371575f6040517fec442f050000000000000000000000000000000000000000000000000000000081526004016103689190610c95565b60405180910390fd5b6103825f838361038660201b60201c565b5050565b60065f8473ffffffffffffffffffffffffffffffffffffffff1673ffffffffffffffffffffffffffffffffffffffff1681526020019081526020015f205f9054906101000a900460ff16158015610424575060065f8373ffffffffffffffffffffffffffffffffffffffff1673ffffffffffffffffffffffffffffffffffffffff1681526020019081526020015f205f9054906101000a900460ff16155b610463576040517f08c379a000000000000000000000000000000000000000000000000000000000815260040161045a90610f58565b60405180910390fd5b600d5f9054906101000a900460ff16806104c3575060075f8473ffffffffffffffffffffffffffffffffffffffff1673ffffffffffffffffffffffffffffffffffffffff1681526020019081526020015f205f9054906101000a900460ff165b610502576040517f08c379a00000000000000000000000000000000000000000000000000000000081526004016104f990610fc0565b60405180910390fd5b600c5481111580610559575060075f8473ffffffffffffffffffffffffffffffffffffffff1673ffffffffffffffffffffffffffffffffffffffff1681526020019081526020015f205f9054906101000a900460ff165b610598576040517f08c379a000000000000000000000000000000000000000000000000000000000815260040161058f9061104e565b60405180910390fd5b5f6064600854836105a99190610e60565b6105b39190610ece565b90505f6064600954846105c69190610e60565b6105d09190610ece565b90505f6064600a54856105e39190610e60565b6105ed9190610ece565b90505f6064600b54866106009190610e60565b61060a9190610ece565b90505f818385878961061c919061106c565b610626919061106c565b610630919061106c565b61063a919061106c565b90505f8511156106555761065488866106ac60201b60201c565b5b5f8311156106915761069088600d60019054906101000a900473ffffffffffffffffffffffffffffffffffffffff168561073160201b60201c565b5b6106a288888361073160201b60201c565b5050505050505050565b5f73ffffffffffffffffffffffffffffffffffffffff168273ffffffffffffffffffffffffffffffffffffffff160361071c575f6040517f96c6fd1e0000000000000000000000000000000000000000000000000000000081526004016107139190610c95565b60405180910390fd5b61072d825f8361038660201b60201c565b5050565b5f73ffffffffffffffffffffffffffffffffffffffff168373ffffffffffffffffffffffffffffffffffffffff1603610781578060025f828254610775919061109f565b9250508190555061084f565b5f5f5f8573ffffffffffffffffffffffffffffffffffffffff1673ffffffffffffffffffffffffffffffffffffffff1681526020019081526020015f205490508181101561080a578381836040517fe450d38c000000000000000000000000000000000000000000000000000000008152600401610801939291906110e1565b60405180910390fd5b8181035f5f8673ffffffffffffffffffffffffffffffffffffffff1673ffffffffffffffffffffffffffffffffffffffff1681526020019081526020015f2081905550505b5f73ffffffffffffffffffffffffffffffffffffffff168273ffffffffffffffffffffffffffffffffffffffff1603610896578060025f82825403925050819055506108e0565b805f5f8473ffffffffffffffffffffffffffffffffffffffff1673ffffffffffffffffffffffffffffffffffffffff1681526020019081526020015f205f82825401925050819055505b8173ffffffffffffffffffffffffffffffffffffffff168373ffffffffffffffffffffffffffffffffffffffff167fddf252ad1be2c89b69c2b068fc378daa952ba7f163c4a11628f55a4df523b3ef8360405161093d9190611116565b60405180910390a3505050565b5f81519050919050565b7f4e487b71000000000000000000000000000000000000000000000000000000005f52604160045260245ffd5b7f4e487b71000000000000000000000000000000000000000000000000000000005f52602260045260245ffd5b5f60028204905060018216806109c557607f821691505b6020821081036109d8576109d7610981565b5b50919050565b5f819050815f5260205f209050919050565b5f6020601f8301049050919050565b5f82821b905092915050565b5f60088302610a3a7fffffffffffffffffffffffffffffffffffffffffffffffffffffffffffffffff826109ff565b610a4486836109ff565b95508019841693508086168417925050509392505050565b5f819050919050565b5f819050919050565b5f610a88610a83610a7e84610a5c565b610a65565b610a5c565b9050919050565b5f819050919050565b610aa183610a6e565b610ab5610aad82610a8f565b848454610a0b565b825550505050565b5f5f905090565b610acc610abd565b610ad7818484610a98565b505050565b5b81811015610afa57610aef5f82610ac4565b600181019050610add565b5050565b601f821115610b3f57610b10816109de565b610b19846109f0565b81016020851015610b28578190505b610b3c610b34856109f0565b830182610adc565b50505b505050565b5f82821c905092915050565b5f610b5f5f1984600802610b44565b1980831691505092915050565b5f610b778383610b50565b9150826002028217905092915050565b610b908261094a565b67ffffffffffffffff811115610ba957610ba8610954565b5b610bb382546109ae565b610bbe828285610afe565b5f60209050601f831160018114610bef575f8415610bdd578287015190505b610be78582610b6c565b865550610c4e565b601f198416610bfd866109de565b5f5b82811015610c2457848901518255600182019150602085019450602081019050610bff565b86831015610c415784890151610c3d601f891682610b50565b8355505b6001600288020188555050505b505050505050565b5f73ffffffffffffffffffffffffffffffffffffffff82169050919050565b5f610c7f82610c56565b9050919050565b610c8f81610c75565b82525050565b5f602082019050610ca85f830184610c86565b92915050565b7f4e487b71000000000000000000000000000000000000000000000000000000005f52601160045260245ffd5b5f8160011c9050919050565b5f5f8291508390505b6001851115610d3057808604811115610d0c57610d0b610cae565b5b6001851615610d1b5780820291505b8081029050610d2985610cdb565b9450610cf0565b94509492505050565b5f82610d485760019050610e03565b81610d55575f9050610e03565b8160018114610d6b5760028114610d7557610da4565b6001915050610e03565b60ff841115610d8757610d86610cae565b5b8360020a915084821115610d9e57610d9d610cae565b5b50610e03565b5060208310610133831016604e8410600b8410161715610dd95782820a905083811115610dd457610dd3610cae565b5b610e03565b610de68484846001610ce7565b92509050818404811115610dfd57610dfc610cae565b5b81810290505b9392505050565b5f60ff82169050919050565b5f610e2082610a5c565b9150610e2b83610e0a565b9250610e587fffffffffffffffffffffffffffffffffffffffffffffffffffffffffffffffff8484610d39565b905092915050565b5f610e6a82610a5c565b9150610e7583610a5c565b9250828202610e8381610a5c565b91508282048414831517610e9a57610e99610cae565b5b5092915050565b7f4e487b71000000000000000000000000000000000000000000000000000000005f52601260045260245ffd5b5f610ed882610a5c565b9150610ee383610a5c565b925082610ef357610ef2610ea1565b5b828204905092915050565b5f82825260208201905092915050565b7f4164647265737320697320626c61636b6c6973746564000000000000000000005f82015250565b5f610f42601683610efe565b9150610f4d82610f0e565b602082019050919050565b5f6020820190508181035f830152610f6f81610f36565b9050919050565b7f54726164696e67206973206e6f7420656e61626c6564207965740000000000005f82015250565b5f610faa601a83610efe565b9150610fb582610f76565b602082019050919050565b5f6020820190508181035f830152610fd781610f9e565b9050919050565b7f5472616e7366657220616d6f756e742065786365656473206d6178206c696d695f8201527f7400000000000000000000000000000000000000000000000000000000000000602082015250565b5f611038602183610efe565b915061104382610fde565b604082019050919050565b5f6020820190508181035f8301526110658161102c565b9050919050565b5f61107682610a5c565b915061108183610a5c565b925082820390508181111561109957611098610cae565b5b92915050565b5f6110a982610a5c565b91506110b483610a5c565b92508282019050808211156110cc576110cb610cae565b5b92915050565b6110db81610a5c565b82525050565b5f6060820190506110f45f830186610c86565b61110160208301856110d2565b61110e60408301846110d2565b949350505050565b5f6020820190506111295f8301846110d2565b92915050565b611af28061113c5f395ff3fe608060405234801561000f575f5ffd5b5060043610610171575f3560e01c80638a8c523c116100dc57806398118cb411610095578063dd62ed3e1161006f578063dd62ed3e14610403578063ec28438a14610433578063f2fde38b1461044f578063fce589d81461046b57610171565b806398118cb414610399578063a9059cbb146103b7578063c0246668146103e757610171565b80638a8c523c146102f95780638b424267146103035780638c0b5e22146103215780638da5cb5b1461033f5780638ea5220f1461035d57806395d89b411461037b57610171565b8063313ce5671161012e578063313ce567146102495780634ada218b146102675780636827e764146102855780636fcba377146102a357806370a08231146102bf578063715018a6146102ef57610171565b806306fdde0314610175578063095ea7b314610193578063153b0d1e146101c357806318160ddd146101df5780631f53ac02146101fd57806323b872dd14610219575b5f5ffd5b61017d610489565b60405161018a9190611445565b60405180910390f35b6101ad60048036038101906101a891906114f6565b610519565b6040516101ba919061154e565b60405180910390f35b6101dd60048036038101906101d89190611591565b61053b565b005b6101e761059b565b6040516101f491906115de565b60405180910390f35b610217600480360381019061021291906115f7565b6105a4565b005b610233600480360381019061022e9190611622565b6105f0565b604051610240919061154e565b60405180910390f35b61025161061e565b60405161025e919061168d565b60405180910390f35b61026f610626565b60405161027c919061154e565b60405180910390f35b61028d610638565b60405161029a91906115de565b60405180910390f35b6102bd60048036038101906102b891906116a6565b61063e565b005b6102d960048036038101906102d491906115f7565b610668565b6040516102e691906115de565b60405180910390f35b6102f76106ad565b005b6103016106c0565b005b61030b6106e4565b60405161031891906115de565b60405180910390f35b6103296106ea565b60405161033691906115de565b60405180910390f35b6103476106f0565b6040516103549190611719565b60405180910390f35b610365610718565b6040516103729190611719565b60405180910390f35b61038361073e565b6040516103909190611445565b60405180910390f35b6103a16107ce565b6040516103ae91906115de565b60405180910390f35b6103d160048036038101906103cc91906114f6565b6107d4565b6040516103de919061154e565b60405180910390f35b61040160048036038101906103fc9190611591565b6107f6565b005b61041d60048036038101906104189190611732565b610856565b60405161042a91906115de565b60405180910390f35b61044d60048036038101906104489190611770565b6108d8565b005b610469600480360381019061046491906115f7565b6108ea565b005b61047361096e565b60405161048091906115de565b60405180910390f35b606060038054610498906117c8565b80601f01602080910402602001604051908101604052809291908181526020018280546104c4906117c8565b801561050f5780601f106104e65761010080835404028352916020019161050f565b820191905f5260205f20905b8154815290600101906020018083116104f257829003601f168201915b5050505050905090565b5f5f610523610974565b905061053081858561097b565b600191505092915050565b61054361098d565b8060065f8473ffffffffffffffffffffffffffffffffffffffff1673ffffffffffffffffffffffffffffffffffffffff1681526020019081526020015f205f6101000a81548160ff0219169083151502179055505050565b5f600254905090565b6105ac61098d565b80600d60016101000a81548173ffffffffffffffffffffffffffffffffffffffff021916908373ffffffffffffffffffffffffffffffffffffffff16021790555050565b5f5f6105fa610974565b9050610607858285610a14565b610612858585610aa7565b60019150509392505050565b5f6012905090565b600d5f9054906101000a900460ff1681565b600a5481565b61064661098d565b836008819055508260098190555081600a8190555080600b8190555050505050565b5f5f5f8373ffffffffffffffffffffffffffffffffffffffff1673ffffffffffffffffffffffffffffffffffffffff1681526020019081526020015f20549050919050565b6106b561098d565b6106be5f610b97565b565b6106c861098d565b6001600d5f6101000a81548160ff021916908315150217905550565b60095481565b600c5481565b5f60055f9054906101000a900473ffffffffffffffffffffffffffffffffffffffff16905090565b600d60019054906101000a900473ffffffffffffffffffffffffffffffffffffffff1681565b60606004805461074d906117c8565b80601f0160208091040260200160405190810160405280929190818152602001828054610779906117c8565b80156107c45780601f1061079b576101008083540402835291602001916107c4565b820191905f5260205f20905b8154815290600101906020018083116107a757829003601f168201915b5050505050905090565b600b5481565b5f5f6107de610974565b90506107eb818585610aa7565b600191505092915050565b6107fe61098d565b8060075f8473ffffffffffffffffffffffffffffffffffffffff1673ffffffffffffffffffffffffffffffffffffffff1681526020019081526020015f205f6101000a81548160ff0219169083151502179055505050565b5f60015f8473ffffffffffffffffffffffffffffffffffffffff1673ffffffffffffffffffffffffffffffffffffffff1681526020019081526020015f205f8373ffffffffffffffffffffffffffffffffffffffff1673ffffffffffffffffffffffffffffffffffffffff1681526020019081526020015f2054905092915050565b6108e061098d565b80600c8190555050565b6108f261098d565b5f73ffffffffffffffffffffffffffffffffffffffff168173ffffffffffffffffffffffffffffffffffffffff1603610962575f6040517f1e4fbdf70000000000000000000000000000000000000000000000000000000081526004016109599190611719565b60405180910390fd5b61096b81610b97565b50565b60085481565b5f33905090565b6109888383836001610c5a565b505050565b610995610974565b73ffffffffffffffffffffffffffffffffffffffff166109b36106f0565b73ffffffffffffffffffffffffffffffffffffffff1614610a12576109d6610974565b6040517f118cdaa7000000000000000000000000000000000000000000000000000000008152600401610a099190611719565b60405180910390fd5b565b5f610a1f8484610856565b90507fffffffffffffffffffffffffffffffffffffffffffffffffffffffffffffffff811015610aa15781811015610a92578281836040517ffb8f41b2000000000000000000000000000000000000000000000000000000008152600401610a89939291906117f8565b60405180910390fd5b610aa084848484035f610c5a565b5b50505050565b5f73ffffffffffffffffffffffffffffffffffffffff168373ffffffffffffffffffffffffffffffffffffffff1603610b17575f6040517f96c6fd1e000000000000000000000000000000000000000000000000000000008152600401610b0e9190611719565b60405180910390fd5b5f73ffffffffffffffffffffffffffffffffffffffff168273ffffffffffffffffffffffffffffffffffffffff1603610b87575f6040517fec442f05000000000000000000000000000000000000000000000000000000008152600401610b7e9190611719565b60405180910390fd5b610b92838383610e29565b505050565b5f60055f9054906101000a900473ffffffffffffffffffffffffffffffffffffffff1690508160055f6101000a81548173ffffffffffffffffffffffffffffffffffffffff021916908373ffffffffffffffffffffffffffffffffffffffff1602179055508173ffffffffffffffffffffffffffffffffffffffff168173ffffffffffffffffffffffffffffffffffffffff167f8be0079c531659141344cd1fd0a4f28419497f9722a3daafe3b4186f6b6457e060405160405180910390a35050565b5f73ffffffffffffffffffffffffffffffffffffffff168473ffffffffffffffffffffffffffffffffffffffff1603610cca575f6040517fe602df05000000000000000000000000000000000000000000000000000000008152600401610cc19190611719565b60405180910390fd5b5f73ffffffffffffffffffffffffffffffffffffffff168373ffffffffffffffffffffffffffffffffffffffff1603610d3a575f6040517f94280d62000000000000000000000000000000000000000000000000000000008152600401610d319190611719565b60405180910390fd5b8160015f8673ffffffffffffffffffffffffffffffffffffffff1673ffffffffffffffffffffffffffffffffffffffff1681526020019081526020015f205f8573ffffffffffffffffffffffffffffffffffffffff1673ffffffffffffffffffffffffffffffffffffffff1681526020019081526020015f20819055508015610e23578273ffffffffffffffffffffffffffffffffffffffff168473ffffffffffffffffffffffffffffffffffffffff167f8c5be1e5ebec7d5bd14f71427d1e84f3dd0314c0f7b2291e5b200ac8c7c3b92584604051610e1a91906115de565b60405180910390a35b50505050565b60065f8473ffffffffffffffffffffffffffffffffffffffff1673ffffffffffffffffffffffffffffffffffffffff1681526020019081526020015f205f9054906101000a900460ff16158015610ec7575060065f8373ffffffffffffffffffffffffffffffffffffffff1673ffffffffffffffffffffffffffffffffffffffff1681526020019081526020015f205f9054906101000a900460ff16155b610f06576040517f08c379a0000000000000000000000000000000000000000000000000000000008152600401610efd90611877565b60405180910390fd5b600d5f9054906101000a900460ff1680610f66575060075f8473ffffffffffffffffffffffffffffffffffffffff1673ffffffffffffffffffffffffffffffffffffffff1681526020019081526020015f205f9054906101000a900460ff165b610fa5576040517f08c379a0000000000000000000000000000000000000000000000000000000008152600401610f9c906118df565b60405180910390fd5b600c5481111580610ffc575060075f8473ffffffffffffffffffffffffffffffffffffffff1673ffffffffffffffffffffffffffffffffffffffff1681526020019081526020015f205f9054906101000a900460ff165b61103b576040517f08c379a00000000000000000000000000000000000000000000000000000000081526004016110329061196d565b60405180910390fd5b5f60646008548361104c91906119b8565b6110569190611a26565b90505f60646009548461106991906119b8565b6110739190611a26565b90505f6064600a548561108691906119b8565b6110909190611a26565b90505f6064600b54866110a391906119b8565b6110ad9190611a26565b90505f81838587896110bf9190611a56565b6110c99190611a56565b6110d39190611a56565b6110dd9190611a56565b90505f8511156110f2576110f1888661113d565b5b5f8311156111285761112788600d60019054906101000a900473ffffffffffffffffffffffffffffffffffffffff16856111bc565b5b6111338888836111bc565b5050505050505050565b5f73ffffffffffffffffffffffffffffffffffffffff168273ffffffffffffffffffffffffffffffffffffffff16036111ad575f6040517f96c6fd1e0000000000000000000000000000000000000000000000000000000081526004016111a49190611719565b60405180910390fd5b6111b8825f83610e29565b5050565b5f73ffffffffffffffffffffffffffffffffffffffff168373ffffffffffffffffffffffffffffffffffffffff160361120c578060025f8282546112009190611a89565b925050819055506112da565b5f5f5f8573ffffffffffffffffffffffffffffffffffffffff1673ffffffffffffffffffffffffffffffffffffffff1681526020019081526020015f2054905081811015611295578381836040517fe450d38c00000000000000000000000000000000000000000000000000000000815260040161128c939291906117f8565b60405180910390fd5b8181035f5f8673ffffffffffffffffffffffffffffffffffffffff1673ffffffffffffffffffffffffffffffffffffffff1681526020019081526020015f2081905550505b5f73ffffffffffffffffffffffffffffffffffffffff168273ffffffffffffffffffffffffffffffffffffffff1603611321578060025f828254039250508190555061136b565b805f5f8473ffffffffffffffffffffffffffffffffffffffff1673ffffffffffffffffffffffffffffffffffffffff1681526020019081526020015f205f82825401925050819055505b8173ffffffffffffffffffffffffffffffffffffffff168373ffffffffffffffffffffffffffffffffffffffff167fddf252ad1be2c89b69c2b068fc378daa952ba7f163c4a11628f55a4df523b3ef836040516113c891906115de565b60405180910390a3505050565b5f81519050919050565b5f82825260208201905092915050565b8281835e5f83830152505050565b5f601f19601f8301169050919050565b5f611417826113d5565b61142181856113df565b93506114318185602086016113ef565b61143a816113fd565b840191505092915050565b5f6020820190508181035f83015261145d818461140d565b905092915050565b5f5ffd5b5f73ffffffffffffffffffffffffffffffffffffffff82169050919050565b5f61149282611469565b9050919050565b6114a281611488565b81146114ac575f5ffd5b50565b5f813590506114bd81611499565b92915050565b5f819050919050565b6114d5816114c3565b81146114df575f5ffd5b50565b5f813590506114f0816114cc565b92915050565b5f5f6040838503121561150c5761150b611465565b5b5f611519858286016114af565b925050602061152a858286016114e2565b9150509250929050565b5f8115159050919050565b61154881611534565b82525050565b5f6020820190506115615f83018461153f565b92915050565b61157081611534565b811461157a575f5ffd5b50565b5f8135905061158b81611567565b92915050565b5f5f604083850312156115a7576115a6611465565b5b5f6115b4858286016114af565b92505060206115c58582860161157d565b9150509250929050565b6115d8816114c3565b82525050565b5f6020820190506115f15f8301846115cf565b92915050565b5f6020828403121561160c5761160b611465565b5b5f611619848285016114af565b91505092915050565b5f5f5f6060848603121561163957611638611465565b5b5f611646868287016114af565b9350506020611657868287016114af565b9250506040611668868287016114e2565b9150509250925092565b5f60ff82169050919050565b61168781611672565b82525050565b5f6020820190506116a05f83018461167e565b92915050565b5f5f5f5f608085870312156116be576116bd611465565b5b5f6116cb878288016114e2565b94505060206116dc878288016114e2565b93505060406116ed878288016114e2565b92505060606116fe878288016114e2565b91505092959194509250565b61171381611488565b82525050565b5f60208201905061172c5f83018461170a565b92915050565b5f5f6040838503121561174857611747611465565b5b5f611755858286016114af565b9250506020611766858286016114af565b9150509250929050565b5f6020828403121561178557611784611465565b5b5f611792848285016114e2565b91505092915050565b7f4e487b71000000000000000000000000000000000000000000000000000000005f52602260045260245ffd5b5f60028204905060018216806117df57607f821691505b6020821081036117f2576117f161179b565b5b50919050565b5f60608201905061180b5f83018661170a565b61181860208301856115cf565b61182560408301846115cf565b949350505050565b7f4164647265737320697320626c61636b6c6973746564000000000000000000005f82015250565b5f6118616016836113df565b915061186c8261182d565b602082019050919050565b5f6020820190508181035f83015261188e81611855565b9050919050565b7f54726164696e67206973206e6f7420656e61626c6564207965740000000000005f82015250565b5f6118c9601a836113df565b91506118d482611895565b602082019050919050565b5f6020820190508181035f8301526118f6816118bd565b9050919050565b7f5472616e7366657220616d6f756e742065786365656473206d6178206c696d695f8201527f7400000000000000000000000000000000000000000000000000000000000000602082015250565b5f6119576021836113df565b9150611962826118fd565b604082019050919050565b5f6020820190508181035f8301526119848161194b565b9050919050565b7f4e487b71000000000000000000000000000000000000000000000000000000005f52601160045260245ffd5b5f6119c2826114c3565b91506119cd836114c3565b92508282026119db816114c3565b915082820484148315176119f2576119f161198b565b5b5092915050565b7f4e487b71000000000000000000000000000000000000000000000000000000005f52601260045260245ffd5b5f611a30826114c3565b9150611a3b836114c3565b925082611a4b57611a4a6119f9565b5b828204905092915050565b5f611a60826114c3565b9150611a6b836114c3565b9250828203905081811115611a8357611a8261198b565b5b92915050565b5f611a93826114c3565b9150611a9e836114c3565b9250828201905080821115611ab657611ab561198b565b5b9291505056fea2646970667358221220428ea7b1b63950a0af2da46aa2aedd0b45103a17d7a263ca42c181104577a16164736f6c634300081d0033",
		"opcodes": "PUSH1 0x80 PUSH1 0x40 MSTORE PUSH1 0x2 PUSH1 0x8 SSTORE PUSH1 0x1 PUSH1 0x9 SSTORE PUSH1 0x1 PUSH1 0xA SSTORE PUSH1 0x5 PUSH1 0xB SSTORE PUSH0 PUSH1 0xD PUSH0 PUSH2 0x100 EXP DUP2 SLOAD DUP2 PUSH1 0xFF MUL NOT AND SWAP1 DUP4 ISZERO ISZERO MUL OR SWAP1 SSTORE POP CALLVALUE DUP1 ISZERO PUSH2 0x3C JUMPI PUSH0 PUSH0 REVERT JUMPDEST POP CALLER PUSH1 0x40 MLOAD DUP1 PUSH1 0x40 ADD PUSH1 0x40 MSTORE DUP1 PUSH1 0x5 DUP2 MSTORE PUSH1 0x20 ADD PUSH32 0x5A69676769000000000000000000000000000000000000000000000000000000 DUP2 MSTORE POP PUSH1 0x40 MLOAD DUP1 PUSH1 0x40 ADD PUSH1 0x40 MSTORE DUP1 PUSH1 0x5 DUP2 MSTORE PUSH1 0x20 ADD PUSH32 0x5A49474749000000000000000000000000000000000000000000000000000000 DUP2 MSTORE POP DUP2 PUSH1 0x3 SWAP1 DUP2 PUSH2 0xB9 SWAP2 SWAP1 PUSH2 0xB87 JUMP JUMPDEST POP DUP1 PUSH1 0x4 SWAP1 DUP2 PUSH2 0xC9 SWAP2 SWAP1 PUSH2 0xB87 JUMP JUMPDEST POP POP POP PUSH0 PUSH20 0xFFFFFFFFFFFFFFFFFFFFFFFFFFFFFFFFFFFFFFFF AND DUP2 PUSH20 0xFFFFFFFFFFFFFFFFFFFFFFFFFFFFFFFFFFFFFFFF AND SUB PUSH2 0x13C JUMPI PUSH0 PUSH1 0x40 MLOAD PUSH32 0x1E4FBDF700000000000000000000000000000000000000000000000000000000 DUP2 MSTORE PUSH1 0x4 ADD PUSH2 0x133 SWAP2 SWAP1 PUSH2 0xC95 JUMP JUMPDEST PUSH1 0x40 MLOAD DUP1 SWAP2 SUB SWAP1 REVERT JUMPDEST PUSH2 0x14B DUP2 PUSH2 0x236 PUSH1 0x20 SHL PUSH1 0x20 SHR JUMP JUMPDEST POP PUSH0 PUSH2 0x15B PUSH2 0x2F9 PUSH1 0x20 SHL PUSH1 0x20 SHR JUMP JUMPDEST PUSH1 0xA PUSH2 0x167 SWAP2 SWAP1 PUSH2 0xE16 JUMP JUMPDEST PUSH3 0xF4240 PUSH2 0x175 SWAP2 SWAP1 PUSH2 0xE60 JUMP JUMPDEST SWAP1 POP PUSH2 0x187 CALLER DUP3 PUSH2 0x301 PUSH1 0x20 SHL PUSH1 0x20 SHR JUMP JUMPDEST PUSH1 0x64 DUP2 PUSH2 0x194 SWAP2 SWAP1 PUSH2 0xECE JUMP JUMPDEST PUSH1 0xC DUP2 SWAP1 SSTORE POP CALLER PUSH1 0xD PUSH1 0x1 PUSH2 0x100 EXP DUP2 SLOAD DUP2 PUSH20 0xFFFFFFFFFFFFFFFFFFFFFFFFFFFFFFFFFFFFFFFF MUL NOT AND SWAP1 DUP4 PUSH20 0xFFFFFFFFFFFFFFFFFFFFFFFFFFFFFFFFFFFFFFFF AND MUL OR SWAP1 SSTORE POP PUSH1 0x1 PUSH1 0x7 PUSH0 CALLER PUSH20 0xFFFFFFFFFFFFFFFFFFFFFFFFFFFFFFFFFFFFFFFF AND PUSH20 0xFFFFFFFFFFFFFFFFFFFFFFFFFFFFFFFFFFFFFFFF AND DUP2 MSTORE PUSH1 0x20 ADD SWAP1 DUP2 MSTORE PUSH1 0x20 ADD PUSH0 KECCAK256 PUSH0 PUSH2 0x100 EXP DUP2 SLOAD DUP2 PUSH1 0xFF MUL NOT AND SWAP1 DUP4 ISZERO ISZERO MUL OR SWAP1 SSTORE POP POP PUSH2 0x112F JUMP JUMPDEST PUSH0 PUSH1 0x5 PUSH0 SWAP1 SLOAD SWAP1 PUSH2 0x100 EXP SWAP1 DIV PUSH20 0xFFFFFFFFFFFFFFFFFFFFFFFFFFFFFFFFFFFFFFFF AND SWAP1 POP DUP2 PUSH1 0x5 PUSH0 PUSH2 0x100 EXP DUP2 SLOAD DUP2 PUSH20 0xFFFFFFFFFFFFFFFFFFFFFFFFFFFFFFFFFFFFFFFF MUL NOT AND SWAP1 DUP4 PUSH20 0xFFFFFFFFFFFFFFFFFFFFFFFFFFFFFFFFFFFFFFFF AND MUL OR SWAP1 SSTORE POP DUP2 PUSH20 0xFFFFFFFFFFFFFFFFFFFFFFFFFFFFFFFFFFFFFFFF AND DUP2 PUSH20 0xFFFFFFFFFFFFFFFFFFFFFFFFFFFFFFFFFFFFFFFF AND PUSH32 0x8BE0079C531659141344CD1FD0A4F28419497F9722A3DAAFE3B4186F6B6457E0 PUSH1 0x40 MLOAD PUSH1 0x40 MLOAD DUP1 SWAP2 SUB SWAP1 LOG3 POP POP JUMP JUMPDEST PUSH0 PUSH1 0x12 SWAP1 POP SWAP1 JUMP JUMPDEST PUSH0 PUSH20 0xFFFFFFFFFFFFFFFFFFFFFFFFFFFFFFFFFFFFFFFF AND DUP3 PUSH20 0xFFFFFFFFFFFFFFFFFFFFFFFFFFFFFFFFFFFFFFFF AND SUB PUSH2 0x371 JUMPI PUSH0 PUSH1 0x40 MLOAD PUSH32 0xEC442F0500000000000000000000000000000000000000000000000000000000 DUP2 MSTORE PUSH1 0x4 ADD PUSH2 0x368 SWAP2 SWAP1 PUSH2 0xC95 JUMP JUMPDEST PUSH1 0x40 MLOAD DUP1 SWAP2 SUB SWAP1 REVERT JUMPDEST PUSH2 0x382 PUSH0 DUP4 DUP4 PUSH2 0x386 PUSH1 0x20 SHL PUSH1 0x20 SHR JUMP JUMPDEST POP POP JUMP JUMPDEST PUSH1 0x6 PUSH0 DUP5 PUSH20 0xFFFFFFFFFFFFFFFFFFFFFFFFFFFFFFFFFFFFFFFF AND PUSH20 0xFFFFFFFFFFFFFFFFFFFFFFFFFFFFFFFFFFFFFFFF AND DUP2 MSTORE PUSH1 0x20 ADD SWAP1 DUP2 MSTORE PUSH1 0x20 ADD PUSH0 KECCAK256 PUSH0 SWAP1 SLOAD SWAP1 PUSH2 0x100 EXP SWAP1 DIV PUSH1 0xFF AND ISZERO DUP1 ISZERO PUSH2 0x424 JUMPI POP PUSH1 0x6 PUSH0 DUP4 PUSH20 0xFFFFFFFFFFFFFFFFFFFFFFFFFFFFFFFFFFFFFFFF AND PUSH20 0xFFFFFFFFFFFFFFFFFFFFFFFFFFFFFFFFFFFFFFFF AND DUP2 MSTORE PUSH1 0x20 ADD SWAP1 DUP2 MSTORE PUSH1 0x20 ADD PUSH0 KECCAK256 PUSH0 SWAP1 SLOAD SWAP1 PUSH2 0x100 EXP SWAP1 DIV PUSH1 0xFF AND ISZERO JUMPDEST PUSH2 0x463 JUMPI PUSH1 0x40 MLOAD PUSH32 0x8C379A000000000000000000000000000000000000000000000000000000000 DUP2 MSTORE PUSH1 0x4 ADD PUSH2 0x45A SWAP1 PUSH2 0xF58 JUMP JUMPDEST PUSH1 0x40 MLOAD DUP1 SWAP2 SUB SWAP1 REVERT JUMPDEST PUSH1 0xD PUSH0 SWAP1 SLOAD SWAP1 PUSH2 0x100 EXP SWAP1 DIV PUSH1 0xFF AND DUP1 PUSH2 0x4C3 JUMPI POP PUSH1 0x7 PUSH0 DUP5 PUSH20 0xFFFFFFFFFFFFFFFFFFFFFFFFFFFFFFFFFFFFFFFF AND PUSH20 0xFFFFFFFFFFFFFFFFFFFFFFFFFFFFFFFFFFFFFFFF AND DUP2 MSTORE PUSH1 0x20 ADD SWAP1 DUP2 MSTORE PUSH1 0x20 ADD PUSH0 KECCAK256 PUSH0 SWAP1 SLOAD SWAP1 PUSH2 0x100 EXP SWAP1 DIV PUSH1 0xFF AND JUMPDEST PUSH2 0x502 JUMPI PUSH1 0x40 MLOAD PUSH32 0x8C379A000000000000000000000000000000000000000000000000000000000 DUP2 MSTORE PUSH1 0x4 ADD PUSH2 0x4F9 SWAP1 PUSH2 0xFC0 JUMP JUMPDEST PUSH1 0x40 MLOAD DUP1 SWAP2 SUB SWAP1 REVERT JUMPDEST PUSH1 0xC SLOAD DUP2 GT ISZERO DUP1 PUSH2 0x559 JUMPI POP PUSH1 0x7 PUSH0 DUP5 PUSH20 0xFFFFFFFFFFFFFFFFFFFFFFFFFFFFFFFFFFFFFFFF AND PUSH20 0xFFFFFFFFFFFFFFFFFFFFFFFFFFFFFFFFFFFFFFFF AND DUP2 MSTORE PUSH1 0x20 ADD SWAP1 DUP2 MSTORE PUSH1 0x20 ADD PUSH0 KECCAK256 PUSH0 SWAP1 SLOAD SWAP1 PUSH2 0x100 EXP SWAP1 DIV PUSH1 0xFF AND JUMPDEST PUSH2 0x598 JUMPI PUSH1 0x40 MLOAD PUSH32 0x8C379A000000000000000000000000000000000000000000000000000000000 DUP2 MSTORE PUSH1 0x4 ADD PUSH2 0x58F SWAP1 PUSH2 0x104E JUMP JUMPDEST PUSH1 0x40 MLOAD DUP1 SWAP2 SUB SWAP1 REVERT JUMPDEST PUSH0 PUSH1 0x64 PUSH1 0x8 SLOAD DUP4 PUSH2 0x5A9 SWAP2 SWAP1 PUSH2 0xE60 JUMP JUMPDEST PUSH2 0x5B3 SWAP2 SWAP1 PUSH2 0xECE JUMP JUMPDEST SWAP1 POP PUSH0 PUSH1 0x64 PUSH1 0x9 SLOAD DUP5 PUSH2 0x5C6 SWAP2 SWAP1 PUSH2 0xE60 JUMP JUMPDEST PUSH2 0x5D0 SWAP2 SWAP1 PUSH2 0xECE JUMP JUMPDEST SWAP1 POP PUSH0 PUSH1 0x64 PUSH1 0xA SLOAD DUP6 PUSH2 0x5E3 SWAP2 SWAP1 PUSH2 0xE60 JUMP JUMPDEST PUSH2 0x5ED SWAP2 SWAP1 PUSH2 0xECE JUMP JUMPDEST SWAP1 POP PUSH0 PUSH1 0x64 PUSH1 0xB SLOAD DUP7 PUSH2 0x600 SWAP2 SWAP1 PUSH2 0xE60 JUMP JUMPDEST PUSH2 0x60A SWAP2 SWAP1 PUSH2 0xECE JUMP JUMPDEST SWAP1 POP PUSH0 DUP2 DUP4 DUP6 DUP8 DUP10 PUSH2 0x61C SWAP2 SWAP1 PUSH2 0x106C JUMP JUMPDEST PUSH2 0x626 SWAP2 SWAP1 PUSH2 0x106C JUMP JUMPDEST PUSH2 0x630 SWAP2 SWAP1 PUSH2 0x106C JUMP JUMPDEST PUSH2 0x63A SWAP2 SWAP1 PUSH2 0x106C JUMP JUMPDEST SWAP1 POP PUSH0 DUP6 GT ISZERO PUSH2 0x655 JUMPI PUSH2 0x654 DUP9 DUP7 PUSH2 0x6AC PUSH1 0x20 SHL PUSH1 0x20 SHR JUMP JUMPDEST JUMPDEST PUSH0 DUP4 GT ISZERO PUSH2 0x691 JUMPI PUSH2 0x690 DUP9 PUSH1 0xD PUSH1 0x1 SWAP1 SLOAD SWAP1 PUSH2 0x100 EXP SWAP1 DIV PUSH20 0xFFFFFFFFFFFFFFFFFFFFFFFFFFFFFFFFFFFFFFFF AND DUP6 PUSH2 0x731 PUSH1 0x20 SHL PUSH1 0x20 SHR JUMP JUMPDEST JUMPDEST PUSH2 0x6A2 DUP9 DUP9 DUP4 PUSH2 0x731 PUSH1 0x20 SHL PUSH1 0x20 SHR JUMP JUMPDEST POP POP POP POP POP POP POP POP JUMP JUMPDEST PUSH0 PUSH20 0xFFFFFFFFFFFFFFFFFFFFFFFFFFFFFFFFFFFFFFFF AND DUP3 PUSH20 0xFFFFFFFFFFFFFFFFFFFFFFFFFFFFFFFFFFFFFFFF AND SUB PUSH2 0x71C JUMPI PUSH0 PUSH1 0x40 MLOAD PUSH32 0x96C6FD1E00000000000000000000000000000000000000000000000000000000 DUP2 MSTORE PUSH1 0x4 ADD PUSH2 0x713 SWAP2 SWAP1 PUSH2 0xC95 JUMP JUMPDEST PUSH1 0x40 MLOAD DUP1 SWAP2 SUB SWAP1 REVERT JUMPDEST PUSH2 0x72D DUP3 PUSH0 DUP4 PUSH2 0x386 PUSH1 0x20 SHL PUSH1 0x20 SHR JUMP JUMPDEST POP POP JUMP JUMPDEST PUSH0 PUSH20 0xFFFFFFFFFFFFFFFFFFFFFFFFFFFFFFFFFFFFFFFF AND DUP4 PUSH20 0xFFFFFFFFFFFFFFFFFFFFFFFFFFFFFFFFFFFFFFFF AND SUB PUSH2 0x781 JUMPI DUP1 PUSH1 0x2 PUSH0 DUP3 DUP3 SLOAD PUSH2 0x775 SWAP2 SWAP1 PUSH2 0x109F JUMP JUMPDEST SWAP3 POP POP DUP2 SWAP1 SSTORE POP PUSH2 0x84F JUMP JUMPDEST PUSH0 PUSH0 PUSH0 DUP6 PUSH20 0xFFFFFFFFFFFFFFFFFFFFFFFFFFFFFFFFFFFFFFFF AND PUSH20 0xFFFFFFFFFFFFFFFFFFFFFFFFFFFFFFFFFFFFFFFF AND DUP2 MSTORE PUSH1 0x20 ADD SWAP1 DUP2 MSTORE PUSH1 0x20 ADD PUSH0 KECCAK256 SLOAD SWAP1 POP DUP2 DUP2 LT ISZERO PUSH2 0x80A JUMPI DUP4 DUP2 DUP4 PUSH1 0x40 MLOAD PUSH32 0xE450D38C00000000000000000000000000000000000000000000000000000000 DUP2 MSTORE PUSH1 0x4 ADD PUSH2 0x801 SWAP4 SWAP3 SWAP2 SWAP1 PUSH2 0x10E1 JUMP JUMPDEST PUSH1 0x40 MLOAD DUP1 SWAP2 SUB SWAP1 REVERT JUMPDEST DUP2 DUP2 SUB PUSH0 PUSH0 DUP7 PUSH20 0xFFFFFFFFFFFFFFFFFFFFFFFFFFFFFFFFFFFFFFFF AND PUSH20 0xFFFFFFFFFFFFFFFFFFFFFFFFFFFFFFFFFFFFFFFF AND DUP2 MSTORE PUSH1 0x20 ADD SWAP1 DUP2 MSTORE PUSH1 0x20 ADD PUSH0 KECCAK256 DUP2 SWAP1 SSTORE POP POP JUMPDEST PUSH0 PUSH20 0xFFFFFFFFFFFFFFFFFFFFFFFFFFFFFFFFFFFFFFFF AND DUP3 PUSH20 0xFFFFFFFFFFFFFFFFFFFFFFFFFFFFFFFFFFFFFFFF AND SUB PUSH2 0x896 JUMPI DUP1 PUSH1 0x2 PUSH0 DUP3 DUP3 SLOAD SUB SWAP3 POP POP DUP2 SWAP1 SSTORE POP PUSH2 0x8E0 JUMP JUMPDEST DUP1 PUSH0 PUSH0 DUP5 PUSH20 0xFFFFFFFFFFFFFFFFFFFFFFFFFFFFFFFFFFFFFFFF AND PUSH20 0xFFFFFFFFFFFFFFFFFFFFFFFFFFFFFFFFFFFFFFFF AND DUP2 MSTORE PUSH1 0x20 ADD SWAP1 DUP2 MSTORE PUSH1 0x20 ADD PUSH0 KECCAK256 PUSH0 DUP3 DUP3 SLOAD ADD SWAP3 POP POP DUP2 SWAP1 SSTORE POP JUMPDEST DUP2 PUSH20 0xFFFFFFFFFFFFFFFFFFFFFFFFFFFFFFFFFFFFFFFF AND DUP4 PUSH20 0xFFFFFFFFFFFFFFFFFFFFFFFFFFFFFFFFFFFFFFFF AND PUSH32 0xDDF252AD1BE2C89B69C2B068FC378DAA952BA7F163C4A11628F55A4DF523B3EF DUP4 PUSH1 0x40 MLOAD PUSH2 0x93D SWAP2 SWAP1 PUSH2 0x1116 JUMP JUMPDEST PUSH1 0x40 MLOAD DUP1 SWAP2 SUB SWAP1 LOG3 POP POP POP JUMP JUMPDEST PUSH0 DUP2 MLOAD SWAP1 POP SWAP2 SWAP1 POP JUMP JUMPDEST PUSH32 0x4E487B7100000000000000000000000000000000000000000000000000000000 PUSH0 MSTORE PUSH1 0x41 PUSH1 0x4 MSTORE PUSH1 0x24 PUSH0 REVERT JUMPDEST PUSH32 0x4E487B7100000000000000000000000000000000000000000000000000000000 PUSH0 MSTORE PUSH1 0x22 PUSH1 0x4 MSTORE PUSH1 0x24 PUSH0 REVERT JUMPDEST PUSH0 PUSH1 0x2 DUP3 DIV SWAP1 POP PUSH1 0x1 DUP3 AND DUP1 PUSH2 0x9C5 JUMPI PUSH1 0x7F DUP3 AND SWAP2 POP JUMPDEST PUSH1 0x20 DUP3 LT DUP2 SUB PUSH2 0x9D8 JUMPI PUSH2 0x9D7 PUSH2 0x981 JUMP JUMPDEST JUMPDEST POP SWAP2 SWAP1 POP JUMP JUMPDEST PUSH0 DUP2 SWAP1 POP DUP2 PUSH0 MSTORE PUSH1 0x20 PUSH0 KECCAK256 SWAP1 POP SWAP2 SWAP1 POP JUMP JUMPDEST PUSH0 PUSH1 0x20 PUSH1 0x1F DUP4 ADD DIV SWAP1 POP SWAP2 SWAP1 POP JUMP JUMPDEST PUSH0 DUP3 DUP3 SHL SWAP1 POP SWAP3 SWAP2 POP POP JUMP JUMPDEST PUSH0 PUSH1 0x8 DUP4 MUL PUSH2 0xA3A PUSH32 0xFFFFFFFFFFFFFFFFFFFFFFFFFFFFFFFFFFFFFFFFFFFFFFFFFFFFFFFFFFFFFFFF DUP3 PUSH2 0x9FF JUMP JUMPDEST PUSH2 0xA44 DUP7 DUP4 PUSH2 0x9FF JUMP JUMPDEST SWAP6 POP DUP1 NOT DUP5 AND SWAP4 POP DUP1 DUP7 AND DUP5 OR SWAP3 POP POP POP SWAP4 SWAP3 POP POP POP JUMP JUMPDEST PUSH0 DUP2 SWAP1 POP SWAP2 SWAP1 POP JUMP JUMPDEST PUSH0 DUP2 SWAP1 POP SWAP2 SWAP1 POP JUMP JUMPDEST PUSH0 PUSH2 0xA88 PUSH2 0xA83 PUSH2 0xA7E DUP5 PUSH2 0xA5C JUMP JUMPDEST PUSH2 0xA65 JUMP JUMPDEST PUSH2 0xA5C JUMP JUMPDEST SWAP1 POP SWAP2 SWAP1 POP JUMP JUMPDEST PUSH0 DUP2 SWAP1 POP SWAP2 SWAP1 POP JUMP JUMPDEST PUSH2 0xAA1 DUP4 PUSH2 0xA6E JUMP JUMPDEST PUSH2 0xAB5 PUSH2 0xAAD DUP3 PUSH2 0xA8F JUMP JUMPDEST DUP5 DUP5 SLOAD PUSH2 0xA0B JUMP JUMPDEST DUP3 SSTORE POP POP POP POP JUMP JUMPDEST PUSH0 PUSH0 SWAP1 POP SWAP1 JUMP JUMPDEST PUSH2 0xACC PUSH2 0xABD JUMP JUMPDEST PUSH2 0xAD7 DUP2 DUP5 DUP5 PUSH2 0xA98 JUMP JUMPDEST POP POP POP JUMP JUMPDEST JUMPDEST DUP2 DUP2 LT ISZERO PUSH2 0xAFA JUMPI PUSH2 0xAEF PUSH0 DUP3 PUSH2 0xAC4 JUMP JUMPDEST PUSH1 0x1 DUP2 ADD SWAP1 POP PUSH2 0xADD JUMP JUMPDEST POP POP JUMP JUMPDEST PUSH1 0x1F DUP3 GT ISZERO PUSH2 0xB3F JUMPI PUSH2 0xB10 DUP2 PUSH2 0x9DE JUMP JUMPDEST PUSH2 0xB19 DUP5 PUSH2 0x9F0 JUMP JUMPDEST DUP2 ADD PUSH1 0x20 DUP6 LT ISZERO PUSH2 0xB28 JUMPI DUP2 SWAP1 POP JUMPDEST PUSH2 0xB3C PUSH2 0xB34 DUP6 PUSH2 0x9F0 JUMP JUMPDEST DUP4 ADD DUP3 PUSH2 0xADC JUMP JUMPDEST POP POP JUMPDEST POP POP POP JUMP JUMPDEST PUSH0 DUP3 DUP3 SHR SWAP1 POP SWAP3 SWAP2 POP POP JUMP JUMPDEST PUSH0 PUSH2 0xB5F PUSH0 NOT DUP5 PUSH1 0x8 MUL PUSH2 0xB44 JUMP JUMPDEST NOT DUP1 DUP4 AND SWAP2 POP POP SWAP3 SWAP2 POP POP JUMP JUMPDEST PUSH0 PUSH2 0xB77 DUP4 DUP4 PUSH2 0xB50 JUMP JUMPDEST SWAP2 POP DUP3 PUSH1 0x2 MUL DUP3 OR SWAP1 POP SWAP3 SWAP2 POP POP JUMP JUMPDEST PUSH2 0xB90 DUP3 PUSH2 0x94A JUMP JUMPDEST PUSH8 0xFFFFFFFFFFFFFFFF DUP2 GT ISZERO PUSH2 0xBA9 JUMPI PUSH2 0xBA8 PUSH2 0x954 JUMP JUMPDEST JUMPDEST PUSH2 0xBB3 DUP3 SLOAD PUSH2 0x9AE JUMP JUMPDEST PUSH2 0xBBE DUP3 DUP3 DUP6 PUSH2 0xAFE JUMP JUMPDEST PUSH0 PUSH1 0x20 SWAP1 POP PUSH1 0x1F DUP4 GT PUSH1 0x1 DUP2 EQ PUSH2 0xBEF JUMPI PUSH0 DUP5 ISZERO PUSH2 0xBDD JUMPI DUP3 DUP8 ADD MLOAD SWAP1 POP JUMPDEST PUSH2 0xBE7 DUP6 DUP3 PUSH2 0xB6C JUMP JUMPDEST DUP7 SSTORE POP PUSH2 0xC4E JUMP JUMPDEST PUSH1 0x1F NOT DUP5 AND PUSH2 0xBFD DUP7 PUSH2 0x9DE JUMP JUMPDEST PUSH0 JUMPDEST DUP3 DUP2 LT ISZERO PUSH2 0xC24 JUMPI DUP5 DUP10 ADD MLOAD DUP3 SSTORE PUSH1 0x1 DUP3 ADD SWAP2 POP PUSH1 0x20 DUP6 ADD SWAP5 POP PUSH1 0x20 DUP2 ADD SWAP1 POP PUSH2 0xBFF JUMP JUMPDEST DUP7 DUP4 LT ISZERO PUSH2 0xC41 JUMPI DUP5 DUP10 ADD MLOAD PUSH2 0xC3D PUSH1 0x1F DUP10 AND DUP3 PUSH2 0xB50 JUMP JUMPDEST DUP4 SSTORE POP JUMPDEST PUSH1 0x1 PUSH1 0x2 DUP9 MUL ADD DUP9 SSTORE POP POP POP JUMPDEST POP POP POP POP POP POP JUMP JUMPDEST PUSH0 PUSH20 0xFFFFFFFFFFFFFFFFFFFFFFFFFFFFFFFFFFFFFFFF DUP3 AND SWAP1 POP SWAP2 SWAP1 POP JUMP JUMPDEST PUSH0 PUSH2 0xC7F DUP3 PUSH2 0xC56 JUMP JUMPDEST SWAP1 POP SWAP2 SWAP1 POP JUMP JUMPDEST PUSH2 0xC8F DUP2 PUSH2 0xC75 JUMP JUMPDEST DUP3 MSTORE POP POP JUMP JUMPDEST PUSH0 PUSH1 0x20 DUP3 ADD SWAP1 POP PUSH2 0xCA8 PUSH0 DUP4 ADD DUP5 PUSH2 0xC86 JUMP JUMPDEST SWAP3 SWAP2 POP POP JUMP JUMPDEST PUSH32 0x4E487B7100000000000000000000000000000000000000000000000000000000 PUSH0 MSTORE PUSH1 0x11 PUSH1 0x4 MSTORE PUSH1 0x24 PUSH0 REVERT JUMPDEST PUSH0 DUP2 PUSH1 0x1 SHR SWAP1 POP SWAP2 SWAP1 POP JUMP JUMPDEST PUSH0 PUSH0 DUP3 SWAP2 POP DUP4 SWAP1 POP JUMPDEST PUSH1 0x1 DUP6 GT ISZERO PUSH2 0xD30 JUMPI DUP1 DUP7 DIV DUP2 GT ISZERO PUSH2 0xD0C JUMPI PUSH2 0xD0B PUSH2 0xCAE JUMP JUMPDEST JUMPDEST PUSH1 0x1 DUP6 AND ISZERO PUSH2 0xD1B JUMPI DUP1 DUP3 MUL SWAP2 POP JUMPDEST DUP1 DUP2 MUL SWAP1 POP PUSH2 0xD29 DUP6 PUSH2 0xCDB JUMP JUMPDEST SWAP5 POP PUSH2 0xCF0 JUMP JUMPDEST SWAP5 POP SWAP5 SWAP3 POP POP POP JUMP JUMPDEST PUSH0 DUP3 PUSH2 0xD48 JUMPI PUSH1 0x1 SWAP1 POP PUSH2 0xE03 JUMP JUMPDEST DUP2 PUSH2 0xD55 JUMPI PUSH0 SWAP1 POP PUSH2 0xE03 JUMP JUMPDEST DUP2 PUSH1 0x1 DUP2 EQ PUSH2 0xD6B JUMPI PUSH1 0x2 DUP2 EQ PUSH2 0xD75 JUMPI PUSH2 0xDA4 JUMP JUMPDEST PUSH1 0x1 SWAP2 POP POP PUSH2 0xE03 JUMP JUMPDEST PUSH1 0xFF DUP5 GT ISZERO PUSH2 0xD87 JUMPI PUSH2 0xD86 PUSH2 0xCAE JUMP JUMPDEST JUMPDEST DUP4 PUSH1 0x2 EXP SWAP2 POP DUP5 DUP3 GT ISZERO PUSH2 0xD9E JUMPI PUSH2 0xD9D PUSH2 0xCAE JUMP JUMPDEST JUMPDEST POP PUSH2 0xE03 JUMP JUMPDEST POP PUSH1 0x20 DUP4 LT PUSH2 0x133 DUP4 LT AND PUSH1 0x4E DUP5 LT PUSH1 0xB DUP5 LT AND OR ISZERO PUSH2 0xDD9 JUMPI DUP3 DUP3 EXP SWAP1 POP DUP4 DUP2 GT ISZERO PUSH2 0xDD4 JUMPI PUSH2 0xDD3 PUSH2 0xCAE JUMP JUMPDEST JUMPDEST PUSH2 0xE03 JUMP JUMPDEST PUSH2 0xDE6 DUP5 DUP5 DUP5 PUSH1 0x1 PUSH2 0xCE7 JUMP JUMPDEST SWAP3 POP SWAP1 POP DUP2 DUP5 DIV DUP2 GT ISZERO PUSH2 0xDFD JUMPI PUSH2 0xDFC PUSH2 0xCAE JUMP JUMPDEST JUMPDEST DUP2 DUP2 MUL SWAP1 POP JUMPDEST SWAP4 SWAP3 POP POP POP JUMP JUMPDEST PUSH0 PUSH1 0xFF DUP3 AND SWAP1 POP SWAP2 SWAP1 POP JUMP JUMPDEST PUSH0 PUSH2 0xE20 DUP3 PUSH2 0xA5C JUMP JUMPDEST SWAP2 POP PUSH2 0xE2B DUP4 PUSH2 0xE0A JUMP JUMPDEST SWAP3 POP PUSH2 0xE58 PUSH32 0xFFFFFFFFFFFFFFFFFFFFFFFFFFFFFFFFFFFFFFFFFFFFFFFFFFFFFFFFFFFFFFFF DUP5 DUP5 PUSH2 0xD39 JUMP JUMPDEST SWAP1 POP SWAP3 SWAP2 POP POP JUMP JUMPDEST PUSH0 PUSH2 0xE6A DUP3 PUSH2 0xA5C JUMP JUMPDEST SWAP2 POP PUSH2 0xE75 DUP4 PUSH2 0xA5C JUMP JUMPDEST SWAP3 POP DUP3 DUP3 MUL PUSH2 0xE83 DUP2 PUSH2 0xA5C JUMP JUMPDEST SWAP2 POP DUP3 DUP3 DIV DUP5 EQ DUP4 ISZERO OR PUSH2 0xE9A JUMPI PUSH2 0xE99 PUSH2 0xCAE JUMP JUMPDEST JUMPDEST POP SWAP3 SWAP2 POP POP JUMP JUMPDEST PUSH32 0x4E487B7100000000000000000000000000000000000000000000000000000000 PUSH0 MSTORE PUSH1 0x12 PUSH1 0x4 MSTORE PUSH1 0x24 PUSH0 REVERT JUMPDEST PUSH0 PUSH2 0xED8 DUP3 PUSH2 0xA5C JUMP JUMPDEST SWAP2 POP PUSH2 0xEE3 DUP4 PUSH2 0xA5C JUMP JUMPDEST SWAP3 POP DUP3 PUSH2 0xEF3 JUMPI PUSH2 0xEF2 PUSH2 0xEA1 JUMP JUMPDEST JUMPDEST DUP3 DUP3 DIV SWAP1 POP SWAP3 SWAP2 POP POP JUMP JUMPDEST PUSH0 DUP3 DUP3 MSTORE PUSH1 0x20 DUP3 ADD SWAP1 POP SWAP3 SWAP2 POP POP JUMP JUMPDEST PUSH32 0x4164647265737320697320626C61636B6C697374656400000000000000000000 PUSH0 DUP3 ADD MSTORE POP JUMP JUMPDEST PUSH0 PUSH2 0xF42 PUSH1 0x16 DUP4 PUSH2 0xEFE JUMP JUMPDEST SWAP2 POP PUSH2 0xF4D DUP3 PUSH2 0xF0E JUMP JUMPDEST PUSH1 0x20 DUP3 ADD SWAP1 POP SWAP2 SWAP1 POP JUMP JUMPDEST PUSH0 PUSH1 0x20 DUP3 ADD SWAP1 POP DUP2 DUP2 SUB PUSH0 DUP4 ADD MSTORE PUSH2 0xF6F DUP2 PUSH2 0xF36 JUMP JUMPDEST SWAP1 POP SWAP2 SWAP1 POP JUMP JUMPDEST PUSH32 0x54726164696E67206973206E6F7420656E61626C656420796574000000000000 PUSH0 DUP3 ADD MSTORE POP JUMP JUMPDEST PUSH0 PUSH2 0xFAA PUSH1 0x1A DUP4 PUSH2 0xEFE JUMP JUMPDEST SWAP2 POP PUSH2 0xFB5 DUP3 PUSH2 0xF76 JUMP JUMPDEST PUSH1 0x20 DUP3 ADD SWAP1 POP SWAP2 SWAP1 POP JUMP JUMPDEST PUSH0 PUSH1 0x20 DUP3 ADD SWAP1 POP DUP2 DUP2 SUB PUSH0 DUP4 ADD MSTORE PUSH2 0xFD7 DUP2 PUSH2 0xF9E JUMP JUMPDEST SWAP1 POP SWAP2 SWAP1 POP JUMP JUMPDEST PUSH32 0x5472616E7366657220616D6F756E742065786365656473206D6178206C696D69 PUSH0 DUP3 ADD MSTORE PUSH32 0x7400000000000000000000000000000000000000000000000000000000000000 PUSH1 0x20 DUP3 ADD MSTORE POP JUMP JUMPDEST PUSH0 PUSH2 0x1038 PUSH1 0x21 DUP4 PUSH2 0xEFE JUMP JUMPDEST SWAP2 POP PUSH2 0x1043 DUP3 PUSH2 0xFDE JUMP JUMPDEST PUSH1 0x40 DUP3 ADD SWAP1 POP SWAP2 SWAP1 POP JUMP JUMPDEST PUSH0 PUSH1 0x20 DUP3 ADD SWAP1 POP DUP2 DUP2 SUB PUSH0 DUP4 ADD MSTORE PUSH2 0x1065 DUP2 PUSH2 0x102C JUMP JUMPDEST SWAP1 POP SWAP2 SWAP1 POP JUMP JUMPDEST PUSH0 PUSH2 0x1076 DUP3 PUSH2 0xA5C JUMP JUMPDEST SWAP2 POP PUSH2 0x1081 DUP4 PUSH2 0xA5C JUMP JUMPDEST SWAP3 POP DUP3 DUP3 SUB SWAP1 POP DUP2 DUP2 GT ISZERO PUSH2 0x1099 JUMPI PUSH2 0x1098 PUSH2 0xCAE JUMP JUMPDEST JUMPDEST SWAP3 SWAP2 POP POP JUMP JUMPDEST PUSH0 PUSH2 0x10A9 DUP3 PUSH2 0xA5C JUMP JUMPDEST SWAP2 POP PUSH2 0x10B4 DUP4 PUSH2 0xA5C JUMP JUMPDEST SWAP3 POP DUP3 DUP3 ADD SWAP1 POP DUP1 DUP3 GT ISZERO PUSH2 0x10CC JUMPI PUSH2 0x10CB PUSH2 0xCAE JUMP JUMPDEST JUMPDEST SWAP3 SWAP2 POP POP JUMP JUMPDEST PUSH2 0x10DB DUP2 PUSH2 0xA5C JUMP JUMPDEST DUP3 MSTORE POP POP JUMP JUMPDEST PUSH0 PUSH1 0x60 DUP3 ADD SWAP1 POP PUSH2 0x10F4 PUSH0 DUP4 ADD DUP7 PUSH2 0xC86 JUMP JUMPDEST PUSH2 0x1101 PUSH1 0x20 DUP4 ADD DUP6 PUSH2 0x10D2 JUMP JUMPDEST PUSH2 0x110E PUSH1 0x40 DUP4 ADD DUP5 PUSH2 0x10D2 JUMP JUMPDEST SWAP5 SWAP4 POP POP POP POP JUMP JUMPDEST PUSH0 PUSH1 0x20 DUP3 ADD SWAP1 POP PUSH2 0x1129 PUSH0 DUP4 ADD DUP5 PUSH2 0x10D2 JUMP JUMPDEST SWAP3 SWAP2 POP POP JUMP JUMPDEST PUSH2 0x1AF2 DUP1 PUSH2 0x113C PUSH0 CODECOPY PUSH0 RETURN INVALID PUSH1 0x80 PUSH1 0x40 MSTORE CALLVALUE DUP1 ISZERO PUSH2 0xF JUMPI PUSH0 PUSH0 REVERT JUMPDEST POP PUSH1 0x4 CALLDATASIZE LT PUSH2 0x171 JUMPI PUSH0 CALLDATALOAD PUSH1 0xE0 SHR DUP1 PUSH4 0x8A8C523C GT PUSH2 0xDC JUMPI DUP1 PUSH4 0x98118CB4 GT PUSH2 0x95 JUMPI DUP1 PUSH4 0xDD62ED3E GT PUSH2 0x6F JUMPI DUP1 PUSH4 0xDD62ED3E EQ PUSH2 0x403 JUMPI DUP1 PUSH4 0xEC28438A EQ PUSH2 0x433 JUMPI DUP1 PUSH4 0xF2FDE38B EQ PUSH2 0x44F JUMPI DUP1 PUSH4 0xFCE589D8 EQ PUSH2 0x46B JUMPI PUSH2 0x171 JUMP JUMPDEST DUP1 PUSH4 0x98118CB4 EQ PUSH2 0x399 JUMPI DUP1 PUSH4 0xA9059CBB EQ PUSH2 0x3B7 JUMPI DUP1 PUSH4 0xC0246668 EQ PUSH2 0x3E7 JUMPI PUSH2 0x171 JUMP JUMPDEST DUP1 PUSH4 0x8A8C523C EQ PUSH2 0x2F9 JUMPI DUP1 PUSH4 0x8B424267 EQ PUSH2 0x303 JUMPI DUP1 PUSH4 0x8C0B5E22 EQ PUSH2 0x321 JUMPI DUP1 PUSH4 0x8DA5CB5B EQ PUSH2 0x33F JUMPI DUP1 PUSH4 0x8EA5220F EQ PUSH2 0x35D JUMPI DUP1 PUSH4 0x95D89B41 EQ PUSH2 0x37B JUMPI PUSH2 0x171 JUMP JUMPDEST DUP1 PUSH4 0x313CE567 GT PUSH2 0x12E JUMPI DUP1 PUSH4 0x313CE567 EQ PUSH2 0x249 JUMPI DUP1 PUSH4 0x4ADA218B EQ PUSH2 0x267 JUMPI DUP1 PUSH4 0x6827E764 EQ PUSH2 0x285 JUMPI DUP1 PUSH4 0x6FCBA377 EQ PUSH2 0x2A3 JUMPI DUP1 PUSH4 0x70A08231 EQ PUSH2 0x2BF JUMPI DUP1 PUSH4 0x715018A6 EQ PUSH2 0x2EF JUMPI PUSH2 0x171 JUMP JUMPDEST DUP1 PUSH4 0x6FDDE03 EQ PUSH2 0x175 JUMPI DUP1 PUSH4 0x95EA7B3 EQ PUSH2 0x193 JUMPI DUP1 PUSH4 0x153B0D1E EQ PUSH2 0x1C3 JUMPI DUP1 PUSH4 0x18160DDD EQ PUSH2 0x1DF JUMPI DUP1 PUSH4 0x1F53AC02 EQ PUSH2 0x1FD JUMPI DUP1 PUSH4 0x23B872DD EQ PUSH2 0x219 JUMPI JUMPDEST PUSH0 PUSH0 REVERT JUMPDEST PUSH2 0x17D PUSH2 0x489 JUMP JUMPDEST PUSH1 0x40 MLOAD PUSH2 0x18A SWAP2 SWAP1 PUSH2 0x1445 JUMP JUMPDEST PUSH1 0x40 MLOAD DUP1 SWAP2 SUB SWAP1 RETURN JUMPDEST PUSH2 0x1AD PUSH1 0x4 DUP1 CALLDATASIZE SUB DUP2 ADD SWAP1 PUSH2 0x1A8 SWAP2 SWAP1 PUSH2 0x14F6 JUMP JUMPDEST PUSH2 0x519 JUMP JUMPDEST PUSH1 0x40 MLOAD PUSH2 0x1BA SWAP2 SWAP1 PUSH2 0x154E JUMP JUMPDEST PUSH1 0x40 MLOAD DUP1 SWAP2 SUB SWAP1 RETURN JUMPDEST PUSH2 0x1DD PUSH1 0x4 DUP1 CALLDATASIZE SUB DUP2 ADD SWAP1 PUSH2 0x1D8 SWAP2 SWAP1 PUSH2 0x1591 JUMP JUMPDEST PUSH2 0x53B JUMP JUMPDEST STOP JUMPDEST PUSH2 0x1E7 PUSH2 0x59B JUMP JUMPDEST PUSH1 0x40 MLOAD PUSH2 0x1F4 SWAP2 SWAP1 PUSH2 0x15DE JUMP JUMPDEST PUSH1 0x40 MLOAD DUP1 SWAP2 SUB SWAP1 RETURN JUMPDEST PUSH2 0x217 PUSH1 0x4 DUP1 CALLDATASIZE SUB DUP2 ADD SWAP1 PUSH2 0x212 SWAP2 SWAP1 PUSH2 0x15F7 JUMP JUMPDEST PUSH2 0x5A4 JUMP JUMPDEST STOP JUMPDEST PUSH2 0x233 PUSH1 0x4 DUP1 CALLDATASIZE SUB DUP2 ADD SWAP1 PUSH2 0x22E SWAP2 SWAP1 PUSH2 0x1622 JUMP JUMPDEST PUSH2 0x5F0 JUMP JUMPDEST PUSH1 0x40 MLOAD PUSH2 0x240 SWAP2 SWAP1 PUSH2 0x154E JUMP JUMPDEST PUSH1 0x40 MLOAD DUP1 SWAP2 SUB SWAP1 RETURN JUMPDEST PUSH2 0x251 PUSH2 0x61E JUMP JUMPDEST PUSH1 0x40 MLOAD PUSH2 0x25E SWAP2 SWAP1 PUSH2 0x168D JUMP JUMPDEST PUSH1 0x40 MLOAD DUP1 SWAP2 SUB SWAP1 RETURN JUMPDEST PUSH2 0x26F PUSH2 0x626 JUMP JUMPDEST PUSH1 0x40 MLOAD PUSH2 0x27C SWAP2 SWAP1 PUSH2 0x154E JUMP JUMPDEST PUSH1 0x40 MLOAD DUP1 SWAP2 SUB SWAP1 RETURN JUMPDEST PUSH2 0x28D PUSH2 0x638 JUMP JUMPDEST PUSH1 0x40 MLOAD PUSH2 0x29A SWAP2 SWAP1 PUSH2 0x15DE JUMP JUMPDEST PUSH1 0x40 MLOAD DUP1 SWAP2 SUB SWAP1 RETURN JUMPDEST PUSH2 0x2BD PUSH1 0x4 DUP1 CALLDATASIZE SUB DUP2 ADD SWAP1 PUSH2 0x2B8 SWAP2 SWAP1 PUSH2 0x16A6 JUMP JUMPDEST PUSH2 0x63E JUMP JUMPDEST STOP JUMPDEST PUSH2 0x2D9 PUSH1 0x4 DUP1 CALLDATASIZE SUB DUP2 ADD SWAP1 PUSH2 0x2D4 SWAP2 SWAP1 PUSH2 0x15F7 JUMP JUMPDEST PUSH2 0x668 JUMP JUMPDEST PUSH1 0x40 MLOAD PUSH2 0x2E6 SWAP2 SWAP1 PUSH2 0x15DE JUMP JUMPDEST PUSH1 0x40 MLOAD DUP1 SWAP2 SUB SWAP1 RETURN JUMPDEST PUSH2 0x2F7 PUSH2 0x6AD JUMP JUMPDEST STOP JUMPDEST PUSH2 0x301 PUSH2 0x6C0 JUMP JUMPDEST STOP JUMPDEST PUSH2 0x30B PUSH2 0x6E4 JUMP JUMPDEST PUSH1 0x40 MLOAD PUSH2 0x318 SWAP2 SWAP1 PUSH2 0x15DE JUMP JUMPDEST PUSH1 0x40 MLOAD DUP1 SWAP2 SUB SWAP1 RETURN JUMPDEST PUSH2 0x329 PUSH2 0x6EA JUMP JUMPDEST PUSH1 0x40 MLOAD PUSH2 0x336 SWAP2 SWAP1 PUSH2 0x15DE JUMP JUMPDEST PUSH1 0x40 MLOAD DUP1 SWAP2 SUB SWAP1 RETURN JUMPDEST PUSH2 0x347 PUSH2 0x6F0 JUMP JUMPDEST PUSH1 0x40 MLOAD PUSH2 0x354 SWAP2 SWAP1 PUSH2 0x1719 JUMP JUMPDEST PUSH1 0x40 MLOAD DUP1 SWAP2 SUB SWAP1 RETURN JUMPDEST PUSH2 0x365 PUSH2 0x718 JUMP JUMPDEST PUSH1 0x40 MLOAD PUSH2 0x372 SWAP2 SWAP1 PUSH2 0x1719 JUMP JUMPDEST PUSH1 0x40 MLOAD DUP1 SWAP2 SUB SWAP1 RETURN JUMPDEST PUSH2 0x383 PUSH2 0x73E JUMP JUMPDEST PUSH1 0x40 MLOAD PUSH2 0x390 SWAP2 SWAP1 PUSH2 0x1445 JUMP JUMPDEST PUSH1 0x40 MLOAD DUP1 SWAP2 SUB SWAP1 RETURN JUMPDEST PUSH2 0x3A1 PUSH2 0x7CE JUMP JUMPDEST PUSH1 0x40 MLOAD PUSH2 0x3AE SWAP2 SWAP1 PUSH2 0x15DE JUMP JUMPDEST PUSH1 0x40 MLOAD DUP1 SWAP2 SUB SWAP1 RETURN JUMPDEST PUSH2 0x3D1 PUSH1 0x4 DUP1 CALLDATASIZE SUB DUP2 ADD SWAP1 PUSH2 0x3CC SWAP2 SWAP1 PUSH2 0x14F6 JUMP JUMPDEST PUSH2 0x7D4 JUMP JUMPDEST PUSH1 0x40 MLOAD PUSH2 0x3DE SWAP2 SWAP1 PUSH2 0x154E JUMP JUMPDEST PUSH1 0x40 MLOAD DUP1 SWAP2 SUB SWAP1 RETURN JUMPDEST PUSH2 0x401 PUSH1 0x4 DUP1 CALLDATASIZE SUB DUP2 ADD SWAP1 PUSH2 0x3FC SWAP2 SWAP1 PUSH2 0x1591 JUMP JUMPDEST PUSH2 0x7F6 JUMP JUMPDEST STOP JUMPDEST PUSH2 0x41D PUSH1 0x4 DUP1 CALLDATASIZE SUB DUP2 ADD SWAP1 PUSH2 0x418 SWAP2 SWAP1 PUSH2 0x1732 JUMP JUMPDEST PUSH2 0x856 JUMP JUMPDEST PUSH1 0x40 MLOAD PUSH2 0x42A SWAP2 SWAP1 PUSH2 0x15DE JUMP JUMPDEST PUSH1 0x40 MLOAD DUP1 SWAP2 SUB SWAP1 RETURN JUMPDEST PUSH2 0x44D PUSH1 0x4 DUP1 CALLDATASIZE SUB DUP2 ADD SWAP1 PUSH2 0x448 SWAP2 SWAP1 PUSH2 0x1770 JUMP JUMPDEST PUSH2 0x8D8 JUMP JUMPDEST STOP JUMPDEST PUSH2 0x469 PUSH1 0x4 DUP1 CALLDATASIZE SUB DUP2 ADD SWAP1 PUSH2 0x464 SWAP2 SWAP1 PUSH2 0x15F7 JUMP JUMPDEST PUSH2 0x8EA JUMP JUMPDEST STOP JUMPDEST PUSH2 0x473 PUSH2 0x96E JUMP JUMPDEST PUSH1 0x40 MLOAD PUSH2 0x480 SWAP2 SWAP1 PUSH2 0x15DE JUMP JUMPDEST PUSH1 0x40 MLOAD DUP1 SWAP2 SUB SWAP1 RETURN JUMPDEST PUSH1 0x60 PUSH1 0x3 DUP1 SLOAD PUSH2 0x498 SWAP1 PUSH2 0x17C8 JUMP JUMPDEST DUP1 PUSH1 0x1F ADD PUSH1 0x20 DUP1 SWAP2 DIV MUL PUSH1 0x20 ADD PUSH1 0x40 MLOAD SWAP1 DUP2 ADD PUSH1 0x40 MSTORE DUP1 SWAP3 SWAP2 SWAP1 DUP2 DUP2 MSTORE PUSH1 0x20 ADD DUP3 DUP1 SLOAD PUSH2 0x4C4 SWAP1 PUSH2 0x17C8 JUMP JUMPDEST DUP1 ISZERO PUSH2 0x50F JUMPI DUP1 PUSH1 0x1F LT PUSH2 0x4E6 JUMPI PUSH2 0x100 DUP1 DUP4 SLOAD DIV MUL DUP4 MSTORE SWAP2 PUSH1 0x20 ADD SWAP2 PUSH2 0x50F JUMP JUMPDEST DUP3 ADD SWAP2 SWAP1 PUSH0 MSTORE PUSH1 0x20 PUSH0 KECCAK256 SWAP1 JUMPDEST DUP2 SLOAD DUP2 MSTORE SWAP1 PUSH1 0x1 ADD SWAP1 PUSH1 0x20 ADD DUP1 DUP4 GT PUSH2 0x4F2 JUMPI DUP3 SWAP1 SUB PUSH1 0x1F AND DUP3 ADD SWAP2 JUMPDEST POP POP POP POP POP SWAP1 POP SWAP1 JUMP JUMPDEST PUSH0 PUSH0 PUSH2 0x523 PUSH2 0x974 JUMP JUMPDEST SWAP1 POP PUSH2 0x530 DUP2 DUP6 DUP6 PUSH2 0x97B JUMP JUMPDEST PUSH1 0x1 SWAP2 POP POP SWAP3 SWAP2 POP POP JUMP JUMPDEST PUSH2 0x543 PUSH2 0x98D JUMP JUMPDEST DUP1 PUSH1 0x6 PUSH0 DUP5 PUSH20 0xFFFFFFFFFFFFFFFFFFFFFFFFFFFFFFFFFFFFFFFF AND PUSH20 0xFFFFFFFFFFFFFFFFFFFFFFFFFFFFFFFFFFFFFFFF AND DUP2 MSTORE PUSH1 0x20 ADD SWAP1 DUP2 MSTORE PUSH1 0x20 ADD PUSH0 KECCAK256 PUSH0 PUSH2 0x100 EXP DUP2 SLOAD DUP2 PUSH1 0xFF MUL NOT AND SWAP1 DUP4 ISZERO ISZERO MUL OR SWAP1 SSTORE POP POP POP JUMP JUMPDEST PUSH0 PUSH1 0x2 SLOAD SWAP1 POP SWAP1 JUMP JUMPDEST PUSH2 0x5AC PUSH2 0x98D JUMP JUMPDEST DUP1 PUSH1 0xD PUSH1 0x1 PUSH2 0x100 EXP DUP2 SLOAD DUP2 PUSH20 0xFFFFFFFFFFFFFFFFFFFFFFFFFFFFFFFFFFFFFFFF MUL NOT AND SWAP1 DUP4 PUSH20 0xFFFFFFFFFFFFFFFFFFFFFFFFFFFFFFFFFFFFFFFF AND MUL OR SWAP1 SSTORE POP POP JUMP JUMPDEST PUSH0 PUSH0 PUSH2 0x5FA PUSH2 0x974 JUMP JUMPDEST SWAP1 POP PUSH2 0x607 DUP6 DUP3 DUP6 PUSH2 0xA14 JUMP JUMPDEST PUSH2 0x612 DUP6 DUP6 DUP6 PUSH2 0xAA7 JUMP JUMPDEST PUSH1 0x1 SWAP2 POP POP SWAP4 SWAP3 POP POP POP JUMP JUMPDEST PUSH0 PUSH1 0x12 SWAP1 POP SWAP1 JUMP JUMPDEST PUSH1 0xD PUSH0 SWAP1 SLOAD SWAP1 PUSH2 0x100 EXP SWAP1 DIV PUSH1 0xFF AND DUP2 JUMP JUMPDEST PUSH1 0xA SLOAD DUP2 JUMP JUMPDEST PUSH2 0x646 PUSH2 0x98D JUMP JUMPDEST DUP4 PUSH1 0x8 DUP2 SWAP1 SSTORE POP DUP3 PUSH1 0x9 DUP2 SWAP1 SSTORE POP DUP2 PUSH1 0xA DUP2 SWAP1 SSTORE POP DUP1 PUSH1 0xB DUP2 SWAP1 SSTORE POP POP POP POP POP JUMP JUMPDEST PUSH0 PUSH0 PUSH0 DUP4 PUSH20 0xFFFFFFFFFFFFFFFFFFFFFFFFFFFFFFFFFFFFFFFF AND PUSH20 0xFFFFFFFFFFFFFFFFFFFFFFFFFFFFFFFFFFFFFFFF AND DUP2 MSTORE PUSH1 0x20 ADD SWAP1 DUP2 MSTORE PUSH1 0x20 ADD PUSH0 KECCAK256 SLOAD SWAP1 POP SWAP2 SWAP1 POP JUMP JUMPDEST PUSH2 0x6B5 PUSH2 0x98D JUMP JUMPDEST PUSH2 0x6BE PUSH0 PUSH2 0xB97 JUMP JUMPDEST JUMP JUMPDEST PUSH2 0x6C8 PUSH2 0x98D JUMP JUMPDEST PUSH1 0x1 PUSH1 0xD PUSH0 PUSH2 0x100 EXP DUP2 SLOAD DUP2 PUSH1 0xFF MUL NOT AND SWAP1 DUP4 ISZERO ISZERO MUL OR SWAP1 SSTORE POP JUMP JUMPDEST PUSH1 0x9 SLOAD DUP2 JUMP JUMPDEST PUSH1 0xC SLOAD DUP2 JUMP JUMPDEST PUSH0 PUSH1 0x5 PUSH0 SWAP1 SLOAD SWAP1 PUSH2 0x100 EXP SWAP1 DIV PUSH20 0xFFFFFFFFFFFFFFFFFFFFFFFFFFFFFFFFFFFFFFFF AND SWAP1 POP SWAP1 JUMP JUMPDEST PUSH1 0xD PUSH1 0x1 SWAP1 SLOAD SWAP1 PUSH2 0x100 EXP SWAP1 DIV PUSH20 0xFFFFFFFFFFFFFFFFFFFFFFFFFFFFFFFFFFFFFFFF AND DUP2 JUMP JUMPDEST PUSH1 0x60 PUSH1 0x4 DUP1 SLOAD PUSH2 0x74D SWAP1 PUSH2 0x17C8 JUMP JUMPDEST DUP1 PUSH1 0x1F ADD PUSH1 0x20 DUP1 SWAP2 DIV MUL PUSH1 0x20 ADD PUSH1 0x40 MLOAD SWAP1 DUP2 ADD PUSH1 0x40 MSTORE DUP1 SWAP3 SWAP2 SWAP1 DUP2 DUP2 MSTORE PUSH1 0x20 ADD DUP3 DUP1 SLOAD PUSH2 0x779 SWAP1 PUSH2 0x17C8 JUMP JUMPDEST DUP1 ISZERO PUSH2 0x7C4 JUMPI DUP1 PUSH1 0x1F LT PUSH2 0x79B JUMPI PUSH2 0x100 DUP1 DUP4 SLOAD DIV MUL DUP4 MSTORE SWAP2 PUSH1 0x20 ADD SWAP2 PUSH2 0x7C4 JUMP JUMPDEST DUP3 ADD SWAP2 SWAP1 PUSH0 MSTORE PUSH1 0x20 PUSH0 KECCAK256 SWAP1 JUMPDEST DUP2 SLOAD DUP2 MSTORE SWAP1 PUSH1 0x1 ADD SWAP1 PUSH1 0x20 ADD DUP1 DUP4 GT PUSH2 0x7A7 JUMPI DUP3 SWAP1 SUB PUSH1 0x1F AND DUP3 ADD SWAP2 JUMPDEST POP POP POP POP POP SWAP1 POP SWAP1 JUMP JUMPDEST PUSH1 0xB SLOAD DUP2 JUMP JUMPDEST PUSH0 PUSH0 PUSH2 0x7DE PUSH2 0x974 JUMP JUMPDEST SWAP1 POP PUSH2 0x7EB DUP2 DUP6 DUP6 PUSH2 0xAA7 JUMP JUMPDEST PUSH1 0x1 SWAP2 POP POP SWAP3 SWAP2 POP POP JUMP JUMPDEST PUSH2 0x7FE PUSH2 0x98D JUMP JUMPDEST DUP1 PUSH1 0x7 PUSH0 DUP5 PUSH20 0xFFFFFFFFFFFFFFFFFFFFFFFFFFFFFFFFFFFFFFFF AND PUSH20 0xFFFFFFFFFFFFFFFFFFFFFFFFFFFFFFFFFFFFFFFF AND DUP2 MSTORE PUSH1 0x20 ADD SWAP1 DUP2 MSTORE PUSH1 0x20 ADD PUSH0 KECCAK256 PUSH0 PUSH2 0x100 EXP DUP2 SLOAD DUP2 PUSH1 0xFF MUL NOT AND SWAP1 DUP4 ISZERO ISZERO MUL OR SWAP1 SSTORE POP POP POP JUMP JUMPDEST PUSH0 PUSH1 0x1 PUSH0 DUP5 PUSH20 0xFFFFFFFFFFFFFFFFFFFFFFFFFFFFFFFFFFFFFFFF AND PUSH20 0xFFFFFFFFFFFFFFFFFFFFFFFFFFFFFFFFFFFFFFFF AND DUP2 MSTORE PUSH1 0x20 ADD SWAP1 DUP2 MSTORE PUSH1 0x20 ADD PUSH0 KECCAK256 PUSH0 DUP4 PUSH20 0xFFFFFFFFFFFFFFFFFFFFFFFFFFFFFFFFFFFFFFFF AND PUSH20 0xFFFFFFFFFFFFFFFFFFFFFFFFFFFFFFFFFFFFFFFF AND DUP2 MSTORE PUSH1 0x20 ADD SWAP1 DUP2 MSTORE PUSH1 0x20 ADD PUSH0 KECCAK256 SLOAD SWAP1 POP SWAP3 SWAP2 POP POP JUMP JUMPDEST PUSH2 0x8E0 PUSH2 0x98D JUMP JUMPDEST DUP1 PUSH1 0xC DUP2 SWAP1 SSTORE POP POP JUMP JUMPDEST PUSH2 0x8F2 PUSH2 0x98D JUMP JUMPDEST PUSH0 PUSH20 0xFFFFFFFFFFFFFFFFFFFFFFFFFFFFFFFFFFFFFFFF AND DUP2 PUSH20 0xFFFFFFFFFFFFFFFFFFFFFFFFFFFFFFFFFFFFFFFF AND SUB PUSH2 0x962 JUMPI PUSH0 PUSH1 0x40 MLOAD PUSH32 0x1E4FBDF700000000000000000000000000000000000000000000000000000000 DUP2 MSTORE PUSH1 0x4 ADD PUSH2 0x959 SWAP2 SWAP1 PUSH2 0x1719 JUMP JUMPDEST PUSH1 0x40 MLOAD DUP1 SWAP2 SUB SWAP1 REVERT JUMPDEST PUSH2 0x96B DUP2 PUSH2 0xB97 JUMP JUMPDEST POP JUMP JUMPDEST PUSH1 0x8 SLOAD DUP2 JUMP JUMPDEST PUSH0 CALLER SWAP1 POP SWAP1 JUMP JUMPDEST PUSH2 0x988 DUP4 DUP4 DUP4 PUSH1 0x1 PUSH2 0xC5A JUMP JUMPDEST POP POP POP JUMP JUMPDEST PUSH2 0x995 PUSH2 0x974 JUMP JUMPDEST PUSH20 0xFFFFFFFFFFFFFFFFFFFFFFFFFFFFFFFFFFFFFFFF AND PUSH2 0x9B3 PUSH2 0x6F0 JUMP JUMPDEST PUSH20 0xFFFFFFFFFFFFFFFFFFFFFFFFFFFFFFFFFFFFFFFF AND EQ PUSH2 0xA12 JUMPI PUSH2 0x9D6 PUSH2 0x974 JUMP JUMPDEST PUSH1 0x40 MLOAD PUSH32 0x118CDAA700000000000000000000000000000000000000000000000000000000 DUP2 MSTORE PUSH1 0x4 ADD PUSH2 0xA09 SWAP2 SWAP1 PUSH2 0x1719 JUMP JUMPDEST PUSH1 0x40 MLOAD DUP1 SWAP2 SUB SWAP1 REVERT JUMPDEST JUMP JUMPDEST PUSH0 PUSH2 0xA1F DUP5 DUP5 PUSH2 0x856 JUMP JUMPDEST SWAP1 POP PUSH32 0xFFFFFFFFFFFFFFFFFFFFFFFFFFFFFFFFFFFFFFFFFFFFFFFFFFFFFFFFFFFFFFFF DUP2 LT ISZERO PUSH2 0xAA1 JUMPI DUP2 DUP2 LT ISZERO PUSH2 0xA92 JUMPI DUP3 DUP2 DUP4 PUSH1 0x40 MLOAD PUSH32 0xFB8F41B200000000000000000000000000000000000000000000000000000000 DUP2 MSTORE PUSH1 0x4 ADD PUSH2 0xA89 SWAP4 SWAP3 SWAP2 SWAP1 PUSH2 0x17F8 JUMP JUMPDEST PUSH1 0x40 MLOAD DUP1 SWAP2 SUB SWAP1 REVERT JUMPDEST PUSH2 0xAA0 DUP5 DUP5 DUP5 DUP5 SUB PUSH0 PUSH2 0xC5A JUMP JUMPDEST JUMPDEST POP POP POP POP JUMP JUMPDEST PUSH0 PUSH20 0xFFFFFFFFFFFFFFFFFFFFFFFFFFFFFFFFFFFFFFFF AND DUP4 PUSH20 0xFFFFFFFFFFFFFFFFFFFFFFFFFFFFFFFFFFFFFFFF AND SUB PUSH2 0xB17 JUMPI PUSH0 PUSH1 0x40 MLOAD PUSH32 0x96C6FD1E00000000000000000000000000000000000000000000000000000000 DUP2 MSTORE PUSH1 0x4 ADD PUSH2 0xB0E SWAP2 SWAP1 PUSH2 0x1719 JUMP JUMPDEST PUSH1 0x40 MLOAD DUP1 SWAP2 SUB SWAP1 REVERT JUMPDEST PUSH0 PUSH20 0xFFFFFFFFFFFFFFFFFFFFFFFFFFFFFFFFFFFFFFFF AND DUP3 PUSH20 0xFFFFFFFFFFFFFFFFFFFFFFFFFFFFFFFFFFFFFFFF AND SUB PUSH2 0xB87 JUMPI PUSH0 PUSH1 0x40 MLOAD PUSH32 0xEC442F0500000000000000000000000000000000000000000000000000000000 DUP2 MSTORE PUSH1 0x4 ADD PUSH2 0xB7E SWAP2 SWAP1 PUSH2 0x1719 JUMP JUMPDEST PUSH1 0x40 MLOAD DUP1 SWAP2 SUB SWAP1 REVERT JUMPDEST PUSH2 0xB92 DUP4 DUP4 DUP4 PUSH2 0xE29 JUMP JUMPDEST POP POP POP JUMP JUMPDEST PUSH0 PUSH1 0x5 PUSH0 SWAP1 SLOAD SWAP1 PUSH2 0x100 EXP SWAP1 DIV PUSH20 0xFFFFFFFFFFFFFFFFFFFFFFFFFFFFFFFFFFFFFFFF AND SWAP1 POP DUP2 PUSH1 0x5 PUSH0 PUSH2 0x100 EXP DUP2 SLOAD DUP2 PUSH20 0xFFFFFFFFFFFFFFFFFFFFFFFFFFFFFFFFFFFFFFFF MUL NOT AND SWAP1 DUP4 PUSH20 0xFFFFFFFFFFFFFFFFFFFFFFFFFFFFFFFFFFFFFFFF AND MUL OR SWAP1 SSTORE POP DUP2 PUSH20 0xFFFFFFFFFFFFFFFFFFFFFFFFFFFFFFFFFFFFFFFF AND DUP2 PUSH20 0xFFFFFFFFFFFFFFFFFFFFFFFFFFFFFFFFFFFFFFFF AND PUSH32 0x8BE0079C531659141344CD1FD0A4F28419497F9722A3DAAFE3B4186F6B6457E0 PUSH1 0x40 MLOAD PUSH1 0x40 MLOAD DUP1 SWAP2 SUB SWAP1 LOG3 POP POP JUMP JUMPDEST PUSH0 PUSH20 0xFFFFFFFFFFFFFFFFFFFFFFFFFFFFFFFFFFFFFFFF AND DUP5 PUSH20 0xFFFFFFFFFFFFFFFFFFFFFFFFFFFFFFFFFFFFFFFF AND SUB PUSH2 0xCCA JUMPI PUSH0 PUSH1 0x40 MLOAD PUSH32 0xE602DF0500000000000000000000000000000000000000000000000000000000 DUP2 MSTORE PUSH1 0x4 ADD PUSH2 0xCC1 SWAP2 SWAP1 PUSH2 0x1719 JUMP JUMPDEST PUSH1 0x40 MLOAD DUP1 SWAP2 SUB SWAP1 REVERT JUMPDEST PUSH0 PUSH20 0xFFFFFFFFFFFFFFFFFFFFFFFFFFFFFFFFFFFFFFFF AND DUP4 PUSH20 0xFFFFFFFFFFFFFFFFFFFFFFFFFFFFFFFFFFFFFFFF AND SUB PUSH2 0xD3A JUMPI PUSH0 PUSH1 0x40 MLOAD PUSH32 0x94280D6200000000000000000000000000000000000000000000000000000000 DUP2 MSTORE PUSH1 0x4 ADD PUSH2 0xD31 SWAP2 SWAP1 PUSH2 0x1719 JUMP JUMPDEST PUSH1 0x40 MLOAD DUP1 SWAP2 SUB SWAP1 REVERT JUMPDEST DUP2 PUSH1 0x1 PUSH0 DUP7 PUSH20 0xFFFFFFFFFFFFFFFFFFFFFFFFFFFFFFFFFFFFFFFF AND PUSH20 0xFFFFFFFFFFFFFFFFFFFFFFFFFFFFFFFFFFFFFFFF AND DUP2 MSTORE PUSH1 0x20 ADD SWAP1 DUP2 MSTORE PUSH1 0x20 ADD PUSH0 KECCAK256 PUSH0 DUP6 PUSH20 0xFFFFFFFFFFFFFFFFFFFFFFFFFFFFFFFFFFFFFFFF AND PUSH20 0xFFFFFFFFFFFFFFFFFFFFFFFFFFFFFFFFFFFFFFFF AND DUP2 MSTORE PUSH1 0x20 ADD SWAP1 DUP2 MSTORE PUSH1 0x20 ADD PUSH0 KECCAK256 DUP2 SWAP1 SSTORE POP DUP1 ISZERO PUSH2 0xE23 JUMPI DUP3 PUSH20 0xFFFFFFFFFFFFFFFFFFFFFFFFFFFFFFFFFFFFFFFF AND DUP5 PUSH20 0xFFFFFFFFFFFFFFFFFFFFFFFFFFFFFFFFFFFFFFFF AND PUSH32 0x8C5BE1E5EBEC7D5BD14F71427D1E84F3DD0314C0F7B2291E5B200AC8C7C3B925 DUP5 PUSH1 0x40 MLOAD PUSH2 0xE1A SWAP2 SWAP1 PUSH2 0x15DE JUMP JUMPDEST PUSH1 0x40 MLOAD DUP1 SWAP2 SUB SWAP1 LOG3 JUMPDEST POP POP POP POP JUMP JUMPDEST PUSH1 0x6 PUSH0 DUP5 PUSH20 0xFFFFFFFFFFFFFFFFFFFFFFFFFFFFFFFFFFFFFFFF AND PUSH20 0xFFFFFFFFFFFFFFFFFFFFFFFFFFFFFFFFFFFFFFFF AND DUP2 MSTORE PUSH1 0x20 ADD SWAP1 DUP2 MSTORE PUSH1 0x20 ADD PUSH0 KECCAK256 PUSH0 SWAP1 SLOAD SWAP1 PUSH2 0x100 EXP SWAP1 DIV PUSH1 0xFF AND ISZERO DUP1 ISZERO PUSH2 0xEC7 JUMPI POP PUSH1 0x6 PUSH0 DUP4 PUSH20 0xFFFFFFFFFFFFFFFFFFFFFFFFFFFFFFFFFFFFFFFF AND PUSH20 0xFFFFFFFFFFFFFFFFFFFFFFFFFFFFFFFFFFFFFFFF AND DUP2 MSTORE PUSH1 0x20 ADD SWAP1 DUP2 MSTORE PUSH1 0x20 ADD PUSH0 KECCAK256 PUSH0 SWAP1 SLOAD SWAP1 PUSH2 0x100 EXP SWAP1 DIV PUSH1 0xFF AND ISZERO JUMPDEST PUSH2 0xF06 JUMPI PUSH1 0x40 MLOAD PUSH32 0x8C379A000000000000000000000000000000000000000000000000000000000 DUP2 MSTORE PUSH1 0x4 ADD PUSH2 0xEFD SWAP1 PUSH2 0x1877 JUMP JUMPDEST PUSH1 0x40 MLOAD DUP1 SWAP2 SUB SWAP1 REVERT JUMPDEST PUSH1 0xD PUSH0 SWAP1 SLOAD SWAP1 PUSH2 0x100 EXP SWAP1 DIV PUSH1 0xFF AND DUP1 PUSH2 0xF66 JUMPI POP PUSH1 0x7 PUSH0 DUP5 PUSH20 0xFFFFFFFFFFFFFFFFFFFFFFFFFFFFFFFFFFFFFFFF AND PUSH20 0xFFFFFFFFFFFFFFFFFFFFFFFFFFFFFFFFFFFFFFFF AND DUP2 MSTORE PUSH1 0x20 ADD SWAP1 DUP2 MSTORE PUSH1 0x20 ADD PUSH0 KECCAK256 PUSH0 SWAP1 SLOAD SWAP1 PUSH2 0x100 EXP SWAP1 DIV PUSH1 0xFF AND JUMPDEST PUSH2 0xFA5 JUMPI PUSH1 0x40 MLOAD PUSH32 0x8C379A000000000000000000000000000000000000000000000000000000000 DUP2 MSTORE PUSH1 0x4 ADD PUSH2 0xF9C SWAP1 PUSH2 0x18DF JUMP JUMPDEST PUSH1 0x40 MLOAD DUP1 SWAP2 SUB SWAP1 REVERT JUMPDEST PUSH1 0xC SLOAD DUP2 GT ISZERO DUP1 PUSH2 0xFFC JUMPI POP PUSH1 0x7 PUSH0 DUP5 PUSH20 0xFFFFFFFFFFFFFFFFFFFFFFFFFFFFFFFFFFFFFFFF AND PUSH20 0xFFFFFFFFFFFFFFFFFFFFFFFFFFFFFFFFFFFFFFFF AND DUP2 MSTORE PUSH1 0x20 ADD SWAP1 DUP2 MSTORE PUSH1 0x20 ADD PUSH0 KECCAK256 PUSH0 SWAP1 SLOAD SWAP1 PUSH2 0x100 EXP SWAP1 DIV PUSH1 0xFF AND JUMPDEST PUSH2 0x103B JUMPI PUSH1 0x40 MLOAD PUSH32 0x8C379A000000000000000000000000000000000000000000000000000000000 DUP2 MSTORE PUSH1 0x4 ADD PUSH2 0x1032 SWAP1 PUSH2 0x196D JUMP JUMPDEST PUSH1 0x40 MLOAD DUP1 SWAP2 SUB SWAP1 REVERT JUMPDEST PUSH0 PUSH1 0x64 PUSH1 0x8 SLOAD DUP4 PUSH2 0x104C SWAP2 SWAP1 PUSH2 0x19B8 JUMP JUMPDEST PUSH2 0x1056 SWAP2 SWAP1 PUSH2 0x1A26 JUMP JUMPDEST SWAP1 POP PUSH0 PUSH1 0x64 PUSH1 0x9 SLOAD DUP5 PUSH2 0x1069 SWAP2 SWAP1 PUSH2 0x19B8 JUMP JUMPDEST PUSH2 0x1073 SWAP2 SWAP1 PUSH2 0x1A26 JUMP JUMPDEST SWAP1 POP PUSH0 PUSH1 0x64 PUSH1 0xA SLOAD DUP6 PUSH2 0x1086 SWAP2 SWAP1 PUSH2 0x19B8 JUMP JUMPDEST PUSH2 0x1090 SWAP2 SWAP1 PUSH2 0x1A26 JUMP JUMPDEST SWAP1 POP PUSH0 PUSH1 0x64 PUSH1 0xB SLOAD DUP7 PUSH2 0x10A3 SWAP2 SWAP1 PUSH2 0x19B8 JUMP JUMPDEST PUSH2 0x10AD SWAP2 SWAP1 PUSH2 0x1A26 JUMP JUMPDEST SWAP1 POP PUSH0 DUP2 DUP4 DUP6 DUP8 DUP10 PUSH2 0x10BF SWAP2 SWAP1 PUSH2 0x1A56 JUMP JUMPDEST PUSH2 0x10C9 SWAP2 SWAP1 PUSH2 0x1A56 JUMP JUMPDEST PUSH2 0x10D3 SWAP2 SWAP1 PUSH2 0x1A56 JUMP JUMPDEST PUSH2 0x10DD SWAP2 SWAP1 PUSH2 0x1A56 JUMP JUMPDEST SWAP1 POP PUSH0 DUP6 GT ISZERO PUSH2 0x10F2 JUMPI PUSH2 0x10F1 DUP9 DUP7 PUSH2 0x113D JUMP JUMPDEST JUMPDEST PUSH0 DUP4 GT ISZERO PUSH2 0x1128 JUMPI PUSH2 0x1127 DUP9 PUSH1 0xD PUSH1 0x1 SWAP1 SLOAD SWAP1 PUSH2 0x100 EXP SWAP1 DIV PUSH20 0xFFFFFFFFFFFFFFFFFFFFFFFFFFFFFFFFFFFFFFFF AND DUP6 PUSH2 0x11BC JUMP JUMPDEST JUMPDEST PUSH2 0x1133 DUP9 DUP9 DUP4 PUSH2 0x11BC JUMP JUMPDEST POP POP POP POP POP POP POP POP JUMP JUMPDEST PUSH0 PUSH20 0xFFFFFFFFFFFFFFFFFFFFFFFFFFFFFFFFFFFFFFFF AND DUP3 PUSH20 0xFFFFFFFFFFFFFFFFFFFFFFFFFFFFFFFFFFFFFFFF AND SUB PUSH2 0x11AD JUMPI PUSH0 PUSH1 0x40 MLOAD PUSH32 0x96C6FD1E00000000000000000000000000000000000000000000000000000000 DUP2 MSTORE PUSH1 0x4 ADD PUSH2 0x11A4 SWAP2 SWAP1 PUSH2 0x1719 JUMP JUMPDEST PUSH1 0x40 MLOAD DUP1 SWAP2 SUB SWAP1 REVERT JUMPDEST PUSH2 0x11B8 DUP3 PUSH0 DUP4 PUSH2 0xE29 JUMP JUMPDEST POP POP JUMP JUMPDEST PUSH0 PUSH20 0xFFFFFFFFFFFFFFFFFFFFFFFFFFFFFFFFFFFFFFFF AND DUP4 PUSH20 0xFFFFFFFFFFFFFFFFFFFFFFFFFFFFFFFFFFFFFFFF AND SUB PUSH2 0x120C JUMPI DUP1 PUSH1 0x2 PUSH0 DUP3 DUP3 SLOAD PUSH2 0x1200 SWAP2 SWAP1 PUSH2 0x1A89 JUMP JUMPDEST SWAP3 POP POP DUP2 SWAP1 SSTORE POP PUSH2 0x12DA JUMP JUMPDEST PUSH0 PUSH0 PUSH0 DUP6 PUSH20 0xFFFFFFFFFFFFFFFFFFFFFFFFFFFFFFFFFFFFFFFF AND PUSH20 0xFFFFFFFFFFFFFFFFFFFFFFFFFFFFFFFFFFFFFFFF AND DUP2 MSTORE PUSH1 0x20 ADD SWAP1 DUP2 MSTORE PUSH1 0x20 ADD PUSH0 KECCAK256 SLOAD SWAP1 POP DUP2 DUP2 LT ISZERO PUSH2 0x1295 JUMPI DUP4 DUP2 DUP4 PUSH1 0x40 MLOAD PUSH32 0xE450D38C00000000000000000000000000000000000000000000000000000000 DUP2 MSTORE PUSH1 0x4 ADD PUSH2 0x128C SWAP4 SWAP3 SWAP2 SWAP1 PUSH2 0x17F8 JUMP JUMPDEST PUSH1 0x40 MLOAD DUP1 SWAP2 SUB SWAP1 REVERT JUMPDEST DUP2 DUP2 SUB PUSH0 PUSH0 DUP7 PUSH20 0xFFFFFFFFFFFFFFFFFFFFFFFFFFFFFFFFFFFFFFFF AND PUSH20 0xFFFFFFFFFFFFFFFFFFFFFFFFFFFFFFFFFFFFFFFF AND DUP2 MSTORE PUSH1 0x20 ADD SWAP1 DUP2 MSTORE PUSH1 0x20 ADD PUSH0 KECCAK256 DUP2 SWAP1 SSTORE POP POP JUMPDEST PUSH0 PUSH20 0xFFFFFFFFFFFFFFFFFFFFFFFFFFFFFFFFFFFFFFFF AND DUP3 PUSH20 0xFFFFFFFFFFFFFFFFFFFFFFFFFFFFFFFFFFFFFFFF AND SUB PUSH2 0x1321 JUMPI DUP1 PUSH1 0x2 PUSH0 DUP3 DUP3 SLOAD SUB SWAP3 POP POP DUP2 SWAP1 SSTORE POP PUSH2 0x136B JUMP JUMPDEST DUP1 PUSH0 PUSH0 DUP5 PUSH20 0xFFFFFFFFFFFFFFFFFFFFFFFFFFFFFFFFFFFFFFFF AND PUSH20 0xFFFFFFFFFFFFFFFFFFFFFFFFFFFFFFFFFFFFFFFF AND DUP2 MSTORE PUSH1 0x20 ADD SWAP1 DUP2 MSTORE PUSH1 0x20 ADD PUSH0 KECCAK256 PUSH0 DUP3 DUP3 SLOAD ADD SWAP3 POP POP DUP2 SWAP1 SSTORE POP JUMPDEST DUP2 PUSH20 0xFFFFFFFFFFFFFFFFFFFFFFFFFFFFFFFFFFFFFFFF AND DUP4 PUSH20 0xFFFFFFFFFFFFFFFFFFFFFFFFFFFFFFFFFFFFFFFF AND PUSH32 0xDDF252AD1BE2C89B69C2B068FC378DAA952BA7F163C4A11628F55A4DF523B3EF DUP4 PUSH1 0x40 MLOAD PUSH2 0x13C8 SWAP2 SWAP1 PUSH2 0x15DE JUMP JUMPDEST PUSH1 0x40 MLOAD DUP1 SWAP2 SUB SWAP1 LOG3 POP POP POP JUMP JUMPDEST PUSH0 DUP2 MLOAD SWAP1 POP SWAP2 SWAP1 POP JUMP JUMPDEST PUSH0 DUP3 DUP3 MSTORE PUSH1 0x20 DUP3 ADD SWAP1 POP SWAP3 SWAP2 POP POP JUMP JUMPDEST DUP3 DUP2 DUP4 MCOPY PUSH0 DUP4 DUP4 ADD MSTORE POP POP POP JUMP JUMPDEST PUSH0 PUSH1 0x1F NOT PUSH1 0x1F DUP4 ADD AND SWAP1 POP SWAP2 SWAP1 POP JUMP JUMPDEST PUSH0 PUSH2 0x1417 DUP3 PUSH2 0x13D5 JUMP JUMPDEST PUSH2 0x1421 DUP2 DUP6 PUSH2 0x13DF JUMP JUMPDEST SWAP4 POP PUSH2 0x1431 DUP2 DUP6 PUSH1 0x20 DUP7 ADD PUSH2 0x13EF JUMP JUMPDEST PUSH2 0x143A DUP2 PUSH2 0x13FD JUMP JUMPDEST DUP5 ADD SWAP2 POP POP SWAP3 SWAP2 POP POP JUMP JUMPDEST PUSH0 PUSH1 0x20 DUP3 ADD SWAP1 POP DUP2 DUP2 SUB PUSH0 DUP4 ADD MSTORE PUSH2 0x145D DUP2 DUP5 PUSH2 0x140D JUMP JUMPDEST SWAP1 POP SWAP3 SWAP2 POP POP JUMP JUMPDEST PUSH0 PUSH0 REVERT JUMPDEST PUSH0 PUSH20 0xFFFFFFFFFFFFFFFFFFFFFFFFFFFFFFFFFFFFFFFF DUP3 AND SWAP1 POP SWAP2 SWAP1 POP JUMP JUMPDEST PUSH0 PUSH2 0x1492 DUP3 PUSH2 0x1469 JUMP JUMPDEST SWAP1 POP SWAP2 SWAP1 POP JUMP JUMPDEST PUSH2 0x14A2 DUP2 PUSH2 0x1488 JUMP JUMPDEST DUP2 EQ PUSH2 0x14AC JUMPI PUSH0 PUSH0 REVERT JUMPDEST POP JUMP JUMPDEST PUSH0 DUP2 CALLDATALOAD SWAP1 POP PUSH2 0x14BD DUP2 PUSH2 0x1499 JUMP JUMPDEST SWAP3 SWAP2 POP POP JUMP JUMPDEST PUSH0 DUP2 SWAP1 POP SWAP2 SWAP1 POP JUMP JUMPDEST PUSH2 0x14D5 DUP2 PUSH2 0x14C3 JUMP JUMPDEST DUP2 EQ PUSH2 0x14DF JUMPI PUSH0 PUSH0 REVERT JUMPDEST POP JUMP JUMPDEST PUSH0 DUP2 CALLDATALOAD SWAP1 POP PUSH2 0x14F0 DUP2 PUSH2 0x14CC JUMP JUMPDEST SWAP3 SWAP2 POP POP JUMP JUMPDEST PUSH0 PUSH0 PUSH1 0x40 DUP4 DUP6 SUB SLT ISZERO PUSH2 0x150C JUMPI PUSH2 0x150B PUSH2 0x1465 JUMP JUMPDEST JUMPDEST PUSH0 PUSH2 0x1519 DUP6 DUP3 DUP7 ADD PUSH2 0x14AF JUMP JUMPDEST SWAP3 POP POP PUSH1 0x20 PUSH2 0x152A DUP6 DUP3 DUP7 ADD PUSH2 0x14E2 JUMP JUMPDEST SWAP2 POP POP SWAP3 POP SWAP3 SWAP1 POP JUMP JUMPDEST PUSH0 DUP2 ISZERO ISZERO SWAP1 POP SWAP2 SWAP1 POP JUMP JUMPDEST PUSH2 0x1548 DUP2 PUSH2 0x1534 JUMP JUMPDEST DUP3 MSTORE POP POP JUMP JUMPDEST PUSH0 PUSH1 0x20 DUP3 ADD SWAP1 POP PUSH2 0x1561 PUSH0 DUP4 ADD DUP5 PUSH2 0x153F JUMP JUMPDEST SWAP3 SWAP2 POP POP JUMP JUMPDEST PUSH2 0x1570 DUP2 PUSH2 0x1534 JUMP JUMPDEST DUP2 EQ PUSH2 0x157A JUMPI PUSH0 PUSH0 REVERT JUMPDEST POP JUMP JUMPDEST PUSH0 DUP2 CALLDATALOAD SWAP1 POP PUSH2 0x158B DUP2 PUSH2 0x1567 JUMP JUMPDEST SWAP3 SWAP2 POP POP JUMP JUMPDEST PUSH0 PUSH0 PUSH1 0x40 DUP4 DUP6 SUB SLT ISZERO PUSH2 0x15A7 JUMPI PUSH2 0x15A6 PUSH2 0x1465 JUMP JUMPDEST JUMPDEST PUSH0 PUSH2 0x15B4 DUP6 DUP3 DUP7 ADD PUSH2 0x14AF JUMP JUMPDEST SWAP3 POP POP PUSH1 0x20 PUSH2 0x15C5 DUP6 DUP3 DUP7 ADD PUSH2 0x157D JUMP JUMPDEST SWAP2 POP POP SWAP3 POP SWAP3 SWAP1 POP JUMP JUMPDEST PUSH2 0x15D8 DUP2 PUSH2 0x14C3 JUMP JUMPDEST DUP3 MSTORE POP POP JUMP JUMPDEST PUSH0 PUSH1 0x20 DUP3 ADD SWAP1 POP PUSH2 0x15F1 PUSH0 DUP4 ADD DUP5 PUSH2 0x15CF JUMP JUMPDEST SWAP3 SWAP2 POP POP JUMP JUMPDEST PUSH0 PUSH1 0x20 DUP3 DUP5 SUB SLT ISZERO PUSH2 0x160C JUMPI PUSH2 0x160B PUSH2 0x1465 JUMP JUMPDEST JUMPDEST PUSH0 PUSH2 0x1619 DUP5 DUP3 DUP6 ADD PUSH2 0x14AF JUMP JUMPDEST SWAP2 POP POP SWAP3 SWAP2 POP POP JUMP JUMPDEST PUSH0 PUSH0 PUSH0 PUSH1 0x60 DUP5 DUP7 SUB SLT ISZERO PUSH2 0x1639 JUMPI PUSH2 0x1638 PUSH2 0x1465 JUMP JUMPDEST JUMPDEST PUSH0 PUSH2 0x1646 DUP7 DUP3 DUP8 ADD PUSH2 0x14AF JUMP JUMPDEST SWAP4 POP POP PUSH1 0x20 PUSH2 0x1657 DUP7 DUP3 DUP8 ADD PUSH2 0x14AF JUMP JUMPDEST SWAP3 POP POP PUSH1 0x40 PUSH2 0x1668 DUP7 DUP3 DUP8 ADD PUSH2 0x14E2 JUMP JUMPDEST SWAP2 POP POP SWAP3 POP SWAP3 POP SWAP3 JUMP JUMPDEST PUSH0 PUSH1 0xFF DUP3 AND SWAP1 POP SWAP2 SWAP1 POP JUMP JUMPDEST PUSH2 0x1687 DUP2 PUSH2 0x1672 JUMP JUMPDEST DUP3 MSTORE POP POP JUMP JUMPDEST PUSH0 PUSH1 0x20 DUP3 ADD SWAP1 POP PUSH2 0x16A0 PUSH0 DUP4 ADD DUP5 PUSH2 0x167E JUMP JUMPDEST SWAP3 SWAP2 POP POP JUMP JUMPDEST PUSH0 PUSH0 PUSH0 PUSH0 PUSH1 0x80 DUP6 DUP8 SUB SLT ISZERO PUSH2 0x16BE JUMPI PUSH2 0x16BD PUSH2 0x1465 JUMP JUMPDEST JUMPDEST PUSH0 PUSH2 0x16CB DUP8 DUP3 DUP9 ADD PUSH2 0x14E2 JUMP JUMPDEST SWAP5 POP POP PUSH1 0x20 PUSH2 0x16DC DUP8 DUP3 DUP9 ADD PUSH2 0x14E2 JUMP JUMPDEST SWAP4 POP POP PUSH1 0x40 PUSH2 0x16ED DUP8 DUP3 DUP9 ADD PUSH2 0x14E2 JUMP JUMPDEST SWAP3 POP POP PUSH1 0x60 PUSH2 0x16FE DUP8 DUP3 DUP9 ADD PUSH2 0x14E2 JUMP JUMPDEST SWAP2 POP POP SWAP3 SWAP6 SWAP2 SWAP5 POP SWAP3 POP JUMP JUMPDEST PUSH2 0x1713 DUP2 PUSH2 0x1488 JUMP JUMPDEST DUP3 MSTORE POP POP JUMP JUMPDEST PUSH0 PUSH1 0x20 DUP3 ADD SWAP1 POP PUSH2 0x172C PUSH0 DUP4 ADD DUP5 PUSH2 0x170A JUMP JUMPDEST SWAP3 SWAP2 POP POP JUMP JUMPDEST PUSH0 PUSH0 PUSH1 0x40 DUP4 DUP6 SUB SLT ISZERO PUSH2 0x1748 JUMPI PUSH2 0x1747 PUSH2 0x1465 JUMP JUMPDEST JUMPDEST PUSH0 PUSH2 0x1755 DUP6 DUP3 DUP7 ADD PUSH2 0x14AF JUMP JUMPDEST SWAP3 POP POP PUSH1 0x20 PUSH2 0x1766 DUP6 DUP3 DUP7 ADD PUSH2 0x14AF JUMP JUMPDEST SWAP2 POP POP SWAP3 POP SWAP3 SWAP1 POP JUMP JUMPDEST PUSH0 PUSH1 0x20 DUP3 DUP5 SUB SLT ISZERO PUSH2 0x1785 JUMPI PUSH2 0x1784 PUSH2 0x1465 JUMP JUMPDEST JUMPDEST PUSH0 PUSH2 0x1792 DUP5 DUP3 DUP6 ADD PUSH2 0x14E2 JUMP JUMPDEST SWAP2 POP POP SWAP3 SWAP2 POP POP JUMP JUMPDEST PUSH32 0x4E487B7100000000000000000000000000000000000000000000000000000000 PUSH0 MSTORE PUSH1 0x22 PUSH1 0x4 MSTORE PUSH1 0x24 PUSH0 REVERT JUMPDEST PUSH0 PUSH1 0x2 DUP3 DIV SWAP1 POP PUSH1 0x1 DUP3 AND DUP1 PUSH2 0x17DF JUMPI PUSH1 0x7F DUP3 AND SWAP2 POP JUMPDEST PUSH1 0x20 DUP3 LT DUP2 SUB PUSH2 0x17F2 JUMPI PUSH2 0x17F1 PUSH2 0x179B JUMP JUMPDEST JUMPDEST POP SWAP2 SWAP1 POP JUMP JUMPDEST PUSH0 PUSH1 0x60 DUP3 ADD SWAP1 POP PUSH2 0x180B PUSH0 DUP4 ADD DUP7 PUSH2 0x170A JUMP JUMPDEST PUSH2 0x1818 PUSH1 0x20 DUP4 ADD DUP6 PUSH2 0x15CF JUMP JUMPDEST PUSH2 0x1825 PUSH1 0x40 DUP4 ADD DUP5 PUSH2 0x15CF JUMP JUMPDEST SWAP5 SWAP4 POP POP POP POP JUMP JUMPDEST PUSH32 0x4164647265737320697320626C61636B6C697374656400000000000000000000 PUSH0 DUP3 ADD MSTORE POP JUMP JUMPDEST PUSH0 PUSH2 0x1861 PUSH1 0x16 DUP4 PUSH2 0x13DF JUMP JUMPDEST SWAP2 POP PUSH2 0x186C DUP3 PUSH2 0x182D JUMP JUMPDEST PUSH1 0x20 DUP3 ADD SWAP1 POP SWAP2 SWAP1 POP JUMP JUMPDEST PUSH0 PUSH1 0x20 DUP3 ADD SWAP1 POP DUP2 DUP2 SUB PUSH0 DUP4 ADD MSTORE PUSH2 0x188E DUP2 PUSH2 0x1855 JUMP JUMPDEST SWAP1 POP SWAP2 SWAP1 POP JUMP JUMPDEST PUSH32 0x54726164696E67206973206E6F7420656E61626C656420796574000000000000 PUSH0 DUP3 ADD MSTORE POP JUMP JUMPDEST PUSH0 PUSH2 0x18C9 PUSH1 0x1A DUP4 PUSH2 0x13DF JUMP JUMPDEST SWAP2 POP PUSH2 0x18D4 DUP3 PUSH2 0x1895 JUMP JUMPDEST PUSH1 0x20 DUP3 ADD SWAP1 POP SWAP2 SWAP1 POP JUMP JUMPDEST PUSH0 PUSH1 0x20 DUP3 ADD SWAP1 POP DUP2 DUP2 SUB PUSH0 DUP4 ADD MSTORE PUSH2 0x18F6 DUP2 PUSH2 0x18BD JUMP JUMPDEST SWAP1 POP SWAP2 SWAP1 POP JUMP JUMPDEST PUSH32 0x5472616E7366657220616D6F756E742065786365656473206D6178206C696D69 PUSH0 DUP3 ADD MSTORE PUSH32 0x7400000000000000000000000000000000000000000000000000000000000000 PUSH1 0x20 DUP3 ADD MSTORE POP JUMP JUMPDEST PUSH0 PUSH2 0x1957 PUSH1 0x21 DUP4 PUSH2 0x13DF JUMP JUMPDEST SWAP2 POP PUSH2 0x1962 DUP3 PUSH2 0x18FD JUMP JUMPDEST PUSH1 0x40 DUP3 ADD SWAP1 POP SWAP2 SWAP1 POP JUMP JUMPDEST PUSH0 PUSH1 0x20 DUP3 ADD SWAP1 POP DUP2 DUP2 SUB PUSH0 DUP4 ADD MSTORE PUSH2 0x1984 DUP2 PUSH2 0x194B JUMP JUMPDEST SWAP1 POP SWAP2 SWAP1 POP JUMP JUMPDEST PUSH32 0x4E487B7100000000000000000000000000000000000000000000000000000000 PUSH0 MSTORE PUSH1 0x11 PUSH1 0x4 MSTORE PUSH1 0x24 PUSH0 REVERT JUMPDEST PUSH0 PUSH2 0x19C2 DUP3 PUSH2 0x14C3 JUMP JUMPDEST SWAP2 POP PUSH2 0x19CD DUP4 PUSH2 0x14C3 JUMP JUMPDEST SWAP3 POP DUP3 DUP3 MUL PUSH2 0x19DB DUP2 PUSH2 0x14C3 JUMP JUMPDEST SWAP2 POP DUP3 DUP3 DIV DUP5 EQ DUP4 ISZERO OR PUSH2 0x19F2 JUMPI PUSH2 0x19F1 PUSH2 0x198B JUMP JUMPDEST JUMPDEST POP SWAP3 SWAP2 POP POP JUMP JUMPDEST PUSH32 0x4E487B7100000000000000000000000000000000000000000000000000000000 PUSH0 MSTORE PUSH1 0x12 PUSH1 0x4 MSTORE PUSH1 0x24 PUSH0 REVERT JUMPDEST PUSH0 PUSH2 0x1A30 DUP3 PUSH2 0x14C3 JUMP JUMPDEST SWAP2 POP PUSH2 0x1A3B DUP4 PUSH2 0x14C3 JUMP JUMPDEST SWAP3 POP DUP3 PUSH2 0x1A4B JUMPI PUSH2 0x1A4A PUSH2 0x19F9 JUMP JUMPDEST JUMPDEST DUP3 DUP3 DIV SWAP1 POP SWAP3 SWAP2 POP POP JUMP JUMPDEST PUSH0 PUSH2 0x1A60 DUP3 PUSH2 0x14C3 JUMP JUMPDEST SWAP2 POP PUSH2 0x1A6B DUP4 PUSH2 0x14C3 JUMP JUMPDEST SWAP3 POP DUP3 DUP3 SUB SWAP1 POP DUP2 DUP2 GT ISZERO PUSH2 0x1A83 JUMPI PUSH2 0x1A82 PUSH2 0x198B JUMP JUMPDEST JUMPDEST SWAP3 SWAP2 POP POP JUMP JUMPDEST PUSH0 PUSH2 0x1A93 DUP3 PUSH2 0x14C3 JUMP JUMPDEST SWAP2 POP PUSH2 0x1A9E DUP4 PUSH2 0x14C3 JUMP JUMPDEST SWAP3 POP DUP3 DUP3 ADD SWAP1 POP DUP1 DUP3 GT ISZERO PUSH2 0x1AB6 JUMPI PUSH2 0x1AB5 PUSH2 0x198B JUMP JUMPDEST JUMPDEST SWAP3 SWAP2 POP POP JUMP INVALID LOG2 PUSH5 0x6970667358 0x22 SLT KECCAK256 TIMESTAMP DUP15 0xA7 0xB1 0xB6 CODECOPY POP LOG0 0xAF 0x2D LOG4 PUSH11 0xA2AEDD0B45103A17D7A263 0xCA TIMESTAMP 0xC1 DUP2 LT GASLIMIT PUSH24 0xA16164736F6C634300081D00330000000000000000000000 "
	},
	"abi": [
		{
			"inputs": [],
			"stateMutability": "nonpayable",
			"type": "constructor"
		},
		{
			"inputs": [
				{
					"internalType": "address",
					"name": "spender",
					"type": "address"
				},
				{
					"internalType": "uint256",
					"name": "allowance",
					"type": "uint256"
				},
				{
					"internalType": "uint256",
					"name": "needed",
					"type": "uint256"
				}
			],
			"name": "ERC20InsufficientAllowance",
			"type": "error"
		},
		{
			"inputs": [
				{
					"internalType": "address",
					"name": "sender",
					"type": "address"
				},
				{
					"internalType": "uint256",
					"name": "balance",
					"type": "uint256"
				},
				{
					"internalType": "uint256",
					"name": "needed",
					"type": "uint256"
				}
			],
			"name": "ERC20InsufficientBalance",
			"type": "error"
		},
		{
			"inputs": [
				{
					"internalType": "address",
					"name": "approver",
					"type": "address"
				}
			],
			"name": "ERC20InvalidApprover",
			"type": "error"
		},
		{
			"inputs": [
				{
					"internalType": "address",
					"name": "receiver",
					"type": "address"
				}
			],
			"name": "ERC20InvalidReceiver",
			"type": "error"
		},
		{
			"inputs": [
				{
					"internalType": "address",
					"name": "sender",
					"type": "address"
				}
			],
			"name": "ERC20InvalidSender",
			"type": "error"
		},
		{
			"inputs": [
				{
					"internalType": "address",
					"name": "spender",
					"type": "address"
				}
			],
			"name": "ERC20InvalidSpender",
			"type": "error"
		},
		{
			"inputs": [
				{
					"internalType": "address",
					"name": "owner",
					"type": "address"
				}
			],
			"name": "OwnableInvalidOwner",
			"type": "error"
		},
		{
			"inputs": [
				{
					"internalType": "address",
					"name": "account",
					"type": "address"
				}
			],
			"name": "OwnableUnauthorizedAccount",
			"type": "error"
		},
		{
			"anonymous": false,
			"inputs": [
				{
					"indexed": true,
					"internalType": "address",
					"name": "owner",
					"type": "address"
				},
				{
					"indexed": true,
					"internalType": "address",
					"name": "spender",
					"type": "address"
				},
				{
					"indexed": false,
					"internalType": "uint256",
					"name": "value",
					"type": "uint256"
				}
			],
			"name": "Approval",
			"type": "event"
		},
		{
			"anonymous": false,
			"inputs": [
				{
					"indexed": true,
					"internalType": "address",
					"name": "previousOwner",
					"type": "address"
				},
				{
					"indexed": true,
					"internalType": "address",
					"name": "newOwner",
					"type": "address"
				}
			],
			"name": "OwnershipTransferred",
			"type": "event"
		},
		{
			"anonymous": false,
			"inputs": [
				{
					"indexed": true,
					"internalType": "address",
					"name": "from",
					"type": "address"
				},
				{
					"indexed": true,
					"internalType": "address",
					"name": "to",
					"type": "address"
				},
				{
					"indexed": false,
					"internalType": "uint256",
					"name": "value",
					"type": "uint256"
				}
			],
			"name": "Transfer",
			"type": "event"
		},
		{
			"inputs": [
				{
					"internalType": "address",
					"name": "owner",
					"type": "address"
				},
				{
					"internalType": "address",
					"name": "spender",
					"type": "address"
				}
			],
			"name": "allowance",
			"outputs": [
				{
					"internalType": "uint256",
					"name": "",
					"type": "uint256"
				}
			],
			"stateMutability": "view",
			"type": "function"
		},
		{
			"inputs": [
				{
					"internalType": "address",
					"name": "spender",
					"type": "address"
				},
				{
					"internalType": "uint256",
					"name": "value",
					"type": "uint256"
				}
			],
			"name": "approve",
			"outputs": [
				{
					"internalType": "bool",
					"name": "",
					"type": "bool"
				}
			],
			"stateMutability": "nonpayable",
			"type": "function"
		},
		{
			"inputs": [
				{
					"internalType": "address",
					"name": "account",
					"type": "address"
				}
			],
			"name": "balanceOf",
			"outputs": [
				{
					"internalType": "uint256",
					"name": "",
					"type": "uint256"
				}
			],
			"stateMutability": "view",
			"type": "function"
		},
		{
			"inputs": [],
			"name": "burnFee",
			"outputs": [
				{
					"internalType": "uint256",
					"name": "",
					"type": "uint256"
				}
			],
			"stateMutability": "view",
			"type": "function"
		},
		{
			"inputs": [],
			"name": "decimals",
			"outputs": [
				{
					"internalType": "uint8",
					"name": "",
					"type": "uint8"
				}
			],
			"stateMutability": "view",
			"type": "function"
		},
		{
			"inputs": [],
			"name": "devFee",
			"outputs": [
				{
					"internalType": "uint256",
					"name": "",
					"type": "uint256"
				}
			],
			"stateMutability": "view",
			"type": "function"
		},
		{
			"inputs": [],
			"name": "devWallet",
			"outputs": [
				{
					"internalType": "address",
					"name": "",
					"type": "address"
				}
			],
			"stateMutability": "view",
			"type": "function"
		},
		{
			"inputs": [],
			"name": "enableTrading",
			"outputs": [],
			"stateMutability": "nonpayable",
			"type": "function"
		},
		{
			"inputs": [
				{
					"internalType": "address",
					"name": "account",
					"type": "address"
				},
				{
					"internalType": "bool",
					"name": "status",
					"type": "bool"
				}
			],
			"name": "excludeFromFees",
			"outputs": [],
			"stateMutability": "nonpayable",
			"type": "function"
		},
		{
			"inputs": [],
			"name": "liquidityFee",
			"outputs": [
				{
					"internalType": "uint256",
					"name": "",
					"type": "uint256"
				}
			],
			"stateMutability": "view",
			"type": "function"
		},
		{
			"inputs": [],
			"name": "maxTxAmount",
			"outputs": [
				{
					"internalType": "uint256",
					"name": "",
					"type": "uint256"
				}
			],
			"stateMutability": "view",
			"type": "function"
		},
		{
			"inputs": [],
			"name": "name",
			"outputs": [
				{
					"internalType": "string",
					"name": "",
					"type": "string"
				}
			],
			"stateMutability": "view",
			"type": "function"
		},
		{
			"inputs": [],
			"name": "owner",
			"outputs": [
				{
					"internalType": "address",
					"name": "",
					"type": "address"
				}
			],
			"stateMutability": "view",
			"type": "function"
		},
		{
			"inputs": [],
			"name": "renounceOwnership",
			"outputs": [],
			"stateMutability": "nonpayable",
			"type": "function"
		},
		{
			"inputs": [],
			"name": "rewardFee",
			"outputs": [
				{
					"internalType": "uint256",
					"name": "",
					"type": "uint256"
				}
			],
			"stateMutability": "view",
			"type": "function"
		},
		{
			"inputs": [
				{
					"internalType": "address",
					"name": "account",
					"type": "address"
				},
				{
					"internalType": "bool",
					"name": "status",
					"type": "bool"
				}
			],
			"name": "setBlacklist",
			"outputs": [],
			"stateMutability": "nonpayable",
			"type": "function"
		},
		{
			"inputs": [
				{
					"internalType": "address",
					"name": "_devWallet",
					"type": "address"
				}
			],
			"name": "setDevWallet",
			"outputs": [],
			"stateMutability": "nonpayable",
			"type": "function"
		},
		{
			"inputs": [
				{
					"internalType": "uint256",
					"name": "_burnFee",
					"type": "uint256"
				},
				{
					"internalType": "uint256",
					"name": "_rewardFee",
					"type": "uint256"
				},
				{
					"internalType": "uint256",
					"name": "_devFee",
					"type": "uint256"
				},
				{
					"internalType": "uint256",
					"name": "_liquidityFee",
					"type": "uint256"
				}
			],
			"name": "setFees",
			"outputs": [],
			"stateMutability": "nonpayable",
			"type": "function"
		},
		{
			"inputs": [
				{
					"internalType": "uint256",
					"name": "_maxTxAmount",
					"type": "uint256"
				}
			],
			"name": "setMaxTxAmount",
			"outputs": [],
			"stateMutability": "nonpayable",
			"type": "function"
		},
		{
			"inputs": [],
			"name": "symbol",
			"outputs": [
				{
					"internalType": "string",
					"name": "",
					"type": "string"
				}
			],
			"stateMutability": "view",
			"type": "function"
		},
		{
			"inputs": [],
			"name": "totalSupply",
			"outputs": [
				{
					"internalType": "uint256",
					"name": "",
					"type": "uint256"
				}
			],
			"stateMutability": "view",
			"type": "function"
		},
		{
			"inputs": [],
			"name": "tradingEnabled",
			"outputs": [
				{
					"internalType": "bool",
					"name": "",
					"type": "bool"
				}
			],
			"stateMutability": "view",
			"type": "function"
		},
		{
			"inputs": [
				{
					"internalType": "address",
					"name": "to",
					"type": "address"
				},
				{
					"internalType": "uint256",
					"name": "value",
					"type": "uint256"
				}
			],
			"name": "transfer",
			"outputs": [
				{
					"internalType": "bool",
					"name": "",
					"type": "bool"
				}
			],
			"stateMutability": "nonpayable",
			"type": "function"
		},
		{
			"inputs": [
				{
					"internalType": "address",
					"name": "from",
					"type": "address"
				},
				{
					"internalType": "address",
					"name": "to",
					"type": "address"
				},
				{
					"internalType": "uint256",
					"name": "value",
					"type": "uint256"
				}
			],
			"name": "transferFrom",
			"outputs": [
				{
					"internalType": "bool",
					"name": "",
					"type": "bool"
				}
			],
			"stateMutability": "nonpayable",
			"type": "function"
		},
		{
			"inputs": [
				{
					"internalType": "address",
					"name": "newOwner",
					"type": "address"
				}
			],
			"name": "transferOwnership",
			"outputs": [],
			"stateMutability": "nonpayable",
			"type": "function"
		}
	],
	"storageLayout": {
		"storage": [
			{
				"astId": 307,
				"contract": "ZiggiToken.sol:ZiggiToken",
				"label": "_balances",
				"offset": 0,
				"slot": "0",
				"type": "t_mapping(t_address,t_uint256)"
			},
			{
				"astId": 313,
				"contract": "ZiggiToken.sol:ZiggiToken",
				"label": "_allowances",
				"offset": 0,
				"slot": "1",
				"type": "t_mapping(t_address,t_mapping(t_address,t_uint256))"
			},
			{
				"astId": 315,
				"contract": "ZiggiToken.sol:ZiggiToken",
				"label": "_totalSupply",
				"offset": 0,
				"slot": "2",
				"type": "t_uint256"
			},
			{
				"astId": 317,
				"contract": "ZiggiToken.sol:ZiggiToken",
				"label": "_name",
				"offset": 0,
				"slot": "3",
				"type": "t_string_storage"
			},
			{
				"astId": 319,
				"contract": "ZiggiToken.sol:ZiggiToken",
				"label": "_symbol",
				"offset": 0,
				"slot": "4",
				"type": "t_string_storage"
			},
			{
				"astId": 8,
				"contract": "ZiggiToken.sol:ZiggiToken",
				"label": "_owner",
				"offset": 0,
				"slot": "5",
				"type": "t_address"
			},
			{
				"astId": 945,
				"contract": "ZiggiToken.sol:ZiggiToken",
				"label": "isBlacklisted",
				"offset": 0,
				"slot": "6",
				"type": "t_mapping(t_address,t_bool)"
			},
			{
				"astId": 949,
				"contract": "ZiggiToken.sol:ZiggiToken",
				"label": "isExcludedFromFees",
				"offset": 0,
				"slot": "7",
				"type": "t_mapping(t_address,t_bool)"
			},
			{
				"astId": 952,
				"contract": "ZiggiToken.sol:ZiggiToken",
				"label": "burnFee",
				"offset": 0,
				"slot": "8",
				"type": "t_uint256"
			},
			{
				"astId": 955,
				"contract": "ZiggiToken.sol:ZiggiToken",
				"label": "rewardFee",
				"offset": 0,
				"slot": "9",
				"type": "t_uint256"
			},
			{
				"astId": 958,
				"contract": "ZiggiToken.sol:ZiggiToken",
				"label": "devFee",
				"offset": 0,
				"slot": "10",
				"type": "t_uint256"
			},
			{
				"astId": 961,
				"contract": "ZiggiToken.sol:ZiggiToken",
				"label": "liquidityFee",
				"offset": 0,
				"slot": "11",
				"type": "t_uint256"
			},
			{
				"astId": 963,
				"contract": "ZiggiToken.sol:ZiggiToken",
				"label": "maxTxAmount",
				"offset": 0,
				"slot": "12",
				"type": "t_uint256"
			},
			{
				"astId": 966,
				"contract": "ZiggiToken.sol:ZiggiToken",
				"label": "tradingEnabled",
				"offset": 0,
				"slot": "13",
				"type": "t_bool"
			},
			{
				"astId": 968,
				"contract": "ZiggiToken.sol:ZiggiToken",
				"label": "devWallet",
				"offset": 1,
				"slot": "13",
				"type": "t_address"
			}
		],
		"types": {
			"t_address": {
				"encoding": "inplace",
				"label": "address",
				"numberOfBytes": "20"
			},
			"t_bool": {
				"encoding": "inplace",
				"label": "bool",
				"numberOfBytes": "1"
			},
			"t_mapping(t_address,t_bool)": {
				"encoding": "mapping",
				"key": "t_address",
				"label": "mapping(address => bool)",
				"numberOfBytes": "32",
				"value": "t_bool"
			},
			"t_mapping(t_address,t_mapping(t_address,t_uint256))": {
				"encoding": "mapping",
				"key": "t_address",
				"label": "mapping(address => mapping(address => uint256))",
				"numberOfBytes": "32",
				"value": "t_mapping(t_address,t_uint256)"
			},
			"t_mapping(t_address,t_uint256)": {
				"encoding": "mapping",
				"key": "t_address",
				"label": "mapping(address => uint256)",
				"numberOfBytes": "32",
				"value": "t_uint256"
			},
			"t_string_storage": {
				"encoding": "bytes",
				"label": "string",
				"numberOfBytes": "32"
			},
			"t_uint256": {
				"encoding": "inplace",
				"label": "uint256",
				"numberOfBytes": "32"
			}
		}
	},
	"web3Deploy": "var ziggitokenContract = new web3.eth.Contract([{\"inputs\":[],\"stateMutability\":\"nonpayable\",\"type\":\"constructor\"},{\"inputs\":[{\"internalType\":\"address\",\"name\":\"spender\",\"type\":\"address\"},{\"internalType\":\"uint256\",\"name\":\"allowance\",\"type\":\"uint256\"},{\"internalType\":\"uint256\",\"name\":\"needed\",\"type\":\"uint256\"}],\"name\":\"ERC20InsufficientAllowance\",\"type\":\"error\"},{\"inputs\":[{\"internalType\":\"address\",\"name\":\"sender\",\"type\":\"address\"},{\"internalType\":\"uint256\",\"name\":\"balance\",\"type\":\"uint256\"},{\"internalType\":\"uint256\",\"name\":\"needed\",\"type\":\"uint256\"}],\"name\":\"ERC20InsufficientBalance\",\"type\":\"error\"},{\"inputs\":[{\"internalType\":\"address\",\"name\":\"approver\",\"type\":\"address\"}],\"name\":\"ERC20InvalidApprover\",\"type\":\"error\"},{\"inputs\":[{\"internalType\":\"address\",\"name\":\"receiver\",\"type\":\"address\"}],\"name\":\"ERC20InvalidReceiver\",\"type\":\"error\"},{\"inputs\":[{\"internalType\":\"address\",\"name\":\"sender\",\"type\":\"address\"}],\"name\":\"ERC20InvalidSender\",\"type\":\"error\"},{\"inputs\":[{\"internalType\":\"address\",\"name\":\"spender\",\"type\":\"address\"}],\"name\":\"ERC20InvalidSpender\",\"type\":\"error\"},{\"inputs\":[{\"internalType\":\"address\",\"name\":\"owner\",\"type\":\"address\"}],\"name\":\"OwnableInvalidOwner\",\"type\":\"error\"},{\"inputs\":[{\"internalType\":\"address\",\"name\":\"account\",\"type\":\"address\"}],\"name\":\"OwnableUnauthorizedAccount\",\"type\":\"error\"},{\"anonymous\":false,\"inputs\":[{\"indexed\":true,\"internalType\":\"address\",\"name\":\"owner\",\"type\":\"address\"},{\"indexed\":true,\"internalType\":\"address\",\"name\":\"spender\",\"type\":\"address\"},{\"indexed\":false,\"internalType\":\"uint256\",\"name\":\"value\",\"type\":\"uint256\"}],\"name\":\"Approval\",\"type\":\"event\"},{\"anonymous\":false,\"inputs\":[{\"indexed\":true,\"internalType\":\"address\",\"name\":\"previousOwner\",\"type\":\"address\"},{\"indexed\":true,\"internalType\":\"address\",\"name\":\"newOwner\",\"type\":\"address\"}],\"name\":\"OwnershipTransferred\",\"type\":\"event\"},{\"anonymous\":false,\"inputs\":[{\"indexed\":true,\"internalType\":\"address\",\"name\":\"from\",\"type\":\"address\"},{\"indexed\":true,\"internalType\":\"address\",\"name\":\"to\",\"type\":\"address\"},{\"indexed\":false,\"internalType\":\"uint256\",\"name\":\"value\",\"type\":\"uint256\"}],\"name\":\"Transfer\",\"type\":\"event\"},{\"inputs\":[{\"internalType\":\"address\",\"name\":\"owner\",\"type\":\"address\"},{\"internalType\":\"address\",\"name\":\"spender\",\"type\":\"address\"}],\"name\":\"allowance\",\"outputs\":[{\"internalType\":\"uint256\",\"name\":\"\",\"type\":\"uint256\"}],\"stateMutability\":\"view\",\"type\":\"function\"},{\"inputs\":[{\"internalType\":\"address\",\"name\":\"spender\",\"type\":\"address\"},{\"internalType\":\"uint256\",\"name\":\"value\",\"type\":\"uint256\"}],\"name\":\"approve\",\"outputs\":[{\"internalType\":\"bool\",\"name\":\"\",\"type\":\"bool\"}],\"stateMutability\":\"nonpayable\",\"type\":\"function\"},{\"inputs\":[{\"internalType\":\"address\",\"name\":\"account\",\"type\":\"address\"}],\"name\":\"balanceOf\",\"outputs\":[{\"internalType\":\"uint256\",\"name\":\"\",\"type\":\"uint256\"}],\"stateMutability\":\"view\",\"type\":\"function\"},{\"inputs\":[],\"name\":\"burnFee\",\"outputs\":[{\"internalType\":\"uint256\",\"name\":\"\",\"type\":\"uint256\"}],\"stateMutability\":\"view\",\"type\":\"function\"},{\"inputs\":[],\"name\":\"decimals\",\"outputs\":[{\"internalType\":\"uint8\",\"name\":\"\",\"type\":\"uint8\"}],\"stateMutability\":\"view\",\"type\":\"function\"},{\"inputs\":[],\"name\":\"devFee\",\"outputs\":[{\"internalType\":\"uint256\",\"name\":\"\",\"type\":\"uint256\"}],\"stateMutability\":\"view\",\"type\":\"function\"},{\"inputs\":[],\"name\":\"devWallet\",\"outputs\":[{\"internalType\":\"address\",\"name\":\"\",\"type\":\"address\"}],\"stateMutability\":\"view\",\"type\":\"function\"},{\"inputs\":[],\"name\":\"enableTrading\",\"outputs\":[],\"stateMutability\":\"nonpayable\",\"type\":\"function\"},{\"inputs\":[{\"internalType\":\"address\",\"name\":\"account\",\"type\":\"address\"},{\"internalType\":\"bool\",\"name\":\"status\",\"type\":\"bool\"}],\"name\":\"excludeFromFees\",\"outputs\":[],\"stateMutability\":\"nonpayable\",\"type\":\"function\"},{\"inputs\":[],\"name\":\"liquidityFee\",\"outputs\":[{\"internalType\":\"uint256\",\"name\":\"\",\"type\":\"uint256\"}],\"stateMutability\":\"view\",\"type\":\"function\"},{\"inputs\":[],\"name\":\"maxTxAmount\",\"outputs\":[{\"internalType\":\"uint256\",\"name\":\"\",\"type\":\"uint256\"}],\"stateMutability\":\"view\",\"type\":\"function\"},{\"inputs\":[],\"name\":\"name\",\"outputs\":[{\"internalType\":\"string\",\"name\":\"\",\"type\":\"string\"}],\"stateMutability\":\"view\",\"type\":\"function\"},{\"inputs\":[],\"name\":\"owner\",\"outputs\":[{\"internalType\":\"address\",\"name\":\"\",\"type\":\"address\"}],\"stateMutability\":\"view\",\"type\":\"function\"},{\"inputs\":[],\"name\":\"renounceOwnership\",\"outputs\":[],\"stateMutability\":\"nonpayable\",\"type\":\"function\"},{\"inputs\":[],\"name\":\"rewardFee\",\"outputs\":[{\"internalType\":\"uint256\",\"name\":\"\",\"type\":\"uint256\"}],\"stateMutability\":\"view\",\"type\":\"function\"},{\"inputs\":[{\"internalType\":\"address\",\"name\":\"account\",\"type\":\"address\"},{\"internalType\":\"bool\",\"name\":\"status\",\"type\":\"bool\"}],\"name\":\"setBlacklist\",\"outputs\":[],\"stateMutability\":\"nonpayable\",\"type\":\"function\"},{\"inputs\":[{\"internalType\":\"address\",\"name\":\"_devWallet\",\"type\":\"address\"}],\"name\":\"setDevWallet\",\"outputs\":[],\"stateMutability\":\"nonpayable\",\"type\":\"function\"},{\"inputs\":[{\"internalType\":\"uint256\",\"name\":\"_burnFee\",\"type\":\"uint256\"},{\"internalType\":\"uint256\",\"name\":\"_rewardFee\",\"type\":\"uint256\"},{\"internalType\":\"uint256\",\"name\":\"_devFee\",\"type\":\"uint256\"},{\"internalType\":\"uint256\",\"name\":\"_liquidityFee\",\"type\":\"uint256\"}],\"name\":\"setFees\",\"outputs\":[],\"stateMutability\":\"nonpayable\",\"type\":\"function\"},{\"inputs\":[{\"internalType\":\"uint256\",\"name\":\"_maxTxAmount\",\"type\":\"uint256\"}],\"name\":\"setMaxTxAmount\",\"outputs\":[],\"stateMutability\":\"nonpayable\",\"type\":\"function\"},{\"inputs\":[],\"name\":\"symbol\",\"outputs\":[{\"internalType\":\"string\",\"name\":\"\",\"type\":\"string\"}],\"stateMutability\":\"view\",\"type\":\"function\"},{\"inputs\":[],\"name\":\"totalSupply\",\"outputs\":[{\"internalType\":\"uint256\",\"name\":\"\",\"type\":\"uint256\"}],\"stateMutability\":\"view\",\"type\":\"function\"},{\"inputs\":[],\"name\":\"tradingEnabled\",\"outputs\":[{\"internalType\":\"bool\",\"name\":\"\",\"type\":\"bool\"}],\"stateMutability\":\"view\",\"type\":\"function\"},{\"inputs\":[{\"internalType\":\"address\",\"name\":\"to\",\"type\":\"address\"},{\"internalType\":\"uint256\",\"name\":\"value\",\"type\":\"uint256\"}],\"name\":\"transfer\",\"outputs\":[{\"internalType\":\"bool\",\"name\":\"\",\"type\":\"bool\"}],\"stateMutability\":\"nonpayable\",\"type\":\"function\"},{\"inputs\":[{\"internalType\":\"address\",\"name\":\"from\",\"type\":\"address\"},{\"internalType\":\"address\",\"name\":\"to\",\"type\":\"address\"},{\"internalType\":\"uint256\",\"name\":\"value\",\"type\":\"uint256\"}],\"name\":\"transferFrom\",\"outputs\":[{\"internalType\":\"bool\",\"name\":\"\",\"type\":\"bool\"}],\"stateMutability\":\"nonpayable\",\"type\":\"function\"},{\"inputs\":[{\"internalType\":\"address\",\"name\":\"newOwner\",\"type\":\"address\"}],\"name\":\"transferOwnership\",\"outputs\":[],\"stateMutability\":\"nonpayable\",\"type\":\"function\"}]);\nvar ziggitoken = ziggitokenContract.deploy({\n     data: '0x6080604052600260085560016009556001600a556005600b555f600d5f6101000a81548160ff02191690831515021790555034801561003c575f5ffd5b50336040518060400160405280600581526020017f5a696767690000000000000000000000000000000000000000000000000000008152506040518060400160405280600581526020017f5a4947474900000000000000000000000000000000000000000000000000000081525081600390816100b99190610b87565b5080600490816100c99190610b87565b5050505f73ffffffffffffffffffffffffffffffffffffffff168173ffffffffffffffffffffffffffffffffffffffff160361013c575f6040517f1e4fbdf70000000000000000000000000000000000000000000000000000000081526004016101339190610c95565b60405180910390fd5b61014b8161023660201b60201c565b505f61015b6102f960201b60201c565b600a6101679190610e16565b620f42406101759190610e60565b9050610187338261030160201b60201c565b6064816101949190610ece565b600c8190555033600d60016101000a81548173ffffffffffffffffffffffffffffffffffffffff021916908373ffffffffffffffffffffffffffffffffffffffff160217905550600160075f3373ffffffffffffffffffffffffffffffffffffffff1673ffffffffffffffffffffffffffffffffffffffff1681526020019081526020015f205f6101000a81548160ff0219169083151502179055505061112f565b5f60055f9054906101000a900473ffffffffffffffffffffffffffffffffffffffff1690508160055f6101000a81548173ffffffffffffffffffffffffffffffffffffffff021916908373ffffffffffffffffffffffffffffffffffffffff1602179055508173ffffffffffffffffffffffffffffffffffffffff168173ffffffffffffffffffffffffffffffffffffffff167f8be0079c531659141344cd1fd0a4f28419497f9722a3daafe3b4186f6b6457e060405160405180910390a35050565b5f6012905090565b5f73ffffffffffffffffffffffffffffffffffffffff168273ffffffffffffffffffffffffffffffffffffffff1603610371575f6040517fec442f050000000000000000000000000000000000000000000000000000000081526004016103689190610c95565b60405180910390fd5b6103825f838361038660201b60201c565b5050565b60065f8473ffffffffffffffffffffffffffffffffffffffff1673ffffffffffffffffffffffffffffffffffffffff1681526020019081526020015f205f9054906101000a900460ff16158015610424575060065f8373ffffffffffffffffffffffffffffffffffffffff1673ffffffffffffffffffffffffffffffffffffffff1681526020019081526020015f205f9054906101000a900460ff16155b610463576040517f08c379a000000000000000000000000000000000000000000000000000000000815260040161045a90610f58565b60405180910390fd5b600d5f9054906101000a900460ff16806104c3575060075f8473ffffffffffffffffffffffffffffffffffffffff1673ffffffffffffffffffffffffffffffffffffffff1681526020019081526020015f205f9054906101000a900460ff165b610502576040517f08c379a00000000000000000000000000000000000000000000000000000000081526004016104f990610fc0565b60405180910390fd5b600c5481111580610559575060075f8473ffffffffffffffffffffffffffffffffffffffff1673ffffffffffffffffffffffffffffffffffffffff1681526020019081526020015f205f9054906101000a900460ff165b610598576040517f08c379a000000000000000000000000000000000000000000000000000000000815260040161058f9061104e565b60405180910390fd5b5f6064600854836105a99190610e60565b6105b39190610ece565b90505f6064600954846105c69190610e60565b6105d09190610ece565b90505f6064600a54856105e39190610e60565b6105ed9190610ece565b90505f6064600b54866106009190610e60565b61060a9190610ece565b90505f818385878961061c919061106c565b610626919061106c565b610630919061106c565b61063a919061106c565b90505f8511156106555761065488866106ac60201b60201c565b5b5f8311156106915761069088600d60019054906101000a900473ffffffffffffffffffffffffffffffffffffffff168561073160201b60201c565b5b6106a288888361073160201b60201c565b5050505050505050565b5f73ffffffffffffffffffffffffffffffffffffffff168273ffffffffffffffffffffffffffffffffffffffff160361071c575f6040517f96c6fd1e0000000000000000000000000000000000000000000000000000000081526004016107139190610c95565b60405180910390fd5b61072d825f8361038660201b60201c565b5050565b5f73ffffffffffffffffffffffffffffffffffffffff168373ffffffffffffffffffffffffffffffffffffffff1603610781578060025f828254610775919061109f565b9250508190555061084f565b5f5f5f8573ffffffffffffffffffffffffffffffffffffffff1673ffffffffffffffffffffffffffffffffffffffff1681526020019081526020015f205490508181101561080a578381836040517fe450d38c000000000000000000000000000000000000000000000000000000008152600401610801939291906110e1565b60405180910390fd5b8181035f5f8673ffffffffffffffffffffffffffffffffffffffff1673ffffffffffffffffffffffffffffffffffffffff1681526020019081526020015f2081905550505b5f73ffffffffffffffffffffffffffffffffffffffff168273ffffffffffffffffffffffffffffffffffffffff1603610896578060025f82825403925050819055506108e0565b805f5f8473ffffffffffffffffffffffffffffffffffffffff1673ffffffffffffffffffffffffffffffffffffffff1681526020019081526020015f205f82825401925050819055505b8173ffffffffffffffffffffffffffffffffffffffff168373ffffffffffffffffffffffffffffffffffffffff167fddf252ad1be2c89b69c2b068fc378daa952ba7f163c4a11628f55a4df523b3ef8360405161093d9190611116565b60405180910390a3505050565b5f81519050919050565b7f4e487b71000000000000000000000000000000000000000000000000000000005f52604160045260245ffd5b7f4e487b71000000000000000000000000000000000000000000000000000000005f52602260045260245ffd5b5f60028204905060018216806109c557607f821691505b6020821081036109d8576109d7610981565b5b50919050565b5f819050815f5260205f209050919050565b5f6020601f8301049050919050565b5f82821b905092915050565b5f60088302610a3a7fffffffffffffffffffffffffffffffffffffffffffffffffffffffffffffffff826109ff565b610a4486836109ff565b95508019841693508086168417925050509392505050565b5f819050919050565b5f819050919050565b5f610a88610a83610a7e84610a5c565b610a65565b610a5c565b9050919050565b5f819050919050565b610aa183610a6e565b610ab5610aad82610a8f565b848454610a0b565b825550505050565b5f5f905090565b610acc610abd565b610ad7818484610a98565b505050565b5b81811015610afa57610aef5f82610ac4565b600181019050610add565b5050565b601f821115610b3f57610b10816109de565b610b19846109f0565b81016020851015610b28578190505b610b3c610b34856109f0565b830182610adc565b50505b505050565b5f82821c905092915050565b5f610b5f5f1984600802610b44565b1980831691505092915050565b5f610b778383610b50565b9150826002028217905092915050565b610b908261094a565b67ffffffffffffffff811115610ba957610ba8610954565b5b610bb382546109ae565b610bbe828285610afe565b5f60209050601f831160018114610bef575f8415610bdd578287015190505b610be78582610b6c565b865550610c4e565b601f198416610bfd866109de565b5f5b82811015610c2457848901518255600182019150602085019450602081019050610bff565b86831015610c415784890151610c3d601f891682610b50565b8355505b6001600288020188555050505b505050505050565b5f73ffffffffffffffffffffffffffffffffffffffff82169050919050565b5f610c7f82610c56565b9050919050565b610c8f81610c75565b82525050565b5f602082019050610ca85f830184610c86565b92915050565b7f4e487b71000000000000000000000000000000000000000000000000000000005f52601160045260245ffd5b5f8160011c9050919050565b5f5f8291508390505b6001851115610d3057808604811115610d0c57610d0b610cae565b5b6001851615610d1b5780820291505b8081029050610d2985610cdb565b9450610cf0565b94509492505050565b5f82610d485760019050610e03565b81610d55575f9050610e03565b8160018114610d6b5760028114610d7557610da4565b6001915050610e03565b60ff841115610d8757610d86610cae565b5b8360020a915084821115610d9e57610d9d610cae565b5b50610e03565b5060208310610133831016604e8410600b8410161715610dd95782820a905083811115610dd457610dd3610cae565b5b610e03565b610de68484846001610ce7565b92509050818404811115610dfd57610dfc610cae565b5b81810290505b9392505050565b5f60ff82169050919050565b5f610e2082610a5c565b9150610e2b83610e0a565b9250610e587fffffffffffffffffffffffffffffffffffffffffffffffffffffffffffffffff8484610d39565b905092915050565b5f610e6a82610a5c565b9150610e7583610a5c565b9250828202610e8381610a5c565b91508282048414831517610e9a57610e99610cae565b5b5092915050565b7f4e487b71000000000000000000000000000000000000000000000000000000005f52601260045260245ffd5b5f610ed882610a5c565b9150610ee383610a5c565b925082610ef357610ef2610ea1565b5b828204905092915050565b5f82825260208201905092915050565b7f4164647265737320697320626c61636b6c6973746564000000000000000000005f82015250565b5f610f42601683610efe565b9150610f4d82610f0e565b602082019050919050565b5f6020820190508181035f830152610f6f81610f36565b9050919050565b7f54726164696e67206973206e6f7420656e61626c6564207965740000000000005f82015250565b5f610faa601a83610efe565b9150610fb582610f76565b602082019050919050565b5f6020820190508181035f830152610fd781610f9e565b9050919050565b7f5472616e7366657220616d6f756e742065786365656473206d6178206c696d695f8201527f7400000000000000000000000000000000000000000000000000000000000000602082015250565b5f611038602183610efe565b915061104382610fde565b604082019050919050565b5f6020820190508181035f8301526110658161102c565b9050919050565b5f61107682610a5c565b915061108183610a5c565b925082820390508181111561109957611098610cae565b5b92915050565b5f6110a982610a5c565b91506110b483610a5c565b92508282019050808211156110cc576110cb610cae565b5b92915050565b6110db81610a5c565b82525050565b5f6060820190506110f45f830186610c86565b61110160208301856110d2565b61110e60408301846110d2565b949350505050565b5f6020820190506111295f8301846110d2565b92915050565b611af28061113c5f395ff3fe608060405234801561000f575f5ffd5b5060043610610171575f3560e01c80638a8c523c116100dc57806398118cb411610095578063dd62ed3e1161006f578063dd62ed3e14610403578063ec28438a14610433578063f2fde38b1461044f578063fce589d81461046b57610171565b806398118cb414610399578063a9059cbb146103b7578063c0246668146103e757610171565b80638a8c523c146102f95780638b424267146103035780638c0b5e22146103215780638da5cb5b1461033f5780638ea5220f1461035d57806395d89b411461037b57610171565b8063313ce5671161012e578063313ce567146102495780634ada218b146102675780636827e764146102855780636fcba377146102a357806370a08231146102bf578063715018a6146102ef57610171565b806306fdde0314610175578063095ea7b314610193578063153b0d1e146101c357806318160ddd146101df5780631f53ac02146101fd57806323b872dd14610219575b5f5ffd5b61017d610489565b60405161018a9190611445565b60405180910390f35b6101ad60048036038101906101a891906114f6565b610519565b6040516101ba919061154e565b60405180910390f35b6101dd60048036038101906101d89190611591565b61053b565b005b6101e761059b565b6040516101f491906115de565b60405180910390f35b610217600480360381019061021291906115f7565b6105a4565b005b610233600480360381019061022e9190611622565b6105f0565b604051610240919061154e565b60405180910390f35b61025161061e565b60405161025e919061168d565b60405180910390f35b61026f610626565b60405161027c919061154e565b60405180910390f35b61028d610638565b60405161029a91906115de565b60405180910390f35b6102bd60048036038101906102b891906116a6565b61063e565b005b6102d960048036038101906102d491906115f7565b610668565b6040516102e691906115de565b60405180910390f35b6102f76106ad565b005b6103016106c0565b005b61030b6106e4565b60405161031891906115de565b60405180910390f35b6103296106ea565b60405161033691906115de565b60405180910390f35b6103476106f0565b6040516103549190611719565b60405180910390f35b610365610718565b6040516103729190611719565b60405180910390f35b61038361073e565b6040516103909190611445565b60405180910390f35b6103a16107ce565b6040516103ae91906115de565b60405180910390f35b6103d160048036038101906103cc91906114f6565b6107d4565b6040516103de919061154e565b60405180910390f35b61040160048036038101906103fc9190611591565b6107f6565b005b61041d60048036038101906104189190611732565b610856565b60405161042a91906115de565b60405180910390f35b61044d60048036038101906104489190611770565b6108d8565b005b610469600480360381019061046491906115f7565b6108ea565b005b61047361096e565b60405161048091906115de565b60405180910390f35b606060038054610498906117c8565b80601f01602080910402602001604051908101604052809291908181526020018280546104c4906117c8565b801561050f5780601f106104e65761010080835404028352916020019161050f565b820191905f5260205f20905b8154815290600101906020018083116104f257829003601f168201915b5050505050905090565b5f5f610523610974565b905061053081858561097b565b600191505092915050565b61054361098d565b8060065f8473ffffffffffffffffffffffffffffffffffffffff1673ffffffffffffffffffffffffffffffffffffffff1681526020019081526020015f205f6101000a81548160ff0219169083151502179055505050565b5f600254905090565b6105ac61098d565b80600d60016101000a81548173ffffffffffffffffffffffffffffffffffffffff021916908373ffffffffffffffffffffffffffffffffffffffff16021790555050565b5f5f6105fa610974565b9050610607858285610a14565b610612858585610aa7565b60019150509392505050565b5f6012905090565b600d5f9054906101000a900460ff1681565b600a5481565b61064661098d565b836008819055508260098190555081600a8190555080600b8190555050505050565b5f5f5f8373ffffffffffffffffffffffffffffffffffffffff1673ffffffffffffffffffffffffffffffffffffffff1681526020019081526020015f20549050919050565b6106b561098d565b6106be5f610b97565b565b6106c861098d565b6001600d5f6101000a81548160ff021916908315150217905550565b60095481565b600c5481565b5f60055f9054906101000a900473ffffffffffffffffffffffffffffffffffffffff16905090565b600d60019054906101000a900473ffffffffffffffffffffffffffffffffffffffff1681565b60606004805461074d906117c8565b80601f0160208091040260200160405190810160405280929190818152602001828054610779906117c8565b80156107c45780601f1061079b576101008083540402835291602001916107c4565b820191905f5260205f20905b8154815290600101906020018083116107a757829003601f168201915b5050505050905090565b600b5481565b5f5f6107de610974565b90506107eb818585610aa7565b600191505092915050565b6107fe61098d565b8060075f8473ffffffffffffffffffffffffffffffffffffffff1673ffffffffffffffffffffffffffffffffffffffff1681526020019081526020015f205f6101000a81548160ff0219169083151502179055505050565b5f60015f8473ffffffffffffffffffffffffffffffffffffffff1673ffffffffffffffffffffffffffffffffffffffff1681526020019081526020015f205f8373ffffffffffffffffffffffffffffffffffffffff1673ffffffffffffffffffffffffffffffffffffffff1681526020019081526020015f2054905092915050565b6108e061098d565b80600c8190555050565b6108f261098d565b5f73ffffffffffffffffffffffffffffffffffffffff168173ffffffffffffffffffffffffffffffffffffffff1603610962575f6040517f1e4fbdf70000000000000000000000000000000000000000000000000000000081526004016109599190611719565b60405180910390fd5b61096b81610b97565b50565b60085481565b5f33905090565b6109888383836001610c5a565b505050565b610995610974565b73ffffffffffffffffffffffffffffffffffffffff166109b36106f0565b73ffffffffffffffffffffffffffffffffffffffff1614610a12576109d6610974565b6040517f118cdaa7000000000000000000000000000000000000000000000000000000008152600401610a099190611719565b60405180910390fd5b565b5f610a1f8484610856565b90507fffffffffffffffffffffffffffffffffffffffffffffffffffffffffffffffff811015610aa15781811015610a92578281836040517ffb8f41b2000000000000000000000000000000000000000000000000000000008152600401610a89939291906117f8565b60405180910390fd5b610aa084848484035f610c5a565b5b50505050565b5f73ffffffffffffffffffffffffffffffffffffffff168373ffffffffffffffffffffffffffffffffffffffff1603610b17575f6040517f96c6fd1e000000000000000000000000000000000000000000000000000000008152600401610b0e9190611719565b60405180910390fd5b5f73ffffffffffffffffffffffffffffffffffffffff168273ffffffffffffffffffffffffffffffffffffffff1603610b87575f6040517fec442f05000000000000000000000000000000000000000000000000000000008152600401610b7e9190611719565b60405180910390fd5b610b92838383610e29565b505050565b5f60055f9054906101000a900473ffffffffffffffffffffffffffffffffffffffff1690508160055f6101000a81548173ffffffffffffffffffffffffffffffffffffffff021916908373ffffffffffffffffffffffffffffffffffffffff1602179055508173ffffffffffffffffffffffffffffffffffffffff168173ffffffffffffffffffffffffffffffffffffffff167f8be0079c531659141344cd1fd0a4f28419497f9722a3daafe3b4186f6b6457e060405160405180910390a35050565b5f73ffffffffffffffffffffffffffffffffffffffff168473ffffffffffffffffffffffffffffffffffffffff1603610cca575f6040517fe602df05000000000000000000000000000000000000000000000000000000008152600401610cc19190611719565b60405180910390fd5b5f73ffffffffffffffffffffffffffffffffffffffff168373ffffffffffffffffffffffffffffffffffffffff1603610d3a575f6040517f94280d62000000000000000000000000000000000000000000000000000000008152600401610d319190611719565b60405180910390fd5b8160015f8673ffffffffffffffffffffffffffffffffffffffff1673ffffffffffffffffffffffffffffffffffffffff1681526020019081526020015f205f8573ffffffffffffffffffffffffffffffffffffffff1673ffffffffffffffffffffffffffffffffffffffff1681526020019081526020015f20819055508015610e23578273ffffffffffffffffffffffffffffffffffffffff168473ffffffffffffffffffffffffffffffffffffffff167f8c5be1e5ebec7d5bd14f71427d1e84f3dd0314c0f7b2291e5b200ac8c7c3b92584604051610e1a91906115de565b60405180910390a35b50505050565b60065f8473ffffffffffffffffffffffffffffffffffffffff1673ffffffffffffffffffffffffffffffffffffffff1681526020019081526020015f205f9054906101000a900460ff16158015610ec7575060065f8373ffffffffffffffffffffffffffffffffffffffff1673ffffffffffffffffffffffffffffffffffffffff1681526020019081526020015f205f9054906101000a900460ff16155b610f06576040517f08c379a0000000000000000000000000000000000000000000000000000000008152600401610efd90611877565b60405180910390fd5b600d5f9054906101000a900460ff1680610f66575060075f8473ffffffffffffffffffffffffffffffffffffffff1673ffffffffffffffffffffffffffffffffffffffff1681526020019081526020015f205f9054906101000a900460ff165b610fa5576040517f08c379a0000000000000000000000000000000000000000000000000000000008152600401610f9c906118df565b60405180910390fd5b600c5481111580610ffc575060075f8473ffffffffffffffffffffffffffffffffffffffff1673ffffffffffffffffffffffffffffffffffffffff1681526020019081526020015f205f9054906101000a900460ff165b61103b576040517f08c379a00000000000000000000000000000000000000000000000000000000081526004016110329061196d565b60405180910390fd5b5f60646008548361104c91906119b8565b6110569190611a26565b90505f60646009548461106991906119b8565b6110739190611a26565b90505f6064600a548561108691906119b8565b6110909190611a26565b90505f6064600b54866110a391906119b8565b6110ad9190611a26565b90505f81838587896110bf9190611a56565b6110c99190611a56565b6110d39190611a56565b6110dd9190611a56565b90505f8511156110f2576110f1888661113d565b5b5f8311156111285761112788600d60019054906101000a900473ffffffffffffffffffffffffffffffffffffffff16856111bc565b5b6111338888836111bc565b5050505050505050565b5f73ffffffffffffffffffffffffffffffffffffffff168273ffffffffffffffffffffffffffffffffffffffff16036111ad575f6040517f96c6fd1e0000000000000000000000000000000000000000000000000000000081526004016111a49190611719565b60405180910390fd5b6111b8825f83610e29565b5050565b5f73ffffffffffffffffffffffffffffffffffffffff168373ffffffffffffffffffffffffffffffffffffffff160361120c578060025f8282546112009190611a89565b925050819055506112da565b5f5f5f8573ffffffffffffffffffffffffffffffffffffffff1673ffffffffffffffffffffffffffffffffffffffff1681526020019081526020015f2054905081811015611295578381836040517fe450d38c00000000000000000000000000000000000000000000000000000000815260040161128c939291906117f8565b60405180910390fd5b8181035f5f8673ffffffffffffffffffffffffffffffffffffffff1673ffffffffffffffffffffffffffffffffffffffff1681526020019081526020015f2081905550505b5f73ffffffffffffffffffffffffffffffffffffffff168273ffffffffffffffffffffffffffffffffffffffff1603611321578060025f828254039250508190555061136b565b805f5f8473ffffffffffffffffffffffffffffffffffffffff1673ffffffffffffffffffffffffffffffffffffffff1681526020019081526020015f205f82825401925050819055505b8173ffffffffffffffffffffffffffffffffffffffff168373ffffffffffffffffffffffffffffffffffffffff167fddf252ad1be2c89b69c2b068fc378daa952ba7f163c4a11628f55a4df523b3ef836040516113c891906115de565b60405180910390a3505050565b5f81519050919050565b5f82825260208201905092915050565b8281835e5f83830152505050565b5f601f19601f8301169050919050565b5f611417826113d5565b61142181856113df565b93506114318185602086016113ef565b61143a816113fd565b840191505092915050565b5f6020820190508181035f83015261145d818461140d565b905092915050565b5f5ffd5b5f73ffffffffffffffffffffffffffffffffffffffff82169050919050565b5f61149282611469565b9050919050565b6114a281611488565b81146114ac575f5ffd5b50565b5f813590506114bd81611499565b92915050565b5f819050919050565b6114d5816114c3565b81146114df575f5ffd5b50565b5f813590506114f0816114cc565b92915050565b5f5f6040838503121561150c5761150b611465565b5b5f611519858286016114af565b925050602061152a858286016114e2565b9150509250929050565b5f8115159050919050565b61154881611534565b82525050565b5f6020820190506115615f83018461153f565b92915050565b61157081611534565b811461157a575f5ffd5b50565b5f8135905061158b81611567565b92915050565b5f5f604083850312156115a7576115a6611465565b5b5f6115b4858286016114af565b92505060206115c58582860161157d565b9150509250929050565b6115d8816114c3565b82525050565b5f6020820190506115f15f8301846115cf565b92915050565b5f6020828403121561160c5761160b611465565b5b5f611619848285016114af565b91505092915050565b5f5f5f6060848603121561163957611638611465565b5b5f611646868287016114af565b9350506020611657868287016114af565b9250506040611668868287016114e2565b9150509250925092565b5f60ff82169050919050565b61168781611672565b82525050565b5f6020820190506116a05f83018461167e565b92915050565b5f5f5f5f608085870312156116be576116bd611465565b5b5f6116cb878288016114e2565b94505060206116dc878288016114e2565b93505060406116ed878288016114e2565b92505060606116fe878288016114e2565b91505092959194509250565b61171381611488565b82525050565b5f60208201905061172c5f83018461170a565b92915050565b5f5f6040838503121561174857611747611465565b5b5f611755858286016114af565b9250506020611766858286016114af565b9150509250929050565b5f6020828403121561178557611784611465565b5b5f611792848285016114e2565b91505092915050565b7f4e487b71000000000000000000000000000000000000000000000000000000005f52602260045260245ffd5b5f60028204905060018216806117df57607f821691505b6020821081036117f2576117f161179b565b5b50919050565b5f60608201905061180b5f83018661170a565b61181860208301856115cf565b61182560408301846115cf565b949350505050565b7f4164647265737320697320626c61636b6c6973746564000000000000000000005f82015250565b5f6118616016836113df565b915061186c8261182d565b602082019050919050565b5f6020820190508181035f83015261188e81611855565b9050919050565b7f54726164696e67206973206e6f7420656e61626c6564207965740000000000005f82015250565b5f6118c9601a836113df565b91506118d482611895565b602082019050919050565b5f6020820190508181035f8301526118f6816118bd565b9050919050565b7f5472616e7366657220616d6f756e742065786365656473206d6178206c696d695f8201527f7400000000000000000000000000000000000000000000000000000000000000602082015250565b5f6119576021836113df565b9150611962826118fd565b604082019050919050565b5f6020820190508181035f8301526119848161194b565b9050919050565b7f4e487b71000000000000000000000000000000000000000000000000000000005f52601160045260245ffd5b5f6119c2826114c3565b91506119cd836114c3565b92508282026119db816114c3565b915082820484148315176119f2576119f161198b565b5b5092915050565b7f4e487b71000000000000000000000000000000000000000000000000000000005f52601260045260245ffd5b5f611a30826114c3565b9150611a3b836114c3565b925082611a4b57611a4a6119f9565b5b828204905092915050565b5f611a60826114c3565b9150611a6b836114c3565b9250828203905081811115611a8357611a8261198b565b5b92915050565b5f611a93826114c3565b9150611a9e836114c3565b9250828201905080821115611ab657611ab561198b565b5b9291505056fea2646970667358221220428ea7b1b63950a0af2da46aa2aedd0b45103a17d7a263ca42c181104577a16164736f6c634300081d0033', \n     arguments: [\n     ]\n}).send({\n     from: web3.eth.accounts[0], \n     gas: '4700000'\n   }, function (e, contract){\n    console.log(e, contract);\n    if (typeof contract.address !== 'undefined') {\n         console.log('Contract mined! address: ' + contract.address + ' transactionHash: ' + contract.transactionHash);\n    }\n })",
	"functionHashes": {
		"dd62ed3e": "allowance(address,address)",
		"095ea7b3": "approve(address,uint256)",
		"70a08231": "balanceOf(address)",
		"fce589d8": "burnFee()",
		"313ce567": "decimals()",
		"6827e764": "devFee()",
		"8ea5220f": "devWallet()",
		"8a8c523c": "enableTrading()",
		"c0246668": "excludeFromFees(address,bool)",
		"98118cb4": "liquidityFee()",
		"8c0b5e22": "maxTxAmount()",
		"06fdde03": "name()",
		"8da5cb5b": "owner()",
		"715018a6": "renounceOwnership()",
		"8b424267": "rewardFee()",
		"153b0d1e": "setBlacklist(address,bool)",
		"1f53ac02": "setDevWallet(address)",
		"6fcba377": "setFees(uint256,uint256,uint256,uint256)",
		"ec28438a": "setMaxTxAmount(uint256)",
		"95d89b41": "symbol()",
		"18160ddd": "totalSupply()",
		"4ada218b": "tradingEnabled()",
		"a9059cbb": "transfer(address,uint256)",
		"23b872dd": "transferFrom(address,address,uint256)",
		"f2fde38b": "transferOwnership(address)"
	},
	"gasEstimates": {
		"Creation": {
			"codeDepositCost": "1379600",
			"executionCost": "infinite",
			"totalCost": "infinite"
		},
		"External": {
			"allowance(address,address)": "infinite",
			"approve(address,uint256)": "infinite",
			"balanceOf(address)": "2939",
			"burnFee()": "2535",
			"decimals()": "361",
			"devFee()": "2492",
			"devWallet()": "2670",
			"enableTrading()": "infinite",
			"excludeFromFees(address,bool)": "infinite",
			"liquidityFee()": "2470",
			"maxTxAmount()": "2492",
			"name()": "infinite",
			"owner()": "2604",
			"renounceOwnership()": "infinite",
			"rewardFee()": "2470",
			"setBlacklist(address,bool)": "infinite",
			"setDevWallet(address)": "infinite",
			"setFees(uint256,uint256,uint256,uint256)": "infinite",
			"setMaxTxAmount(uint256)": "infinite",
			"symbol()": "infinite",
			"totalSupply()": "2522",
			"tradingEnabled()": "2511",
			"transfer(address,uint256)": "infinite",
			"transferFrom(address,address,uint256)": "infinite",
			"transferOwnership(address)": "infinite"
		},
		"Internal": {
			"_update(address,address,uint256)": "infinite"
		}
	},
	"devdoc": {
		"errors": {
			"ERC20InsufficientAllowance(address,uint256,uint256)": [
				{
					"details": "Indicates a failure with the `spender`’s `allowance`. Used in transfers.",
					"params": {
						"allowance": "Amount of tokens a `spender` is allowed to operate with.",
						"needed": "Minimum amount required to perform a transfer.",
						"spender": "Address that may be allowed to operate on tokens without being their owner."
					}
				}
			],
			"ERC20InsufficientBalance(address,uint256,uint256)": [
				{
					"details": "Indicates an error related to the current `balance` of a `sender`. Used in transfers.",
					"params": {
						"balance": "Current balance for the interacting account.",
						"needed": "Minimum amount required to perform a transfer.",
						"sender": "Address whose tokens are being transferred."
					}
				}
			],
			"ERC20InvalidApprover(address)": [
				{
					"details": "Indicates a failure with the `approver` of a token to be approved. Used in approvals.",
					"params": {
						"approver": "Address initiating an approval operation."
					}
				}
			],
			"ERC20InvalidReceiver(address)": [
				{
					"details": "Indicates a failure with the token `receiver`. Used in transfers.",
					"params": {
						"receiver": "Address to which tokens are being transferred."
					}
				}
			],
			"ERC20InvalidSender(address)": [
				{
					"details": "Indicates a failure with the token `sender`. Used in transfers.",
					"params": {
						"sender": "Address whose tokens are being transferred."
					}
				}
			],
			"ERC20InvalidSpender(address)": [
				{
					"details": "Indicates a failure with the `spender` to be approved. Used in approvals.",
					"params": {
						"spender": "Address that may be allowed to operate on tokens without being their owner."
					}
				}
			],
			"OwnableInvalidOwner(address)": [
				{
					"details": "The owner is not a valid owner account. (eg. `address(0)`)"
				}
			],
			"OwnableUnauthorizedAccount(address)": [
				{
					"details": "The caller account is not authorized to perform an operation."
				}
			]
		},
		"events": {
			"Approval(address,address,uint256)": {
				"details": "Emitted when the allowance of a `spender` for an `owner` is set by a call to {approve}. `value` is the new allowance."
			},
			"Transfer(address,address,uint256)": {
				"details": "Emitted when `value` tokens are moved from one account (`from`) to another (`to`). Note that `value` may be zero."
			}
		},
		"kind": "dev",
		"methods": {
			"allowance(address,address)": {
				"details": "See {IERC20-allowance}."
			},
			"approve(address,uint256)": {
				"details": "See {IERC20-approve}. NOTE: If `value` is the maximum `uint256`, the allowance is not updated on `transferFrom`. This is semantically equivalent to an infinite approval. Requirements: - `spender` cannot be the zero address."
			},
			"balanceOf(address)": {
				"details": "See {IERC20-balanceOf}."
			},
			"decimals()": {
				"details": "Returns the number of decimals used to get its user representation. For example, if `decimals` equals `2`, a balance of `505` tokens should be displayed to a user as `5.05` (`505 / 10 ** 2`). Tokens usually opt for a value of 18, imitating the relationship between Ether and Wei. This is the default value returned by this function, unless it's overridden. NOTE: This information is only used for _display_ purposes: it in no way affects any of the arithmetic of the contract, including {IERC20-balanceOf} and {IERC20-transfer}."
			},
			"name()": {
				"details": "Returns the name of the token."
			},
			"owner()": {
				"details": "Returns the address of the current owner."
			},
			"renounceOwnership()": {
				"details": "Leaves the contract without owner. It will not be possible to call `onlyOwner` functions. Can only be called by the current owner. NOTE: Renouncing ownership will leave the contract without an owner, thereby disabling any functionality that is only available to the owner."
			},
			"symbol()": {
				"details": "Returns the symbol of the token, usually a shorter version of the name."
			},
			"totalSupply()": {
				"details": "See {IERC20-totalSupply}."
			},
			"transfer(address,uint256)": {
				"details": "See {IERC20-transfer}. Requirements: - `to` cannot be the zero address. - the caller must have a balance of at least `value`."
			},
			"transferFrom(address,address,uint256)": {
				"details": "See {IERC20-transferFrom}. Skips emitting an {Approval} event indicating an allowance update. This is not required by the ERC. See {xref-ERC20-_approve-address-address-uint256-bool-}[_approve]. NOTE: Does not update the allowance if the current allowance is the maximum `uint256`. Requirements: - `from` and `to` cannot be the zero address. - `from` must have a balance of at least `value`. - the caller must have allowance for ``from``'s tokens of at least `value`."
			},
			"transferOwnership(address)": {
				"details": "Transfers ownership of the contract to a new account (`newOwner`). Can only be called by the current owner."
			}
		},
		"version": 1
	},
	"userdoc": {
		"kind": "user",
		"methods": {},
		"version": 1
	},
	"Runtime Bytecode": {
		"immutableReferences": {},
		"linkReferences": {},
		"object": "608060405234801561000f575f5ffd5b5060043610610171575f3560e01c80638a8c523c116100dc57806398118cb411610095578063dd62ed3e1161006f578063dd62ed3e14610403578063ec28438a14610433578063f2fde38b1461044f578063fce589d81461046b57610171565b806398118cb414610399578063a9059cbb146103b7578063c0246668146103e757610171565b80638a8c523c146102f95780638b424267146103035780638c0b5e22146103215780638da5cb5b1461033f5780638ea5220f1461035d57806395d89b411461037b57610171565b8063313ce5671161012e578063313ce567146102495780634ada218b146102675780636827e764146102855780636fcba377146102a357806370a08231146102bf578063715018a6146102ef57610171565b806306fdde0314610175578063095ea7b314610193578063153b0d1e146101c357806318160ddd146101df5780631f53ac02146101fd57806323b872dd14610219575b5f5ffd5b61017d610489565b60405161018a9190611445565b60405180910390f35b6101ad60048036038101906101a891906114f6565b610519565b6040516101ba919061154e565b60405180910390f35b6101dd60048036038101906101d89190611591565b61053b565b005b6101e761059b565b6040516101f491906115de565b60405180910390f35b610217600480360381019061021291906115f7565b6105a4565b005b610233600480360381019061022e9190611622565b6105f0565b604051610240919061154e565b60405180910390f35b61025161061e565b60405161025e919061168d565b60405180910390f35b61026f610626565b60405161027c919061154e565b60405180910390f35b61028d610638565b60405161029a91906115de565b60405180910390f35b6102bd60048036038101906102b891906116a6565b61063e565b005b6102d960048036038101906102d491906115f7565b610668565b6040516102e691906115de565b60405180910390f35b6102f76106ad565b005b6103016106c0565b005b61030b6106e4565b60405161031891906115de565b60405180910390f35b6103296106ea565b60405161033691906115de565b60405180910390f35b6103476106f0565b6040516103549190611719565b60405180910390f35b610365610718565b6040516103729190611719565b60405180910390f35b61038361073e565b6040516103909190611445565b60405180910390f35b6103a16107ce565b6040516103ae91906115de565b60405180910390f35b6103d160048036038101906103cc91906114f6565b6107d4565b6040516103de919061154e565b60405180910390f35b61040160048036038101906103fc9190611591565b6107f6565b005b61041d60048036038101906104189190611732565b610856565b60405161042a91906115de565b60405180910390f35b61044d60048036038101906104489190611770565b6108d8565b005b610469600480360381019061046491906115f7565b6108ea565b005b61047361096e565b60405161048091906115de565b60405180910390f35b606060038054610498906117c8565b80601f01602080910402602001604051908101604052809291908181526020018280546104c4906117c8565b801561050f5780601f106104e65761010080835404028352916020019161050f565b820191905f5260205f20905b8154815290600101906020018083116104f257829003601f168201915b5050505050905090565b5f5f610523610974565b905061053081858561097b565b600191505092915050565b61054361098d565b8060065f8473ffffffffffffffffffffffffffffffffffffffff1673ffffffffffffffffffffffffffffffffffffffff1681526020019081526020015f205f6101000a81548160ff0219169083151502179055505050565b5f600254905090565b6105ac61098d565b80600d60016101000a81548173ffffffffffffffffffffffffffffffffffffffff021916908373ffffffffffffffffffffffffffffffffffffffff16021790555050565b5f5f6105fa610974565b9050610607858285610a14565b610612858585610aa7565b60019150509392505050565b5f6012905090565b600d5f9054906101000a900460ff1681565b600a5481565b61064661098d565b836008819055508260098190555081600a8190555080600b8190555050505050565b5f5f5f8373ffffffffffffffffffffffffffffffffffffffff1673ffffffffffffffffffffffffffffffffffffffff1681526020019081526020015f20549050919050565b6106b561098d565b6106be5f610b97565b565b6106c861098d565b6001600d5f6101000a81548160ff021916908315150217905550565b60095481565b600c5481565b5f60055f9054906101000a900473ffffffffffffffffffffffffffffffffffffffff16905090565b600d60019054906101000a900473ffffffffffffffffffffffffffffffffffffffff1681565b60606004805461074d906117c8565b80601f0160208091040260200160405190810160405280929190818152602001828054610779906117c8565b80156107c45780601f1061079b576101008083540402835291602001916107c4565b820191905f5260205f20905b8154815290600101906020018083116107a757829003601f168201915b5050505050905090565b600b5481565b5f5f6107de610974565b90506107eb818585610aa7565b600191505092915050565b6107fe61098d565b8060075f8473ffffffffffffffffffffffffffffffffffffffff1673ffffffffffffffffffffffffffffffffffffffff1681526020019081526020015f205f6101000a81548160ff0219169083151502179055505050565b5f60015f8473ffffffffffffffffffffffffffffffffffffffff1673ffffffffffffffffffffffffffffffffffffffff1681526020019081526020015f205f8373ffffffffffffffffffffffffffffffffffffffff1673ffffffffffffffffffffffffffffffffffffffff1681526020019081526020015f2054905092915050565b6108e061098d565b80600c8190555050565b6108f261098d565b5f73ffffffffffffffffffffffffffffffffffffffff168173ffffffffffffffffffffffffffffffffffffffff1603610962575f6040517f1e4fbdf70000000000000000000000000000000000000000000000000000000081526004016109599190611719565b60405180910390fd5b61096b81610b97565b50565b60085481565b5f33905090565b6109888383836001610c5a565b505050565b610995610974565b73ffffffffffffffffffffffffffffffffffffffff166109b36106f0565b73ffffffffffffffffffffffffffffffffffffffff1614610a12576109d6610974565b6040517f118cdaa7000000000000000000000000000000000000000000000000000000008152600401610a099190611719565b60405180910390fd5b565b5f610a1f8484610856565b90507fffffffffffffffffffffffffffffffffffffffffffffffffffffffffffffffff811015610aa15781811015610a92578281836040517ffb8f41b2000000000000000000000000000000000000000000000000000000008152600401610a89939291906117f8565b60405180910390fd5b610aa084848484035f610c5a565b5b50505050565b5f73ffffffffffffffffffffffffffffffffffffffff168373ffffffffffffffffffffffffffffffffffffffff1603610b17575f6040517f96c6fd1e000000000000000000000000000000000000000000000000000000008152600401610b0e9190611719565b60405180910390fd5b5f73ffffffffffffffffffffffffffffffffffffffff168273ffffffffffffffffffffffffffffffffffffffff1603610b87575f6040517fec442f05000000000000000000000000000000000000000000000000000000008152600401610b7e9190611719565b60405180910390fd5b610b92838383610e29565b505050565b5f60055f9054906101000a900473ffffffffffffffffffffffffffffffffffffffff1690508160055f6101000a81548173ffffffffffffffffffffffffffffffffffffffff021916908373ffffffffffffffffffffffffffffffffffffffff1602179055508173ffffffffffffffffffffffffffffffffffffffff168173ffffffffffffffffffffffffffffffffffffffff167f8be0079c531659141344cd1fd0a4f28419497f9722a3daafe3b4186f6b6457e060405160405180910390a35050565b5f73ffffffffffffffffffffffffffffffffffffffff168473ffffffffffffffffffffffffffffffffffffffff1603610cca575f6040517fe602df05000000000000000000000000000000000000000000000000000000008152600401610cc19190611719565b60405180910390fd5b5f73ffffffffffffffffffffffffffffffffffffffff168373ffffffffffffffffffffffffffffffffffffffff1603610d3a575f6040517f94280d62000000000000000000000000000000000000000000000000000000008152600401610d319190611719565b60405180910390fd5b8160015f8673ffffffffffffffffffffffffffffffffffffffff1673ffffffffffffffffffffffffffffffffffffffff1681526020019081526020015f205f8573ffffffffffffffffffffffffffffffffffffffff1673ffffffffffffffffffffffffffffffffffffffff1681526020019081526020015f20819055508015610e23578273ffffffffffffffffffffffffffffffffffffffff168473ffffffffffffffffffffffffffffffffffffffff167f8c5be1e5ebec7d5bd14f71427d1e84f3dd0314c0f7b2291e5b200ac8c7c3b92584604051610e1a91906115de565b60405180910390a35b50505050565b60065f8473ffffffffffffffffffffffffffffffffffffffff1673ffffffffffffffffffffffffffffffffffffffff1681526020019081526020015f205f9054906101000a900460ff16158015610ec7575060065f8373ffffffffffffffffffffffffffffffffffffffff1673ffffffffffffffffffffffffffffffffffffffff1681526020019081526020015f205f9054906101000a900460ff16155b610f06576040517f08c379a0000000000000000000000000000000000000000000000000000000008152600401610efd90611877565b60405180910390fd5b600d5f9054906101000a900460ff1680610f66575060075f8473ffffffffffffffffffffffffffffffffffffffff1673ffffffffffffffffffffffffffffffffffffffff1681526020019081526020015f205f9054906101000a900460ff165b610fa5576040517f08c379a0000000000000000000000000000000000000000000000000000000008152600401610f9c906118df565b60405180910390fd5b600c5481111580610ffc575060075f8473ffffffffffffffffffffffffffffffffffffffff1673ffffffffffffffffffffffffffffffffffffffff1681526020019081526020015f205f9054906101000a900460ff165b61103b576040517f08c379a00000000000000000000000000000000000000000000000000000000081526004016110329061196d565b60405180910390fd5b5f60646008548361104c91906119b8565b6110569190611a26565b90505f60646009548461106991906119b8565b6110739190611a26565b90505f6064600a548561108691906119b8565b6110909190611a26565b90505f6064600b54866110a391906119b8565b6110ad9190611a26565b90505f81838587896110bf9190611a56565b6110c99190611a56565b6110d39190611a56565b6110dd9190611a56565b90505f8511156110f2576110f1888661113d565b5b5f8311156111285761112788600d60019054906101000a900473ffffffffffffffffffffffffffffffffffffffff16856111bc565b5b6111338888836111bc565b5050505050505050565b5f73ffffffffffffffffffffffffffffffffffffffff168273ffffffffffffffffffffffffffffffffffffffff16036111ad575f6040517f96c6fd1e0000000000000000000000000000000000000000000000000000000081526004016111a49190611719565b60405180910390fd5b6111b8825f83610e29565b5050565b5f73ffffffffffffffffffffffffffffffffffffffff168373ffffffffffffffffffffffffffffffffffffffff160361120c578060025f8282546112009190611a89565b925050819055506112da565b5f5f5f8573ffffffffffffffffffffffffffffffffffffffff1673ffffffffffffffffffffffffffffffffffffffff1681526020019081526020015f2054905081811015611295578381836040517fe450d38c00000000000000000000000000000000000000000000000000000000815260040161128c939291906117f8565b60405180910390fd5b8181035f5f8673ffffffffffffffffffffffffffffffffffffffff1673ffffffffffffffffffffffffffffffffffffffff1681526020019081526020015f2081905550505b5f73ffffffffffffffffffffffffffffffffffffffff168273ffffffffffffffffffffffffffffffffffffffff1603611321578060025f828254039250508190555061136b565b805f5f8473ffffffffffffffffffffffffffffffffffffffff1673ffffffffffffffffffffffffffffffffffffffff1681526020019081526020015f205f82825401925050819055505b8173ffffffffffffffffffffffffffffffffffffffff168373ffffffffffffffffffffffffffffffffffffffff167fddf252ad1be2c89b69c2b068fc378daa952ba7f163c4a11628f55a4df523b3ef836040516113c891906115de565b60405180910390a3505050565b5f81519050919050565b5f82825260208201905092915050565b8281835e5f83830152505050565b5f601f19601f8301169050919050565b5f611417826113d5565b61142181856113df565b93506114318185602086016113ef565b61143a816113fd565b840191505092915050565b5f6020820190508181035f83015261145d818461140d565b905092915050565b5f5ffd5b5f73ffffffffffffffffffffffffffffffffffffffff82169050919050565b5f61149282611469565b9050919050565b6114a281611488565b81146114ac575f5ffd5b50565b5f813590506114bd81611499565b92915050565b5f819050919050565b6114d5816114c3565b81146114df575f5ffd5b50565b5f813590506114f0816114cc565b92915050565b5f5f6040838503121561150c5761150b611465565b5b5f611519858286016114af565b925050602061152a858286016114e2565b9150509250929050565b5f8115159050919050565b61154881611534565b82525050565b5f6020820190506115615f83018461153f565b92915050565b61157081611534565b811461157a575f5ffd5b50565b5f8135905061158b81611567565b92915050565b5f5f604083850312156115a7576115a6611465565b5b5f6115b4858286016114af565b92505060206115c58582860161157d565b9150509250929050565b6115d8816114c3565b82525050565b5f6020820190506115f15f8301846115cf565b92915050565b5f6020828403121561160c5761160b611465565b5b5f611619848285016114af565b91505092915050565b5f5f5f6060848603121561163957611638611465565b5b5f611646868287016114af565b9350506020611657868287016114af565b9250506040611668868287016114e2565b9150509250925092565b5f60ff82169050919050565b61168781611672565b82525050565b5f6020820190506116a05f83018461167e565b92915050565b5f5f5f5f608085870312156116be576116bd611465565b5b5f6116cb878288016114e2565b94505060206116dc878288016114e2565b93505060406116ed878288016114e2565b92505060606116fe878288016114e2565b91505092959194509250565b61171381611488565b82525050565b5f60208201905061172c5f83018461170a565b92915050565b5f5f6040838503121561174857611747611465565b5b5f611755858286016114af565b9250506020611766858286016114af565b9150509250929050565b5f6020828403121561178557611784611465565b5b5f611792848285016114e2565b91505092915050565b7f4e487b71000000000000000000000000000000000000000000000000000000005f52602260045260245ffd5b5f60028204905060018216806117df57607f821691505b6020821081036117f2576117f161179b565b5b50919050565b5f60608201905061180b5f83018661170a565b61181860208301856115cf565b61182560408301846115cf565b949350505050565b7f4164647265737320697320626c61636b6c6973746564000000000000000000005f82015250565b5f6118616016836113df565b915061186c8261182d565b602082019050919050565b5f6020820190508181035f83015261188e81611855565b9050919050565b7f54726164696e67206973206e6f7420656e61626c6564207965740000000000005f82015250565b5f6118c9601a836113df565b91506118d482611895565b602082019050919050565b5f6020820190508181035f8301526118f6816118bd565b9050919050565b7f5472616e7366657220616d6f756e742065786365656473206d6178206c696d695f8201527f7400000000000000000000000000000000000000000000000000000000000000602082015250565b5f6119576021836113df565b9150611962826118fd565b604082019050919050565b5f6020820190508181035f8301526119848161194b565b9050919050565b7f4e487b71000000000000000000000000000000000000000000000000000000005f52601160045260245ffd5b5f6119c2826114c3565b91506119cd836114c3565b92508282026119db816114c3565b915082820484148315176119f2576119f161198b565b5b5092915050565b7f4e487b71000000000000000000000000000000000000000000000000000000005f52601260045260245ffd5b5f611a30826114c3565b9150611a3b836114c3565b925082611a4b57611a4a6119f9565b5b828204905092915050565b5f611a60826114c3565b9150611a6b836114c3565b9250828203905081811115611a8357611a8261198b565b5b92915050565b5f611a93826114c3565b9150611a9e836114c3565b9250828201905080821115611ab657611ab561198b565b5b9291505056fea2646970667358221220428ea7b1b63950a0af2da46aa2aedd0b45103a17d7a263ca42c181104577a16164736f6c634300081d0033",
		"opcodes": "PUSH1 0x80 PUSH1 0x40 MSTORE CALLVALUE DUP1 ISZERO PUSH2 0xF JUMPI PUSH0 PUSH0 REVERT JUMPDEST POP PUSH1 0x4 CALLDATASIZE LT PUSH2 0x171 JUMPI PUSH0 CALLDATALOAD PUSH1 0xE0 SHR DUP1 PUSH4 0x8A8C523C GT PUSH2 0xDC JUMPI DUP1 PUSH4 0x98118CB4 GT PUSH2 0x95 JUMPI DUP1 PUSH4 0xDD62ED3E GT PUSH2 0x6F JUMPI DUP1 PUSH4 0xDD62ED3E EQ PUSH2 0x403 JUMPI DUP1 PUSH4 0xEC28438A EQ PUSH2 0x433 JUMPI DUP1 PUSH4 0xF2FDE38B EQ PUSH2 0x44F JUMPI DUP1 PUSH4 0xFCE589D8 EQ PUSH2 0x46B JUMPI PUSH2 0x171 JUMP JUMPDEST DUP1 PUSH4 0x98118CB4 EQ PUSH2 0x399 JUMPI DUP1 PUSH4 0xA9059CBB EQ PUSH2 0x3B7 JUMPI DUP1 PUSH4 0xC0246668 EQ PUSH2 0x3E7 JUMPI PUSH2 0x171 JUMP JUMPDEST DUP1 PUSH4 0x8A8C523C EQ PUSH2 0x2F9 JUMPI DUP1 PUSH4 0x8B424267 EQ PUSH2 0x303 JUMPI DUP1 PUSH4 0x8C0B5E22 EQ PUSH2 0x321 JUMPI DUP1 PUSH4 0x8DA5CB5B EQ PUSH2 0x33F JUMPI DUP1 PUSH4 0x8EA5220F EQ PUSH2 0x35D JUMPI DUP1 PUSH4 0x95D89B41 EQ PUSH2 0x37B JUMPI PUSH2 0x171 JUMP JUMPDEST DUP1 PUSH4 0x313CE567 GT PUSH2 0x12E JUMPI DUP1 PUSH4 0x313CE567 EQ PUSH2 0x249 JUMPI DUP1 PUSH4 0x4ADA218B EQ PUSH2 0x267 JUMPI DUP1 PUSH4 0x6827E764 EQ PUSH2 0x285 JUMPI DUP1 PUSH4 0x6FCBA377 EQ PUSH2 0x2A3 JUMPI DUP1 PUSH4 0x70A08231 EQ PUSH2 0x2BF JUMPI DUP1 PUSH4 0x715018A6 EQ PUSH2 0x2EF JUMPI PUSH2 0x171 JUMP JUMPDEST DUP1 PUSH4 0x6FDDE03 EQ PUSH2 0x175 JUMPI DUP1 PUSH4 0x95EA7B3 EQ PUSH2 0x193 JUMPI DUP1 PUSH4 0x153B0D1E EQ PUSH2 0x1C3 JUMPI DUP1 PUSH4 0x18160DDD EQ PUSH2 0x1DF JUMPI DUP1 PUSH4 0x1F53AC02 EQ PUSH2 0x1FD JUMPI DUP1 PUSH4 0x23B872DD EQ PUSH2 0x219 JUMPI JUMPDEST PUSH0 PUSH0 REVERT JUMPDEST PUSH2 0x17D PUSH2 0x489 JUMP JUMPDEST PUSH1 0x40 MLOAD PUSH2 0x18A SWAP2 SWAP1 PUSH2 0x1445 JUMP JUMPDEST PUSH1 0x40 MLOAD DUP1 SWAP2 SUB SWAP1 RETURN JUMPDEST PUSH2 0x1AD PUSH1 0x4 DUP1 CALLDATASIZE SUB DUP2 ADD SWAP1 PUSH2 0x1A8 SWAP2 SWAP1 PUSH2 0x14F6 JUMP JUMPDEST PUSH2 0x519 JUMP JUMPDEST PUSH1 0x40 MLOAD PUSH2 0x1BA SWAP2 SWAP1 PUSH2 0x154E JUMP JUMPDEST PUSH1 0x40 MLOAD DUP1 SWAP2 SUB SWAP1 RETURN JUMPDEST PUSH2 0x1DD PUSH1 0x4 DUP1 CALLDATASIZE SUB DUP2 ADD SWAP1 PUSH2 0x1D8 SWAP2 SWAP1 PUSH2 0x1591 JUMP JUMPDEST PUSH2 0x53B JUMP JUMPDEST STOP JUMPDEST PUSH2 0x1E7 PUSH2 0x59B JUMP JUMPDEST PUSH1 0x40 MLOAD PUSH2 0x1F4 SWAP2 SWAP1 PUSH2 0x15DE JUMP JUMPDEST PUSH1 0x40 MLOAD DUP1 SWAP2 SUB SWAP1 RETURN JUMPDEST PUSH2 0x217 PUSH1 0x4 DUP1 CALLDATASIZE SUB DUP2 ADD SWAP1 PUSH2 0x212 SWAP2 SWAP1 PUSH2 0x15F7 JUMP JUMPDEST PUSH2 0x5A4 JUMP JUMPDEST STOP JUMPDEST PUSH2 0x233 PUSH1 0x4 DUP1 CALLDATASIZE SUB DUP2 ADD SWAP1 PUSH2 0x22E SWAP2 SWAP1 PUSH2 0x1622 JUMP JUMPDEST PUSH2 0x5F0 JUMP JUMPDEST PUSH1 0x40 MLOAD PUSH2 0x240 SWAP2 SWAP1 PUSH2 0x154E JUMP JUMPDEST PUSH1 0x40 MLOAD DUP1 SWAP2 SUB SWAP1 RETURN JUMPDEST PUSH2 0x251 PUSH2 0x61E JUMP JUMPDEST PUSH1 0x40 MLOAD PUSH2 0x25E SWAP2 SWAP1 PUSH2 0x168D JUMP JUMPDEST PUSH1 0x40 MLOAD DUP1 SWAP2 SUB SWAP1 RETURN JUMPDEST PUSH2 0x26F PUSH2 0x626 JUMP JUMPDEST PUSH1 0x40 MLOAD PUSH2 0x27C SWAP2 SWAP1 PUSH2 0x154E JUMP JUMPDEST PUSH1 0x40 MLOAD DUP1 SWAP2 SUB SWAP1 RETURN JUMPDEST PUSH2 0x28D PUSH2 0x638 JUMP JUMPDEST PUSH1 0x40 MLOAD PUSH2 0x29A SWAP2 SWAP1 PUSH2 0x15DE JUMP JUMPDEST PUSH1 0x40 MLOAD DUP1 SWAP2 SUB SWAP1 RETURN JUMPDEST PUSH2 0x2BD PUSH1 0x4 DUP1 CALLDATASIZE SUB DUP2 ADD SWAP1 PUSH2 0x2B8 SWAP2 SWAP1 PUSH2 0x16A6 JUMP JUMPDEST PUSH2 0x63E JUMP JUMPDEST STOP JUMPDEST PUSH2 0x2D9 PUSH1 0x4 DUP1 CALLDATASIZE SUB DUP2 ADD SWAP1 PUSH2 0x2D4 SWAP2 SWAP1 PUSH2 0x15F7 JUMP JUMPDEST PUSH2 0x668 JUMP JUMPDEST PUSH1 0x40 MLOAD PUSH2 0x2E6 SWAP2 SWAP1 PUSH2 0x15DE JUMP JUMPDEST PUSH1 0x40 MLOAD DUP1 SWAP2 SUB SWAP1 RETURN JUMPDEST PUSH2 0x2F7 PUSH2 0x6AD JUMP JUMPDEST STOP JUMPDEST PUSH2 0x301 PUSH2 0x6C0 JUMP JUMPDEST STOP JUMPDEST PUSH2 0x30B PUSH2 0x6E4 JUMP JUMPDEST PUSH1 0x40 MLOAD PUSH2 0x318 SWAP2 SWAP1 PUSH2 0x15DE JUMP JUMPDEST PUSH1 0x40 MLOAD DUP1 SWAP2 SUB SWAP1 RETURN JUMPDEST PUSH2 0x329 PUSH2 0x6EA JUMP JUMPDEST PUSH1 0x40 MLOAD PUSH2 0x336 SWAP2 SWAP1 PUSH2 0x15DE JUMP JUMPDEST PUSH1 0x40 MLOAD DUP1 SWAP2 SUB SWAP1 RETURN JUMPDEST PUSH2 0x347 PUSH2 0x6F0 JUMP JUMPDEST PUSH1 0x40 MLOAD PUSH2 0x354 SWAP2 SWAP1 PUSH2 0x1719 JUMP JUMPDEST PUSH1 0x40 MLOAD DUP1 SWAP2 SUB SWAP1 RETURN JUMPDEST PUSH2 0x365 PUSH2 0x718 JUMP JUMPDEST PUSH1 0x40 MLOAD PUSH2 0x372 SWAP2 SWAP1 PUSH2 0x1719 JUMP JUMPDEST PUSH1 0x40 MLOAD DUP1 SWAP2 SUB SWAP1 RETURN JUMPDEST PUSH2 0x383 PUSH2 0x73E JUMP JUMPDEST PUSH1 0x40 MLOAD PUSH2 0x390 SWAP2 SWAP1 PUSH2 0x1445 JUMP JUMPDEST PUSH1 0x40 MLOAD DUP1 SWAP2 SUB SWAP1 RETURN JUMPDEST PUSH2 0x3A1 PUSH2 0x7CE JUMP JUMPDEST PUSH1 0x40 MLOAD PUSH2 0x3AE SWAP2 SWAP1 PUSH2 0x15DE JUMP JUMPDEST PUSH1 0x40 MLOAD DUP1 SWAP2 SUB SWAP1 RETURN JUMPDEST PUSH2 0x3D1 PUSH1 0x4 DUP1 CALLDATASIZE SUB DUP2 ADD SWAP1 PUSH2 0x3CC SWAP2 SWAP1 PUSH2 0x14F6 JUMP JUMPDEST PUSH2 0x7D4 JUMP JUMPDEST PUSH1 0x40 MLOAD PUSH2 0x3DE SWAP2 SWAP1 PUSH2 0x154E JUMP JUMPDEST PUSH1 0x40 MLOAD DUP1 SWAP2 SUB SWAP1 RETURN JUMPDEST PUSH2 0x401 PUSH1 0x4 DUP1 CALLDATASIZE SUB DUP2 ADD SWAP1 PUSH2 0x3FC SWAP2 SWAP1 PUSH2 0x1591 JUMP JUMPDEST PUSH2 0x7F6 JUMP JUMPDEST STOP JUMPDEST PUSH2 0x41D PUSH1 0x4 DUP1 CALLDATASIZE SUB DUP2 ADD SWAP1 PUSH2 0x418 SWAP2 SWAP1 PUSH2 0x1732 JUMP JUMPDEST PUSH2 0x856 JUMP JUMPDEST PUSH1 0x40 MLOAD PUSH2 0x42A SWAP2 SWAP1 PUSH2 0x15DE JUMP JUMPDEST PUSH1 0x40 MLOAD DUP1 SWAP2 SUB SWAP1 RETURN JUMPDEST PUSH2 0x44D PUSH1 0x4 DUP1 CALLDATASIZE SUB DUP2 ADD SWAP1 PUSH2 0x448 SWAP2 SWAP1 PUSH2 0x1770 JUMP JUMPDEST PUSH2 0x8D8 JUMP JUMPDEST STOP JUMPDEST PUSH2 0x469 PUSH1 0x4 DUP1 CALLDATASIZE SUB DUP2 ADD SWAP1 PUSH2 0x464 SWAP2 SWAP1 PUSH2 0x15F7 JUMP JUMPDEST PUSH2 0x8EA JUMP JUMPDEST STOP JUMPDEST PUSH2 0x473 PUSH2 0x96E JUMP JUMPDEST PUSH1 0x40 MLOAD PUSH2 0x480 SWAP2 SWAP1 PUSH2 0x15DE JUMP JUMPDEST PUSH1 0x40 MLOAD DUP1 SWAP2 SUB SWAP1 RETURN JUMPDEST PUSH1 0x60 PUSH1 0x3 DUP1 SLOAD PUSH2 0x498 SWAP1 PUSH2 0x17C8 JUMP JUMPDEST DUP1 PUSH1 0x1F ADD PUSH1 0x20 DUP1 SWAP2 DIV MUL PUSH1 0x20 ADD PUSH1 0x40 MLOAD SWAP1 DUP2 ADD PUSH1 0x40 MSTORE DUP1 SWAP3 SWAP2 SWAP1 DUP2 DUP2 MSTORE PUSH1 0x20 ADD DUP3 DUP1 SLOAD PUSH2 0x4C4 SWAP1 PUSH2 0x17C8 JUMP JUMPDEST DUP1 ISZERO PUSH2 0x50F JUMPI DUP1 PUSH1 0x1F LT PUSH2 0x4E6 JUMPI PUSH2 0x100 DUP1 DUP4 SLOAD DIV MUL DUP4 MSTORE SWAP2 PUSH1 0x20 ADD SWAP2 PUSH2 0x50F JUMP JUMPDEST DUP3 ADD SWAP2 SWAP1 PUSH0 MSTORE PUSH1 0x20 PUSH0 KECCAK256 SWAP1 JUMPDEST DUP2 SLOAD DUP2 MSTORE SWAP1 PUSH1 0x1 ADD SWAP1 PUSH1 0x20 ADD DUP1 DUP4 GT PUSH2 0x4F2 JUMPI DUP3 SWAP1 SUB PUSH1 0x1F AND DUP3 ADD SWAP2 JUMPDEST POP POP POP POP POP SWAP1 POP SWAP1 JUMP JUMPDEST PUSH0 PUSH0 PUSH2 0x523 PUSH2 0x974 JUMP JUMPDEST SWAP1 POP PUSH2 0x530 DUP2 DUP6 DUP6 PUSH2 0x97B JUMP JUMPDEST PUSH1 0x1 SWAP2 POP POP SWAP3 SWAP2 POP POP JUMP JUMPDEST PUSH2 0x543 PUSH2 0x98D JUMP JUMPDEST DUP1 PUSH1 0x6 PUSH0 DUP5 PUSH20 0xFFFFFFFFFFFFFFFFFFFFFFFFFFFFFFFFFFFFFFFF AND PUSH20 0xFFFFFFFFFFFFFFFFFFFFFFFFFFFFFFFFFFFFFFFF AND DUP2 MSTORE PUSH1 0x20 ADD SWAP1 DUP2 MSTORE PUSH1 0x20 ADD PUSH0 KECCAK256 PUSH0 PUSH2 0x100 EXP DUP2 SLOAD DUP2 PUSH1 0xFF MUL NOT AND SWAP1 DUP4 ISZERO ISZERO MUL OR SWAP1 SSTORE POP POP POP JUMP JUMPDEST PUSH0 PUSH1 0x2 SLOAD SWAP1 POP SWAP1 JUMP JUMPDEST PUSH2 0x5AC PUSH2 0x98D JUMP JUMPDEST DUP1 PUSH1 0xD PUSH1 0x1 PUSH2 0x100 EXP DUP2 SLOAD DUP2 PUSH20 0xFFFFFFFFFFFFFFFFFFFFFFFFFFFFFFFFFFFFFFFF MUL NOT AND SWAP1 DUP4 PUSH20 0xFFFFFFFFFFFFFFFFFFFFFFFFFFFFFFFFFFFFFFFF AND MUL OR SWAP1 SSTORE POP POP JUMP JUMPDEST PUSH0 PUSH0 PUSH2 0x5FA PUSH2 0x974 JUMP JUMPDEST SWAP1 POP PUSH2 0x607 DUP6 DUP3 DUP6 PUSH2 0xA14 JUMP JUMPDEST PUSH2 0x612 DUP6 DUP6 DUP6 PUSH2 0xAA7 JUMP JUMPDEST PUSH1 0x1 SWAP2 POP POP SWAP4 SWAP3 POP POP POP JUMP JUMPDEST PUSH0 PUSH1 0x12 SWAP1 POP SWAP1 JUMP JUMPDEST PUSH1 0xD PUSH0 SWAP1 SLOAD SWAP1 PUSH2 0x100 EXP SWAP1 DIV PUSH1 0xFF AND DUP2 JUMP JUMPDEST PUSH1 0xA SLOAD DUP2 JUMP JUMPDEST PUSH2 0x646 PUSH2 0x98D JUMP JUMPDEST DUP4 PUSH1 0x8 DUP2 SWAP1 SSTORE POP DUP3 PUSH1 0x9 DUP2 SWAP1 SSTORE POP DUP2 PUSH1 0xA DUP2 SWAP1 SSTORE POP DUP1 PUSH1 0xB DUP2 SWAP1 SSTORE POP POP POP POP POP JUMP JUMPDEST PUSH0 PUSH0 PUSH0 DUP4 PUSH20 0xFFFFFFFFFFFFFFFFFFFFFFFFFFFFFFFFFFFFFFFF AND PUSH20 0xFFFFFFFFFFFFFFFFFFFFFFFFFFFFFFFFFFFFFFFF AND DUP2 MSTORE PUSH1 0x20 ADD SWAP1 DUP2 MSTORE PUSH1 0x20 ADD PUSH0 KECCAK256 SLOAD SWAP1 POP SWAP2 SWAP1 POP JUMP JUMPDEST PUSH2 0x6B5 PUSH2 0x98D JUMP JUMPDEST PUSH2 0x6BE PUSH0 PUSH2 0xB97 JUMP JUMPDEST JUMP JUMPDEST PUSH2 0x6C8 PUSH2 0x98D JUMP JUMPDEST PUSH1 0x1 PUSH1 0xD PUSH0 PUSH2 0x100 EXP DUP2 SLOAD DUP2 PUSH1 0xFF MUL NOT AND SWAP1 DUP4 ISZERO ISZERO MUL OR SWAP1 SSTORE POP JUMP JUMPDEST PUSH1 0x9 SLOAD DUP2 JUMP JUMPDEST PUSH1 0xC SLOAD DUP2 JUMP JUMPDEST PUSH0 PUSH1 0x5 PUSH0 SWAP1 SLOAD SWAP1 PUSH2 0x100 EXP SWAP1 DIV PUSH20 0xFFFFFFFFFFFFFFFFFFFFFFFFFFFFFFFFFFFFFFFF AND SWAP1 POP SWAP1 JUMP JUMPDEST PUSH1 0xD PUSH1 0x1 SWAP1 SLOAD SWAP1 PUSH2 0x100 EXP SWAP1 DIV PUSH20 0xFFFFFFFFFFFFFFFFFFFFFFFFFFFFFFFFFFFFFFFF AND DUP2 JUMP JUMPDEST PUSH1 0x60 PUSH1 0x4 DUP1 SLOAD PUSH2 0x74D SWAP1 PUSH2 0x17C8 JUMP JUMPDEST DUP1 PUSH1 0x1F ADD PUSH1 0x20 DUP1 SWAP2 DIV MUL PUSH1 0x20 ADD PUSH1 0x40 MLOAD SWAP1 DUP2 ADD PUSH1 0x40 MSTORE DUP1 SWAP3 SWAP2 SWAP1 DUP2 DUP2 MSTORE PUSH1 0x20 ADD DUP3 DUP1 SLOAD PUSH2 0x779 SWAP1 PUSH2 0x17C8 JUMP JUMPDEST DUP1 ISZERO PUSH2 0x7C4 JUMPI DUP1 PUSH1 0x1F LT PUSH2 0x79B JUMPI PUSH2 0x100 DUP1 DUP4 SLOAD DIV MUL DUP4 MSTORE SWAP2 PUSH1 0x20 ADD SWAP2 PUSH2 0x7C4 JUMP JUMPDEST DUP3 ADD SWAP2 SWAP1 PUSH0 MSTORE PUSH1 0x20 PUSH0 KECCAK256 SWAP1 JUMPDEST DUP2 SLOAD DUP2 MSTORE SWAP1 PUSH1 0x1 ADD SWAP1 PUSH1 0x20 ADD DUP1 DUP4 GT PUSH2 0x7A7 JUMPI DUP3 SWAP1 SUB PUSH1 0x1F AND DUP3 ADD SWAP2 JUMPDEST POP POP POP POP POP SWAP1 POP SWAP1 JUMP JUMPDEST PUSH1 0xB SLOAD DUP2 JUMP JUMPDEST PUSH0 PUSH0 PUSH2 0x7DE PUSH2 0x974 JUMP JUMPDEST SWAP1 POP PUSH2 0x7EB DUP2 DUP6 DUP6 PUSH2 0xAA7 JUMP JUMPDEST PUSH1 0x1 SWAP2 POP POP SWAP3 SWAP2 POP POP JUMP JUMPDEST PUSH2 0x7FE PUSH2 0x98D JUMP JUMPDEST DUP1 PUSH1 0x7 PUSH0 DUP5 PUSH20 0xFFFFFFFFFFFFFFFFFFFFFFFFFFFFFFFFFFFFFFFF AND PUSH20 0xFFFFFFFFFFFFFFFFFFFFFFFFFFFFFFFFFFFFFFFF AND DUP2 MSTORE PUSH1 0x20 ADD SWAP1 DUP2 MSTORE PUSH1 0x20 ADD PUSH0 KECCAK256 PUSH0 PUSH2 0x100 EXP DUP2 SLOAD DUP2 PUSH1 0xFF MUL NOT AND SWAP1 DUP4 ISZERO ISZERO MUL OR SWAP1 SSTORE POP POP POP JUMP JUMPDEST PUSH0 PUSH1 0x1 PUSH0 DUP5 PUSH20 0xFFFFFFFFFFFFFFFFFFFFFFFFFFFFFFFFFFFFFFFF AND PUSH20 0xFFFFFFFFFFFFFFFFFFFFFFFFFFFFFFFFFFFFFFFF AND DUP2 MSTORE PUSH1 0x20 ADD SWAP1 DUP2 MSTORE PUSH1 0x20 ADD PUSH0 KECCAK256 PUSH0 DUP4 PUSH20 0xFFFFFFFFFFFFFFFFFFFFFFFFFFFFFFFFFFFFFFFF AND PUSH20 0xFFFFFFFFFFFFFFFFFFFFFFFFFFFFFFFFFFFFFFFF AND DUP2 MSTORE PUSH1 0x20 ADD SWAP1 DUP2 MSTORE PUSH1 0x20 ADD PUSH0 KECCAK256 SLOAD SWAP1 POP SWAP3 SWAP2 POP POP JUMP JUMPDEST PUSH2 0x8E0 PUSH2 0x98D JUMP JUMPDEST DUP1 PUSH1 0xC DUP2 SWAP1 SSTORE POP POP JUMP JUMPDEST PUSH2 0x8F2 PUSH2 0x98D JUMP JUMPDEST PUSH0 PUSH20 0xFFFFFFFFFFFFFFFFFFFFFFFFFFFFFFFFFFFFFFFF AND DUP2 PUSH20 0xFFFFFFFFFFFFFFFFFFFFFFFFFFFFFFFFFFFFFFFF AND SUB PUSH2 0x962 JUMPI PUSH0 PUSH1 0x40 MLOAD PUSH32 0x1E4FBDF700000000000000000000000000000000000000000000000000000000 DUP2 MSTORE PUSH1 0x4 ADD PUSH2 0x959 SWAP2 SWAP1 PUSH2 0x1719 JUMP JUMPDEST PUSH1 0x40 MLOAD DUP1 SWAP2 SUB SWAP1 REVERT JUMPDEST PUSH2 0x96B DUP2 PUSH2 0xB97 JUMP JUMPDEST POP JUMP JUMPDEST PUSH1 0x8 SLOAD DUP2 JUMP JUMPDEST PUSH0 CALLER SWAP1 POP SWAP1 JUMP JUMPDEST PUSH2 0x988 DUP4 DUP4 DUP4 PUSH1 0x1 PUSH2 0xC5A JUMP JUMPDEST POP POP POP JUMP JUMPDEST PUSH2 0x995 PUSH2 0x974 JUMP JUMPDEST PUSH20 0xFFFFFFFFFFFFFFFFFFFFFFFFFFFFFFFFFFFFFFFF AND PUSH2 0x9B3 PUSH2 0x6F0 JUMP JUMPDEST PUSH20 0xFFFFFFFFFFFFFFFFFFFFFFFFFFFFFFFFFFFFFFFF AND EQ PUSH2 0xA12 JUMPI PUSH2 0x9D6 PUSH2 0x974 JUMP JUMPDEST PUSH1 0x40 MLOAD PUSH32 0x118CDAA700000000000000000000000000000000000000000000000000000000 DUP2 MSTORE PUSH1 0x4 ADD PUSH2 0xA09 SWAP2 SWAP1 PUSH2 0x1719 JUMP JUMPDEST PUSH1 0x40 MLOAD DUP1 SWAP2 SUB SWAP1 REVERT JUMPDEST JUMP JUMPDEST PUSH0 PUSH2 0xA1F DUP5 DUP5 PUSH2 0x856 JUMP JUMPDEST SWAP1 POP PUSH32 0xFFFFFFFFFFFFFFFFFFFFFFFFFFFFFFFFFFFFFFFFFFFFFFFFFFFFFFFFFFFFFFFF DUP2 LT ISZERO PUSH2 0xAA1 JUMPI DUP2 DUP2 LT ISZERO PUSH2 0xA92 JUMPI DUP3 DUP2 DUP4 PUSH1 0x40 MLOAD PUSH32 0xFB8F41B200000000000000000000000000000000000000000000000000000000 DUP2 MSTORE PUSH1 0x4 ADD PUSH2 0xA89 SWAP4 SWAP3 SWAP2 SWAP1 PUSH2 0x17F8 JUMP JUMPDEST PUSH1 0x40 MLOAD DUP1 SWAP2 SUB SWAP1 REVERT JUMPDEST PUSH2 0xAA0 DUP5 DUP5 DUP5 DUP5 SUB PUSH0 PUSH2 0xC5A JUMP JUMPDEST JUMPDEST POP POP POP POP JUMP JUMPDEST PUSH0 PUSH20 0xFFFFFFFFFFFFFFFFFFFFFFFFFFFFFFFFFFFFFFFF AND DUP4 PUSH20 0xFFFFFFFFFFFFFFFFFFFFFFFFFFFFFFFFFFFFFFFF AND SUB PUSH2 0xB17 JUMPI PUSH0 PUSH1 0x40 MLOAD PUSH32 0x96C6FD1E00000000000000000000000000000000000000000000000000000000 DUP2 MSTORE PUSH1 0x4 ADD PUSH2 0xB0E SWAP2 SWAP1 PUSH2 0x1719 JUMP JUMPDEST PUSH1 0x40 MLOAD DUP1 SWAP2 SUB SWAP1 REVERT JUMPDEST PUSH0 PUSH20 0xFFFFFFFFFFFFFFFFFFFFFFFFFFFFFFFFFFFFFFFF AND DUP3 PUSH20 0xFFFFFFFFFFFFFFFFFFFFFFFFFFFFFFFFFFFFFFFF AND SUB PUSH2 0xB87 JUMPI PUSH0 PUSH1 0x40 MLOAD PUSH32 0xEC442F0500000000000000000000000000000000000000000000000000000000 DUP2 MSTORE PUSH1 0x4 ADD PUSH2 0xB7E SWAP2 SWAP1 PUSH2 0x1719 JUMP JUMPDEST PUSH1 0x40 MLOAD DUP1 SWAP2 SUB SWAP1 REVERT JUMPDEST PUSH2 0xB92 DUP4 DUP4 DUP4 PUSH2 0xE29 JUMP JUMPDEST POP POP POP JUMP JUMPDEST PUSH0 PUSH1 0x5 PUSH0 SWAP1 SLOAD SWAP1 PUSH2 0x100 EXP SWAP1 DIV PUSH20 0xFFFFFFFFFFFFFFFFFFFFFFFFFFFFFFFFFFFFFFFF AND SWAP1 POP DUP2 PUSH1 0x5 PUSH0 PUSH2 0x100 EXP DUP2 SLOAD DUP2 PUSH20 0xFFFFFFFFFFFFFFFFFFFFFFFFFFFFFFFFFFFFFFFF MUL NOT AND SWAP1 DUP4 PUSH20 0xFFFFFFFFFFFFFFFFFFFFFFFFFFFFFFFFFFFFFFFF AND MUL OR SWAP1 SSTORE POP DUP2 PUSH20 0xFFFFFFFFFFFFFFFFFFFFFFFFFFFFFFFFFFFFFFFF AND DUP2 PUSH20 0xFFFFFFFFFFFFFFFFFFFFFFFFFFFFFFFFFFFFFFFF AND PUSH32 0x8BE0079C531659141344CD1FD0A4F28419497F9722A3DAAFE3B4186F6B6457E0 PUSH1 0x40 MLOAD PUSH1 0x40 MLOAD DUP1 SWAP2 SUB SWAP1 LOG3 POP POP JUMP JUMPDEST PUSH0 PUSH20 0xFFFFFFFFFFFFFFFFFFFFFFFFFFFFFFFFFFFFFFFF AND DUP5 PUSH20 0xFFFFFFFFFFFFFFFFFFFFFFFFFFFFFFFFFFFFFFFF AND SUB PUSH2 0xCCA JUMPI PUSH0 PUSH1 0x40 MLOAD PUSH32 0xE602DF0500000000000000000000000000000000000000000000000000000000 DUP2 MSTORE PUSH1 0x4 ADD PUSH2 0xCC1 SWAP2 SWAP1 PUSH2 0x1719 JUMP JUMPDEST PUSH1 0x40 MLOAD DUP1 SWAP2 SUB SWAP1 REVERT JUMPDEST PUSH0 PUSH20 0xFFFFFFFFFFFFFFFFFFFFFFFFFFFFFFFFFFFFFFFF AND DUP4 PUSH20 0xFFFFFFFFFFFFFFFFFFFFFFFFFFFFFFFFFFFFFFFF AND SUB PUSH2 0xD3A JUMPI PUSH0 PUSH1 0x40 MLOAD PUSH32 0x94280D6200000000000000000000000000000000000000000000000000000000 DUP2 MSTORE PUSH1 0x4 ADD PUSH2 0xD31 SWAP2 SWAP1 PUSH2 0x1719 JUMP JUMPDEST PUSH1 0x40 MLOAD DUP1 SWAP2 SUB SWAP1 REVERT JUMPDEST DUP2 PUSH1 0x1 PUSH0 DUP7 PUSH20 0xFFFFFFFFFFFFFFFFFFFFFFFFFFFFFFFFFFFFFFFF AND PUSH20 0xFFFFFFFFFFFFFFFFFFFFFFFFFFFFFFFFFFFFFFFF AND DUP2 MSTORE PUSH1 0x20 ADD SWAP1 DUP2 MSTORE PUSH1 0x20 ADD PUSH0 KECCAK256 PUSH0 DUP6 PUSH20 0xFFFFFFFFFFFFFFFFFFFFFFFFFFFFFFFFFFFFFFFF AND PUSH20 0xFFFFFFFFFFFFFFFFFFFFFFFFFFFFFFFFFFFFFFFF AND DUP2 MSTORE PUSH1 0x20 ADD SWAP1 DUP2 MSTORE PUSH1 0x20 ADD PUSH0 KECCAK256 DUP2 SWAP1 SSTORE POP DUP1 ISZERO PUSH2 0xE23 JUMPI DUP3 PUSH20 0xFFFFFFFFFFFFFFFFFFFFFFFFFFFFFFFFFFFFFFFF AND DUP5 PUSH20 0xFFFFFFFFFFFFFFFFFFFFFFFFFFFFFFFFFFFFFFFF AND PUSH32 0x8C5BE1E5EBEC7D5BD14F71427D1E84F3DD0314C0F7B2291E5B200AC8C7C3B925 DUP5 PUSH1 0x40 MLOAD PUSH2 0xE1A SWAP2 SWAP1 PUSH2 0x15DE JUMP JUMPDEST PUSH1 0x40 MLOAD DUP1 SWAP2 SUB SWAP1 LOG3 JUMPDEST POP POP POP POP JUMP JUMPDEST PUSH1 0x6 PUSH0 DUP5 PUSH20 0xFFFFFFFFFFFFFFFFFFFFFFFFFFFFFFFFFFFFFFFF AND PUSH20 0xFFFFFFFFFFFFFFFFFFFFFFFFFFFFFFFFFFFFFFFF AND DUP2 MSTORE PUSH1 0x20 ADD SWAP1 DUP2 MSTORE PUSH1 0x20 ADD PUSH0 KECCAK256 PUSH0 SWAP1 SLOAD SWAP1 PUSH2 0x100 EXP SWAP1 DIV PUSH1 0xFF AND ISZERO DUP1 ISZERO PUSH2 0xEC7 JUMPI POP PUSH1 0x6 PUSH0 DUP4 PUSH20 0xFFFFFFFFFFFFFFFFFFFFFFFFFFFFFFFFFFFFFFFF AND PUSH20 0xFFFFFFFFFFFFFFFFFFFFFFFFFFFFFFFFFFFFFFFF AND DUP2 MSTORE PUSH1 0x20 ADD SWAP1 DUP2 MSTORE PUSH1 0x20 ADD PUSH0 KECCAK256 PUSH0 SWAP1 SLOAD SWAP1 PUSH2 0x100 EXP SWAP1 DIV PUSH1 0xFF AND ISZERO JUMPDEST PUSH2 0xF06 JUMPI PUSH1 0x40 MLOAD PUSH32 0x8C379A000000000000000000000000000000000000000000000000000000000 DUP2 MSTORE PUSH1 0x4 ADD PUSH2 0xEFD SWAP1 PUSH2 0x1877 JUMP JUMPDEST PUSH1 0x40 MLOAD DUP1 SWAP2 SUB SWAP1 REVERT JUMPDEST PUSH1 0xD PUSH0 SWAP1 SLOAD SWAP1 PUSH2 0x100 EXP SWAP1 DIV PUSH1 0xFF AND DUP1 PUSH2 0xF66 JUMPI POP PUSH1 0x7 PUSH0 DUP5 PUSH20 0xFFFFFFFFFFFFFFFFFFFFFFFFFFFFFFFFFFFFFFFF AND PUSH20 0xFFFFFFFFFFFFFFFFFFFFFFFFFFFFFFFFFFFFFFFF AND DUP2 MSTORE PUSH1 0x20 ADD SWAP1 DUP2 MSTORE PUSH1 0x20 ADD PUSH0 KECCAK256 PUSH0 SWAP1 SLOAD SWAP1 PUSH2 0x100 EXP SWAP1 DIV PUSH1 0xFF AND JUMPDEST PUSH2 0xFA5 JUMPI PUSH1 0x40 MLOAD PUSH32 0x8C379A000000000000000000000000000000000000000000000000000000000 DUP2 MSTORE PUSH1 0x4 ADD PUSH2 0xF9C SWAP1 PUSH2 0x18DF JUMP JUMPDEST PUSH1 0x40 MLOAD DUP1 SWAP2 SUB SWAP1 REVERT JUMPDEST PUSH1 0xC SLOAD DUP2 GT ISZERO DUP1 PUSH2 0xFFC JUMPI POP PUSH1 0x7 PUSH0 DUP5 PUSH20 0xFFFFFFFFFFFFFFFFFFFFFFFFFFFFFFFFFFFFFFFF AND PUSH20 0xFFFFFFFFFFFFFFFFFFFFFFFFFFFFFFFFFFFFFFFF AND DUP2 MSTORE PUSH1 0x20 ADD SWAP1 DUP2 MSTORE PUSH1 0x20 ADD PUSH0 KECCAK256 PUSH0 SWAP1 SLOAD SWAP1 PUSH2 0x100 EXP SWAP1 DIV PUSH1 0xFF AND JUMPDEST PUSH2 0x103B JUMPI PUSH1 0x40 MLOAD PUSH32 0x8C379A000000000000000000000000000000000000000000000000000000000 DUP2 MSTORE PUSH1 0x4 ADD PUSH2 0x1032 SWAP1 PUSH2 0x196D JUMP JUMPDEST PUSH1 0x40 MLOAD DUP1 SWAP2 SUB SWAP1 REVERT JUMPDEST PUSH0 PUSH1 0x64 PUSH1 0x8 SLOAD DUP4 PUSH2 0x104C SWAP2 SWAP1 PUSH2 0x19B8 JUMP JUMPDEST PUSH2 0x1056 SWAP2 SWAP1 PUSH2 0x1A26 JUMP JUMPDEST SWAP1 POP PUSH0 PUSH1 0x64 PUSH1 0x9 SLOAD DUP5 PUSH2 0x1069 SWAP2 SWAP1 PUSH2 0x19B8 JUMP JUMPDEST PUSH2 0x1073 SWAP2 SWAP1 PUSH2 0x1A26 JUMP JUMPDEST SWAP1 POP PUSH0 PUSH1 0x64 PUSH1 0xA SLOAD DUP6 PUSH2 0x1086 SWAP2 SWAP1 PUSH2 0x19B8 JUMP JUMPDEST PUSH2 0x1090 SWAP2 SWAP1 PUSH2 0x1A26 JUMP JUMPDEST SWAP1 POP PUSH0 PUSH1 0x64 PUSH1 0xB SLOAD DUP7 PUSH2 0x10A3 SWAP2 SWAP1 PUSH2 0x19B8 JUMP JUMPDEST PUSH2 0x10AD SWAP2 SWAP1 PUSH2 0x1A26 JUMP JUMPDEST SWAP1 POP PUSH0 DUP2 DUP4 DUP6 DUP8 DUP10 PUSH2 0x10BF SWAP2 SWAP1 PUSH2 0x1A56 JUMP JUMPDEST PUSH2 0x10C9 SWAP2 SWAP1 PUSH2 0x1A56 JUMP JUMPDEST PUSH2 0x10D3 SWAP2 SWAP1 PUSH2 0x1A56 JUMP JUMPDEST PUSH2 0x10DD SWAP2 SWAP1 PUSH2 0x1A56 JUMP JUMPDEST SWAP1 POP PUSH0 DUP6 GT ISZERO PUSH2 0x10F2 JUMPI PUSH2 0x10F1 DUP9 DUP7 PUSH2 0x113D JUMP JUMPDEST JUMPDEST PUSH0 DUP4 GT ISZERO PUSH2 0x1128 JUMPI PUSH2 0x1127 DUP9 PUSH1 0xD PUSH1 0x1 SWAP1 SLOAD SWAP1 PUSH2 0x100 EXP SWAP1 DIV PUSH20 0xFFFFFFFFFFFFFFFFFFFFFFFFFFFFFFFFFFFFFFFF AND DUP6 PUSH2 0x11BC JUMP JUMPDEST JUMPDEST PUSH2 0x1133 DUP9 DUP9 DUP4 PUSH2 0x11BC JUMP JUMPDEST POP POP POP POP POP POP POP POP JUMP JUMPDEST PUSH0 PUSH20 0xFFFFFFFFFFFFFFFFFFFFFFFFFFFFFFFFFFFFFFFF AND DUP3 PUSH20 0xFFFFFFFFFFFFFFFFFFFFFFFFFFFFFFFFFFFFFFFF AND SUB PUSH2 0x11AD JUMPI PUSH0 PUSH1 0x40 MLOAD PUSH32 0x96C6FD1E00000000000000000000000000000000000000000000000000000000 DUP2 MSTORE PUSH1 0x4 ADD PUSH2 0x11A4 SWAP2 SWAP1 PUSH2 0x1719 JUMP JUMPDEST PUSH1 0x40 MLOAD DUP1 SWAP2 SUB SWAP1 REVERT JUMPDEST PUSH2 0x11B8 DUP3 PUSH0 DUP4 PUSH2 0xE29 JUMP JUMPDEST POP POP JUMP JUMPDEST PUSH0 PUSH20 0xFFFFFFFFFFFFFFFFFFFFFFFFFFFFFFFFFFFFFFFF AND DUP4 PUSH20 0xFFFFFFFFFFFFFFFFFFFFFFFFFFFFFFFFFFFFFFFF AND SUB PUSH2 0x120C JUMPI DUP1 PUSH1 0x2 PUSH0 DUP3 DUP3 SLOAD PUSH2 0x1200 SWAP2 SWAP1 PUSH2 0x1A89 JUMP JUMPDEST SWAP3 POP POP DUP2 SWAP1 SSTORE POP PUSH2 0x12DA JUMP JUMPDEST PUSH0 PUSH0 PUSH0 DUP6 PUSH20 0xFFFFFFFFFFFFFFFFFFFFFFFFFFFFFFFFFFFFFFFF AND PUSH20 0xFFFFFFFFFFFFFFFFFFFFFFFFFFFFFFFFFFFFFFFF AND DUP2 MSTORE PUSH1 0x20 ADD SWAP1 DUP2 MSTORE PUSH1 0x20 ADD PUSH0 KECCAK256 SLOAD SWAP1 POP DUP2 DUP2 LT ISZERO PUSH2 0x1295 JUMPI DUP4 DUP2 DUP4 PUSH1 0x40 MLOAD PUSH32 0xE450D38C00000000000000000000000000000000000000000000000000000000 DUP2 MSTORE PUSH1 0x4 ADD PUSH2 0x128C SWAP4 SWAP3 SWAP2 SWAP1 PUSH2 0x17F8 JUMP JUMPDEST PUSH1 0x40 MLOAD DUP1 SWAP2 SUB SWAP1 REVERT JUMPDEST DUP2 DUP2 SUB PUSH0 PUSH0 DUP7 PUSH20 0xFFFFFFFFFFFFFFFFFFFFFFFFFFFFFFFFFFFFFFFF AND PUSH20 0xFFFFFFFFFFFFFFFFFFFFFFFFFFFFFFFFFFFFFFFF AND DUP2 MSTORE PUSH1 0x20 ADD SWAP1 DUP2 MSTORE PUSH1 0x20 ADD PUSH0 KECCAK256 DUP2 SWAP1 SSTORE POP POP JUMPDEST PUSH0 PUSH20 0xFFFFFFFFFFFFFFFFFFFFFFFFFFFFFFFFFFFFFFFF AND DUP3 PUSH20 0xFFFFFFFFFFFFFFFFFFFFFFFFFFFFFFFFFFFFFFFF AND SUB PUSH2 0x1321 JUMPI DUP1 PUSH1 0x2 PUSH0 DUP3 DUP3 SLOAD SUB SWAP3 POP POP DUP2 SWAP1 SSTORE POP PUSH2 0x136B JUMP JUMPDEST DUP1 PUSH0 PUSH0 DUP5 PUSH20 0xFFFFFFFFFFFFFFFFFFFFFFFFFFFFFFFFFFFFFFFF AND PUSH20 0xFFFFFFFFFFFFFFFFFFFFFFFFFFFFFFFFFFFFFFFF AND DUP2 MSTORE PUSH1 0x20 ADD SWAP1 DUP2 MSTORE PUSH1 0x20 ADD PUSH0 KECCAK256 PUSH0 DUP3 DUP3 SLOAD ADD SWAP3 POP POP DUP2 SWAP1 SSTORE POP JUMPDEST DUP2 PUSH20 0xFFFFFFFFFFFFFFFFFFFFFFFFFFFFFFFFFFFFFFFF AND DUP4 PUSH20 0xFFFFFFFFFFFFFFFFFFFFFFFFFFFFFFFFFFFFFFFF AND PUSH32 0xDDF252AD1BE2C89B69C2B068FC378DAA952BA7F163C4A11628F55A4DF523B3EF DUP4 PUSH1 0x40 MLOAD PUSH2 0x13C8 SWAP2 SWAP1 PUSH2 0x15DE JUMP JUMPDEST PUSH1 0x40 MLOAD DUP1 SWAP2 SUB SWAP1 LOG3 POP POP POP JUMP JUMPDEST PUSH0 DUP2 MLOAD SWAP1 POP SWAP2 SWAP1 POP JUMP JUMPDEST PUSH0 DUP3 DUP3 MSTORE PUSH1 0x20 DUP3 ADD SWAP1 POP SWAP3 SWAP2 POP POP JUMP JUMPDEST DUP3 DUP2 DUP4 MCOPY PUSH0 DUP4 DUP4 ADD MSTORE POP POP POP JUMP JUMPDEST PUSH0 PUSH1 0x1F NOT PUSH1 0x1F DUP4 ADD AND SWAP1 POP SWAP2 SWAP1 POP JUMP JUMPDEST PUSH0 PUSH2 0x1417 DUP3 PUSH2 0x13D5 JUMP JUMPDEST PUSH2 0x1421 DUP2 DUP6 PUSH2 0x13DF JUMP JUMPDEST SWAP4 POP PUSH2 0x1431 DUP2 DUP6 PUSH1 0x20 DUP7 ADD PUSH2 0x13EF JUMP JUMPDEST PUSH2 0x143A DUP2 PUSH2 0x13FD JUMP JUMPDEST DUP5 ADD SWAP2 POP POP SWAP3 SWAP2 POP POP JUMP JUMPDEST PUSH0 PUSH1 0x20 DUP3 ADD SWAP1 POP DUP2 DUP2 SUB PUSH0 DUP4 ADD MSTORE PUSH2 0x145D DUP2 DUP5 PUSH2 0x140D JUMP JUMPDEST SWAP1 POP SWAP3 SWAP2 POP POP JUMP JUMPDEST PUSH0 PUSH0 REVERT JUMPDEST PUSH0 PUSH20 0xFFFFFFFFFFFFFFFFFFFFFFFFFFFFFFFFFFFFFFFF DUP3 AND SWAP1 POP SWAP2 SWAP1 POP JUMP JUMPDEST PUSH0 PUSH2 0x1492 DUP3 PUSH2 0x1469 JUMP JUMPDEST SWAP1 POP SWAP2 SWAP1 POP JUMP JUMPDEST PUSH2 0x14A2 DUP2 PUSH2 0x1488 JUMP JUMPDEST DUP2 EQ PUSH2 0x14AC JUMPI PUSH0 PUSH0 REVERT JUMPDEST POP JUMP JUMPDEST PUSH0 DUP2 CALLDATALOAD SWAP1 POP PUSH2 0x14BD DUP2 PUSH2 0x1499 JUMP JUMPDEST SWAP3 SWAP2 POP POP JUMP JUMPDEST PUSH0 DUP2 SWAP1 POP SWAP2 SWAP1 POP JUMP JUMPDEST PUSH2 0x14D5 DUP2 PUSH2 0x14C3 JUMP JUMPDEST DUP2 EQ PUSH2 0x14DF JUMPI PUSH0 PUSH0 REVERT JUMPDEST POP JUMP JUMPDEST PUSH0 DUP2 CALLDATALOAD SWAP1 POP PUSH2 0x14F0 DUP2 PUSH2 0x14CC JUMP JUMPDEST SWAP3 SWAP2 POP POP JUMP JUMPDEST PUSH0 PUSH0 PUSH1 0x40 DUP4 DUP6 SUB SLT ISZERO PUSH2 0x150C JUMPI PUSH2 0x150B PUSH2 0x1465 JUMP JUMPDEST JUMPDEST PUSH0 PUSH2 0x1519 DUP6 DUP3 DUP7 ADD PUSH2 0x14AF JUMP JUMPDEST SWAP3 POP POP PUSH1 0x20 PUSH2 0x152A DUP6 DUP3 DUP7 ADD PUSH2 0x14E2 JUMP JUMPDEST SWAP2 POP POP SWAP3 POP SWAP3 SWAP1 POP JUMP JUMPDEST PUSH0 DUP2 ISZERO ISZERO SWAP1 POP SWAP2 SWAP1 POP JUMP JUMPDEST PUSH2 0x1548 DUP2 PUSH2 0x1534 JUMP JUMPDEST DUP3 MSTORE POP POP JUMP JUMPDEST PUSH0 PUSH1 0x20 DUP3 ADD SWAP1 POP PUSH2 0x1561 PUSH0 DUP4 ADD DUP5 PUSH2 0x153F JUMP JUMPDEST SWAP3 SWAP2 POP POP JUMP JUMPDEST PUSH2 0x1570 DUP2 PUSH2 0x1534 JUMP JUMPDEST DUP2 EQ PUSH2 0x157A JUMPI PUSH0 PUSH0 REVERT JUMPDEST POP JUMP JUMPDEST PUSH0 DUP2 CALLDATALOAD SWAP1 POP PUSH2 0x158B DUP2 PUSH2 0x1567 JUMP JUMPDEST SWAP3 SWAP2 POP POP JUMP JUMPDEST PUSH0 PUSH0 PUSH1 0x40 DUP4 DUP6 SUB SLT ISZERO PUSH2 0x15A7 JUMPI PUSH2 0x15A6 PUSH2 0x1465 JUMP JUMPDEST JUMPDEST PUSH0 PUSH2 0x15B4 DUP6 DUP3 DUP7 ADD PUSH2 0x14AF JUMP JUMPDEST SWAP3 POP POP PUSH1 0x20 PUSH2 0x15C5 DUP6 DUP3 DUP7 ADD PUSH2 0x157D JUMP JUMPDEST SWAP2 POP POP SWAP3 POP SWAP3 SWAP1 POP JUMP JUMPDEST PUSH2 0x15D8 DUP2 PUSH2 0x14C3 JUMP JUMPDEST DUP3 MSTORE POP POP JUMP JUMPDEST PUSH0 PUSH1 0x20 DUP3 ADD SWAP1 POP PUSH2 0x15F1 PUSH0 DUP4 ADD DUP5 PUSH2 0x15CF JUMP JUMPDEST SWAP3 SWAP2 POP POP JUMP JUMPDEST PUSH0 PUSH1 0x20 DUP3 DUP5 SUB SLT ISZERO PUSH2 0x160C JUMPI PUSH2 0x160B PUSH2 0x1465 JUMP JUMPDEST JUMPDEST PUSH0 PUSH2 0x1619 DUP5 DUP3 DUP6 ADD PUSH2 0x14AF JUMP JUMPDEST SWAP2 POP POP SWAP3 SWAP2 POP POP JUMP JUMPDEST PUSH0 PUSH0 PUSH0 PUSH1 0x60 DUP5 DUP7 SUB SLT ISZERO PUSH2 0x1639 JUMPI PUSH2 0x1638 PUSH2 0x1465 JUMP JUMPDEST JUMPDEST PUSH0 PUSH2 0x1646 DUP7 DUP3 DUP8 ADD PUSH2 0x14AF JUMP JUMPDEST SWAP4 POP POP PUSH1 0x20 PUSH2 0x1657 DUP7 DUP3 DUP8 ADD PUSH2 0x14AF JUMP JUMPDEST SWAP3 POP POP PUSH1 0x40 PUSH2 0x1668 DUP7 DUP3 DUP8 ADD PUSH2 0x14E2 JUMP JUMPDEST SWAP2 POP POP SWAP3 POP SWAP3 POP SWAP3 JUMP JUMPDEST PUSH0 PUSH1 0xFF DUP3 AND SWAP1 POP SWAP2 SWAP1 POP JUMP JUMPDEST PUSH2 0x1687 DUP2 PUSH2 0x1672 JUMP JUMPDEST DUP3 MSTORE POP POP JUMP JUMPDEST PUSH0 PUSH1 0x20 DUP3 ADD SWAP1 POP PUSH2 0x16A0 PUSH0 DUP4 ADD DUP5 PUSH2 0x167E JUMP JUMPDEST SWAP3 SWAP2 POP POP JUMP JUMPDEST PUSH0 PUSH0 PUSH0 PUSH0 PUSH1 0x80 DUP6 DUP8 SUB SLT ISZERO PUSH2 0x16BE JUMPI PUSH2 0x16BD PUSH2 0x1465 JUMP JUMPDEST JUMPDEST PUSH0 PUSH2 0x16CB DUP8 DUP3 DUP9 ADD PUSH2 0x14E2 JUMP JUMPDEST SWAP5 POP POP PUSH1 0x20 PUSH2 0x16DC DUP8 DUP3 DUP9 ADD PUSH2 0x14E2 JUMP JUMPDEST SWAP4 POP POP PUSH1 0x40 PUSH2 0x16ED DUP8 DUP3 DUP9 ADD PUSH2 0x14E2 JUMP JUMPDEST SWAP3 POP POP PUSH1 0x60 PUSH2 0x16FE DUP8 DUP3 DUP9 ADD PUSH2 0x14E2 JUMP JUMPDEST SWAP2 POP POP SWAP3 SWAP6 SWAP2 SWAP5 POP SWAP3 POP JUMP JUMPDEST PUSH2 0x1713 DUP2 PUSH2 0x1488 JUMP JUMPDEST DUP3 MSTORE POP POP JUMP JUMPDEST PUSH0 PUSH1 0x20 DUP3 ADD SWAP1 POP PUSH2 0x172C PUSH0 DUP4 ADD DUP5 PUSH2 0x170A JUMP JUMPDEST SWAP3 SWAP2 POP POP JUMP JUMPDEST PUSH0 PUSH0 PUSH1 0x40 DUP4 DUP6 SUB SLT ISZERO PUSH2 0x1748 JUMPI PUSH2 0x1747 PUSH2 0x1465 JUMP JUMPDEST JUMPDEST PUSH0 PUSH2 0x1755 DUP6 DUP3 DUP7 ADD PUSH2 0x14AF JUMP JUMPDEST SWAP3 POP POP PUSH1 0x20 PUSH2 0x1766 DUP6 DUP3 DUP7 ADD PUSH2 0x14AF JUMP JUMPDEST SWAP2 POP POP SWAP3 POP SWAP3 SWAP1 POP JUMP JUMPDEST PUSH0 PUSH1 0x20 DUP3 DUP5 SUB SLT ISZERO PUSH2 0x1785 JUMPI PUSH2 0x1784 PUSH2 0x1465 JUMP JUMPDEST JUMPDEST PUSH0 PUSH2 0x1792 DUP5 DUP3 DUP6 ADD PUSH2 0x14E2 JUMP JUMPDEST SWAP2 POP POP SWAP3 SWAP2 POP POP JUMP JUMPDEST PUSH32 0x4E487B7100000000000000000000000000000000000000000000000000000000 PUSH0 MSTORE PUSH1 0x22 PUSH1 0x4 MSTORE PUSH1 0x24 PUSH0 REVERT JUMPDEST PUSH0 PUSH1 0x2 DUP3 DIV SWAP1 POP PUSH1 0x1 DUP3 AND DUP1 PUSH2 0x17DF JUMPI PUSH1 0x7F DUP3 AND SWAP2 POP JUMPDEST PUSH1 0x20 DUP3 LT DUP2 SUB PUSH2 0x17F2 JUMPI PUSH2 0x17F1 PUSH2 0x179B JUMP JUMPDEST JUMPDEST POP SWAP2 SWAP1 POP JUMP JUMPDEST PUSH0 PUSH1 0x60 DUP3 ADD SWAP1 POP PUSH2 0x180B PUSH0 DUP4 ADD DUP7 PUSH2 0x170A JUMP JUMPDEST PUSH2 0x1818 PUSH1 0x20 DUP4 ADD DUP6 PUSH2 0x15CF JUMP JUMPDEST PUSH2 0x1825 PUSH1 0x40 DUP4 ADD DUP5 PUSH2 0x15CF JUMP JUMPDEST SWAP5 SWAP4 POP POP POP POP JUMP JUMPDEST PUSH32 0x4164647265737320697320626C61636B6C697374656400000000000000000000 PUSH0 DUP3 ADD MSTORE POP JUMP JUMPDEST PUSH0 PUSH2 0x1861 PUSH1 0x16 DUP4 PUSH2 0x13DF JUMP JUMPDEST SWAP2 POP PUSH2 0x186C DUP3 PUSH2 0x182D JUMP JUMPDEST PUSH1 0x20 DUP3 ADD SWAP1 POP SWAP2 SWAP1 POP JUMP JUMPDEST PUSH0 PUSH1 0x20 DUP3 ADD SWAP1 POP DUP2 DUP2 SUB PUSH0 DUP4 ADD MSTORE PUSH2 0x188E DUP2 PUSH2 0x1855 JUMP JUMPDEST SWAP1 POP SWAP2 SWAP1 POP JUMP JUMPDEST PUSH32 0x54726164696E67206973206E6F7420656E61626C656420796574000000000000 PUSH0 DUP3 ADD MSTORE POP JUMP JUMPDEST PUSH0 PUSH2 0x18C9 PUSH1 0x1A DUP4 PUSH2 0x13DF JUMP JUMPDEST SWAP2 POP PUSH2 0x18D4 DUP3 PUSH2 0x1895 JUMP JUMPDEST PUSH1 0x20 DUP3 ADD SWAP1 POP SWAP2 SWAP1 POP JUMP JUMPDEST PUSH0 PUSH1 0x20 DUP3 ADD SWAP1 POP DUP2 DUP2 SUB PUSH0 DUP4 ADD MSTORE PUSH2 0x18F6 DUP2 PUSH2 0x18BD JUMP JUMPDEST SWAP1 POP SWAP2 SWAP1 POP JUMP JUMPDEST PUSH32 0x5472616E7366657220616D6F756E742065786365656473206D6178206C696D69 PUSH0 DUP3 ADD MSTORE PUSH32 0x7400000000000000000000000000000000000000000000000000000000000000 PUSH1 0x20 DUP3 ADD MSTORE POP JUMP JUMPDEST PUSH0 PUSH2 0x1957 PUSH1 0x21 DUP4 PUSH2 0x13DF JUMP JUMPDEST SWAP2 POP PUSH2 0x1962 DUP3 PUSH2 0x18FD JUMP JUMPDEST PUSH1 0x40 DUP3 ADD SWAP1 POP SWAP2 SWAP1 POP JUMP JUMPDEST PUSH0 PUSH1 0x20 DUP3 ADD SWAP1 POP DUP2 DUP2 SUB PUSH0 DUP4 ADD MSTORE PUSH2 0x1984 DUP2 PUSH2 0x194B JUMP JUMPDEST SWAP1 POP SWAP2 SWAP1 POP JUMP JUMPDEST PUSH32 0x4E487B7100000000000000000000000000000000000000000000000000000000 PUSH0 MSTORE PUSH1 0x11 PUSH1 0x4 MSTORE PUSH1 0x24 PUSH0 REVERT JUMPDEST PUSH0 PUSH2 0x19C2 DUP3 PUSH2 0x14C3 JUMP JUMPDEST SWAP2 POP PUSH2 0x19CD DUP4 PUSH2 0x14C3 JUMP JUMPDEST SWAP3 POP DUP3 DUP3 MUL PUSH2 0x19DB DUP2 PUSH2 0x14C3 JUMP JUMPDEST SWAP2 POP DUP3 DUP3 DIV DUP5 EQ DUP4 ISZERO OR PUSH2 0x19F2 JUMPI PUSH2 0x19F1 PUSH2 0x198B JUMP JUMPDEST JUMPDEST POP SWAP3 SWAP2 POP POP JUMP JUMPDEST PUSH32 0x4E487B7100000000000000000000000000000000000000000000000000000000 PUSH0 MSTORE PUSH1 0x12 PUSH1 0x4 MSTORE PUSH1 0x24 PUSH0 REVERT JUMPDEST PUSH0 PUSH2 0x1A30 DUP3 PUSH2 0x14C3 JUMP JUMPDEST SWAP2 POP PUSH2 0x1A3B DUP4 PUSH2 0x14C3 JUMP JUMPDEST SWAP3 POP DUP3 PUSH2 0x1A4B JUMPI PUSH2 0x1A4A PUSH2 0x19F9 JUMP JUMPDEST JUMPDEST DUP3 DUP3 DIV SWAP1 POP SWAP3 SWAP2 POP POP JUMP JUMPDEST PUSH0 PUSH2 0x1A60 DUP3 PUSH2 0x14C3 JUMP JUMPDEST SWAP2 POP PUSH2 0x1A6B DUP4 PUSH2 0x14C3 JUMP JUMPDEST SWAP3 POP DUP3 DUP3 SUB SWAP1 POP DUP2 DUP2 GT ISZERO PUSH2 0x1A83 JUMPI PUSH2 0x1A82 PUSH2 0x198B JUMP JUMPDEST JUMPDEST SWAP3 SWAP2 POP POP JUMP JUMPDEST PUSH0 PUSH2 0x1A93 DUP3 PUSH2 0x14C3 JUMP JUMPDEST SWAP2 POP PUSH2 0x1A9E DUP4 PUSH2 0x14C3 JUMP JUMPDEST SWAP3 POP DUP3 DUP3 ADD SWAP1 POP DUP1 DUP3 GT ISZERO PUSH2 0x1AB6 JUMPI PUSH2 0x1AB5 PUSH2 0x198B JUMP JUMPDEST JUMPDEST SWAP3 SWAP2 POP POP JUMP INVALID LOG2 PUSH5 0x6970667358 0x22 SLT KECCAK256 TIMESTAMP DUP15 0xA7 0xB1 0xB6 CODECOPY POP LOG0 0xAF 0x2D LOG4 PUSH11 0xA2AEDD0B45103A17D7A263 0xCA TIMESTAMP 0xC1 DUP2 LT GASLIMIT PUSH24 0xA16164736F6C634300081D00330000000000000000000000 "
	},
	"Assembly": ".code\n  PUSH 80\t\t\tcontract ZiggiToken is ERC20, ...\n  PUSH 40\t\t\tcontract ZiggiToken is ERC20, ...\n  MSTORE \t\t\tcontract ZiggiToken is ERC20, ...\n  PUSH 2\t\t\t2\n  PUSH 8\t\t\tuint256 public burnFee = 2\n  SSTORE \t\t\tuint256 public burnFee = 2\n  PUSH 1\t\t\t1\n  PUSH 9\t\t\tuint256 public rewardFee = 1\n  SSTORE \t\t\tuint256 public rewardFee = 1\n  PUSH 1\t\t\t1\n  PUSH A\t\t\tuint256 public devFee = 1\n  SSTORE \t\t\tuint256 public devFee = 1\n  PUSH 5\t\t\t5\n  PUSH B\t\t\tuint256 public liquidityFee = ...\n  SSTORE \t\t\tuint256 public liquidityFee = ...\n  PUSH 0\t\t\tfalse\n  PUSH D\t\t\tbool public tradingEnabled = f...\n  PUSH 0\t\t\tbool public tradingEnabled = f...\n  PUSH 100\t\t\tbool public tradingEnabled = f...\n  EXP \t\t\tbool public tradingEnabled = f...\n  DUP2 \t\t\tbool public tradingEnabled = f...\n  SLOAD \t\t\tbool public tradingEnabled = f...\n  DUP2 \t\t\tbool public tradingEnabled = f...\n  PUSH FF\t\t\tbool public tradingEnabled = f...\n  MUL \t\t\tbool public tradingEnabled = f...\n  NOT \t\t\tbool public tradingEnabled = f...\n  AND \t\t\tbool public tradingEnabled = f...\n  SWAP1 \t\t\tbool public tradingEnabled = f...\n  DUP4 \t\t\tbool public tradingEnabled = f...\n  ISZERO \t\t\tbool public tradingEnabled = f...\n  ISZERO \t\t\tbool public tradingEnabled = f...\n  MUL \t\t\tbool public tradingEnabled = f...\n  OR \t\t\tbool public tradingEnabled = f...\n  SWAP1 \t\t\tbool public tradingEnabled = f...\n  SSTORE \t\t\tbool public tradingEnabled = f...\n  POP \t\t\tbool public tradingEnabled = f...\n  CALLVALUE \t\t\tconstructor() ERC20(\"Ziggi\", \"...\n  DUP1 \t\t\tconstructor() ERC20(\"Ziggi\", \"...\n  ISZERO \t\t\tconstructor() ERC20(\"Ziggi\", \"...\n  PUSH [tag] 1\t\t\tconstructor() ERC20(\"Ziggi\", \"...\n  JUMPI \t\t\tconstructor() ERC20(\"Ziggi\", \"...\n  PUSH 0\t\t\tconstructor() ERC20(\"Ziggi\", \"...\n  PUSH 0\t\t\tconstructor() ERC20(\"Ziggi\", \"...\n  REVERT \t\t\tconstructor() ERC20(\"Ziggi\", \"...\ntag 1\t\t\tconstructor() ERC20(\"Ziggi\", \"...\n  JUMPDEST \t\t\tconstructor() ERC20(\"Ziggi\", \"...\n  POP \t\t\tconstructor() ERC20(\"Ziggi\", \"...\n  CALLER \t\t\tmsg.sender\n  PUSH 40\t\t\t\\r\\n\\r\\n    function setMaxTxA...\n  MLOAD \t\t\t\\r\\n\\r\\n    function setMaxTxA...\n  DUP1 \t\t\t\\r\\n\\r\\n    function setMaxTxA...\n  PUSH 40\t\t\t\\r\\n\\r\\n    function setMaxTxA...\n  ADD \t\t\t\\r\\n\\r\\n    function setMaxTxA...\n  PUSH 40\t\t\t\\r\\n\\r\\n    function setMaxTxA...\n  MSTORE \t\t\t\\r\\n\\r\\n    function setMaxTxA...\n  DUP1 \t\t\t\\r\\n\\r\\n    function setMaxTxA...\n  PUSH 5\t\t\t\\r\\n\\r\\n    function setMaxTxA...\n  DUP2 \t\t\t\\r\\n\\r\\n    function setMaxTxA...\n  MSTORE \t\t\t\\r\\n\\r\\n    function setMaxTxA...\n  PUSH 20\t\t\t\\r\\n\\r\\n    function setMaxTxA...\n  ADD \t\t\t\\r\\n\\r\\n    function setMaxTxA...\n  PUSH 5A69676769000000000000000000000000000000000000000000000000000000\t\t\t\\r\\n\\r\\n    function setMaxTxA...\n  DUP2 \t\t\t\\r\\n\\r\\n    function setMaxTxA...\n  MSTORE \t\t\t\\r\\n\\r\\n    function setMaxTxA...\n  POP \t\t\t\\r\\n\\r\\n    function setMaxTxA...\n  PUSH 40\t\t\t\\r\\n\\r\\n    function setMaxTxA...\n  MLOAD \t\t\t\\r\\n\\r\\n    function setMaxTxA...\n  DUP1 \t\t\t\\r\\n\\r\\n    function setMaxTxA...\n  PUSH 40\t\t\t\\r\\n\\r\\n    function setMaxTxA...\n  ADD \t\t\t\\r\\n\\r\\n    function setMaxTxA...\n  PUSH 40\t\t\t\\r\\n\\r\\n    function setMaxTxA...\n  MSTORE \t\t\t\\r\\n\\r\\n    function setMaxTxA...\n  DUP1 \t\t\t\\r\\n\\r\\n    function setMaxTxA...\n  PUSH 5\t\t\t\\r\\n\\r\\n    function setMaxTxA...\n  DUP2 \t\t\t\\r\\n\\r\\n    function setMaxTxA...\n  MSTORE \t\t\t\\r\\n\\r\\n    function setMaxTxA...\n  PUSH 20\t\t\t\\r\\n\\r\\n    function setMaxTxA...\n  ADD \t\t\t\\r\\n\\r\\n    function setMaxTxA...\n  PUSH 5A49474749000000000000000000000000000000000000000000000000000000\t\t\t\\r\\n\\r\\n    function setMaxTxA...\n  DUP2 \t\t\t\\r\\n\\r\\n    function setMaxTxA...\n  MSTORE \t\t\t\\r\\n\\r\\n    function setMaxTxA...\n  POP \t\t\t\\r\\n\\r\\n    function setMaxTxA...\n  DUP2 \t\t\t\\r\\n   \n  PUSH 3\t\t\tyOwne\n  SWAP1 \t\t\tyOwner {\\r\\n   \n  DUP2 \t\t\tyOwner {\\r\\n   \n  PUSH [tag] 6\t\t\tyOwner {\\r\\n   \n  SWAP2 \t\t\tyOwner {\\r\\n   \n  SWAP1 \t\t\tyOwner {\\r\\n   \n  PUSH [tag] 7\t\t\tyOwner {\\r\\n   \n  JUMP \t\t\tyOwner {\\r\\n   \ntag 6\t\t\tyOwner {\\r\\n   \n  JUMPDEST \t\t\tyOwner {\\r\\n   \n  POP \t\t\tyOwner {\\r\\n   \n  DUP1 \t\t\tmaxTxAm\n  PUSH 4\t\t\tAmount \n  SWAP1 \t\t\tAmount = _maxTxAm\n  DUP2 \t\t\tAmount = _maxTxAm\n  PUSH [tag] 8\t\t\tAmount = _maxTxAm\n  SWAP2 \t\t\tAmount = _maxTxAm\n  SWAP1 \t\t\tAmount = _maxTxAm\n  PUSH [tag] 7\t\t\tAmount = _maxTxAm\n  JUMP \t\t\tAmount = _maxTxAm\ntag 8\t\t\tAmount = _maxTxAm\n  JUMPDEST \t\t\tAmount = _maxTxAm\n  POP \t\t\tAmount = _maxTxAm\n  POP \t\t\t\\r\\n\\r\\n    function setMaxTxA...\n  POP \t\t\t\\r\\n\\r\\n    function setMaxTxA...\n  PUSH 0\t\t\t \n  PUSH FFFFFFFFFFFFFFFFFFFFFFFFFFFFFFFFFFFFFFFF\t\t\trnal onlyOwner {\\r\\n        \n  AND \t\t\trnal onlyOwner {\\r\\n        \n  DUP2 \t\t\trnal onlyOwn\n  PUSH FFFFFFFFFFFFFFFFFFFFFFFFFFFFFFFFFFFFFFFF\t\t\trnal onlyOwner {\\r\\n        \n  AND \t\t\trnal onlyOwner {\\r\\n        \n  SUB \t\t\trnal onlyOwner {\\r\\n        \n  PUSH [tag] 10\t\t\texternal onlyOwner {\\r\\n      ...\n  JUMPI \t\t\texternal onlyOwner {\\r\\n      ...\n  PUSH 0\t\t\t \n  PUSH 40\t\t\tunt] = status;\\r\\n    }\\r\\n\\r\\...\n  MLOAD \t\t\tunt] = status;\\r\\n    }\\r\\n\\r\\...\n  PUSH 1E4FBDF700000000000000000000000000000000000000000000000000000000\t\t\tunt] = status;\\r\\n    }\\r\\n\\r\\...\n  DUP2 \t\t\tunt] = status;\\r\\n    }\\r\\n\\r\\...\n  MSTORE \t\t\tunt] = status;\\r\\n    }\\r\\n\\r\\...\n  PUSH 4\t\t\tunt] = status;\\r\\n    }\\r\\n\\r\\...\n  ADD \t\t\tunt] = status;\\r\\n    }\\r\\n\\r\\...\n  PUSH [tag] 11\t\t\tunt] = status;\\r\\n    }\\r\\n\\r\\...\n  SWAP2 \t\t\tunt] = status;\\r\\n    }\\r\\n\\r\\...\n  SWAP1 \t\t\tunt] = status;\\r\\n    }\\r\\n\\r\\...\n  PUSH [tag] 12\t\t\tunt] = status;\\r\\n    }\\r\\n\\r\\...\n  JUMP \t\t\tunt] = status;\\r\\n    }\\r\\n\\r\\...\ntag 11\t\t\tunt] = status;\\r\\n    }\\r\\n\\r\\...\n  JUMPDEST \t\t\tunt] = status;\\r\\n    }\\r\\n\\r\\...\n  PUSH 40\t\t\tunt] = status;\\r\\n    }\\r\\n\\r\\...\n  MLOAD \t\t\tunt] = status;\\r\\n    }\\r\\n\\r\\...\n  DUP1 \t\t\tunt] = status;\\r\\n    }\\r\\n\\r\\...\n  SWAP2 \t\t\tunt] = status;\\r\\n    }\\r\\n\\r\\...\n  SUB \t\t\tunt] = status;\\r\\n    }\\r\\n\\r\\...\n  SWAP1 \t\t\tunt] = status;\\r\\n    }\\r\\n\\r\\...\n  REVERT \t\t\tunt] = status;\\r\\n    }\\r\\n\\r\\...\ntag 10\t\t\texternal onlyOwner {\\r\\n      ...\n  JUMPDEST \t\t\texternal onlyOwner {\\r\\n      ...\n  PUSH [tag] 13\t\t\t56 _burnFee, uint256 _rewardFe...\n  DUP2 \t\t\t6 _rewardFee\n  PUSH [tag] 14\t\t\t56 _burnFee, uint2\n  PUSH 20\t\t\t56 _burnFee, uint2\n  SHL \t\t\t56 _burnFee, uint2\n  PUSH 20\t\t\t56 _burnFee, uint256 _rewardFe...\n  SHR \t\t\t56 _burnFee, uint256 _rewardFe...\n  JUMP \t\t\t56 _burnFee, uint256 _rewardFe...\ntag 13\t\t\t56 _burnFee, uint256 _rewardFe...\n  JUMPDEST \t\t\t56 _burnFee, uint256 _rewardFe...\n  POP \t\t\tcludeFromFees(address account,...\n  PUSH 0\t\t\tuint256 totalSupply\n  PUSH [tag] 16\t\t\tdecimals()\n  PUSH [tag] 17\t\t\tdecimals\n  PUSH 20\t\t\tdecimals\n  SHL \t\t\tdecimals\n  PUSH 20\t\t\tdecimals()\n  SHR \t\t\tdecimals()\n  JUMP \t\t\tdecimals()\ntag 16\t\t\tdecimals()\n  JUMPDEST \t\t\tdecimals()\n  PUSH A\t\t\t10\n  PUSH [tag] 18\t\t\t10 ** decimals()\n  SWAP2 \t\t\t10 ** decimals()\n  SWAP1 \t\t\t10 ** decimals()\n  PUSH [tag] 19\t\t\t10 ** decimals()\n  JUMP \t\t\t10 ** decimals()\ntag 18\t\t\t10 ** decimals()\n  JUMPDEST \t\t\t10 ** decimals()\n  PUSH F4240\t\t\t1_000_000\n  PUSH [tag] 20\t\t\t1_000_000 * 10 ** decimals()\n  SWAP2 \t\t\t1_000_000 * 10 ** decimals()\n  SWAP1 \t\t\t1_000_000 * 10 ** decimals()\n  PUSH [tag] 21\t\t\t1_000_000 * 10 ** decimals()\n  JUMP \t\t\t1_000_000 * 10 ** decimals()\ntag 20\t\t\t1_000_000 * 10 ** decimals()\n  JUMPDEST \t\t\t1_000_000 * 10 ** decimals()\n  SWAP1 \t\t\tuint256 totalSupply = 1_000_00...\n  POP \t\t\tuint256 totalSupply = 1_000_00...\n  PUSH [tag] 22\t\t\t_mint(msg.sender, totalSupply)\n  CALLER \t\t\tmsg.sender\n  DUP3 \t\t\ttotalSupply\n  PUSH [tag] 23\t\t\t_mint\n  PUSH 20\t\t\t_mint\n  SHL \t\t\t_mint\n  PUSH 20\t\t\t_mint(msg.sender, totalSupply)\n  SHR \t\t\t_mint(msg.sender, totalSupply)\n  JUMP \t\t\t_mint(msg.sender, totalSupply)\ntag 22\t\t\t_mint(msg.sender, totalSupply)\n  JUMPDEST \t\t\t_mint(msg.sender, totalSupply)\n  PUSH 64\t\t\t100\n  DUP2 \t\t\ttotalSupply\n  PUSH [tag] 24\t\t\ttotalSupply / 100\n  SWAP2 \t\t\ttotalSupply / 100\n  SWAP1 \t\t\ttotalSupply / 100\n  PUSH [tag] 25\t\t\ttotalSupply / 100\n  JUMP \t\t\ttotalSupply / 100\ntag 24\t\t\ttotalSupply / 100\n  JUMPDEST \t\t\ttotalSupply / 100\n  PUSH C\t\t\tmaxTxAmount\n  DUP2 \t\t\tmaxTxAmount = totalSupply / 10...\n  SWAP1 \t\t\tmaxTxAmount = totalSupply / 10...\n  SSTORE \t\t\tmaxTxAmount = totalSupply / 10...\n  POP \t\t\tmaxTxAmount = totalSupply / 10...\n  CALLER \t\t\tmsg.sender\n  PUSH D\t\t\tdevWallet\n  PUSH 1\t\t\tdevWallet\n  PUSH 100\t\t\tdevWallet = msg.sender\n  EXP \t\t\tdevWallet = msg.sender\n  DUP2 \t\t\tdevWallet = msg.sender\n  SLOAD \t\t\tdevWallet = msg.sender\n  DUP2 \t\t\tdevWallet = msg.sender\n  PUSH FFFFFFFFFFFFFFFFFFFFFFFFFFFFFFFFFFFFFFFF\t\t\tdevWallet = msg.sender\n  MUL \t\t\tdevWallet = msg.sender\n  NOT \t\t\tdevWallet = msg.sender\n  AND \t\t\tdevWallet = msg.sender\n  SWAP1 \t\t\tdevWallet = msg.sender\n  DUP4 \t\t\tdevWallet = msg.sender\n  PUSH FFFFFFFFFFFFFFFFFFFFFFFFFFFFFFFFFFFFFFFF\t\t\tdevWallet = msg.sender\n  AND \t\t\tdevWallet = msg.sender\n  MUL \t\t\tdevWallet = msg.sender\n  OR \t\t\tdevWallet = msg.sender\n  SWAP1 \t\t\tdevWallet = msg.sender\n  SSTORE \t\t\tdevWallet = msg.sender\n  POP \t\t\tdevWallet = msg.sender\n  PUSH 1\t\t\ttrue\n  PUSH 7\t\t\tisExcludedFromFees\n  PUSH 0\t\t\tisExcludedFromFees[msg.sender]\n  CALLER \t\t\tmsg.sender\n  PUSH FFFFFFFFFFFFFFFFFFFFFFFFFFFFFFFFFFFFFFFF\t\t\tisExcludedFromFees[msg.sender]\n  AND \t\t\tisExcludedFromFees[msg.sender]\n  PUSH FFFFFFFFFFFFFFFFFFFFFFFFFFFFFFFFFFFFFFFF\t\t\tisExcludedFromFees[msg.sender]\n  AND \t\t\tisExcludedFromFees[msg.sender]\n  DUP2 \t\t\tisExcludedFromFees[msg.sender]\n  MSTORE \t\t\tisExcludedFromFees[msg.sender]\n  PUSH 20\t\t\tisExcludedFromFees[msg.sender]\n  ADD \t\t\tisExcludedFromFees[msg.sender]\n  SWAP1 \t\t\tisExcludedFromFees[msg.sender]\n  DUP2 \t\t\tisExcludedFromFees[msg.sender]\n  MSTORE \t\t\tisExcludedFromFees[msg.sender]\n  PUSH 20\t\t\tisExcludedFromFees[msg.sender]\n  ADD \t\t\tisExcludedFromFees[msg.sender]\n  PUSH 0\t\t\tisExcludedFromFees[msg.sender]\n  KECCAK256 \t\t\tisExcludedFromFees[msg.sender]\n  PUSH 0\t\t\tisExcludedFromFees[msg.sender]\n  PUSH 100\t\t\tisExcludedFromFees[msg.sender]...\n  EXP \t\t\tisExcludedFromFees[msg.sender]...\n  DUP2 \t\t\tisExcludedFromFees[msg.sender]...\n  SLOAD \t\t\tisExcludedFromFees[msg.sender]...\n  DUP2 \t\t\tisExcludedFromFees[msg.sender]...\n  PUSH FF\t\t\tisExcludedFromFees[msg.sender]...\n  MUL \t\t\tisExcludedFromFees[msg.sender]...\n  NOT \t\t\tisExcludedFromFees[msg.sender]...\n  AND \t\t\tisExcludedFromFees[msg.sender]...\n  SWAP1 \t\t\tisExcludedFromFees[msg.sender]...\n  DUP4 \t\t\tisExcludedFromFees[msg.sender]...\n  ISZERO \t\t\tisExcludedFromFees[msg.sender]...\n  ISZERO \t\t\tisExcludedFromFees[msg.sender]...\n  MUL \t\t\tisExcludedFromFees[msg.sender]...\n  OR \t\t\tisExcludedFromFees[msg.sender]...\n  SWAP1 \t\t\tisExcludedFromFees[msg.sender]...\n  SSTORE \t\t\tisExcludedFromFees[msg.sender]...\n  POP \t\t\tisExcludedFromFees[msg.sender]...\n  POP \t\t\t{\\r\\n        uint256 totalSupp...\n  PUSH [tag] 26\t\t\tcontract ZiggiToken is ERC20, ...\n  JUMP \t\t\tcontract ZiggiToken is ERC20, ...\ntag 14\t\t\t\n  JUMPDEST \t\t\t\n  PUSH 0\t\t\t\n  PUSH 5\t\t\t\n  PUSH 0\t\t\t\n  SWAP1 \t\t\t\n  SLOAD \t\t\t\n  SWAP1 \t\t\t\n  PUSH 100\t\t\t\n  EXP \t\t\t\n  SWAP1 \t\t\t\n  DIV \t\t\t\n  PUSH FFFFFFFFFFFFFFFFFFFFFFFFFFFFFFFFFFFFFFFF\t\t\t\n  AND \t\t\t\n  SWAP1 \t\t\t\n  POP \t\t\t\n  DUP2 \t\t\t\n  PUSH 5\t\t\t\n  PUSH 0\t\t\t\n  PUSH 100\t\t\t\n  EXP \t\t\t\n  DUP2 \t\t\t\n  SLOAD \t\t\t\n  DUP2 \t\t\t\n  PUSH FFFFFFFFFFFFFFFFFFFFFFFFFFFFFFFFFFFFFFFF\t\t\t\n  MUL \t\t\t\n  NOT \t\t\t\n  AND \t\t\t\n  SWAP1 \t\t\t\n  DUP4 \t\t\t\n  PUSH FFFFFFFFFFFFFFFFFFFFFFFFFFFFFFFFFFFFFFFF\t\t\t\n  AND \t\t\t\n  MUL \t\t\t\n  OR \t\t\t\n  SWAP1 \t\t\t\n  SSTORE \t\t\t\n  POP \t\t\t\n  DUP2 \t\t\t\n  PUSH FFFFFFFFFFFFFFFFFFFFFFFFFFFFFFFFFFFFFFFF\t\t\t\n  AND \t\t\t\n  DUP2 \t\t\t\n  PUSH FFFFFFFFFFFFFFFFFFFFFFFFFFFFFFFFFFFFFFFF\t\t\t\n  AND \t\t\t\n  PUSH 8BE0079C531659141344CD1FD0A4F28419497F9722A3DAAFE3B4186F6B6457E0\t\t\t\n  PUSH 40\t\t\t\n  MLOAD \t\t\t\n  PUSH 40\t\t\t\n  MLOAD \t\t\t\n  DUP1 \t\t\t\n  SWAP2 \t\t\t\n  SUB \t\t\t\n  SWAP1 \t\t\t\n  LOG3 \t\t\t\n  POP \t\t\t\n  POP \t\t\t\n  JUMP \t\t\t\ntag 17\t\t\t      }\\r\\n\\r\\n        super._...\n  JUMPDEST \t\t\t      }\\r\\n\\r\\n        super._...\n  PUSH 0\t\t\tount)\n  PUSH 12\t\t\t\n  SWAP1 \t\t\t\n  POP \t\t\t\n  SWAP1 \t\t\t      }\\r\\n\\r\\n        super._...\n  JUMP \t\t\t      }\\r\\n\\r\\n        super._...\ntag 23\t\t\t\n  JUMPDEST \t\t\t\n  PUSH 0\t\t\t\n  PUSH FFFFFFFFFFFFFFFFFFFFFFFFFFFFFFFFFFFFFFFF\t\t\t\n  AND \t\t\t\n  DUP3 \t\t\t\n  PUSH FFFFFFFFFFFFFFFFFFFFFFFFFFFFFFFFFFFFFFFF\t\t\t\n  AND \t\t\t\n  SUB \t\t\t\n  PUSH [tag] 30\t\t\t\n  JUMPI \t\t\t\n  PUSH 0\t\t\t\n  PUSH 40\t\t\t\n  MLOAD \t\t\t\n  PUSH EC442F0500000000000000000000000000000000000000000000000000000000\t\t\t\n  DUP2 \t\t\t\n  MSTORE \t\t\t\n  PUSH 4\t\t\t\n  ADD \t\t\t\n  PUSH [tag] 31\t\t\t\n  SWAP2 \t\t\t\n  SWAP1 \t\t\t\n  PUSH [tag] 12\t\t\t\n  JUMP \t\t\t\ntag 31\t\t\t\n  JUMPDEST \t\t\t\n  PUSH 40\t\t\t\n  MLOAD \t\t\t\n  DUP1 \t\t\t\n  SWAP2 \t\t\t\n  SUB \t\t\t\n  SWAP1 \t\t\t\n  REVERT \t\t\t\ntag 30\t\t\t\n  JUMPDEST \t\t\t\n  PUSH [tag] 32\t\t\t\n  PUSH 0\t\t\t\n  DUP4 \t\t\t\n  DUP4 \t\t\t\n  PUSH [tag] 33\t\t\t\n  PUSH 20\t\t\t\n  SHL \t\t\t\n  PUSH 20\t\t\t\n  SHR \t\t\t\n  JUMP \t\t\t\ntag 32\t\t\t\n  JUMPDEST \t\t\t\n  POP \t\t\t\n  POP \t\t\t\n  JUMP \t\t\t\ntag 33\t\t\tfunction _update(address from,...\n  JUMPDEST \t\t\tfunction _update(address from,...\n  PUSH 6\t\t\tisBlacklisted\n  PUSH 0\t\t\tisBlacklisted[from]\n  DUP5 \t\t\tfrom\n  PUSH FFFFFFFFFFFFFFFFFFFFFFFFFFFFFFFFFFFFFFFF\t\t\tisBlacklisted[from]\n  AND \t\t\tisBlacklisted[from]\n  PUSH FFFFFFFFFFFFFFFFFFFFFFFFFFFFFFFFFFFFFFFF\t\t\tisBlacklisted[from]\n  AND \t\t\tisBlacklisted[from]\n  DUP2 \t\t\tisBlacklisted[from]\n  MSTORE \t\t\tisBlacklisted[from]\n  PUSH 20\t\t\tisBlacklisted[from]\n  ADD \t\t\tisBlacklisted[from]\n  SWAP1 \t\t\tisBlacklisted[from]\n  DUP2 \t\t\tisBlacklisted[from]\n  MSTORE \t\t\tisBlacklisted[from]\n  PUSH 20\t\t\tisBlacklisted[from]\n  ADD \t\t\tisBlacklisted[from]\n  PUSH 0\t\t\tisBlacklisted[from]\n  KECCAK256 \t\t\tisBlacklisted[from]\n  PUSH 0\t\t\tisBlacklisted[from]\n  SWAP1 \t\t\tisBlacklisted[from]\n  SLOAD \t\t\tisBlacklisted[from]\n  SWAP1 \t\t\tisBlacklisted[from]\n  PUSH 100\t\t\tisBlacklisted[from]\n  EXP \t\t\tisBlacklisted[from]\n  SWAP1 \t\t\tisBlacklisted[from]\n  DIV \t\t\tisBlacklisted[from]\n  PUSH FF\t\t\tisBlacklisted[from]\n  AND \t\t\tisBlacklisted[from]\n  ISZERO \t\t\t!isBlacklisted[from]\n  DUP1 \t\t\t!isBlacklisted[from] && !isBla...\n  ISZERO \t\t\t!isBlacklisted[from] && !isBla...\n  PUSH [tag] 35\t\t\t!isBlacklisted[from] && !isBla...\n  JUMPI \t\t\t!isBlacklisted[from] && !isBla...\n  POP \t\t\t!isBlacklisted[from] && !isBla...\n  PUSH 6\t\t\tisBlacklisted\n  PUSH 0\t\t\tisBlacklisted[to]\n  DUP4 \t\t\tto\n  PUSH FFFFFFFFFFFFFFFFFFFFFFFFFFFFFFFFFFFFFFFF\t\t\tisBlacklisted[to]\n  AND \t\t\tisBlacklisted[to]\n  PUSH FFFFFFFFFFFFFFFFFFFFFFFFFFFFFFFFFFFFFFFF\t\t\tisBlacklisted[to]\n  AND \t\t\tisBlacklisted[to]\n  DUP2 \t\t\tisBlacklisted[to]\n  MSTORE \t\t\tisBlacklisted[to]\n  PUSH 20\t\t\tisBlacklisted[to]\n  ADD \t\t\tisBlacklisted[to]\n  SWAP1 \t\t\tisBlacklisted[to]\n  DUP2 \t\t\tisBlacklisted[to]\n  MSTORE \t\t\tisBlacklisted[to]\n  PUSH 20\t\t\tisBlacklisted[to]\n  ADD \t\t\tisBlacklisted[to]\n  PUSH 0\t\t\tisBlacklisted[to]\n  KECCAK256 \t\t\tisBlacklisted[to]\n  PUSH 0\t\t\tisBlacklisted[to]\n  SWAP1 \t\t\tisBlacklisted[to]\n  SLOAD \t\t\tisBlacklisted[to]\n  SWAP1 \t\t\tisBlacklisted[to]\n  PUSH 100\t\t\tisBlacklisted[to]\n  EXP \t\t\tisBlacklisted[to]\n  SWAP1 \t\t\tisBlacklisted[to]\n  DIV \t\t\tisBlacklisted[to]\n  PUSH FF\t\t\tisBlacklisted[to]\n  AND \t\t\tisBlacklisted[to]\n  ISZERO \t\t\t!isBlacklisted[to]\ntag 35\t\t\t!isBlacklisted[from] && !isBla...\n  JUMPDEST \t\t\t!isBlacklisted[from] && !isBla...\n  PUSH [tag] 36\t\t\trequire(!isBlacklisted[from] &...\n  JUMPI \t\t\trequire(!isBlacklisted[from] &...\n  PUSH 40\t\t\trequire(!isBlacklisted[from] &...\n  MLOAD \t\t\trequire(!isBlacklisted[from] &...\n  PUSH 8C379A000000000000000000000000000000000000000000000000000000000\t\t\trequire(!isBlacklisted[from] &...\n  DUP2 \t\t\trequire(!isBlacklisted[from] &...\n  MSTORE \t\t\trequire(!isBlacklisted[from] &...\n  PUSH 4\t\t\trequire(!isBlacklisted[from] &...\n  ADD \t\t\trequire(!isBlacklisted[from] &...\n  PUSH [tag] 37\t\t\trequire(!isBlacklisted[from] &...\n  SWAP1 \t\t\trequire(!isBlacklisted[from] &...\n  PUSH [tag] 38\t\t\trequire(!isBlacklisted[from] &...\n  JUMP \t\t\trequire(!isBlacklisted[from] &...\ntag 37\t\t\trequire(!isBlacklisted[from] &...\n  JUMPDEST \t\t\trequire(!isBlacklisted[from] &...\n  PUSH 40\t\t\trequire(!isBlacklisted[from] &...\n  MLOAD \t\t\trequire(!isBlacklisted[from] &...\n  DUP1 \t\t\trequire(!isBlacklisted[from] &...\n  SWAP2 \t\t\trequire(!isBlacklisted[from] &...\n  SUB \t\t\trequire(!isBlacklisted[from] &...\n  SWAP1 \t\t\trequire(!isBlacklisted[from] &...\n  REVERT \t\t\trequire(!isBlacklisted[from] &...\ntag 36\t\t\trequire(!isBlacklisted[from] &...\n  JUMPDEST \t\t\trequire(!isBlacklisted[from] &...\n  PUSH D\t\t\ttradingEnabled\n  PUSH 0\t\t\ttradingEnabled\n  SWAP1 \t\t\ttradingEnabled\n  SLOAD \t\t\ttradingEnabled\n  SWAP1 \t\t\ttradingEnabled\n  PUSH 100\t\t\ttradingEnabled\n  EXP \t\t\ttradingEnabled\n  SWAP1 \t\t\ttradingEnabled\n  DIV \t\t\ttradingEnabled\n  PUSH FF\t\t\ttradingEnabled\n  AND \t\t\ttradingEnabled\n  DUP1 \t\t\ttradingEnabled || isExcludedFr...\n  PUSH [tag] 39\t\t\ttradingEnabled || isExcludedFr...\n  JUMPI \t\t\ttradingEnabled || isExcludedFr...\n  POP \t\t\ttradingEnabled || isExcludedFr...\n  PUSH 7\t\t\tisExcludedFromFees\n  PUSH 0\t\t\tisExcludedFromFees[from]\n  DUP5 \t\t\tfrom\n  PUSH FFFFFFFFFFFFFFFFFFFFFFFFFFFFFFFFFFFFFFFF\t\t\tisExcludedFromFees[from]\n  AND \t\t\tisExcludedFromFees[from]\n  PUSH FFFFFFFFFFFFFFFFFFFFFFFFFFFFFFFFFFFFFFFF\t\t\tisExcludedFromFees[from]\n  AND \t\t\tisExcludedFromFees[from]\n  DUP2 \t\t\tisExcludedFromFees[from]\n  MSTORE \t\t\tisExcludedFromFees[from]\n  PUSH 20\t\t\tisExcludedFromFees[from]\n  ADD \t\t\tisExcludedFromFees[from]\n  SWAP1 \t\t\tisExcludedFromFees[from]\n  DUP2 \t\t\tisExcludedFromFees[from]\n  MSTORE \t\t\tisExcludedFromFees[from]\n  PUSH 20\t\t\tisExcludedFromFees[from]\n  ADD \t\t\tisExcludedFromFees[from]\n  PUSH 0\t\t\tisExcludedFromFees[from]\n  KECCAK256 \t\t\tisExcludedFromFees[from]\n  PUSH 0\t\t\tisExcludedFromFees[from]\n  SWAP1 \t\t\tisExcludedFromFees[from]\n  SLOAD \t\t\tisExcludedFromFees[from]\n  SWAP1 \t\t\tisExcludedFromFees[from]\n  PUSH 100\t\t\tisExcludedFromFees[from]\n  EXP \t\t\tisExcludedFromFees[from]\n  SWAP1 \t\t\tisExcludedFromFees[from]\n  DIV \t\t\tisExcludedFromFees[from]\n  PUSH FF\t\t\tisExcludedFromFees[from]\n  AND \t\t\tisExcludedFromFees[from]\ntag 39\t\t\ttradingEnabled || isExcludedFr...\n  JUMPDEST \t\t\ttradingEnabled || isExcludedFr...\n  PUSH [tag] 40\t\t\trequire(tradingEnabled || isEx...\n  JUMPI \t\t\trequire(tradingEnabled || isEx...\n  PUSH 40\t\t\trequire(tradingEnabled || isEx...\n  MLOAD \t\t\trequire(tradingEnabled || isEx...\n  PUSH 8C379A000000000000000000000000000000000000000000000000000000000\t\t\trequire(tradingEnabled || isEx...\n  DUP2 \t\t\trequire(tradingEnabled || isEx...\n  MSTORE \t\t\trequire(tradingEnabled || isEx...\n  PUSH 4\t\t\trequire(tradingEnabled || isEx...\n  ADD \t\t\trequire(tradingEnabled || isEx...\n  PUSH [tag] 41\t\t\trequire(tradingEnabled || isEx...\n  SWAP1 \t\t\trequire(tradingEnabled || isEx...\n  PUSH [tag] 42\t\t\trequire(tradingEnabled || isEx...\n  JUMP \t\t\trequire(tradingEnabled || isEx...\ntag 41\t\t\trequire(tradingEnabled || isEx...\n  JUMPDEST \t\t\trequire(tradingEnabled || isEx...\n  PUSH 40\t\t\trequire(tradingEnabled || isEx...\n  MLOAD \t\t\trequire(tradingEnabled || isEx...\n  DUP1 \t\t\trequire(tradingEnabled || isEx...\n  SWAP2 \t\t\trequire(tradingEnabled || isEx...\n  SUB \t\t\trequire(tradingEnabled || isEx...\n  SWAP1 \t\t\trequire(tradingEnabled || isEx...\n  REVERT \t\t\trequire(tradingEnabled || isEx...\ntag 40\t\t\trequire(tradingEnabled || isEx...\n  JUMPDEST \t\t\trequire(tradingEnabled || isEx...\n  PUSH C\t\t\tmaxTxAmount\n  SLOAD \t\t\tmaxTxAmount\n  DUP2 \t\t\tamount\n  GT \t\t\tamount <= maxTxAmount\n  ISZERO \t\t\tamount <= maxTxAmount\n  DUP1 \t\t\tamount <= maxTxAmount || isExc...\n  PUSH [tag] 43\t\t\tamount <= maxTxAmount || isExc...\n  JUMPI \t\t\tamount <= maxTxAmount || isExc...\n  POP \t\t\tamount <= maxTxAmount || isExc...\n  PUSH 7\t\t\tisExcludedFromFees\n  PUSH 0\t\t\tisExcludedFromFees[from]\n  DUP5 \t\t\tfrom\n  PUSH FFFFFFFFFFFFFFFFFFFFFFFFFFFFFFFFFFFFFFFF\t\t\tisExcludedFromFees[from]\n  AND \t\t\tisExcludedFromFees[from]\n  PUSH FFFFFFFFFFFFFFFFFFFFFFFFFFFFFFFFFFFFFFFF\t\t\tisExcludedFromFees[from]\n  AND \t\t\tisExcludedFromFees[from]\n  DUP2 \t\t\tisExcludedFromFees[from]\n  MSTORE \t\t\tisExcludedFromFees[from]\n  PUSH 20\t\t\tisExcludedFromFees[from]\n  ADD \t\t\tisExcludedFromFees[from]\n  SWAP1 \t\t\tisExcludedFromFees[from]\n  DUP2 \t\t\tisExcludedFromFees[from]\n  MSTORE \t\t\tisExcludedFromFees[from]\n  PUSH 20\t\t\tisExcludedFromFees[from]\n  ADD \t\t\tisExcludedFromFees[from]\n  PUSH 0\t\t\tisExcludedFromFees[from]\n  KECCAK256 \t\t\tisExcludedFromFees[from]\n  PUSH 0\t\t\tisExcludedFromFees[from]\n  SWAP1 \t\t\tisExcludedFromFees[from]\n  SLOAD \t\t\tisExcludedFromFees[from]\n  SWAP1 \t\t\tisExcludedFromFees[from]\n  PUSH 100\t\t\tisExcludedFromFees[from]\n  EXP \t\t\tisExcludedFromFees[from]\n  SWAP1 \t\t\tisExcludedFromFees[from]\n  DIV \t\t\tisExcludedFromFees[from]\n  PUSH FF\t\t\tisExcludedFromFees[from]\n  AND \t\t\tisExcludedFromFees[from]\ntag 43\t\t\tamount <= maxTxAmount || isExc...\n  JUMPDEST \t\t\tamount <= maxTxAmount || isExc...\n  PUSH [tag] 44\t\t\trequire(amount <= maxTxAmount ...\n  JUMPI \t\t\trequire(amount <= maxTxAmount ...\n  PUSH 40\t\t\trequire(amount <= maxTxAmount ...\n  MLOAD \t\t\trequire(amount <= maxTxAmount ...\n  PUSH 8C379A000000000000000000000000000000000000000000000000000000000\t\t\trequire(amount <= maxTxAmount ...\n  DUP2 \t\t\trequire(amount <= maxTxAmount ...\n  MSTORE \t\t\trequire(amount <= maxTxAmount ...\n  PUSH 4\t\t\trequire(amount <= maxTxAmount ...\n  ADD \t\t\trequire(amount <= maxTxAmount ...\n  PUSH [tag] 45\t\t\trequire(amount <= maxTxAmount ...\n  SWAP1 \t\t\trequire(amount <= maxTxAmount ...\n  PUSH [tag] 46\t\t\trequire(amount <= maxTxAmount ...\n  JUMP \t\t\trequire(amount <= maxTxAmount ...\ntag 45\t\t\trequire(amount <= maxTxAmount ...\n  JUMPDEST \t\t\trequire(amount <= maxTxAmount ...\n  PUSH 40\t\t\trequire(amount <= maxTxAmount ...\n  MLOAD \t\t\trequire(amount <= maxTxAmount ...\n  DUP1 \t\t\trequire(amount <= maxTxAmount ...\n  SWAP2 \t\t\trequire(amount <= maxTxAmount ...\n  SUB \t\t\trequire(amount <= maxTxAmount ...\n  SWAP1 \t\t\trequire(amount <= maxTxAmount ...\n  REVERT \t\t\trequire(amount <= maxTxAmount ...\ntag 44\t\t\trequire(amount <= maxTxAmount ...\n  JUMPDEST \t\t\trequire(amount <= maxTxAmount ...\n  PUSH 0\t\t\tuint256 burnAmount\n  PUSH 64\t\t\t100\n  PUSH 8\t\t\tburnFee\n  SLOAD \t\t\tburnFee\n  DUP4 \t\t\tamount\n  PUSH [tag] 47\t\t\tamount * burnFee\n  SWAP2 \t\t\tamount * burnFee\n  SWAP1 \t\t\tamount * burnFee\n  PUSH [tag] 21\t\t\tamount * burnFee\n  JUMP \t\t\tamount * burnFee\ntag 47\t\t\tamount * burnFee\n  JUMPDEST \t\t\tamount * burnFee\n  PUSH [tag] 48\t\t\t(amount * burnFee) / 100\n  SWAP2 \t\t\t(amount * burnFee) / 100\n  SWAP1 \t\t\t(amount * burnFee) / 100\n  PUSH [tag] 25\t\t\t(amount * burnFee) / 100\n  JUMP \t\t\t(amount * burnFee) / 100\ntag 48\t\t\t(amount * burnFee) / 100\n  JUMPDEST \t\t\t(amount * burnFee) / 100\n  SWAP1 \t\t\tuint256 burnAmount = (amount *...\n  POP \t\t\tuint256 burnAmount = (amount *...\n  PUSH 0\t\t\tuint256 rewardAmount\n  PUSH 64\t\t\t100\n  PUSH 9\t\t\trewardFee\n  SLOAD \t\t\trewardFee\n  DUP5 \t\t\tamount\n  PUSH [tag] 49\t\t\tamount * rewardFee\n  SWAP2 \t\t\tamount * rewardFee\n  SWAP1 \t\t\tamount * rewardFee\n  PUSH [tag] 21\t\t\tamount * rewardFee\n  JUMP \t\t\tamount * rewardFee\ntag 49\t\t\tamount * rewardFee\n  JUMPDEST \t\t\tamount * rewardFee\n  PUSH [tag] 50\t\t\t(amount * rewardFee) / 100\n  SWAP2 \t\t\t(amount * rewardFee) / 100\n  SWAP1 \t\t\t(amount * rewardFee) / 100\n  PUSH [tag] 25\t\t\t(amount * rewardFee) / 100\n  JUMP \t\t\t(amount * rewardFee) / 100\ntag 50\t\t\t(amount * rewardFee) / 100\n  JUMPDEST \t\t\t(amount * rewardFee) / 100\n  SWAP1 \t\t\tuint256 rewardAmount = (amount...\n  POP \t\t\tuint256 rewardAmount = (amount...\n  PUSH 0\t\t\tuint256 devAmount\n  PUSH 64\t\t\t100\n  PUSH A\t\t\tdevFee\n  SLOAD \t\t\tdevFee\n  DUP6 \t\t\tamount\n  PUSH [tag] 51\t\t\tamount * devFee\n  SWAP2 \t\t\tamount * devFee\n  SWAP1 \t\t\tamount * devFee\n  PUSH [tag] 21\t\t\tamount * devFee\n  JUMP \t\t\tamount * devFee\ntag 51\t\t\tamount * devFee\n  JUMPDEST \t\t\tamount * devFee\n  PUSH [tag] 52\t\t\t(amount * devFee) / 100\n  SWAP2 \t\t\t(amount * devFee) / 100\n  SWAP1 \t\t\t(amount * devFee) / 100\n  PUSH [tag] 25\t\t\t(amount * devFee) / 100\n  JUMP \t\t\t(amount * devFee) / 100\ntag 52\t\t\t(amount * devFee) / 100\n  JUMPDEST \t\t\t(amount * devFee) / 100\n  SWAP1 \t\t\tuint256 devAmount = (amount * ...\n  POP \t\t\tuint256 devAmount = (amount * ...\n  PUSH 0\t\t\tuint256 liquidityAmount\n  PUSH 64\t\t\t100\n  PUSH B\t\t\tliquidityFee\n  SLOAD \t\t\tliquidityFee\n  DUP7 \t\t\tamount\n  PUSH [tag] 53\t\t\tamount * liquidityFee\n  SWAP2 \t\t\tamount * liquidityFee\n  SWAP1 \t\t\tamount * liquidityFee\n  PUSH [tag] 21\t\t\tamount * liquidityFee\n  JUMP \t\t\tamount * liquidityFee\ntag 53\t\t\tamount * liquidityFee\n  JUMPDEST \t\t\tamount * liquidityFee\n  PUSH [tag] 54\t\t\t(amount * liquidityFee) / 100\n  SWAP2 \t\t\t(amount * liquidityFee) / 100\n  SWAP1 \t\t\t(amount * liquidityFee) / 100\n  PUSH [tag] 25\t\t\t(amount * liquidityFee) / 100\n  JUMP \t\t\t(amount * liquidityFee) / 100\ntag 54\t\t\t(amount * liquidityFee) / 100\n  JUMPDEST \t\t\t(amount * liquidityFee) / 100\n  SWAP1 \t\t\tuint256 liquidityAmount = (amo...\n  POP \t\t\tuint256 liquidityAmount = (amo...\n  PUSH 0\t\t\tuint256 sendAmount\n  DUP2 \t\t\tliquidityAmount\n  DUP4 \t\t\tdevAmount\n  DUP6 \t\t\trewardAmount\n  DUP8 \t\t\tburnAmount\n  DUP10 \t\t\tamount\n  PUSH [tag] 55\t\t\tamount - burnAmount\n  SWAP2 \t\t\tamount - burnAmount\n  SWAP1 \t\t\tamount - burnAmount\n  PUSH [tag] 56\t\t\tamount - burnAmount\n  JUMP \t\t\tamount - burnAmount\ntag 55\t\t\tamount - burnAmount\n  JUMPDEST \t\t\tamount - burnAmount\n  PUSH [tag] 57\t\t\tamount - burnAmount - rewardAm...\n  SWAP2 \t\t\tamount - burnAmount - rewardAm...\n  SWAP1 \t\t\tamount - burnAmount - rewardAm...\n  PUSH [tag] 56\t\t\tamount - burnAmount - rewardAm...\n  JUMP \t\t\tamount - burnAmount - rewardAm...\ntag 57\t\t\tamount - burnAmount - rewardAm...\n  JUMPDEST \t\t\tamount - burnAmount - rewardAm...\n  PUSH [tag] 58\t\t\tamount - burnAmount - rewardAm...\n  SWAP2 \t\t\tamount - burnAmount - rewardAm...\n  SWAP1 \t\t\tamount - burnAmount - rewardAm...\n  PUSH [tag] 56\t\t\tamount - burnAmount - rewardAm...\n  JUMP \t\t\tamount - burnAmount - rewardAm...\ntag 58\t\t\tamount - burnAmount - rewardAm...\n  JUMPDEST \t\t\tamount - burnAmount - rewardAm...\n  PUSH [tag] 59\t\t\tamount - burnAmount - rewardAm...\n  SWAP2 \t\t\tamount - burnAmount - rewardAm...\n  SWAP1 \t\t\tamount - burnAmount - rewardAm...\n  PUSH [tag] 56\t\t\tamount - burnAmount - rewardAm...\n  JUMP \t\t\tamount - burnAmount - rewardAm...\ntag 59\t\t\tamount - burnAmount - rewardAm...\n  JUMPDEST \t\t\tamount - burnAmount - rewardAm...\n  SWAP1 \t\t\tuint256 sendAmount = amount - ...\n  POP \t\t\tuint256 sendAmount = amount - ...\n  PUSH 0\t\t\t0\n  DUP6 \t\t\tburnAmount\n  GT \t\t\tburnAmount > 0\n  ISZERO \t\t\tif (burnAmount > 0) {\\r\\n     ...\n  PUSH [tag] 60\t\t\tif (burnAmount > 0) {\\r\\n     ...\n  JUMPI \t\t\tif (burnAmount > 0) {\\r\\n     ...\n  PUSH [tag] 61\t\t\t_burn(from, burnAmount)\n  DUP9 \t\t\tfrom\n  DUP7 \t\t\tburnAmount\n  PUSH [tag] 62\t\t\t_burn\n  PUSH 20\t\t\t_burn\n  SHL \t\t\t_burn\n  PUSH 20\t\t\t_burn(from, burnAmount)\n  SHR \t\t\t_burn(from, burnAmount)\n  JUMP \t\t\t_burn(from, burnAmount)\ntag 61\t\t\t_burn(from, burnAmount)\n  JUMPDEST \t\t\t_burn(from, burnAmount)\ntag 60\t\t\tif (burnAmount > 0) {\\r\\n     ...\n  JUMPDEST \t\t\tif (burnAmount > 0) {\\r\\n     ...\n  PUSH 0\t\t\t0\n  DUP4 \t\t\tdevAmount\n  GT \t\t\tdevAmount > 0\n  ISZERO \t\t\tif (devAmount > 0) {\\r\\n      ...\n  PUSH [tag] 63\t\t\tif (devAmount > 0) {\\r\\n      ...\n  JUMPI \t\t\tif (devAmount > 0) {\\r\\n      ...\n  PUSH [tag] 64\t\t\tsuper._update(from, devWallet,...\n  DUP9 \t\t\tfrom\n  PUSH D\t\t\tdevWallet\n  PUSH 1\t\t\tdevWallet\n  SWAP1 \t\t\tdevWallet\n  SLOAD \t\t\tdevWallet\n  SWAP1 \t\t\tdevWallet\n  PUSH 100\t\t\tdevWallet\n  EXP \t\t\tdevWallet\n  SWAP1 \t\t\tdevWallet\n  DIV \t\t\tdevWallet\n  PUSH FFFFFFFFFFFFFFFFFFFFFFFFFFFFFFFFFFFFFFFF\t\t\tdevWallet\n  AND \t\t\tdevWallet\n  DUP6 \t\t\tdevAmount\n  PUSH [tag] 65\t\t\tsuper._update\n  PUSH 20\t\t\tsuper._update\n  SHL \t\t\tsuper._update\n  PUSH 20\t\t\tsuper._update(from, devWallet,...\n  SHR \t\t\tsuper._update(from, devWallet,...\n  JUMP \t\t\tsuper._update(from, devWallet,...\ntag 64\t\t\tsuper._update(from, devWallet,...\n  JUMPDEST \t\t\tsuper._update(from, devWallet,...\ntag 63\t\t\tif (devAmount > 0) {\\r\\n      ...\n  JUMPDEST \t\t\tif (devAmount > 0) {\\r\\n      ...\n  PUSH [tag] 66\t\t\tsuper._update(from, to, sendAm...\n  DUP9 \t\t\tfrom\n  DUP9 \t\t\tto\n  DUP4 \t\t\tsendAmount\n  PUSH [tag] 65\t\t\tsuper._update\n  PUSH 20\t\t\tsuper._update\n  SHL \t\t\tsuper._update\n  PUSH 20\t\t\tsuper._update(from, to, sendAm...\n  SHR \t\t\tsuper._update(from, to, sendAm...\n  JUMP \t\t\tsuper._update(from, to, sendAm...\ntag 66\t\t\tsuper._update(from, to, sendAm...\n  JUMPDEST \t\t\tsuper._update(from, to, sendAm...\n  POP \t\t\t{\\r\\n        require(!isBlackl...\n  POP \t\t\t{\\r\\n        require(!isBlackl...\n  POP \t\t\t{\\r\\n        require(!isBlackl...\n  POP \t\t\t{\\r\\n        require(!isBlackl...\n  POP \t\t\t{\\r\\n        require(!isBlackl...\n  POP \t\t\tfunction _update(address from,...\n  POP \t\t\tfunction _update(address from,...\n  POP \t\t\tfunction _update(address from,...\n  JUMP \t\t\tfunction _update(address from,...\ntag 62\t\t\t\n  JUMPDEST \t\t\t\n  PUSH 0\t\t\t\n  PUSH FFFFFFFFFFFFFFFFFFFFFFFFFFFFFFFFFFFFFFFF\t\t\t\n  AND \t\t\t\n  DUP3 \t\t\t\n  PUSH FFFFFFFFFFFFFFFFFFFFFFFFFFFFFFFFFFFFFFFF\t\t\t\n  AND \t\t\t\n  SUB \t\t\t\n  PUSH [tag] 68\t\t\t\n  JUMPI \t\t\t\n  PUSH 0\t\t\t\n  PUSH 40\t\t\t\n  MLOAD \t\t\t\n  PUSH 96C6FD1E00000000000000000000000000000000000000000000000000000000\t\t\t\n  DUP2 \t\t\t\n  MSTORE \t\t\t\n  PUSH 4\t\t\t\n  ADD \t\t\t\n  PUSH [tag] 69\t\t\t\n  SWAP2 \t\t\t\n  SWAP1 \t\t\t\n  PUSH [tag] 12\t\t\t\n  JUMP \t\t\t\ntag 69\t\t\t\n  JUMPDEST \t\t\t\n  PUSH 40\t\t\t\n  MLOAD \t\t\t\n  DUP1 \t\t\t\n  SWAP2 \t\t\t\n  SUB \t\t\t\n  SWAP1 \t\t\t\n  REVERT \t\t\t\ntag 68\t\t\t\n  JUMPDEST \t\t\t\n  PUSH [tag] 70\t\t\t\n  DUP3 \t\t\t\n  PUSH 0\t\t\t\n  DUP4 \t\t\t\n  PUSH [tag] 33\t\t\t\n  PUSH 20\t\t\t\n  SHL \t\t\t\n  PUSH 20\t\t\t\n  SHR \t\t\t\n  JUMP \t\t\t\ntag 70\t\t\t\n  JUMPDEST \t\t\t\n  POP \t\t\t\n  POP \t\t\t\n  JUMP \t\t\t\ntag 65\t\t\t\n  JUMPDEST \t\t\t\n  PUSH 0\t\t\t\n  PUSH FFFFFFFFFFFFFFFFFFFFFFFFFFFFFFFFFFFFFFFF\t\t\t\n  AND \t\t\t\n  DUP4 \t\t\t\n  PUSH FFFFFFFFFFFFFFFFFFFFFFFFFFFFFFFFFFFFFFFF\t\t\t\n  AND \t\t\t\n  SUB \t\t\t\n  PUSH [tag] 72\t\t\t\n  JUMPI \t\t\t\n  DUP1 \t\t\t\n  PUSH 2\t\t\t\n  PUSH 0\t\t\t\n  DUP3 \t\t\t\n  DUP3 \t\t\t\n  SLOAD \t\t\t\n  PUSH [tag] 73\t\t\t\n  SWAP2 \t\t\t\n  SWAP1 \t\t\t\n  PUSH [tag] 74\t\t\t\n  JUMP \t\t\t\ntag 73\t\t\t\n  JUMPDEST \t\t\t\n  SWAP3 \t\t\t\n  POP \t\t\t\n  POP \t\t\t\n  DUP2 \t\t\t\n  SWAP1 \t\t\t\n  SSTORE \t\t\t\n  POP \t\t\t\n  PUSH [tag] 75\t\t\t\n  JUMP \t\t\t\ntag 72\t\t\t\n  JUMPDEST \t\t\t\n  PUSH 0\t\t\t\n  PUSH 0\t\t\t\n  PUSH 0\t\t\t\n  DUP6 \t\t\t\n  PUSH FFFFFFFFFFFFFFFFFFFFFFFFFFFFFFFFFFFFFFFF\t\t\t\n  AND \t\t\t\n  PUSH FFFFFFFFFFFFFFFFFFFFFFFFFFFFFFFFFFFFFFFF\t\t\t\n  AND \t\t\t\n  DUP2 \t\t\t\n  MSTORE \t\t\t\n  PUSH 20\t\t\t\n  ADD \t\t\t\n  SWAP1 \t\t\t\n  DUP2 \t\t\t\n  MSTORE \t\t\t\n  PUSH 20\t\t\t\n  ADD \t\t\t\n  PUSH 0\t\t\t\n  KECCAK256 \t\t\t\n  SLOAD \t\t\t\n  SWAP1 \t\t\t\n  POP \t\t\t\n  DUP2 \t\t\t\n  DUP2 \t\t\t\n  LT \t\t\t\n  ISZERO \t\t\t\n  PUSH [tag] 76\t\t\t\n  JUMPI \t\t\t\n  DUP4 \t\t\t\n  DUP2 \t\t\t\n  DUP4 \t\t\t\n  PUSH 40\t\t\t\n  MLOAD \t\t\t\n  PUSH E450D38C00000000000000000000000000000000000000000000000000000000\t\t\t\n  DUP2 \t\t\t\n  MSTORE \t\t\t\n  PUSH 4\t\t\t\n  ADD \t\t\t\n  PUSH [tag] 77\t\t\t\n  SWAP4 \t\t\t\n  SWAP3 \t\t\t\n  SWAP2 \t\t\t\n  SWAP1 \t\t\t\n  PUSH [tag] 78\t\t\t\n  JUMP \t\t\t\ntag 77\t\t\t\n  JUMPDEST \t\t\t\n  PUSH 40\t\t\t\n  MLOAD \t\t\t\n  DUP1 \t\t\t\n  SWAP2 \t\t\t\n  SUB \t\t\t\n  SWAP1 \t\t\t\n  REVERT \t\t\t\ntag 76\t\t\t\n  JUMPDEST \t\t\t\n  DUP2 \t\t\t\n  DUP2 \t\t\t\n  SUB \t\t\t\n  PUSH 0\t\t\t\n  PUSH 0\t\t\t\n  DUP7 \t\t\t\n  PUSH FFFFFFFFFFFFFFFFFFFFFFFFFFFFFFFFFFFFFFFF\t\t\t\n  AND \t\t\t\n  PUSH FFFFFFFFFFFFFFFFFFFFFFFFFFFFFFFFFFFFFFFF\t\t\t\n  AND \t\t\t\n  DUP2 \t\t\t\n  MSTORE \t\t\t\n  PUSH 20\t\t\t\n  ADD \t\t\t\n  SWAP1 \t\t\t\n  DUP2 \t\t\t\n  MSTORE \t\t\t\n  PUSH 20\t\t\t\n  ADD \t\t\t\n  PUSH 0\t\t\t\n  KECCAK256 \t\t\t\n  DUP2 \t\t\t\n  SWAP1 \t\t\t\n  SSTORE \t\t\t\n  POP \t\t\t\n  POP \t\t\t\ntag 75\t\t\t\n  JUMPDEST \t\t\t\n  PUSH 0\t\t\t\n  PUSH FFFFFFFFFFFFFFFFFFFFFFFFFFFFFFFFFFFFFFFF\t\t\t\n  AND \t\t\t\n  DUP3 \t\t\t\n  PUSH FFFFFFFFFFFFFFFFFFFFFFFFFFFFFFFFFFFFFFFF\t\t\t\n  AND \t\t\t\n  SUB \t\t\t\n  PUSH [tag] 79\t\t\t\n  JUMPI \t\t\t\n  DUP1 \t\t\t\n  PUSH 2\t\t\t\n  PUSH 0\t\t\t\n  DUP3 \t\t\t\n  DUP3 \t\t\t\n  SLOAD \t\t\t\n  SUB \t\t\t\n  SWAP3 \t\t\t\n  POP \t\t\t\n  POP \t\t\t\n  DUP2 \t\t\t\n  SWAP1 \t\t\t\n  SSTORE \t\t\t\n  POP \t\t\t\n  PUSH [tag] 80\t\t\t\n  JUMP \t\t\t\ntag 79\t\t\t\n  JUMPDEST \t\t\t\n  DUP1 \t\t\t\n  PUSH 0\t\t\t\n  PUSH 0\t\t\t\n  DUP5 \t\t\t\n  PUSH FFFFFFFFFFFFFFFFFFFFFFFFFFFFFFFFFFFFFFFF\t\t\t\n  AND \t\t\t\n  PUSH FFFFFFFFFFFFFFFFFFFFFFFFFFFFFFFFFFFFFFFF\t\t\t\n  AND \t\t\t\n  DUP2 \t\t\t\n  MSTORE \t\t\t\n  PUSH 20\t\t\t\n  ADD \t\t\t\n  SWAP1 \t\t\t\n  DUP2 \t\t\t\n  MSTORE \t\t\t\n  PUSH 20\t\t\t\n  ADD \t\t\t\n  PUSH 0\t\t\t\n  KECCAK256 \t\t\t\n  PUSH 0\t\t\t\n  DUP3 \t\t\t\n  DUP3 \t\t\t\n  SLOAD \t\t\t\n  ADD \t\t\t\n  SWAP3 \t\t\t\n  POP \t\t\t\n  POP \t\t\t\n  DUP2 \t\t\t\n  SWAP1 \t\t\t\n  SSTORE \t\t\t\n  POP \t\t\t\ntag 80\t\t\t\n  JUMPDEST \t\t\t\n  DUP2 \t\t\t\n  PUSH FFFFFFFFFFFFFFFFFFFFFFFFFFFFFFFFFFFFFFFF\t\t\t\n  AND \t\t\t\n  DUP4 \t\t\t\n  PUSH FFFFFFFFFFFFFFFFFFFFFFFFFFFFFFFFFFFFFFFF\t\t\t\n  AND \t\t\t\n  PUSH DDF252AD1BE2C89B69C2B068FC378DAA952BA7F163C4A11628F55A4DF523B3EF\t\t\t\n  DUP4 \t\t\t\n  PUSH 40\t\t\t\n  MLOAD \t\t\t\n  PUSH [tag] 81\t\t\t\n  SWAP2 \t\t\t\n  SWAP1 \t\t\t\n  PUSH [tag] 82\t\t\t\n  JUMP \t\t\t\ntag 81\t\t\t\n  JUMPDEST \t\t\t\n  PUSH 40\t\t\t\n  MLOAD \t\t\t\n  DUP1 \t\t\t\n  SWAP2 \t\t\t\n  SUB \t\t\t\n  SWAP1 \t\t\t\n  LOG3 \t\t\t\n  POP \t\t\t\n  POP \t\t\t\n  POP \t\t\t\n  JUMP \t\t\t\ntag 83\t\t\t-License-Identifier: MIT\\r\\npr...\n  JUMPDEST \t\t\t-License-Identifier: MIT\\r\\npr...\n  PUSH 0\t\t\t\\r\\nimpo\n  DUP2 \t\t\ttoken\n  MLOAD \t\t\tracts/token/\n  SWAP1 \t\t\tpelin/contracts/token/\n  POP \t\t\tpelin/contracts/token/\n  SWAP2 \t\t\t-License-Identifier: MIT\\r\\npr...\n  SWAP1 \t\t\t-License-Identifier: MIT\\r\\npr...\n  POP \t\t\t-License-Identifier: MIT\\r\\npr...\n  JUMP \t\t\t-License-Identifier: MIT\\r\\npr...\ntag 84\t\t\tol\";\\r\\nimport \"@openzeppelin/...\n  JUMPDEST \t\t\tol\";\\r\\nimport \"@openzeppelin/...\n  PUSH 4E487B7100000000000000000000000000000000000000000000000000000000\t\t\table.sol\";\\r\\n\\r\\ncontract Zig...\n  PUSH 0\t\t\tO\n  MSTORE \t\t\taccess/Ownable.sol\";\\r\\n\\r\\nco...\n  PUSH 41\t\t\tckli\n  PUSH 4\t\t\tB\n  MSTORE \t\t\tvate isBlacklis\n  PUSH 24\t\t\tddre\n  PUSH 0\t\t\tg\n  REVERT \t\t\t mapping(addres\ntag 85\t\t\trivate isExcludedFromFees;\\r\\n...\n  JUMPDEST \t\t\trivate isExcludedFromFees;\\r\\n...\n  PUSH 4E487B7100000000000000000000000000000000000000000000000000000000\t\t\t burnFee = 2; // 2% Burn Fee\\r...\n  PUSH 0\t\t\tl\n  MSTORE \t\t\t256 public burnFee = 2; // 2% ...\n  PUSH 22\t\t\tlic \n  PUSH 4\t\t\tp\n  MSTORE \t\t\tint256 public d\n  PUSH 24\t\t\tv Fe\n  PUSH 0\t\t\t \n  REVERT \t\t\t; // 1% Dev Fee\ntag 86\t\t\t6 public liquidityFee = 5; // ...\n  JUMPDEST \t\t\t6 public liquidityFee = 5; // ...\n  PUSH 0\t\t\tee\\r\\n  \n  PUSH 2\t\t\t/\n  DUP3 \t\t\tunt;\n  DIV \t\t\txAmount; // \n  SWAP1 \t\t\tublic maxTxAmount; // \n  POP \t\t\tublic maxTxAmount; // \n  PUSH 1\t\t\tn\n  DUP3 \t\t\tadin\n  AND \t\t\tc tradingEna\n  DUP1 \t\t\t\\r\\n    address publ\n  PUSH [tag] 125\t\t\tlse;\\r\\n    \\r\\n    address pu...\n  JUMPI \t\t\tlse;\\r\\n    \\r\\n    address pu...\n  PUSH 7F\t\t\t20(\"\n  DUP3 \t\t\tor() E\n  AND \t\t\tructor() ERC20(\"Z\n  SWAP2 \t\t\t\\n    constructor() ERC20(\"Z\n  POP \t\t\t\\n    constructor() ERC20(\"Z\ntag 125\t\t\tlse;\\r\\n    \\r\\n    address pu...\n  JUMPDEST \t\t\tlse;\\r\\n    \\r\\n    address pu...\n  PUSH 20\t\t\tta\n  DUP3 \t\t\tnt256 \n  LT \t\t\t uint256 total\n  DUP2 \t\t\tg.sender) {\\r\\n     \n  SUB \t\t\t(msg.sender) {\\r\\n        uint...\n  PUSH [tag] 126\t\t\tble(msg.sender) {\\r\\n        u...\n  JUMPI \t\t\tble(msg.sender) {\\r\\n        u...\n  PUSH [tag] 127\t\t\t00 * 10 ** decimal\n  PUSH [tag] 85\t\t\t00 * 10 ** decimal\n  JUMP \t\t\t00 * 10 ** decimal\ntag 127\t\t\t00 * 10 ** decimal\n  JUMPDEST \t\t\t00 * 10 ** decimal\ntag 126\t\t\tble(msg.sender) {\\r\\n        u...\n  JUMPDEST \t\t\tble(msg.sender) {\\r\\n        u...\n  POP \t\t\t uint256 public maxTxAmount; /...\n  SWAP2 \t\t\t6 public liquidityFee = 5; // ...\n  SWAP1 \t\t\t6 public liquidityFee = 5; // ...\n  POP \t\t\t6 public liquidityFee = 5; // ...\n  JUMP \t\t\t6 public liquidityFee = 5; // ...\ntag 87\t\t\tg.sender, totalSupply);\\r\\n   ...\n  JUMPDEST \t\t\tg.sender, totalSupply);\\r\\n   ...\n  PUSH 0\t\t\ttalS\n  DUP2 \t\t\tof \n  SWAP1 \t\t\t; // 1% of \n  POP \t\t\t; // 1% of \n  DUP2 \t\t\t  d\n  PUSH 0\t\t\t \n  MSTORE \t\t\tly\\r\\n        de\n  PUSH 20\t\t\t isE\n  PUSH 0\t\t\t \n  KECCAK256 \t\t\tder;\\r\\n        isEx\n  SWAP1 \t\t\t msg.sender;\\r\\n        isEx\n  POP \t\t\t msg.sender;\\r\\n        isEx\n  SWAP2 \t\t\tg.sender, totalSupply);\\r\\n   ...\n  SWAP1 \t\t\tg.sender, totalSupply);\\r\\n   ...\n  POP \t\t\tg.sender, totalSupply);\\r\\n   ...\n  JUMP \t\t\tg.sender, totalSupply);\\r\\n   ...\ntag 88\t\t\ts[msg.sender] = true;\\r\\n    }...\n  JUMPDEST \t\t\ts[msg.sender] = true;\\r\\n    }...\n  PUSH 0\t\t\tunctio\n  PUSH 20\t\t\t  \n  PUSH 1F\t\t\t {\n  DUP4 \t\t\tlyOwn\n  ADD \t\t\tl onlyOwner {\\r\n  DIV \t\t\ternal onlyOwner {\\r\\n    \n  SWAP1 \t\t\tding() external onlyOwner {\\r\\...\n  POP \t\t\tding() external onlyOwner {\\r\\...\n  SWAP2 \t\t\ts[msg.sender] = true;\\r\\n    }...\n  SWAP1 \t\t\ts[msg.sender] = true;\\r\\n    }...\n  POP \t\t\ts[msg.sender] = true;\\r\\n    }...\n  JUMP \t\t\ts[msg.sender] = true;\\r\\n    }...\ntag 89\t\t\tnabled = true;\\r\\n    }\\r\\n\\r\\...\n  JUMPDEST \t\t\tnabled = true;\\r\\n    }\\r\\n\\r\\...\n  PUSH 0\t\t\tcklist(a\n  DUP3 \t\t\tOwner\n  DUP3 \t\t\tl on\n  SHL \t\t\ternal onlyOwner \n  SWAP1 \t\t\tunt, bool status) external onl...\n  POP \t\t\tunt, bool status) external onl...\n  SWAP3 \t\t\tnabled = true;\\r\\n    }\\r\\n\\r\\...\n  SWAP2 \t\t\tnabled = true;\\r\\n    }\\r\\n\\r\\...\n  POP \t\t\tnabled = true;\\r\\n    }\\r\\n\\r\\...\n  POP \t\t\tnabled = true;\\r\\n    }\\r\\n\\r\\...\n  JUMP \t\t\tnabled = true;\\r\\n    }\\r\\n\\r\\...\ntag 90\t\t\tBlacklisted[account] = status;...\n  JUMPDEST \t\t\tBlacklisted[account] = status;...\n  PUSH 0\t\t\t(addre\n  PUSH 8\t\t\t{\n  DUP4 \t\t\tl onlyOwne\n  MUL \t\t\ternal onlyOwner {\\r\n  PUSH [tag] 132\t\t\tomFees[account] = status;\\r\\n ...\n  PUSH FFFFFFFFFFFFFFFFFFFFFFFFFFFFFFFFFFFFFFFFFFFFFFFFFFFFFFFFFFFFFFFF\t\t\t }\\r\\n\\r\\n    function setFees...\n  DUP3 \t\t\ttatus;\\r\\n \n  PUSH [tag] 89\t\t\tomFees[account] = status;\\r\\n ...\n  JUMP \t\t\tomFees[account] = status;\\r\\n ...\ntag 132\t\t\tomFees[account] = status;\\r\\n ...\n  JUMPDEST \t\t\tomFees[account] = status;\\r\\n ...\n  PUSH [tag] 133\t\t\t6 _liquidityFee) external only...\n  DUP7 \t\t\tOwner {\\r\n  DUP4 \t\t\tternal on\n  PUSH [tag] 89\t\t\t6 _liquidityFee) external only...\n  JUMP \t\t\t6 _liquidityFee) external only...\ntag 133\t\t\t6 _liquidityFee) external only...\n  JUMPDEST \t\t\t6 _liquidityFee) external only...\n  SWAP6 \t\t\tvFee, uint256 _liquidityFee) e...\n  POP \t\t\tvFee, uint256 _liquidityFee) e...\n  DUP1 \t\t\t    \n  NOT \t\t\t        r\n  DUP5 \t\t\tnFee;\n  AND \t\t\t_burnFee;\\r\\n        re\n  SWAP4 \t\t\turnFee = _burnFee;\\r\\n        ...\n  POP \t\t\turnFee = _burnFee;\\r\\n        ...\n  DUP1 \t\t\tvFee\n  DUP7 \t\t\tvFee = _\n  AND \t\t\t  devFee = _devFee;\n  DUP5 \t\t\t\\n    \n  OR \t\t\te;\\r\\n        devFee = _devFee...\n  SWAP3 \t\t\t _rewardFee;\\r\\n        devFee...\n  POP \t\t\t _rewardFee;\\r\\n        devFee...\n  POP \t\t\ts account, bool status) extern...\n  POP \t\t\ts account, bool status) extern...\n  SWAP4 \t\t\tBlacklisted[account] = status;...\n  SWAP3 \t\t\tBlacklisted[account] = status;...\n  POP \t\t\tBlacklisted[account] = status;...\n  POP \t\t\tBlacklisted[account] = status;...\n  POP \t\t\tBlacklisted[account] = status;...\n  JUMP \t\t\tBlacklisted[account] = status;...\ntag 91\t\t\tuidityFee = _liquidityFee;\\r\\n...\n  JUMPDEST \t\t\tuidityFee = _liquidityFee;\\r\\n...\n  PUSH 0\t\t\t    fun\n  DUP2 \t\t\tint25\n  SWAP1 \t\t\txTxAmount(uint25\n  POP \t\t\txTxAmount(uint25\n  SWAP2 \t\t\tuidityFee = _liquidityFee;\\r\\n...\n  SWAP1 \t\t\tuidityFee = _liquidityFee;\\r\\n...\n  POP \t\t\tuidityFee = _liquidityFee;\\r\\n...\n  JUMP \t\t\tuidityFee = _liquidityFee;\\r\\n...\ntag 92\t\t\tnt) external onlyOwner {\\r\\n  ...\n  JUMPDEST \t\t\tnt) external onlyOwner {\\r\\n  ...\n  PUSH 0\t\t\t   \n  DUP2 \t\t\tmaxTx\n  SWAP1 \t\t\tunt = _maxTx\n  POP \t\t\tunt = _maxTx\n  SWAP2 \t\t\tnt) external onlyOwner {\\r\\n  ...\n  SWAP1 \t\t\tnt) external onlyOwner {\\r\\n  ...\n  POP \t\t\tnt) external onlyOwner {\\r\\n  ...\n  JUMP \t\t\tnt) external onlyOwner {\\r\\n  ...\ntag 93\t\t\t }\\r\\n\\r\\n    function setDevW...\n  JUMPDEST \t\t\t }\\r\\n\\r\\n    function setDevW...\n  PUSH 0\t\t\t) externa\n  PUSH [tag] 137\t\t\tevWallet = _devWallet;\\r\\n    ...\n  PUSH [tag] 138\t\t\tlet;\\r\\n    }\\r\\n\\r\\n    funct...\n  PUSH [tag] 139\t\t\t }\\r\\n\\r\\n    function _upda\n  DUP5 \t\t\t _upd\n  PUSH [tag] 91\t\t\t }\\r\\n\\r\\n    function _upda\n  JUMP \t\t\t }\\r\\n\\r\\n    function _upda\ntag 139\t\t\t }\\r\\n\\r\\n    function _upda\n  JUMPDEST \t\t\t }\\r\\n\\r\\n    function _upda\n  PUSH [tag] 92\t\t\tlet;\\r\\n    }\\r\\n\\r\\n    funct...\n  JUMP \t\t\tlet;\\r\\n    }\\r\\n\\r\\n    funct...\ntag 138\t\t\tlet;\\r\\n    }\\r\\n\\r\\n    funct...\n  JUMPDEST \t\t\tlet;\\r\\n    }\\r\\n\\r\\n    funct...\n  PUSH [tag] 91\t\t\tevWallet = _devWallet;\\r\\n    ...\n  JUMP \t\t\tevWallet = _devWallet;\\r\\n    ...\ntag 137\t\t\tevWallet = _devWallet;\\r\\n    ...\n  JUMPDEST \t\t\tevWallet = _devWallet;\\r\\n    ...\n  SWAP1 \t\t\t {\\r\\n        devWallet = _dev...\n  POP \t\t\t {\\r\\n        devWallet = _dev...\n  SWAP2 \t\t\t }\\r\\n\\r\\n    function setDevW...\n  SWAP1 \t\t\t }\\r\\n\\r\\n    function setDevW...\n  POP \t\t\t }\\r\\n\\r\\n    function setDevW...\n  JUMP \t\t\t }\\r\\n\\r\\n    function setDevW...\ntag 94\t\t\tm, address to, uint256 amount)...\n  JUMPDEST \t\t\tm, address to, uint256 amount)...\n  PUSH 0\t\t\trri\n  DUP2 \t\t\tire(!\n  SWAP1 \t\t\t   require(!\n  POP \t\t\t   require(!\n  SWAP2 \t\t\tm, address to, uint256 amount)...\n  SWAP1 \t\t\tm, address to, uint256 amount)...\n  POP \t\t\tm, address to, uint256 amount)...\n  JUMP \t\t\tm, address to, uint256 amount)...\ntag 95\t\t\td[from] && !isBlacklisted[to],...\n  JUMPDEST \t\t\td[from] && !isBlacklisted[to],...\n  PUSH [tag] 142\t\t\ts[from], \"Trading is not enabl...\n  DUP4 \t\t\td yet\")\n  PUSH [tag] 93\t\t\ts[from], \"Trading is not enabl...\n  JUMP \t\t\ts[from], \"Trading is not enabl...\ntag 142\t\t\ts[from], \"Trading is not enabl...\n  JUMPDEST \t\t\ts[from], \"Trading is not enabl...\n  PUSH [tag] 143\t\t\tnt <= maxTxAmount || isExclude...\n  PUSH [tag] 144\t\t\transfer amount exceeds max lim...\n  DUP3 \t\t\tax limit\");\\r\\n\\r\\n \n  PUSH [tag] 94\t\t\transfer amount exceeds max lim...\n  JUMP \t\t\transfer amount exceeds max lim...\ntag 144\t\t\transfer amount exceeds max lim...\n  JUMPDEST \t\t\transfer amount exceeds max lim...\n  DUP5 \t\t\trom], \n  DUP5 \t\t\tmFee\n  SLOAD \t\t\tdedFromFees\n  PUSH [tag] 90\t\t\tnt <= maxTxAmount || isExclude...\n  JUMP \t\t\tnt <= maxTxAmount || isExclude...\ntag 143\t\t\tnt <= maxTxAmount || isExclude...\n  JUMPDEST \t\t\tnt <= maxTxAmount || isExclude...\n  DUP3 \t\t\te(am\n  SSTORE \t\t\t require(amount <= maxTxAmount...\n  POP \t\t\tradingEnabled || isExcludedFro...\n  POP \t\t\td[from] && !isBlacklisted[to],...\n  POP \t\t\td[from] && !isBlacklisted[to],...\n  POP \t\t\td[from] && !isBlacklisted[to],...\n  JUMP \t\t\td[from] && !isBlacklisted[to],...\ntag 96\t\t\tburnAmount = (amount * burnFee...\n  JUMPDEST \t\t\tburnAmount = (amount * burnFee...\n  PUSH 0\t\t\t   \n  PUSH 0\t\t\tn\n  SWAP1 \t\t\tardAmoun\n  POP \t\t\tardAmoun\n  SWAP1 \t\t\tburnAmount = (amount * burnFee...\n  JUMP \t\t\tburnAmount = (amount * burnFee...\ntag 97\t\t\t* rewardFee) / 100;\\r\\n       ...\n  JUMPDEST \t\t\t* rewardFee) / 100;\\r\\n       ...\n  PUSH [tag] 147\t\t\t      uint256 liquidityAmount ...\n  PUSH [tag] 96\t\t\t      uint256 liquidityAmount ...\n  JUMP \t\t\t      uint256 liquidityAmount ...\ntag 147\t\t\t      uint256 liquidityAmount ...\n  JUMPDEST \t\t\t      uint256 liquidityAmount ...\n  PUSH [tag] 148\t\t\t liquidityFee) / 100;\\r\\n     ...\n  DUP2 \t\t\t - bur\n  DUP5 \t\t\t= amou\n  DUP5 \t\t\tmoun\n  PUSH [tag] 95\t\t\t liquidityFee) / 100;\\r\\n     ...\n  JUMP \t\t\t liquidityFee) / 100;\\r\\n     ...\ntag 148\t\t\t liquidityFee) / 100;\\r\\n     ...\n  JUMPDEST \t\t\t liquidityFee) / 100;\\r\\n     ...\n  POP \t\t\tunt * devFee) / 100;\\r\\n      ...\n  POP \t\t\t* rewardFee) / 100;\\r\\n       ...\n  POP \t\t\t* rewardFee) / 100;\\r\\n       ...\n  JUMP \t\t\t* rewardFee) / 100;\\r\\n       ...\ntag 98\t\t\tardAmount - devAmount - liquid...\n  JUMPDEST \t\t\tardAmount - devAmount - liquid...\ntag 150\t\t\tAmount > 0) {\\r\\n            _...\n  JUMPDEST \t\t\tAmount > 0) {\\r\\n            _...\n  DUP2 \t\t\t   \n  DUP2 \t\t\t) {\\r\\n\n  LT \t\t\t> 0) {\\r\\n      \n  ISZERO \t\t\tAmount > 0) {\\r\\n            _...\n  PUSH [tag] 152\t\t\tAmount > 0) {\\r\\n            _...\n  JUMPI \t\t\tAmount > 0) {\\r\\n            _...\n  PUSH [tag] 153\t\t\t if (devAmount > 0) {\\r\\n     ...\n  PUSH 0\t\t\tp\n  DUP3 \t\t\t     \n  PUSH [tag] 97\t\t\t if (devAmount > 0) {\\r\\n     ...\n  JUMP \t\t\t if (devAmount > 0) {\\r\\n     ...\ntag 153\t\t\t if (devAmount > 0) {\\r\\n     ...\n  JUMPDEST \t\t\t if (devAmount > 0) {\\r\\n     ...\n  PUSH 1\t\t\tm\n  DUP2 \t\t\t, bur\n  ADD \t\t\tfrom, burnAmo\n  SWAP1 \t\t\t   _burn(from, burnAmo\n  POP \t\t\t   _burn(from, burnAmo\n  PUSH [tag] 150\t\t\tAmount > 0) {\\r\\n            _...\n  JUMP \t\t\tAmount > 0) {\\r\\n            _...\ntag 152\t\t\tAmount > 0) {\\r\\n            _...\n  JUMPDEST \t\t\tAmount > 0) {\\r\\n            _...\n  POP \t\t\tardAmount - devAmount - liquid...\n  POP \t\t\tardAmount - devAmount - liquid...\n  JUMP \t\t\tardAmount - devAmount - liquid...\ntag 99\t\t\tlet, devAmount);\\r\\n        }\\...\n  JUMPDEST \t\t\tlet, devAmount);\\r\\n        }\\...\n  PUSH 1F\t\t\t\n  DUP3 \t\t\t\n  GT \t\t\t\n  ISZERO \t\t\t\n  PUSH [tag] 155\t\t\t\n  JUMPI \t\t\t\n  PUSH [tag] 156\t\t\t\n  DUP2 \t\t\t\n  PUSH [tag] 87\t\t\t\n  JUMP \t\t\t\ntag 156\t\t\t\n  JUMPDEST \t\t\t\n  PUSH [tag] 157\t\t\t\n  DUP5 \t\t\t\n  PUSH [tag] 88\t\t\t\n  JUMP \t\t\t\ntag 157\t\t\t\n  JUMPDEST \t\t\t\n  DUP2 \t\t\t\n  ADD \t\t\t\n  PUSH 20\t\t\t\n  DUP6 \t\t\t\n  LT \t\t\t\n  ISZERO \t\t\t\n  PUSH [tag] 158\t\t\t\n  JUMPI \t\t\t\n  DUP2 \t\t\t\n  SWAP1 \t\t\t\n  POP \t\t\t\ntag 158\t\t\t\n  JUMPDEST \t\t\t\n  PUSH [tag] 159\t\t\t\n  PUSH [tag] 160\t\t\t\n  DUP6 \t\t\t\n  PUSH [tag] 88\t\t\t\n  JUMP \t\t\t\ntag 160\t\t\t\n  JUMPDEST \t\t\t\n  DUP4 \t\t\t\n  ADD \t\t\t\n  DUP3 \t\t\t\n  PUSH [tag] 98\t\t\t\n  JUMP \t\t\t\ntag 159\t\t\t\n  JUMPDEST \t\t\t\n  POP \t\t\t\n  POP \t\t\t\ntag 155\t\t\t\n  JUMPDEST \t\t\t\n  POP \t\t\tlet, devAmount);\\r\\n        }\\...\n  POP \t\t\tlet, devAmount);\\r\\n        }\\...\n  POP \t\t\tlet, devAmount);\\r\\n        }\\...\n  JUMP \t\t\tlet, devAmount);\\r\\n        }\\...\ntag 100\t\t\t\n  JUMPDEST \t\t\t\n  PUSH 0\t\t\t\n  DUP3 \t\t\t\n  DUP3 \t\t\t\n  SHR \t\t\t\n  SWAP1 \t\t\t\n  POP \t\t\t\n  SWAP3 \t\t\t\n  SWAP2 \t\t\t\n  POP \t\t\t\n  POP \t\t\t\n  JUMP \t\t\t\ntag 101\t\t\t\n  JUMPDEST \t\t\t\n  PUSH 0\t\t\t\n  PUSH [tag] 163\t\t\t\n  PUSH 0\t\t\t\n  NOT \t\t\t\n  DUP5 \t\t\t\n  PUSH 8\t\t\t\n  MUL \t\t\t\n  PUSH [tag] 100\t\t\t\n  JUMP \t\t\t\ntag 163\t\t\t\n  JUMPDEST \t\t\t\n  NOT \t\t\t\n  DUP1 \t\t\t\n  DUP4 \t\t\t\n  AND \t\t\t\n  SWAP2 \t\t\t\n  POP \t\t\t\n  POP \t\t\t\n  SWAP3 \t\t\t\n  SWAP2 \t\t\t\n  POP \t\t\t\n  POP \t\t\t\n  JUMP \t\t\t\ntag 102\t\t\t\n  JUMPDEST \t\t\t\n  PUSH 0\t\t\t\n  PUSH [tag] 165\t\t\t\n  DUP4 \t\t\t\n  DUP4 \t\t\t\n  PUSH [tag] 101\t\t\t\n  JUMP \t\t\t\ntag 165\t\t\t\n  JUMPDEST \t\t\t\n  SWAP2 \t\t\t\n  POP \t\t\t\n  DUP3 \t\t\t\n  PUSH 2\t\t\t\n  MUL \t\t\t\n  DUP3 \t\t\t\n  OR \t\t\t\n  SWAP1 \t\t\t\n  POP \t\t\t\n  SWAP3 \t\t\t\n  SWAP2 \t\t\t\n  POP \t\t\t\n  POP \t\t\t\n  JUMP \t\t\t\ntag 7\t\t\t\n  JUMPDEST \t\t\t\n  PUSH [tag] 167\t\t\t\n  DUP3 \t\t\t\n  PUSH [tag] 83\t\t\t\n  JUMP \t\t\t\ntag 167\t\t\t\n  JUMPDEST \t\t\t\n  PUSH FFFFFFFFFFFFFFFF\t\t\t\n  DUP2 \t\t\t\n  GT \t\t\t\n  ISZERO \t\t\t\n  PUSH [tag] 168\t\t\t\n  JUMPI \t\t\t\n  PUSH [tag] 169\t\t\t\n  PUSH [tag] 84\t\t\t\n  JUMP \t\t\t\ntag 169\t\t\t\n  JUMPDEST \t\t\t\ntag 168\t\t\t\n  JUMPDEST \t\t\t\n  PUSH [tag] 170\t\t\t\n  DUP3 \t\t\t\n  SLOAD \t\t\t\n  PUSH [tag] 86\t\t\t\n  JUMP \t\t\t\ntag 170\t\t\t\n  JUMPDEST \t\t\t\n  PUSH [tag] 171\t\t\t\n  DUP3 \t\t\t\n  DUP3 \t\t\t\n  DUP6 \t\t\t\n  PUSH [tag] 99\t\t\t\n  JUMP \t\t\t\ntag 171\t\t\t\n  JUMPDEST \t\t\t\n  PUSH 0\t\t\t\n  PUSH 20\t\t\t\n  SWAP1 \t\t\t\n  POP \t\t\t\n  PUSH 1F\t\t\t\n  DUP4 \t\t\t\n  GT \t\t\t\n  PUSH 1\t\t\t\n  DUP2 \t\t\t\n  EQ \t\t\t\n  PUSH [tag] 173\t\t\t\n  JUMPI \t\t\t\n  PUSH 0\t\t\t\n  DUP5 \t\t\t\n  ISZERO \t\t\t\n  PUSH [tag] 174\t\t\t\n  JUMPI \t\t\t\n  DUP3 \t\t\t\n  DUP8 \t\t\t\n  ADD \t\t\t\n  MLOAD \t\t\t\n  SWAP1 \t\t\t\n  POP \t\t\t\ntag 174\t\t\t\n  JUMPDEST \t\t\t\n  PUSH [tag] 175\t\t\t\n  DUP6 \t\t\t\n  DUP3 \t\t\t\n  PUSH [tag] 102\t\t\t\n  JUMP \t\t\t\ntag 175\t\t\t\n  JUMPDEST \t\t\t\n  DUP7 \t\t\t\n  SSTORE \t\t\t\n  POP \t\t\t\n  PUSH [tag] 172\t\t\t\n  JUMP \t\t\t\ntag 173\t\t\t\n  JUMPDEST \t\t\t\n  PUSH 1F\t\t\t\n  NOT \t\t\t\n  DUP5 \t\t\t\n  AND \t\t\t\n  PUSH [tag] 176\t\t\t\n  DUP7 \t\t\t\n  PUSH [tag] 87\t\t\t\n  JUMP \t\t\t\ntag 176\t\t\t\n  JUMPDEST \t\t\t\n  PUSH 0\t\t\t\ntag 177\t\t\t\n  JUMPDEST \t\t\t\n  DUP3 \t\t\t\n  DUP2 \t\t\t\n  LT \t\t\t\n  ISZERO \t\t\t\n  PUSH [tag] 179\t\t\t\n  JUMPI \t\t\t\n  DUP5 \t\t\t\n  DUP10 \t\t\t\n  ADD \t\t\t\n  MLOAD \t\t\t\n  DUP3 \t\t\t\n  SSTORE \t\t\t\n  PUSH 1\t\t\t\n  DUP3 \t\t\t\n  ADD \t\t\t\n  SWAP2 \t\t\t\n  POP \t\t\t\n  PUSH 20\t\t\t\n  DUP6 \t\t\t\n  ADD \t\t\t\n  SWAP5 \t\t\t\n  POP \t\t\t\n  PUSH 20\t\t\t\n  DUP2 \t\t\t\n  ADD \t\t\t\n  SWAP1 \t\t\t\n  POP \t\t\t\n  PUSH [tag] 177\t\t\t\n  JUMP \t\t\t\ntag 179\t\t\t\n  JUMPDEST \t\t\t\n  DUP7 \t\t\t\n  DUP4 \t\t\t\n  LT \t\t\t\n  ISZERO \t\t\t\n  PUSH [tag] 180\t\t\t\n  JUMPI \t\t\t\n  DUP5 \t\t\t\n  DUP10 \t\t\t\n  ADD \t\t\t\n  MLOAD \t\t\t\n  PUSH [tag] 181\t\t\t\n  PUSH 1F\t\t\t\n  DUP10 \t\t\t\n  AND \t\t\t\n  DUP3 \t\t\t\n  PUSH [tag] 101\t\t\t\n  JUMP \t\t\t\ntag 181\t\t\t\n  JUMPDEST \t\t\t\n  DUP4 \t\t\t\n  SSTORE \t\t\t\n  POP \t\t\t\ntag 180\t\t\t\n  JUMPDEST \t\t\t\n  PUSH 1\t\t\t\n  PUSH 2\t\t\t\n  DUP9 \t\t\t\n  MUL \t\t\t\n  ADD \t\t\t\n  DUP9 \t\t\t\n  SSTORE \t\t\t\n  POP \t\t\t\n  POP \t\t\t\n  POP \t\t\t\ntag 172\t\t\t\n  JUMPDEST \t\t\t\n  POP \t\t\t\n  POP \t\t\t\n  POP \t\t\t\n  POP \t\t\t\n  POP \t\t\t\n  POP \t\t\t\n  JUMP \t\t\t\ntag 103\t\t\t\n  JUMPDEST \t\t\t\n  PUSH 0\t\t\t\n  PUSH FFFFFFFFFFFFFFFFFFFFFFFFFFFFFFFFFFFFFFFF\t\t\t\n  DUP3 \t\t\t\n  AND \t\t\t\n  SWAP1 \t\t\t\n  POP \t\t\t\n  SWAP2 \t\t\t\n  SWAP1 \t\t\t\n  POP \t\t\t\n  JUMP \t\t\t\ntag 104\t\t\t\n  JUMPDEST \t\t\t\n  PUSH 0\t\t\t\n  PUSH [tag] 184\t\t\t\n  DUP3 \t\t\t\n  PUSH [tag] 103\t\t\t\n  JUMP \t\t\t\ntag 184\t\t\t\n  JUMPDEST \t\t\t\n  SWAP1 \t\t\t\n  POP \t\t\t\n  SWAP2 \t\t\t\n  SWAP1 \t\t\t\n  POP \t\t\t\n  JUMP \t\t\t\ntag 105\t\t\t\n  JUMPDEST \t\t\t\n  PUSH [tag] 186\t\t\t\n  DUP2 \t\t\t\n  PUSH [tag] 104\t\t\t\n  JUMP \t\t\t\ntag 186\t\t\t\n  JUMPDEST \t\t\t\n  DUP3 \t\t\t\n  MSTORE \t\t\t\n  POP \t\t\t\n  POP \t\t\t\n  JUMP \t\t\t\ntag 12\t\t\t\n  JUMPDEST \t\t\t\n  PUSH 0\t\t\t\n  PUSH 20\t\t\t\n  DUP3 \t\t\t\n  ADD \t\t\t\n  SWAP1 \t\t\t\n  POP \t\t\t\n  PUSH [tag] 188\t\t\t\n  PUSH 0\t\t\t\n  DUP4 \t\t\t\n  ADD \t\t\t\n  DUP5 \t\t\t\n  PUSH [tag] 105\t\t\t\n  JUMP \t\t\t\ntag 188\t\t\t\n  JUMPDEST \t\t\t\n  SWAP3 \t\t\t\n  SWAP2 \t\t\t\n  POP \t\t\t\n  POP \t\t\t\n  JUMP \t\t\t\ntag 106\t\t\t\n  JUMPDEST \t\t\t\n  PUSH 4E487B7100000000000000000000000000000000000000000000000000000000\t\t\t\n  PUSH 0\t\t\t\n  MSTORE \t\t\t\n  PUSH 11\t\t\t\n  PUSH 4\t\t\t\n  MSTORE \t\t\t\n  PUSH 24\t\t\t\n  PUSH 0\t\t\t\n  REVERT \t\t\t\ntag 107\t\t\t\n  JUMPDEST \t\t\t\n  PUSH 0\t\t\t\n  DUP2 \t\t\t\n  PUSH 1\t\t\t\n  SHR \t\t\t\n  SWAP1 \t\t\t\n  POP \t\t\t\n  SWAP2 \t\t\t\n  SWAP1 \t\t\t\n  POP \t\t\t\n  JUMP \t\t\t\ntag 108\t\t\t\n  JUMPDEST \t\t\t\n  PUSH 0\t\t\t\n  PUSH 0\t\t\t\n  DUP3 \t\t\t\n  SWAP2 \t\t\t\n  POP \t\t\t\n  DUP4 \t\t\t\n  SWAP1 \t\t\t\n  POP \t\t\t\ntag 192\t\t\t\n  JUMPDEST \t\t\t\n  PUSH 1\t\t\t\n  DUP6 \t\t\t\n  GT \t\t\t\n  ISZERO \t\t\t\n  PUSH [tag] 194\t\t\t\n  JUMPI \t\t\t\n  DUP1 \t\t\t\n  DUP7 \t\t\t\n  DIV \t\t\t\n  DUP2 \t\t\t\n  GT \t\t\t\n  ISZERO \t\t\t\n  PUSH [tag] 195\t\t\t\n  JUMPI \t\t\t\n  PUSH [tag] 196\t\t\t\n  PUSH [tag] 106\t\t\t\n  JUMP \t\t\t\ntag 196\t\t\t\n  JUMPDEST \t\t\t\ntag 195\t\t\t\n  JUMPDEST \t\t\t\n  PUSH 1\t\t\t\n  DUP6 \t\t\t\n  AND \t\t\t\n  ISZERO \t\t\t\n  PUSH [tag] 197\t\t\t\n  JUMPI \t\t\t\n  DUP1 \t\t\t\n  DUP3 \t\t\t\n  MUL \t\t\t\n  SWAP2 \t\t\t\n  POP \t\t\t\ntag 197\t\t\t\n  JUMPDEST \t\t\t\n  DUP1 \t\t\t\n  DUP2 \t\t\t\n  MUL \t\t\t\n  SWAP1 \t\t\t\n  POP \t\t\t\n  PUSH [tag] 198\t\t\t\n  DUP6 \t\t\t\n  PUSH [tag] 107\t\t\t\n  JUMP \t\t\t\ntag 198\t\t\t\n  JUMPDEST \t\t\t\n  SWAP5 \t\t\t\n  POP \t\t\t\n  PUSH [tag] 192\t\t\t\n  JUMP \t\t\t\ntag 194\t\t\t\n  JUMPDEST \t\t\t\n  SWAP5 \t\t\t\n  POP \t\t\t\n  SWAP5 \t\t\t\n  SWAP3 \t\t\t\n  POP \t\t\t\n  POP \t\t\t\n  POP \t\t\t\n  JUMP \t\t\t\ntag 109\t\t\t\n  JUMPDEST \t\t\t\n  PUSH 0\t\t\t\n  DUP3 \t\t\t\n  PUSH [tag] 200\t\t\t\n  JUMPI \t\t\t\n  PUSH 1\t\t\t\n  SWAP1 \t\t\t\n  POP \t\t\t\n  PUSH [tag] 199\t\t\t\n  JUMP \t\t\t\ntag 200\t\t\t\n  JUMPDEST \t\t\t\n  DUP2 \t\t\t\n  PUSH [tag] 201\t\t\t\n  JUMPI \t\t\t\n  PUSH 0\t\t\t\n  SWAP1 \t\t\t\n  POP \t\t\t\n  PUSH [tag] 199\t\t\t\n  JUMP \t\t\t\ntag 201\t\t\t\n  JUMPDEST \t\t\t\n  DUP2 \t\t\t\n  PUSH 1\t\t\t\n  DUP2 \t\t\t\n  EQ \t\t\t\n  PUSH [tag] 203\t\t\t\n  JUMPI \t\t\t\n  PUSH 2\t\t\t\n  DUP2 \t\t\t\n  EQ \t\t\t\n  PUSH [tag] 204\t\t\t\n  JUMPI \t\t\t\n  PUSH [tag] 202\t\t\t\n  JUMP \t\t\t\ntag 203\t\t\t\n  JUMPDEST \t\t\t\n  PUSH 1\t\t\t\n  SWAP2 \t\t\t\n  POP \t\t\t\n  POP \t\t\t\n  PUSH [tag] 199\t\t\t\n  JUMP \t\t\t\ntag 204\t\t\t\n  JUMPDEST \t\t\t\n  PUSH FF\t\t\t\n  DUP5 \t\t\t\n  GT \t\t\t\n  ISZERO \t\t\t\n  PUSH [tag] 205\t\t\t\n  JUMPI \t\t\t\n  PUSH [tag] 206\t\t\t\n  PUSH [tag] 106\t\t\t\n  JUMP \t\t\t\ntag 206\t\t\t\n  JUMPDEST \t\t\t\ntag 205\t\t\t\n  JUMPDEST \t\t\t\n  DUP4 \t\t\t\n  PUSH 2\t\t\t\n  EXP \t\t\t\n  SWAP2 \t\t\t\n  POP \t\t\t\n  DUP5 \t\t\t\n  DUP3 \t\t\t\n  GT \t\t\t\n  ISZERO \t\t\t\n  PUSH [tag] 207\t\t\t\n  JUMPI \t\t\t\n  PUSH [tag] 208\t\t\t\n  PUSH [tag] 106\t\t\t\n  JUMP \t\t\t\ntag 208\t\t\t\n  JUMPDEST \t\t\t\ntag 207\t\t\t\n  JUMPDEST \t\t\t\n  POP \t\t\t\n  PUSH [tag] 199\t\t\t\n  JUMP \t\t\t\ntag 202\t\t\t\n  JUMPDEST \t\t\t\n  POP \t\t\t\n  PUSH 20\t\t\t\n  DUP4 \t\t\t\n  LT \t\t\t\n  PUSH 133\t\t\t\n  DUP4 \t\t\t\n  LT \t\t\t\n  AND \t\t\t\n  PUSH 4E\t\t\t\n  DUP5 \t\t\t\n  LT \t\t\t\n  PUSH B\t\t\t\n  DUP5 \t\t\t\n  LT \t\t\t\n  AND \t\t\t\n  OR \t\t\t\n  ISZERO \t\t\t\n  PUSH [tag] 209\t\t\t\n  JUMPI \t\t\t\n  DUP3 \t\t\t\n  DUP3 \t\t\t\n  EXP \t\t\t\n  SWAP1 \t\t\t\n  POP \t\t\t\n  DUP4 \t\t\t\n  DUP2 \t\t\t\n  GT \t\t\t\n  ISZERO \t\t\t\n  PUSH [tag] 210\t\t\t\n  JUMPI \t\t\t\n  PUSH [tag] 211\t\t\t\n  PUSH [tag] 106\t\t\t\n  JUMP \t\t\t\ntag 211\t\t\t\n  JUMPDEST \t\t\t\ntag 210\t\t\t\n  JUMPDEST \t\t\t\n  PUSH [tag] 199\t\t\t\n  JUMP \t\t\t\ntag 209\t\t\t\n  JUMPDEST \t\t\t\n  PUSH [tag] 212\t\t\t\n  DUP5 \t\t\t\n  DUP5 \t\t\t\n  DUP5 \t\t\t\n  PUSH 1\t\t\t\n  PUSH [tag] 108\t\t\t\n  JUMP \t\t\t\ntag 212\t\t\t\n  JUMPDEST \t\t\t\n  SWAP3 \t\t\t\n  POP \t\t\t\n  SWAP1 \t\t\t\n  POP \t\t\t\n  DUP2 \t\t\t\n  DUP5 \t\t\t\n  DIV \t\t\t\n  DUP2 \t\t\t\n  GT \t\t\t\n  ISZERO \t\t\t\n  PUSH [tag] 213\t\t\t\n  JUMPI \t\t\t\n  PUSH [tag] 214\t\t\t\n  PUSH [tag] 106\t\t\t\n  JUMP \t\t\t\ntag 214\t\t\t\n  JUMPDEST \t\t\t\ntag 213\t\t\t\n  JUMPDEST \t\t\t\n  DUP2 \t\t\t\n  DUP2 \t\t\t\n  MUL \t\t\t\n  SWAP1 \t\t\t\n  POP \t\t\t\ntag 199\t\t\t\n  JUMPDEST \t\t\t\n  SWAP4 \t\t\t\n  SWAP3 \t\t\t\n  POP \t\t\t\n  POP \t\t\t\n  POP \t\t\t\n  JUMP \t\t\t\ntag 110\t\t\t\n  JUMPDEST \t\t\t\n  PUSH 0\t\t\t\n  PUSH FF\t\t\t\n  DUP3 \t\t\t\n  AND \t\t\t\n  SWAP1 \t\t\t\n  POP \t\t\t\n  SWAP2 \t\t\t\n  SWAP1 \t\t\t\n  POP \t\t\t\n  JUMP \t\t\t\ntag 19\t\t\t\n  JUMPDEST \t\t\t\n  PUSH 0\t\t\t\n  PUSH [tag] 217\t\t\t\n  DUP3 \t\t\t\n  PUSH [tag] 91\t\t\t\n  JUMP \t\t\t\ntag 217\t\t\t\n  JUMPDEST \t\t\t\n  SWAP2 \t\t\t\n  POP \t\t\t\n  PUSH [tag] 218\t\t\t\n  DUP4 \t\t\t\n  PUSH [tag] 110\t\t\t\n  JUMP \t\t\t\ntag 218\t\t\t\n  JUMPDEST \t\t\t\n  SWAP3 \t\t\t\n  POP \t\t\t\n  PUSH [tag] 219\t\t\t\n  PUSH FFFFFFFFFFFFFFFFFFFFFFFFFFFFFFFFFFFFFFFFFFFFFFFFFFFFFFFFFFFFFFFF\t\t\t\n  DUP5 \t\t\t\n  DUP5 \t\t\t\n  PUSH [tag] 109\t\t\t\n  JUMP \t\t\t\ntag 219\t\t\t\n  JUMPDEST \t\t\t\n  SWAP1 \t\t\t\n  POP \t\t\t\n  SWAP3 \t\t\t\n  SWAP2 \t\t\t\n  POP \t\t\t\n  POP \t\t\t\n  JUMP \t\t\t\ntag 21\t\t\t\n  JUMPDEST \t\t\t\n  PUSH 0\t\t\t\n  PUSH [tag] 221\t\t\t\n  DUP3 \t\t\t\n  PUSH [tag] 91\t\t\t\n  JUMP \t\t\t\ntag 221\t\t\t\n  JUMPDEST \t\t\t\n  SWAP2 \t\t\t\n  POP \t\t\t\n  PUSH [tag] 222\t\t\t\n  DUP4 \t\t\t\n  PUSH [tag] 91\t\t\t\n  JUMP \t\t\t\ntag 222\t\t\t\n  JUMPDEST \t\t\t\n  SWAP3 \t\t\t\n  POP \t\t\t\n  DUP3 \t\t\t\n  DUP3 \t\t\t\n  MUL \t\t\t\n  PUSH [tag] 223\t\t\t\n  DUP2 \t\t\t\n  PUSH [tag] 91\t\t\t\n  JUMP \t\t\t\ntag 223\t\t\t\n  JUMPDEST \t\t\t\n  SWAP2 \t\t\t\n  POP \t\t\t\n  DUP3 \t\t\t\n  DUP3 \t\t\t\n  DIV \t\t\t\n  DUP5 \t\t\t\n  EQ \t\t\t\n  DUP4 \t\t\t\n  ISZERO \t\t\t\n  OR \t\t\t\n  PUSH [tag] 224\t\t\t\n  JUMPI \t\t\t\n  PUSH [tag] 225\t\t\t\n  PUSH [tag] 106\t\t\t\n  JUMP \t\t\t\ntag 225\t\t\t\n  JUMPDEST \t\t\t\ntag 224\t\t\t\n  JUMPDEST \t\t\t\n  POP \t\t\t\n  SWAP3 \t\t\t\n  SWAP2 \t\t\t\n  POP \t\t\t\n  POP \t\t\t\n  JUMP \t\t\t\ntag 111\t\t\t\n  JUMPDEST \t\t\t\n  PUSH 4E487B7100000000000000000000000000000000000000000000000000000000\t\t\t\n  PUSH 0\t\t\t\n  MSTORE \t\t\t\n  PUSH 12\t\t\t\n  PUSH 4\t\t\t\n  MSTORE \t\t\t\n  PUSH 24\t\t\t\n  PUSH 0\t\t\t\n  REVERT \t\t\t\ntag 25\t\t\t\n  JUMPDEST \t\t\t\n  PUSH 0\t\t\t\n  PUSH [tag] 228\t\t\t\n  DUP3 \t\t\t\n  PUSH [tag] 91\t\t\t\n  JUMP \t\t\t\ntag 228\t\t\t\n  JUMPDEST \t\t\t\n  SWAP2 \t\t\t\n  POP \t\t\t\n  PUSH [tag] 229\t\t\t\n  DUP4 \t\t\t\n  PUSH [tag] 91\t\t\t\n  JUMP \t\t\t\ntag 229\t\t\t\n  JUMPDEST \t\t\t\n  SWAP3 \t\t\t\n  POP \t\t\t\n  DUP3 \t\t\t\n  PUSH [tag] 230\t\t\t\n  JUMPI \t\t\t\n  PUSH [tag] 231\t\t\t\n  PUSH [tag] 111\t\t\t\n  JUMP \t\t\t\ntag 231\t\t\t\n  JUMPDEST \t\t\t\ntag 230\t\t\t\n  JUMPDEST \t\t\t\n  DUP3 \t\t\t\n  DUP3 \t\t\t\n  DIV \t\t\t\n  SWAP1 \t\t\t\n  POP \t\t\t\n  SWAP3 \t\t\t\n  SWAP2 \t\t\t\n  POP \t\t\t\n  POP \t\t\t\n  JUMP \t\t\t\ntag 112\t\t\t\n  JUMPDEST \t\t\t\n  PUSH 0\t\t\t\n  DUP3 \t\t\t\n  DUP3 \t\t\t\n  MSTORE \t\t\t\n  PUSH 20\t\t\t\n  DUP3 \t\t\t\n  ADD \t\t\t\n  SWAP1 \t\t\t\n  POP \t\t\t\n  SWAP3 \t\t\t\n  SWAP2 \t\t\t\n  POP \t\t\t\n  POP \t\t\t\n  JUMP \t\t\t\ntag 113\t\t\t\n  JUMPDEST \t\t\t\n  PUSH 4164647265737320697320626C61636B6C697374656400000000000000000000\t\t\t\n  PUSH 0\t\t\t\n  DUP3 \t\t\t\n  ADD \t\t\t\n  MSTORE \t\t\t\n  POP \t\t\t\n  JUMP \t\t\t\ntag 114\t\t\t\n  JUMPDEST \t\t\t\n  PUSH 0\t\t\t\n  PUSH [tag] 235\t\t\t\n  PUSH 16\t\t\t\n  DUP4 \t\t\t\n  PUSH [tag] 112\t\t\t\n  JUMP \t\t\t\ntag 235\t\t\t\n  JUMPDEST \t\t\t\n  SWAP2 \t\t\t\n  POP \t\t\t\n  PUSH [tag] 236\t\t\t\n  DUP3 \t\t\t\n  PUSH [tag] 113\t\t\t\n  JUMP \t\t\t\ntag 236\t\t\t\n  JUMPDEST \t\t\t\n  PUSH 20\t\t\t\n  DUP3 \t\t\t\n  ADD \t\t\t\n  SWAP1 \t\t\t\n  POP \t\t\t\n  SWAP2 \t\t\t\n  SWAP1 \t\t\t\n  POP \t\t\t\n  JUMP \t\t\t\ntag 38\t\t\t\n  JUMPDEST \t\t\t\n  PUSH 0\t\t\t\n  PUSH 20\t\t\t\n  DUP3 \t\t\t\n  ADD \t\t\t\n  SWAP1 \t\t\t\n  POP \t\t\t\n  DUP2 \t\t\t\n  DUP2 \t\t\t\n  SUB \t\t\t\n  PUSH 0\t\t\t\n  DUP4 \t\t\t\n  ADD \t\t\t\n  MSTORE \t\t\t\n  PUSH [tag] 238\t\t\t\n  DUP2 \t\t\t\n  PUSH [tag] 114\t\t\t\n  JUMP \t\t\t\ntag 238\t\t\t\n  JUMPDEST \t\t\t\n  SWAP1 \t\t\t\n  POP \t\t\t\n  SWAP2 \t\t\t\n  SWAP1 \t\t\t\n  POP \t\t\t\n  JUMP \t\t\t\ntag 115\t\t\t\n  JUMPDEST \t\t\t\n  PUSH 54726164696E67206973206E6F7420656E61626C656420796574000000000000\t\t\t\n  PUSH 0\t\t\t\n  DUP3 \t\t\t\n  ADD \t\t\t\n  MSTORE \t\t\t\n  POP \t\t\t\n  JUMP \t\t\t\ntag 116\t\t\t\n  JUMPDEST \t\t\t\n  PUSH 0\t\t\t\n  PUSH [tag] 241\t\t\t\n  PUSH 1A\t\t\t\n  DUP4 \t\t\t\n  PUSH [tag] 112\t\t\t\n  JUMP \t\t\t\ntag 241\t\t\t\n  JUMPDEST \t\t\t\n  SWAP2 \t\t\t\n  POP \t\t\t\n  PUSH [tag] 242\t\t\t\n  DUP3 \t\t\t\n  PUSH [tag] 115\t\t\t\n  JUMP \t\t\t\ntag 242\t\t\t\n  JUMPDEST \t\t\t\n  PUSH 20\t\t\t\n  DUP3 \t\t\t\n  ADD \t\t\t\n  SWAP1 \t\t\t\n  POP \t\t\t\n  SWAP2 \t\t\t\n  SWAP1 \t\t\t\n  POP \t\t\t\n  JUMP \t\t\t\ntag 42\t\t\t\n  JUMPDEST \t\t\t\n  PUSH 0\t\t\t\n  PUSH 20\t\t\t\n  DUP3 \t\t\t\n  ADD \t\t\t\n  SWAP1 \t\t\t\n  POP \t\t\t\n  DUP2 \t\t\t\n  DUP2 \t\t\t\n  SUB \t\t\t\n  PUSH 0\t\t\t\n  DUP4 \t\t\t\n  ADD \t\t\t\n  MSTORE \t\t\t\n  PUSH [tag] 244\t\t\t\n  DUP2 \t\t\t\n  PUSH [tag] 116\t\t\t\n  JUMP \t\t\t\ntag 244\t\t\t\n  JUMPDEST \t\t\t\n  SWAP1 \t\t\t\n  POP \t\t\t\n  SWAP2 \t\t\t\n  SWAP1 \t\t\t\n  POP \t\t\t\n  JUMP \t\t\t\ntag 117\t\t\t\n  JUMPDEST \t\t\t\n  PUSH 5472616E7366657220616D6F756E742065786365656473206D6178206C696D69\t\t\t\n  PUSH 0\t\t\t\n  DUP3 \t\t\t\n  ADD \t\t\t\n  MSTORE \t\t\t\n  PUSH 7400000000000000000000000000000000000000000000000000000000000000\t\t\t\n  PUSH 20\t\t\t\n  DUP3 \t\t\t\n  ADD \t\t\t\n  MSTORE \t\t\t\n  POP \t\t\t\n  JUMP \t\t\t\ntag 118\t\t\t\n  JUMPDEST \t\t\t\n  PUSH 0\t\t\t\n  PUSH [tag] 247\t\t\t\n  PUSH 21\t\t\t\n  DUP4 \t\t\t\n  PUSH [tag] 112\t\t\t\n  JUMP \t\t\t\ntag 247\t\t\t\n  JUMPDEST \t\t\t\n  SWAP2 \t\t\t\n  POP \t\t\t\n  PUSH [tag] 248\t\t\t\n  DUP3 \t\t\t\n  PUSH [tag] 117\t\t\t\n  JUMP \t\t\t\ntag 248\t\t\t\n  JUMPDEST \t\t\t\n  PUSH 40\t\t\t\n  DUP3 \t\t\t\n  ADD \t\t\t\n  SWAP1 \t\t\t\n  POP \t\t\t\n  SWAP2 \t\t\t\n  SWAP1 \t\t\t\n  POP \t\t\t\n  JUMP \t\t\t\ntag 46\t\t\t\n  JUMPDEST \t\t\t\n  PUSH 0\t\t\t\n  PUSH 20\t\t\t\n  DUP3 \t\t\t\n  ADD \t\t\t\n  SWAP1 \t\t\t\n  POP \t\t\t\n  DUP2 \t\t\t\n  DUP2 \t\t\t\n  SUB \t\t\t\n  PUSH 0\t\t\t\n  DUP4 \t\t\t\n  ADD \t\t\t\n  MSTORE \t\t\t\n  PUSH [tag] 250\t\t\t\n  DUP2 \t\t\t\n  PUSH [tag] 118\t\t\t\n  JUMP \t\t\t\ntag 250\t\t\t\n  JUMPDEST \t\t\t\n  SWAP1 \t\t\t\n  POP \t\t\t\n  SWAP2 \t\t\t\n  SWAP1 \t\t\t\n  POP \t\t\t\n  JUMP \t\t\t\ntag 56\t\t\t\n  JUMPDEST \t\t\t\n  PUSH 0\t\t\t\n  PUSH [tag] 252\t\t\t\n  DUP3 \t\t\t\n  PUSH [tag] 91\t\t\t\n  JUMP \t\t\t\ntag 252\t\t\t\n  JUMPDEST \t\t\t\n  SWAP2 \t\t\t\n  POP \t\t\t\n  PUSH [tag] 253\t\t\t\n  DUP4 \t\t\t\n  PUSH [tag] 91\t\t\t\n  JUMP \t\t\t\ntag 253\t\t\t\n  JUMPDEST \t\t\t\n  SWAP3 \t\t\t\n  POP \t\t\t\n  DUP3 \t\t\t\n  DUP3 \t\t\t\n  SUB \t\t\t\n  SWAP1 \t\t\t\n  POP \t\t\t\n  DUP2 \t\t\t\n  DUP2 \t\t\t\n  GT \t\t\t\n  ISZERO \t\t\t\n  PUSH [tag] 254\t\t\t\n  JUMPI \t\t\t\n  PUSH [tag] 255\t\t\t\n  PUSH [tag] 106\t\t\t\n  JUMP \t\t\t\ntag 255\t\t\t\n  JUMPDEST \t\t\t\ntag 254\t\t\t\n  JUMPDEST \t\t\t\n  SWAP3 \t\t\t\n  SWAP2 \t\t\t\n  POP \t\t\t\n  POP \t\t\t\n  JUMP \t\t\t\ntag 74\t\t\t\n  JUMPDEST \t\t\t\n  PUSH 0\t\t\t\n  PUSH [tag] 257\t\t\t\n  DUP3 \t\t\t\n  PUSH [tag] 91\t\t\t\n  JUMP \t\t\t\ntag 257\t\t\t\n  JUMPDEST \t\t\t\n  SWAP2 \t\t\t\n  POP \t\t\t\n  PUSH [tag] 258\t\t\t\n  DUP4 \t\t\t\n  PUSH [tag] 91\t\t\t\n  JUMP \t\t\t\ntag 258\t\t\t\n  JUMPDEST \t\t\t\n  SWAP3 \t\t\t\n  POP \t\t\t\n  DUP3 \t\t\t\n  DUP3 \t\t\t\n  ADD \t\t\t\n  SWAP1 \t\t\t\n  POP \t\t\t\n  DUP1 \t\t\t\n  DUP3 \t\t\t\n  GT \t\t\t\n  ISZERO \t\t\t\n  PUSH [tag] 259\t\t\t\n  JUMPI \t\t\t\n  PUSH [tag] 260\t\t\t\n  PUSH [tag] 106\t\t\t\n  JUMP \t\t\t\ntag 260\t\t\t\n  JUMPDEST \t\t\t\ntag 259\t\t\t\n  JUMPDEST \t\t\t\n  SWAP3 \t\t\t\n  SWAP2 \t\t\t\n  POP \t\t\t\n  POP \t\t\t\n  JUMP \t\t\t\ntag 119\t\t\t\n  JUMPDEST \t\t\t\n  PUSH [tag] 262\t\t\t\n  DUP2 \t\t\t\n  PUSH [tag] 91\t\t\t\n  JUMP \t\t\t\ntag 262\t\t\t\n  JUMPDEST \t\t\t\n  DUP3 \t\t\t\n  MSTORE \t\t\t\n  POP \t\t\t\n  POP \t\t\t\n  JUMP \t\t\t\ntag 78\t\t\t\n  JUMPDEST \t\t\t\n  PUSH 0\t\t\t\n  PUSH 60\t\t\t\n  DUP3 \t\t\t\n  ADD \t\t\t\n  SWAP1 \t\t\t\n  POP \t\t\t\n  PUSH [tag] 264\t\t\t\n  PUSH 0\t\t\t\n  DUP4 \t\t\t\n  ADD \t\t\t\n  DUP7 \t\t\t\n  PUSH [tag] 105\t\t\t\n  JUMP \t\t\t\ntag 264\t\t\t\n  JUMPDEST \t\t\t\n  PUSH [tag] 265\t\t\t\n  PUSH 20\t\t\t\n  DUP4 \t\t\t\n  ADD \t\t\t\n  DUP6 \t\t\t\n  PUSH [tag] 119\t\t\t\n  JUMP \t\t\t\ntag 265\t\t\t\n  JUMPDEST \t\t\t\n  PUSH [tag] 266\t\t\t\n  PUSH 40\t\t\t\n  DUP4 \t\t\t\n  ADD \t\t\t\n  DUP5 \t\t\t\n  PUSH [tag] 119\t\t\t\n  JUMP \t\t\t\ntag 266\t\t\t\n  JUMPDEST \t\t\t\n  SWAP5 \t\t\t\n  SWAP4 \t\t\t\n  POP \t\t\t\n  POP \t\t\t\n  POP \t\t\t\n  POP \t\t\t\n  JUMP \t\t\t\ntag 82\t\t\t\n  JUMPDEST \t\t\t\n  PUSH 0\t\t\t\n  PUSH 20\t\t\t\n  DUP3 \t\t\t\n  ADD \t\t\t\n  SWAP1 \t\t\t\n  POP \t\t\t\n  PUSH [tag] 268\t\t\t\n  PUSH 0\t\t\t\n  DUP4 \t\t\t\n  ADD \t\t\t\n  DUP5 \t\t\t\n  PUSH [tag] 119\t\t\t\n  JUMP \t\t\t\ntag 268\t\t\t\n  JUMPDEST \t\t\t\n  SWAP3 \t\t\t\n  SWAP2 \t\t\t\n  POP \t\t\t\n  POP \t\t\t\n  JUMP \t\t\t\ntag 26\t\t\tcontract ZiggiToken is ERC20, ...\n  JUMPDEST \t\t\tcontract ZiggiToken is ERC20, ...\n  PUSH #[$] 0000000000000000000000000000000000000000000000000000000000000000\t\t\tcontract ZiggiToken is ERC20, ...\n  DUP1 \t\t\tcontract ZiggiToken is ERC20, ...\n  PUSH [$] 0000000000000000000000000000000000000000000000000000000000000000\t\t\tcontract ZiggiToken is ERC20, ...\n  PUSH 0\t\t\tcontract ZiggiToken is ERC20, ...\n  CODECOPY \t\t\tcontract ZiggiToken is ERC20, ...\n  PUSH 0\t\t\tcontract ZiggiToken is ERC20, ...\n  RETURN \t\t\tcontract ZiggiToken is ERC20, ...\n.data\n  0:\n    .code\n      PUSH 80\t\t\tcontract ZiggiToken is ERC20, ...\n      PUSH 40\t\t\tcontract ZiggiToken is ERC20, ...\n      MSTORE \t\t\tcontract ZiggiToken is ERC20, ...\n      CALLVALUE \t\t\tcontract ZiggiToken is ERC20, ...\n      DUP1 \t\t\tcontract ZiggiToken is ERC20, ...\n      ISZERO \t\t\tcontract ZiggiToken is ERC20, ...\n      PUSH [tag] 1\t\t\tcontract ZiggiToken is ERC20, ...\n      JUMPI \t\t\tcontract ZiggiToken is ERC20, ...\n      PUSH 0\t\t\tcontract ZiggiToken is ERC20, ...\n      PUSH 0\t\t\tcontract ZiggiToken is ERC20, ...\n      REVERT \t\t\tcontract ZiggiToken is ERC20, ...\n    tag 1\t\t\tcontract ZiggiToken is ERC20, ...\n      JUMPDEST \t\t\tcontract ZiggiToken is ERC20, ...\n      POP \t\t\tcontract ZiggiToken is ERC20, ...\n      PUSH 4\t\t\tcontract ZiggiToken is ERC20, ...\n      CALLDATASIZE \t\t\tcontract ZiggiToken is ERC20, ...\n      LT \t\t\tcontract ZiggiToken is ERC20, ...\n      PUSH [tag] 2\t\t\tcontract ZiggiToken is ERC20, ...\n      JUMPI \t\t\tcontract ZiggiToken is ERC20, ...\n      PUSH 0\t\t\tcontract ZiggiToken is ERC20, ...\n      CALLDATALOAD \t\t\tcontract ZiggiToken is ERC20, ...\n      PUSH E0\t\t\tcontract ZiggiToken is ERC20, ...\n      SHR \t\t\tcontract ZiggiToken is ERC20, ...\n      DUP1 \t\t\tcontract ZiggiToken is ERC20, ...\n      PUSH 8A8C523C\t\t\tcontract ZiggiToken is ERC20, ...\n      GT \t\t\tcontract ZiggiToken is ERC20, ...\n      PUSH [tag] 28\t\t\tcontract ZiggiToken is ERC20, ...\n      JUMPI \t\t\tcontract ZiggiToken is ERC20, ...\n      DUP1 \t\t\tcontract ZiggiToken is ERC20, ...\n      PUSH 98118CB4\t\t\tcontract ZiggiToken is ERC20, ...\n      GT \t\t\tcontract ZiggiToken is ERC20, ...\n      PUSH [tag] 29\t\t\tcontract ZiggiToken is ERC20, ...\n      JUMPI \t\t\tcontract ZiggiToken is ERC20, ...\n      DUP1 \t\t\tcontract ZiggiToken is ERC20, ...\n      PUSH DD62ED3E\t\t\tcontract ZiggiToken is ERC20, ...\n      GT \t\t\tcontract ZiggiToken is ERC20, ...\n      PUSH [tag] 30\t\t\tcontract ZiggiToken is ERC20, ...\n      JUMPI \t\t\tcontract ZiggiToken is ERC20, ...\n      DUP1 \t\t\tcontract ZiggiToken is ERC20, ...\n      PUSH DD62ED3E\t\t\tcontract ZiggiToken is ERC20, ...\n      EQ \t\t\tcontract ZiggiToken is ERC20, ...\n      PUSH [tag] 24\t\t\tcontract ZiggiToken is ERC20, ...\n      JUMPI \t\t\tcontract ZiggiToken is ERC20, ...\n      DUP1 \t\t\tcontract ZiggiToken is ERC20, ...\n      PUSH EC28438A\t\t\tcontract ZiggiToken is ERC20, ...\n      EQ \t\t\tcontract ZiggiToken is ERC20, ...\n      PUSH [tag] 25\t\t\tcontract ZiggiToken is ERC20, ...\n      JUMPI \t\t\tcontract ZiggiToken is ERC20, ...\n      DUP1 \t\t\tcontract ZiggiToken is ERC20, ...\n      PUSH F2FDE38B\t\t\tcontract ZiggiToken is ERC20, ...\n      EQ \t\t\tcontract ZiggiToken is ERC20, ...\n      PUSH [tag] 26\t\t\tcontract ZiggiToken is ERC20, ...\n      JUMPI \t\t\tcontract ZiggiToken is ERC20, ...\n      DUP1 \t\t\tcontract ZiggiToken is ERC20, ...\n      PUSH FCE589D8\t\t\tcontract ZiggiToken is ERC20, ...\n      EQ \t\t\tcontract ZiggiToken is ERC20, ...\n      PUSH [tag] 27\t\t\tcontract ZiggiToken is ERC20, ...\n      JUMPI \t\t\tcontract ZiggiToken is ERC20, ...\n      PUSH [tag] 2\t\t\tcontract ZiggiToken is ERC20, ...\n      JUMP \t\t\tcontract ZiggiToken is ERC20, ...\n    tag 30\t\t\tcontract ZiggiToken is ERC20, ...\n      JUMPDEST \t\t\tcontract ZiggiToken is ERC20, ...\n      DUP1 \t\t\tcontract ZiggiToken is ERC20, ...\n      PUSH 98118CB4\t\t\tcontract ZiggiToken is ERC20, ...\n      EQ \t\t\tcontract ZiggiToken is ERC20, ...\n      PUSH [tag] 21\t\t\tcontract ZiggiToken is ERC20, ...\n      JUMPI \t\t\tcontract ZiggiToken is ERC20, ...\n      DUP1 \t\t\tcontract ZiggiToken is ERC20, ...\n      PUSH A9059CBB\t\t\tcontract ZiggiToken is ERC20, ...\n      EQ \t\t\tcontract ZiggiToken is ERC20, ...\n      PUSH [tag] 22\t\t\tcontract ZiggiToken is ERC20, ...\n      JUMPI \t\t\tcontract ZiggiToken is ERC20, ...\n      DUP1 \t\t\tcontract ZiggiToken is ERC20, ...\n      PUSH C0246668\t\t\tcontract ZiggiToken is ERC20, ...\n      EQ \t\t\tcontract ZiggiToken is ERC20, ...\n      PUSH [tag] 23\t\t\tcontract ZiggiToken is ERC20, ...\n      JUMPI \t\t\tcontract ZiggiToken is ERC20, ...\n      PUSH [tag] 2\t\t\tcontract ZiggiToken is ERC20, ...\n      JUMP \t\t\tcontract ZiggiToken is ERC20, ...\n    tag 29\t\t\tcontract ZiggiToken is ERC20, ...\n      JUMPDEST \t\t\tcontract ZiggiToken is ERC20, ...\n      DUP1 \t\t\tcontract ZiggiToken is ERC20, ...\n      PUSH 8A8C523C\t\t\tcontract ZiggiToken is ERC20, ...\n      EQ \t\t\tcontract ZiggiToken is ERC20, ...\n      PUSH [tag] 15\t\t\tcontract ZiggiToken is ERC20, ...\n      JUMPI \t\t\tcontract ZiggiToken is ERC20, ...\n      DUP1 \t\t\tcontract ZiggiToken is ERC20, ...\n      PUSH 8B424267\t\t\tcontract ZiggiToken is ERC20, ...\n      EQ \t\t\tcontract ZiggiToken is ERC20, ...\n      PUSH [tag] 16\t\t\tcontract ZiggiToken is ERC20, ...\n      JUMPI \t\t\tcontract ZiggiToken is ERC20, ...\n      DUP1 \t\t\tcontract ZiggiToken is ERC20, ...\n      PUSH 8C0B5E22\t\t\tcontract ZiggiToken is ERC20, ...\n      EQ \t\t\tcontract ZiggiToken is ERC20, ...\n      PUSH [tag] 17\t\t\tcontract ZiggiToken is ERC20, ...\n      JUMPI \t\t\tcontract ZiggiToken is ERC20, ...\n      DUP1 \t\t\tcontract ZiggiToken is ERC20, ...\n      PUSH 8DA5CB5B\t\t\tcontract ZiggiToken is ERC20, ...\n      EQ \t\t\tcontract ZiggiToken is ERC20, ...\n      PUSH [tag] 18\t\t\tcontract ZiggiToken is ERC20, ...\n      JUMPI \t\t\tcontract ZiggiToken is ERC20, ...\n      DUP1 \t\t\tcontract ZiggiToken is ERC20, ...\n      PUSH 8EA5220F\t\t\tcontract ZiggiToken is ERC20, ...\n      EQ \t\t\tcontract ZiggiToken is ERC20, ...\n      PUSH [tag] 19\t\t\tcontract ZiggiToken is ERC20, ...\n      JUMPI \t\t\tcontract ZiggiToken is ERC20, ...\n      DUP1 \t\t\tcontract ZiggiToken is ERC20, ...\n      PUSH 95D89B41\t\t\tcontract ZiggiToken is ERC20, ...\n      EQ \t\t\tcontract ZiggiToken is ERC20, ...\n      PUSH [tag] 20\t\t\tcontract ZiggiToken is ERC20, ...\n      JUMPI \t\t\tcontract ZiggiToken is ERC20, ...\n      PUSH [tag] 2\t\t\tcontract ZiggiToken is ERC20, ...\n      JUMP \t\t\tcontract ZiggiToken is ERC20, ...\n    tag 28\t\t\tcontract ZiggiToken is ERC20, ...\n      JUMPDEST \t\t\tcontract ZiggiToken is ERC20, ...\n      DUP1 \t\t\tcontract ZiggiToken is ERC20, ...\n      PUSH 313CE567\t\t\tcontract ZiggiToken is ERC20, ...\n      GT \t\t\tcontract ZiggiToken is ERC20, ...\n      PUSH [tag] 31\t\t\tcontract ZiggiToken is ERC20, ...\n      JUMPI \t\t\tcontract ZiggiToken is ERC20, ...\n      DUP1 \t\t\tcontract ZiggiToken is ERC20, ...\n      PUSH 313CE567\t\t\tcontract ZiggiToken is ERC20, ...\n      EQ \t\t\tcontract ZiggiToken is ERC20, ...\n      PUSH [tag] 9\t\t\tcontract ZiggiToken is ERC20, ...\n      JUMPI \t\t\tcontract ZiggiToken is ERC20, ...\n      DUP1 \t\t\tcontract ZiggiToken is ERC20, ...\n      PUSH 4ADA218B\t\t\tcontract ZiggiToken is ERC20, ...\n      EQ \t\t\tcontract ZiggiToken is ERC20, ...\n      PUSH [tag] 10\t\t\tcontract ZiggiToken is ERC20, ...\n      JUMPI \t\t\tcontract ZiggiToken is ERC20, ...\n      DUP1 \t\t\tcontract ZiggiToken is ERC20, ...\n      PUSH 6827E764\t\t\tcontract ZiggiToken is ERC20, ...\n      EQ \t\t\tcontract ZiggiToken is ERC20, ...\n      PUSH [tag] 11\t\t\tcontract ZiggiToken is ERC20, ...\n      JUMPI \t\t\tcontract ZiggiToken is ERC20, ...\n      DUP1 \t\t\tcontract ZiggiToken is ERC20, ...\n      PUSH 6FCBA377\t\t\tcontract ZiggiToken is ERC20, ...\n      EQ \t\t\tcontract ZiggiToken is ERC20, ...\n      PUSH [tag] 12\t\t\tcontract ZiggiToken is ERC20, ...\n      JUMPI \t\t\tcontract ZiggiToken is ERC20, ...\n      DUP1 \t\t\tcontract ZiggiToken is ERC20, ...\n      PUSH 70A08231\t\t\tcontract ZiggiToken is ERC20, ...\n      EQ \t\t\tcontract ZiggiToken is ERC20, ...\n      PUSH [tag] 13\t\t\tcontract ZiggiToken is ERC20, ...\n      JUMPI \t\t\tcontract ZiggiToken is ERC20, ...\n      DUP1 \t\t\tcontract ZiggiToken is ERC20, ...\n      PUSH 715018A6\t\t\tcontract ZiggiToken is ERC20, ...\n      EQ \t\t\tcontract ZiggiToken is ERC20, ...\n      PUSH [tag] 14\t\t\tcontract ZiggiToken is ERC20, ...\n      JUMPI \t\t\tcontract ZiggiToken is ERC20, ...\n      PUSH [tag] 2\t\t\tcontract ZiggiToken is ERC20, ...\n      JUMP \t\t\tcontract ZiggiToken is ERC20, ...\n    tag 31\t\t\tcontract ZiggiToken is ERC20, ...\n      JUMPDEST \t\t\tcontract ZiggiToken is ERC20, ...\n      DUP1 \t\t\tcontract ZiggiToken is ERC20, ...\n      PUSH 6FDDE03\t\t\tcontract ZiggiToken is ERC20, ...\n      EQ \t\t\tcontract ZiggiToken is ERC20, ...\n      PUSH [tag] 3\t\t\tcontract ZiggiToken is ERC20, ...\n      JUMPI \t\t\tcontract ZiggiToken is ERC20, ...\n      DUP1 \t\t\tcontract ZiggiToken is ERC20, ...\n      PUSH 95EA7B3\t\t\tcontract ZiggiToken is ERC20, ...\n      EQ \t\t\tcontract ZiggiToken is ERC20, ...\n      PUSH [tag] 4\t\t\tcontract ZiggiToken is ERC20, ...\n      JUMPI \t\t\tcontract ZiggiToken is ERC20, ...\n      DUP1 \t\t\tcontract ZiggiToken is ERC20, ...\n      PUSH 153B0D1E\t\t\tcontract ZiggiToken is ERC20, ...\n      EQ \t\t\tcontract ZiggiToken is ERC20, ...\n      PUSH [tag] 5\t\t\tcontract ZiggiToken is ERC20, ...\n      JUMPI \t\t\tcontract ZiggiToken is ERC20, ...\n      DUP1 \t\t\tcontract ZiggiToken is ERC20, ...\n      PUSH 18160DDD\t\t\tcontract ZiggiToken is ERC20, ...\n      EQ \t\t\tcontract ZiggiToken is ERC20, ...\n      PUSH [tag] 6\t\t\tcontract ZiggiToken is ERC20, ...\n      JUMPI \t\t\tcontract ZiggiToken is ERC20, ...\n      DUP1 \t\t\tcontract ZiggiToken is ERC20, ...\n      PUSH 1F53AC02\t\t\tcontract ZiggiToken is ERC20, ...\n      EQ \t\t\tcontract ZiggiToken is ERC20, ...\n      PUSH [tag] 7\t\t\tcontract ZiggiToken is ERC20, ...\n      JUMPI \t\t\tcontract ZiggiToken is ERC20, ...\n      DUP1 \t\t\tcontract ZiggiToken is ERC20, ...\n      PUSH 23B872DD\t\t\tcontract ZiggiToken is ERC20, ...\n      EQ \t\t\tcontract ZiggiToken is ERC20, ...\n      PUSH [tag] 8\t\t\tcontract ZiggiToken is ERC20, ...\n      JUMPI \t\t\tcontract ZiggiToken is ERC20, ...\n    tag 2\t\t\tcontract ZiggiToken is ERC20, ...\n      JUMPDEST \t\t\tcontract ZiggiToken is ERC20, ...\n      PUSH 0\t\t\tcontract ZiggiToken is ERC20, ...\n      PUSH 0\t\t\tcontract ZiggiToken is ERC20, ...\n      REVERT \t\t\tcontract ZiggiToken is ERC20, ...\n    tag 3\t\t\tnlyOwner {\\r\\n        devWalle...\n      JUMPDEST \t\t\tnlyOwner {\\r\\n        devWalle...\n      PUSH [tag] 32\t\t\tnlyOwner {\\r\\n        devWalle...\n      PUSH [tag] 33\t\t\tnlyOwner {\\r\\n        devWalle...\n      JUMP \t\t\tnlyOwner {\\r\\n        devWalle...\n    tag 32\t\t\tnlyOwner {\\r\\n        devWalle...\n      JUMPDEST \t\t\tnlyOwner {\\r\\n        devWalle...\n      PUSH 40\t\t\tnlyOwner {\\r\\n        devWalle...\n      MLOAD \t\t\tnlyOwner {\\r\\n        devWalle...\n      PUSH [tag] 34\t\t\tnlyOwner {\\r\\n        devWalle...\n      SWAP2 \t\t\tnlyOwner {\\r\\n        devWalle...\n      SWAP1 \t\t\tnlyOwner {\\r\\n        devWalle...\n      PUSH [tag] 35\t\t\tnlyOwner {\\r\\n        devWalle...\n      JUMP \t\t\tnlyOwner {\\r\\n        devWalle...\n    tag 34\t\t\tnlyOwner {\\r\\n        devWalle...\n      JUMPDEST \t\t\tnlyOwner {\\r\\n        devWalle...\n      PUSH 40\t\t\tnlyOwner {\\r\\n        devWalle...\n      MLOAD \t\t\tnlyOwner {\\r\\n        devWalle...\n      DUP1 \t\t\tnlyOwner {\\r\\n        devWalle...\n      SWAP2 \t\t\tnlyOwner {\\r\\n        devWalle...\n      SUB \t\t\tnlyOwner {\\r\\n        devWalle...\n      SWAP1 \t\t\tnlyOwner {\\r\\n        devWalle...\n      RETURN \t\t\tnlyOwner {\\r\\n        devWalle...\n    tag 4\t\t\t\n      JUMPDEST \t\t\t\n      PUSH [tag] 36\t\t\t\n      PUSH 4\t\t\t\n      DUP1 \t\t\t\n      CALLDATASIZE \t\t\t\n      SUB \t\t\t\n      DUP2 \t\t\t\n      ADD \t\t\t\n      SWAP1 \t\t\t\n      PUSH [tag] 37\t\t\t\n      SWAP2 \t\t\t\n      SWAP1 \t\t\t\n      PUSH [tag] 38\t\t\t\n      JUMP \t\t\t\n    tag 37\t\t\t\n      JUMPDEST \t\t\t\n      PUSH [tag] 39\t\t\t\n      JUMP \t\t\t\n    tag 36\t\t\t\n      JUMPDEST \t\t\t\n      PUSH 40\t\t\t\n      MLOAD \t\t\t\n      PUSH [tag] 40\t\t\t\n      SWAP2 \t\t\t\n      SWAP1 \t\t\t\n      PUSH [tag] 41\t\t\t\n      JUMP \t\t\t\n    tag 40\t\t\t\n      JUMPDEST \t\t\t\n      PUSH 40\t\t\t\n      MLOAD \t\t\t\n      DUP1 \t\t\t\n      SWAP2 \t\t\t\n      SUB \t\t\t\n      SWAP1 \t\t\t\n      RETURN \t\t\t\n    tag 5\t\t\tfunction setBlacklist(address ...\n      JUMPDEST \t\t\tfunction setBlacklist(address ...\n      PUSH [tag] 42\t\t\tfunction setBlacklist(address ...\n      PUSH 4\t\t\tfunction setBlacklist(address ...\n      DUP1 \t\t\tfunction setBlacklist(address ...\n      CALLDATASIZE \t\t\tfunction setBlacklist(address ...\n      SUB \t\t\tfunction setBlacklist(address ...\n      DUP2 \t\t\tfunction setBlacklist(address ...\n      ADD \t\t\tfunction setBlacklist(address ...\n      SWAP1 \t\t\tfunction setBlacklist(address ...\n      PUSH [tag] 43\t\t\tfunction setBlacklist(address ...\n      SWAP2 \t\t\tfunction setBlacklist(address ...\n      SWAP1 \t\t\tfunction setBlacklist(address ...\n      PUSH [tag] 44\t\t\tfunction setBlacklist(address ...\n      JUMP \t\t\tfunction setBlacklist(address ...\n    tag 43\t\t\tfunction setBlacklist(address ...\n      JUMPDEST \t\t\tfunction setBlacklist(address ...\n      PUSH [tag] 45\t\t\tfunction setBlacklist(address ...\n      JUMP \t\t\tfunction setBlacklist(address ...\n    tag 42\t\t\tfunction setBlacklist(address ...\n      JUMPDEST \t\t\tfunction setBlacklist(address ...\n      STOP \t\t\tfunction setBlacklist(address ...\n    tag 6\t\t\t\n      JUMPDEST \t\t\t\n      PUSH [tag] 46\t\t\t\n      PUSH [tag] 47\t\t\t\n      JUMP \t\t\t\n    tag 46\t\t\t\n      JUMPDEST \t\t\t\n      PUSH 40\t\t\t\n      MLOAD \t\t\t\n      PUSH [tag] 48\t\t\t\n      SWAP2 \t\t\t\n      SWAP1 \t\t\t\n      PUSH [tag] 49\t\t\t\n      JUMP \t\t\t\n    tag 48\t\t\t\n      JUMPDEST \t\t\t\n      PUSH 40\t\t\t\n      MLOAD \t\t\t\n      DUP1 \t\t\t\n      SWAP2 \t\t\t\n      SUB \t\t\t\n      SWAP1 \t\t\t\n      RETURN \t\t\t\n    tag 7\t\t\tfunction setDevWallet(address ...\n      JUMPDEST \t\t\tfunction setDevWallet(address ...\n      PUSH [tag] 50\t\t\tfunction setDevWallet(address ...\n      PUSH 4\t\t\tfunction setDevWallet(address ...\n      DUP1 \t\t\tfunction setDevWallet(address ...\n      CALLDATASIZE \t\t\tfunction setDevWallet(address ...\n      SUB \t\t\tfunction setDevWallet(address ...\n      DUP2 \t\t\tfunction setDevWallet(address ...\n      ADD \t\t\tfunction setDevWallet(address ...\n      SWAP1 \t\t\tfunction setDevWallet(address ...\n      PUSH [tag] 51\t\t\tfunction setDevWallet(address ...\n      SWAP2 \t\t\tfunction setDevWallet(address ...\n      SWAP1 \t\t\tfunction setDevWallet(address ...\n      PUSH [tag] 52\t\t\tfunction setDevWallet(address ...\n      JUMP \t\t\tfunction setDevWallet(address ...\n    tag 51\t\t\tfunction setDevWallet(address ...\n      JUMPDEST \t\t\tfunction setDevWallet(address ...\n      PUSH [tag] 53\t\t\tfunction setDevWallet(address ...\n      JUMP \t\t\tfunction setDevWallet(address ...\n    tag 50\t\t\tfunction setDevWallet(address ...\n      JUMPDEST \t\t\tfunction setDevWallet(address ...\n      STOP \t\t\tfunction setDevWallet(address ...\n    tag 8\t\t\t\n      JUMPDEST \t\t\t\n      PUSH [tag] 54\t\t\t\n      PUSH 4\t\t\t\n      DUP1 \t\t\t\n      CALLDATASIZE \t\t\t\n      SUB \t\t\t\n      DUP2 \t\t\t\n      ADD \t\t\t\n      SWAP1 \t\t\t\n      PUSH [tag] 55\t\t\t\n      SWAP2 \t\t\t\n      SWAP1 \t\t\t\n      PUSH [tag] 56\t\t\t\n      JUMP \t\t\t\n    tag 55\t\t\t\n      JUMPDEST \t\t\t\n      PUSH [tag] 57\t\t\t\n      JUMP \t\t\t\n    tag 54\t\t\t\n      JUMPDEST \t\t\t\n      PUSH 40\t\t\t\n      MLOAD \t\t\t\n      PUSH [tag] 58\t\t\t\n      SWAP2 \t\t\t\n      SWAP1 \t\t\t\n      PUSH [tag] 41\t\t\t\n      JUMP \t\t\t\n    tag 58\t\t\t\n      JUMPDEST \t\t\t\n      PUSH 40\t\t\t\n      MLOAD \t\t\t\n      DUP1 \t\t\t\n      SWAP2 \t\t\t\n      SUB \t\t\t\n      SWAP1 \t\t\t\n      RETURN \t\t\t\n    tag 9\t\t\t      }\\r\\n\\r\\n        super._...\n      JUMPDEST \t\t\t      }\\r\\n\\r\\n        super._...\n      PUSH [tag] 59\t\t\t      }\\r\\n\\r\\n        super._...\n      PUSH [tag] 60\t\t\t      }\\r\\n\\r\\n        super._...\n      JUMP \t\t\t      }\\r\\n\\r\\n        super._...\n    tag 59\t\t\t      }\\r\\n\\r\\n        super._...\n      JUMPDEST \t\t\t      }\\r\\n\\r\\n        super._...\n      PUSH 40\t\t\t      }\\r\\n\\r\\n        super._...\n      MLOAD \t\t\t      }\\r\\n\\r\\n        super._...\n      PUSH [tag] 61\t\t\t      }\\r\\n\\r\\n        super._...\n      SWAP2 \t\t\t      }\\r\\n\\r\\n        super._...\n      SWAP1 \t\t\t      }\\r\\n\\r\\n        super._...\n      PUSH [tag] 62\t\t\t      }\\r\\n\\r\\n        super._...\n      JUMP \t\t\t      }\\r\\n\\r\\n        super._...\n    tag 61\t\t\t      }\\r\\n\\r\\n        super._...\n      JUMPDEST \t\t\t      }\\r\\n\\r\\n        super._...\n      PUSH 40\t\t\t      }\\r\\n\\r\\n        super._...\n      MLOAD \t\t\t      }\\r\\n\\r\\n        super._...\n      DUP1 \t\t\t      }\\r\\n\\r\\n        super._...\n      SWAP2 \t\t\t      }\\r\\n\\r\\n        super._...\n      SUB \t\t\t      }\\r\\n\\r\\n        super._...\n      SWAP1 \t\t\t      }\\r\\n\\r\\n        super._...\n      RETURN \t\t\t      }\\r\\n\\r\\n        super._...\n    tag 10\t\t\tbool public tradingEnabled = f...\n      JUMPDEST \t\t\tbool public tradingEnabled = f...\n      PUSH [tag] 63\t\t\tbool public tradingEnabled = f...\n      PUSH [tag] 64\t\t\tbool public tradingEnabled = f...\n      JUMP \t\t\tbool public tradingEnabled = f...\n    tag 63\t\t\tbool public tradingEnabled = f...\n      JUMPDEST \t\t\tbool public tradingEnabled = f...\n      PUSH 40\t\t\tbool public tradingEnabled = f...\n      MLOAD \t\t\tbool public tradingEnabled = f...\n      PUSH [tag] 65\t\t\tbool public tradingEnabled = f...\n      SWAP2 \t\t\tbool public tradingEnabled = f...\n      SWAP1 \t\t\tbool public tradingEnabled = f...\n      PUSH [tag] 41\t\t\tbool public tradingEnabled = f...\n      JUMP \t\t\tbool public tradingEnabled = f...\n    tag 65\t\t\tbool public tradingEnabled = f...\n      JUMPDEST \t\t\tbool public tradingEnabled = f...\n      PUSH 40\t\t\tbool public tradingEnabled = f...\n      MLOAD \t\t\tbool public tradingEnabled = f...\n      DUP1 \t\t\tbool public tradingEnabled = f...\n      SWAP2 \t\t\tbool public tradingEnabled = f...\n      SUB \t\t\tbool public tradingEnabled = f...\n      SWAP1 \t\t\tbool public tradingEnabled = f...\n      RETURN \t\t\tbool public tradingEnabled = f...\n    tag 11\t\t\tuint256 public devFee = 1\n      JUMPDEST \t\t\tuint256 public devFee = 1\n      PUSH [tag] 66\t\t\tuint256 public devFee = 1\n      PUSH [tag] 67\t\t\tuint256 public devFee = 1\n      JUMP \t\t\tuint256 public devFee = 1\n    tag 66\t\t\tuint256 public devFee = 1\n      JUMPDEST \t\t\tuint256 public devFee = 1\n      PUSH 40\t\t\tuint256 public devFee = 1\n      MLOAD \t\t\tuint256 public devFee = 1\n      PUSH [tag] 68\t\t\tuint256 public devFee = 1\n      SWAP2 \t\t\tuint256 public devFee = 1\n      SWAP1 \t\t\tuint256 public devFee = 1\n      PUSH [tag] 49\t\t\tuint256 public devFee = 1\n      JUMP \t\t\tuint256 public devFee = 1\n    tag 68\t\t\tuint256 public devFee = 1\n      JUMPDEST \t\t\tuint256 public devFee = 1\n      PUSH 40\t\t\tuint256 public devFee = 1\n      MLOAD \t\t\tuint256 public devFee = 1\n      DUP1 \t\t\tuint256 public devFee = 1\n      SWAP2 \t\t\tuint256 public devFee = 1\n      SUB \t\t\tuint256 public devFee = 1\n      SWAP1 \t\t\tuint256 public devFee = 1\n      RETURN \t\t\tuint256 public devFee = 1\n    tag 12\t\t\tfunction setFees(uint256 _burn...\n      JUMPDEST \t\t\tfunction setFees(uint256 _burn...\n      PUSH [tag] 69\t\t\tfunction setFees(uint256 _burn...\n      PUSH 4\t\t\tfunction setFees(uint256 _burn...\n      DUP1 \t\t\tfunction setFees(uint256 _burn...\n      CALLDATASIZE \t\t\tfunction setFees(uint256 _burn...\n      SUB \t\t\tfunction setFees(uint256 _burn...\n      DUP2 \t\t\tfunction setFees(uint256 _burn...\n      ADD \t\t\tfunction setFees(uint256 _burn...\n      SWAP1 \t\t\tfunction setFees(uint256 _burn...\n      PUSH [tag] 70\t\t\tfunction setFees(uint256 _burn...\n      SWAP2 \t\t\tfunction setFees(uint256 _burn...\n      SWAP1 \t\t\tfunction setFees(uint256 _burn...\n      PUSH [tag] 71\t\t\tfunction setFees(uint256 _burn...\n      JUMP \t\t\tfunction setFees(uint256 _burn...\n    tag 70\t\t\tfunction setFees(uint256 _burn...\n      JUMPDEST \t\t\tfunction setFees(uint256 _burn...\n      PUSH [tag] 72\t\t\tfunction setFees(uint256 _burn...\n      JUMP \t\t\tfunction setFees(uint256 _burn...\n    tag 69\t\t\tfunction setFees(uint256 _burn...\n      JUMPDEST \t\t\tfunction setFees(uint256 _burn...\n      STOP \t\t\tfunction setFees(uint256 _burn...\n    tag 13\t\t\t\n      JUMPDEST \t\t\t\n      PUSH [tag] 73\t\t\t\n      PUSH 4\t\t\t\n      DUP1 \t\t\t\n      CALLDATASIZE \t\t\t\n      SUB \t\t\t\n      DUP2 \t\t\t\n      ADD \t\t\t\n      SWAP1 \t\t\t\n      PUSH [tag] 74\t\t\t\n      SWAP2 \t\t\t\n      SWAP1 \t\t\t\n      PUSH [tag] 52\t\t\t\n      JUMP \t\t\t\n    tag 74\t\t\t\n      JUMPDEST \t\t\t\n      PUSH [tag] 75\t\t\t\n      JUMP \t\t\t\n    tag 73\t\t\t\n      JUMPDEST \t\t\t\n      PUSH 40\t\t\t\n      MLOAD \t\t\t\n      PUSH [tag] 76\t\t\t\n      SWAP2 \t\t\t\n      SWAP1 \t\t\t\n      PUSH [tag] 49\t\t\t\n      JUMP \t\t\t\n    tag 76\t\t\t\n      JUMPDEST \t\t\t\n      PUSH 40\t\t\t\n      MLOAD \t\t\t\n      DUP1 \t\t\t\n      SWAP2 \t\t\t\n      SUB \t\t\t\n      SWAP1 \t\t\t\n      RETURN \t\t\t\n    tag 14\t\t\tamount * rewardFee) / 100;\\r\\n...\n      JUMPDEST \t\t\tamount * rewardFee) / 100;\\r\\n...\n      PUSH [tag] 77\t\t\tamount * rewardFee) / 100;\\r\\n...\n      PUSH [tag] 78\t\t\tamount * rewardFee) / 100;\\r\\n...\n      JUMP \t\t\tamount * rewardFee) / 100;\\r\\n...\n    tag 77\t\t\tamount * rewardFee) / 100;\\r\\n...\n      JUMPDEST \t\t\tamount * rewardFee) / 100;\\r\\n...\n      STOP \t\t\tamount * rewardFee) / 100;\\r\\n...\n    tag 15\t\t\tfunction enableTrading() exter...\n      JUMPDEST \t\t\tfunction enableTrading() exter...\n      PUSH [tag] 79\t\t\tfunction enableTrading() exter...\n      PUSH [tag] 80\t\t\tfunction enableTrading() exter...\n      JUMP \t\t\tfunction enableTrading() exter...\n    tag 79\t\t\tfunction enableTrading() exter...\n      JUMPDEST \t\t\tfunction enableTrading() exter...\n      STOP \t\t\tfunction enableTrading() exter...\n    tag 16\t\t\tuint256 public rewardFee = 1\n      JUMPDEST \t\t\tuint256 public rewardFee = 1\n      PUSH [tag] 81\t\t\tuint256 public rewardFee = 1\n      PUSH [tag] 82\t\t\tuint256 public rewardFee = 1\n      JUMP \t\t\tuint256 public rewardFee = 1\n    tag 81\t\t\tuint256 public rewardFee = 1\n      JUMPDEST \t\t\tuint256 public rewardFee = 1\n      PUSH 40\t\t\tuint256 public rewardFee = 1\n      MLOAD \t\t\tuint256 public rewardFee = 1\n      PUSH [tag] 83\t\t\tuint256 public rewardFee = 1\n      SWAP2 \t\t\tuint256 public rewardFee = 1\n      SWAP1 \t\t\tuint256 public rewardFee = 1\n      PUSH [tag] 49\t\t\tuint256 public rewardFee = 1\n      JUMP \t\t\tuint256 public rewardFee = 1\n    tag 83\t\t\tuint256 public rewardFee = 1\n      JUMPDEST \t\t\tuint256 public rewardFee = 1\n      PUSH 40\t\t\tuint256 public rewardFee = 1\n      MLOAD \t\t\tuint256 public rewardFee = 1\n      DUP1 \t\t\tuint256 public rewardFee = 1\n      SWAP2 \t\t\tuint256 public rewardFee = 1\n      SUB \t\t\tuint256 public rewardFee = 1\n      SWAP1 \t\t\tuint256 public rewardFee = 1\n      RETURN \t\t\tuint256 public rewardFee = 1\n    tag 17\t\t\tuint256 public maxTxAmount\n      JUMPDEST \t\t\tuint256 public maxTxAmount\n      PUSH [tag] 84\t\t\tuint256 public maxTxAmount\n      PUSH [tag] 85\t\t\tuint256 public maxTxAmount\n      JUMP \t\t\tuint256 public maxTxAmount\n    tag 84\t\t\tuint256 public maxTxAmount\n      JUMPDEST \t\t\tuint256 public maxTxAmount\n      PUSH 40\t\t\tuint256 public maxTxAmount\n      MLOAD \t\t\tuint256 public maxTxAmount\n      PUSH [tag] 86\t\t\tuint256 public maxTxAmount\n      SWAP2 \t\t\tuint256 public maxTxAmount\n      SWAP1 \t\t\tuint256 public maxTxAmount\n      PUSH [tag] 49\t\t\tuint256 public maxTxAmount\n      JUMP \t\t\tuint256 public maxTxAmount\n    tag 86\t\t\tuint256 public maxTxAmount\n      JUMPDEST \t\t\tuint256 public maxTxAmount\n      PUSH 40\t\t\tuint256 public maxTxAmount\n      MLOAD \t\t\tuint256 public maxTxAmount\n      DUP1 \t\t\tuint256 public maxTxAmount\n      SWAP2 \t\t\tuint256 public maxTxAmount\n      SUB \t\t\tuint256 public maxTxAmount\n      SWAP1 \t\t\tuint256 public maxTxAmount\n      RETURN \t\t\tuint256 public maxTxAmount\n    tag 18\t\t\t56 _maxTxAmount) external only...\n      JUMPDEST \t\t\t56 _maxTxAmount) external only...\n      PUSH [tag] 87\t\t\t56 _maxTxAmount) external only...\n      PUSH [tag] 88\t\t\t56 _maxTxAmount) external only...\n      JUMP \t\t\t56 _maxTxAmount) external only...\n    tag 87\t\t\t56 _maxTxAmount) external only...\n      JUMPDEST \t\t\t56 _maxTxAmount) external only...\n      PUSH 40\t\t\t56 _maxTxAmount) external only...\n      MLOAD \t\t\t56 _maxTxAmount) external only...\n      PUSH [tag] 89\t\t\t56 _maxTxAmount) external only...\n      SWAP2 \t\t\t56 _maxTxAmount) external only...\n      SWAP1 \t\t\t56 _maxTxAmount) external only...\n      PUSH [tag] 90\t\t\t56 _maxTxAmount) external only...\n      JUMP \t\t\t56 _maxTxAmount) external only...\n    tag 89\t\t\t56 _maxTxAmount) external only...\n      JUMPDEST \t\t\t56 _maxTxAmount) external only...\n      PUSH 40\t\t\t56 _maxTxAmount) external only...\n      MLOAD \t\t\t56 _maxTxAmount) external only...\n      DUP1 \t\t\t56 _maxTxAmount) external only...\n      SWAP2 \t\t\t56 _maxTxAmount) external only...\n      SUB \t\t\t56 _maxTxAmount) external only...\n      SWAP1 \t\t\t56 _maxTxAmount) external only...\n      RETURN \t\t\t56 _maxTxAmount) external only...\n    tag 19\t\t\taddress public devWallet\n      JUMPDEST \t\t\taddress public devWallet\n      PUSH [tag] 91\t\t\taddress public devWallet\n      PUSH [tag] 92\t\t\taddress public devWallet\n      JUMP \t\t\taddress public devWallet\n    tag 91\t\t\taddress public devWallet\n      JUMPDEST \t\t\taddress public devWallet\n      PUSH 40\t\t\taddress public devWallet\n      MLOAD \t\t\taddress public devWallet\n      PUSH [tag] 93\t\t\taddress public devWallet\n      SWAP2 \t\t\taddress public devWallet\n      SWAP1 \t\t\taddress public devWallet\n      PUSH [tag] 90\t\t\taddress public devWallet\n      JUMP \t\t\taddress public devWallet\n    tag 93\t\t\taddress public devWallet\n      JUMPDEST \t\t\taddress public devWallet\n      PUSH 40\t\t\taddress public devWallet\n      MLOAD \t\t\taddress public devWallet\n      DUP1 \t\t\taddress public devWallet\n      SWAP2 \t\t\taddress public devWallet\n      SUB \t\t\taddress public devWallet\n      SWAP1 \t\t\taddress public devWallet\n      RETURN \t\t\taddress public devWallet\n    tag 20\t\t\tress is blacklisted\");\\r\\n    ...\n      JUMPDEST \t\t\tress is blacklisted\");\\r\\n    ...\n      PUSH [tag] 94\t\t\tress is blacklisted\");\\r\\n    ...\n      PUSH [tag] 95\t\t\tress is blacklisted\");\\r\\n    ...\n      JUMP \t\t\tress is blacklisted\");\\r\\n    ...\n    tag 94\t\t\tress is blacklisted\");\\r\\n    ...\n      JUMPDEST \t\t\tress is blacklisted\");\\r\\n    ...\n      PUSH 40\t\t\tress is blacklisted\");\\r\\n    ...\n      MLOAD \t\t\tress is blacklisted\");\\r\\n    ...\n      PUSH [tag] 96\t\t\tress is blacklisted\");\\r\\n    ...\n      SWAP2 \t\t\tress is blacklisted\");\\r\\n    ...\n      SWAP1 \t\t\tress is blacklisted\");\\r\\n    ...\n      PUSH [tag] 35\t\t\tress is blacklisted\");\\r\\n    ...\n      JUMP \t\t\tress is blacklisted\");\\r\\n    ...\n    tag 96\t\t\tress is blacklisted\");\\r\\n    ...\n      JUMPDEST \t\t\tress is blacklisted\");\\r\\n    ...\n      PUSH 40\t\t\tress is blacklisted\");\\r\\n    ...\n      MLOAD \t\t\tress is blacklisted\");\\r\\n    ...\n      DUP1 \t\t\tress is blacklisted\");\\r\\n    ...\n      SWAP2 \t\t\tress is blacklisted\");\\r\\n    ...\n      SUB \t\t\tress is blacklisted\");\\r\\n    ...\n      SWAP1 \t\t\tress is blacklisted\");\\r\\n    ...\n      RETURN \t\t\tress is blacklisted\");\\r\\n    ...\n    tag 21\t\t\tuint256 public liquidityFee = ...\n      JUMPDEST \t\t\tuint256 public liquidityFee = ...\n      PUSH [tag] 97\t\t\tuint256 public liquidityFee = ...\n      PUSH [tag] 98\t\t\tuint256 public liquidityFee = ...\n      JUMP \t\t\tuint256 public liquidityFee = ...\n    tag 97\t\t\tuint256 public liquidityFee = ...\n      JUMPDEST \t\t\tuint256 public liquidityFee = ...\n      PUSH 40\t\t\tuint256 public liquidityFee = ...\n      MLOAD \t\t\tuint256 public liquidityFee = ...\n      PUSH [tag] 99\t\t\tuint256 public liquidityFee = ...\n      SWAP2 \t\t\tuint256 public liquidityFee = ...\n      SWAP1 \t\t\tuint256 public liquidityFee = ...\n      PUSH [tag] 49\t\t\tuint256 public liquidityFee = ...\n      JUMP \t\t\tuint256 public liquidityFee = ...\n    tag 99\t\t\tuint256 public liquidityFee = ...\n      JUMPDEST \t\t\tuint256 public liquidityFee = ...\n      PUSH 40\t\t\tuint256 public liquidityFee = ...\n      MLOAD \t\t\tuint256 public liquidityFee = ...\n      DUP1 \t\t\tuint256 public liquidityFee = ...\n      SWAP2 \t\t\tuint256 public liquidityFee = ...\n      SUB \t\t\tuint256 public liquidityFee = ...\n      SWAP1 \t\t\tuint256 public liquidityFee = ...\n      RETURN \t\t\tuint256 public liquidityFee = ...\n    tag 22\t\t\t\n      JUMPDEST \t\t\t\n      PUSH [tag] 100\t\t\t\n      PUSH 4\t\t\t\n      DUP1 \t\t\t\n      CALLDATASIZE \t\t\t\n      SUB \t\t\t\n      DUP2 \t\t\t\n      ADD \t\t\t\n      SWAP1 \t\t\t\n      PUSH [tag] 101\t\t\t\n      SWAP2 \t\t\t\n      SWAP1 \t\t\t\n      PUSH [tag] 38\t\t\t\n      JUMP \t\t\t\n    tag 101\t\t\t\n      JUMPDEST \t\t\t\n      PUSH [tag] 102\t\t\t\n      JUMP \t\t\t\n    tag 100\t\t\t\n      JUMPDEST \t\t\t\n      PUSH 40\t\t\t\n      MLOAD \t\t\t\n      PUSH [tag] 103\t\t\t\n      SWAP2 \t\t\t\n      SWAP1 \t\t\t\n      PUSH [tag] 41\t\t\t\n      JUMP \t\t\t\n    tag 103\t\t\t\n      JUMPDEST \t\t\t\n      PUSH 40\t\t\t\n      MLOAD \t\t\t\n      DUP1 \t\t\t\n      SWAP2 \t\t\t\n      SUB \t\t\t\n      SWAP1 \t\t\t\n      RETURN \t\t\t\n    tag 23\t\t\tfunction excludeFromFees(addre...\n      JUMPDEST \t\t\tfunction excludeFromFees(addre...\n      PUSH [tag] 104\t\t\tfunction excludeFromFees(addre...\n      PUSH 4\t\t\tfunction excludeFromFees(addre...\n      DUP1 \t\t\tfunction excludeFromFees(addre...\n      CALLDATASIZE \t\t\tfunction excludeFromFees(addre...\n      SUB \t\t\tfunction excludeFromFees(addre...\n      DUP2 \t\t\tfunction excludeFromFees(addre...\n      ADD \t\t\tfunction excludeFromFees(addre...\n      SWAP1 \t\t\tfunction excludeFromFees(addre...\n      PUSH [tag] 105\t\t\tfunction excludeFromFees(addre...\n      SWAP2 \t\t\tfunction excludeFromFees(addre...\n      SWAP1 \t\t\tfunction excludeFromFees(addre...\n      PUSH [tag] 44\t\t\tfunction excludeFromFees(addre...\n      JUMP \t\t\tfunction excludeFromFees(addre...\n    tag 105\t\t\tfunction excludeFromFees(addre...\n      JUMPDEST \t\t\tfunction excludeFromFees(addre...\n      PUSH [tag] 106\t\t\tfunction excludeFromFees(addre...\n      JUMP \t\t\tfunction excludeFromFees(addre...\n    tag 104\t\t\tfunction excludeFromFees(addre...\n      JUMPDEST \t\t\tfunction excludeFromFees(addre...\n      STOP \t\t\tfunction excludeFromFees(addre...\n    tag 24\t\t\t\n      JUMPDEST \t\t\t\n      PUSH [tag] 107\t\t\t\n      PUSH 4\t\t\t\n      DUP1 \t\t\t\n      CALLDATASIZE \t\t\t\n      SUB \t\t\t\n      DUP2 \t\t\t\n      ADD \t\t\t\n      SWAP1 \t\t\t\n      PUSH [tag] 108\t\t\t\n      SWAP2 \t\t\t\n      SWAP1 \t\t\t\n      PUSH [tag] 109\t\t\t\n      JUMP \t\t\t\n    tag 108\t\t\t\n      JUMPDEST \t\t\t\n      PUSH [tag] 110\t\t\t\n      JUMP \t\t\t\n    tag 107\t\t\t\n      JUMPDEST \t\t\t\n      PUSH 40\t\t\t\n      MLOAD \t\t\t\n      PUSH [tag] 111\t\t\t\n      SWAP2 \t\t\t\n      SWAP1 \t\t\t\n      PUSH [tag] 49\t\t\t\n      JUMP \t\t\t\n    tag 111\t\t\t\n      JUMPDEST \t\t\t\n      PUSH 40\t\t\t\n      MLOAD \t\t\t\n      DUP1 \t\t\t\n      SWAP2 \t\t\t\n      SUB \t\t\t\n      SWAP1 \t\t\t\n      RETURN \t\t\t\n    tag 25\t\t\tfunction setMaxTxAmount(uint25...\n      JUMPDEST \t\t\tfunction setMaxTxAmount(uint25...\n      PUSH [tag] 112\t\t\tfunction setMaxTxAmount(uint25...\n      PUSH 4\t\t\tfunction setMaxTxAmount(uint25...\n      DUP1 \t\t\tfunction setMaxTxAmount(uint25...\n      CALLDATASIZE \t\t\tfunction setMaxTxAmount(uint25...\n      SUB \t\t\tfunction setMaxTxAmount(uint25...\n      DUP2 \t\t\tfunction setMaxTxAmount(uint25...\n      ADD \t\t\tfunction setMaxTxAmount(uint25...\n      SWAP1 \t\t\tfunction setMaxTxAmount(uint25...\n      PUSH [tag] 113\t\t\tfunction setMaxTxAmount(uint25...\n      SWAP2 \t\t\tfunction setMaxTxAmount(uint25...\n      SWAP1 \t\t\tfunction setMaxTxAmount(uint25...\n      PUSH [tag] 114\t\t\tfunction setMaxTxAmount(uint25...\n      JUMP \t\t\tfunction setMaxTxAmount(uint25...\n    tag 113\t\t\tfunction setMaxTxAmount(uint25...\n      JUMPDEST \t\t\tfunction setMaxTxAmount(uint25...\n      PUSH [tag] 115\t\t\tfunction setMaxTxAmount(uint25...\n      JUMP \t\t\tfunction setMaxTxAmount(uint25...\n    tag 112\t\t\tfunction setMaxTxAmount(uint25...\n      JUMPDEST \t\t\tfunction setMaxTxAmount(uint25...\n      STOP \t\t\tfunction setMaxTxAmount(uint25...\n    tag 26\t\t\t    if (burnAmount > 0) {\\r\\n ...\n      JUMPDEST \t\t\t    if (burnAmount > 0) {\\r\\n ...\n      PUSH [tag] 116\t\t\t    if (burnAmount > 0) {\\r\\n ...\n      PUSH 4\t\t\t    if (burnAmount > 0) {\\r\\n ...\n      DUP1 \t\t\t    if (burnAmount > 0) {\\r\\n ...\n      CALLDATASIZE \t\t\t    if (burnAmount > 0) {\\r\\n ...\n      SUB \t\t\t    if (burnAmount > 0) {\\r\\n ...\n      DUP2 \t\t\t    if (burnAmount > 0) {\\r\\n ...\n      ADD \t\t\t    if (burnAmount > 0) {\\r\\n ...\n      SWAP1 \t\t\t    if (burnAmount > 0) {\\r\\n ...\n      PUSH [tag] 117\t\t\t    if (burnAmount > 0) {\\r\\n ...\n      SWAP2 \t\t\t    if (burnAmount > 0) {\\r\\n ...\n      SWAP1 \t\t\t    if (burnAmount > 0) {\\r\\n ...\n      PUSH [tag] 52\t\t\t    if (burnAmount > 0) {\\r\\n ...\n      JUMP \t\t\t    if (burnAmount > 0) {\\r\\n ...\n    tag 117\t\t\t    if (burnAmount > 0) {\\r\\n ...\n      JUMPDEST \t\t\t    if (burnAmount > 0) {\\r\\n ...\n      PUSH [tag] 118\t\t\t    if (burnAmount > 0) {\\r\\n ...\n      JUMP \t\t\t    if (burnAmount > 0) {\\r\\n ...\n    tag 116\t\t\t    if (burnAmount > 0) {\\r\\n ...\n      JUMPDEST \t\t\t    if (burnAmount > 0) {\\r\\n ...\n      STOP \t\t\t    if (burnAmount > 0) {\\r\\n ...\n    tag 27\t\t\tuint256 public burnFee = 2\n      JUMPDEST \t\t\tuint256 public burnFee = 2\n      PUSH [tag] 119\t\t\tuint256 public burnFee = 2\n      PUSH [tag] 120\t\t\tuint256 public burnFee = 2\n      JUMP \t\t\tuint256 public burnFee = 2\n    tag 119\t\t\tuint256 public burnFee = 2\n      JUMPDEST \t\t\tuint256 public burnFee = 2\n      PUSH 40\t\t\tuint256 public burnFee = 2\n      MLOAD \t\t\tuint256 public burnFee = 2\n      PUSH [tag] 121\t\t\tuint256 public burnFee = 2\n      SWAP2 \t\t\tuint256 public burnFee = 2\n      SWAP1 \t\t\tuint256 public burnFee = 2\n      PUSH [tag] 49\t\t\tuint256 public burnFee = 2\n      JUMP \t\t\tuint256 public burnFee = 2\n    tag 121\t\t\tuint256 public burnFee = 2\n      JUMPDEST \t\t\tuint256 public burnFee = 2\n      PUSH 40\t\t\tuint256 public burnFee = 2\n      MLOAD \t\t\tuint256 public burnFee = 2\n      DUP1 \t\t\tuint256 public burnFee = 2\n      SWAP2 \t\t\tuint256 public burnFee = 2\n      SUB \t\t\tuint256 public burnFee = 2\n      SWAP1 \t\t\tuint256 public burnFee = 2\n      RETURN \t\t\tuint256 public burnFee = 2\n    tag 33\t\t\tnlyOwner {\\r\\n        devWalle...\n      JUMPDEST \t\t\tnlyOwner {\\r\\n        devWalle...\n      PUSH 60\t\t\t    }\\r\\n\\r\\n    \n      PUSH 3\t\t\tdress\n      DUP1 \t\t\tdate(address\n      SLOAD \t\t\tdate(address\n      PUSH [tag] 123\t\t\tdate(address\n      SWAP1 \t\t\tdate(address\n      PUSH [tag] 124\t\t\tdate(address\n      JUMP \t\t\tdate(address\n    tag 123\t\t\tdate(address\n      JUMPDEST \t\t\tdate(address\n      DUP1 \t\t\tdate(address\n      PUSH 1F\t\t\tdate(address\n      ADD \t\t\tdate(address\n      PUSH 20\t\t\tdate(address\n      DUP1 \t\t\tdate(address\n      SWAP2 \t\t\tdate(address\n      DIV \t\t\tdate(address\n      MUL \t\t\tdate(address\n      PUSH 20\t\t\tdate(address\n      ADD \t\t\tdate(address\n      PUSH 40\t\t\tdate(address\n      MLOAD \t\t\tdate(address\n      SWAP1 \t\t\tdate(address\n      DUP2 \t\t\tdate(address\n      ADD \t\t\tdate(address\n      PUSH 40\t\t\tdate(address\n      MSTORE \t\t\tdate(address\n      DUP1 \t\t\tdate(address\n      SWAP3 \t\t\tdate(address\n      SWAP2 \t\t\tdate(address\n      SWAP1 \t\t\tdate(address\n      DUP2 \t\t\tdate(address\n      DUP2 \t\t\tdate(address\n      MSTORE \t\t\tdate(address\n      PUSH 20\t\t\tdate(address\n      ADD \t\t\tdate(address\n      DUP3 \t\t\tdate(address\n      DUP1 \t\t\tdate(address\n      SLOAD \t\t\tdate(address\n      PUSH [tag] 125\t\t\tdate(address\n      SWAP1 \t\t\tdate(address\n      PUSH [tag] 124\t\t\tdate(address\n      JUMP \t\t\tdate(address\n    tag 125\t\t\tdate(address\n      JUMPDEST \t\t\tdate(address\n      DUP1 \t\t\tdate(address\n      ISZERO \t\t\tdate(address\n      PUSH [tag] 126\t\t\tdate(address\n      JUMPI \t\t\tdate(address\n      DUP1 \t\t\tdate(address\n      PUSH 1F\t\t\tdate(address\n      LT \t\t\tdate(address\n      PUSH [tag] 127\t\t\tdate(address\n      JUMPI \t\t\tdate(address\n      PUSH 100\t\t\tdate(address\n      DUP1 \t\t\tdate(address\n      DUP4 \t\t\tdate(address\n      SLOAD \t\t\tdate(address\n      DIV \t\t\tdate(address\n      MUL \t\t\tdate(address\n      DUP4 \t\t\tdate(address\n      MSTORE \t\t\tdate(address\n      SWAP2 \t\t\tdate(address\n      PUSH 20\t\t\tdate(address\n      ADD \t\t\tdate(address\n      SWAP2 \t\t\tdate(address\n      PUSH [tag] 126\t\t\tdate(address\n      JUMP \t\t\tdate(address\n    tag 127\t\t\tdate(address\n      JUMPDEST \t\t\tdate(address\n      DUP3 \t\t\tdate(address\n      ADD \t\t\tdate(address\n      SWAP2 \t\t\tdate(address\n      SWAP1 \t\t\tdate(address\n      PUSH 0\t\t\tdate(address\n      MSTORE \t\t\tdate(address\n      PUSH 20\t\t\tdate(address\n      PUSH 0\t\t\tdate(address\n      KECCAK256 \t\t\tdate(address\n      SWAP1 \t\t\tdate(address\n    tag 128\t\t\tdate(address\n      JUMPDEST \t\t\tdate(address\n      DUP2 \t\t\tdate(address\n      SLOAD \t\t\tdate(address\n      DUP2 \t\t\tdate(address\n      MSTORE \t\t\tdate(address\n      SWAP1 \t\t\tdate(address\n      PUSH 1\t\t\tdate(address\n      ADD \t\t\tdate(address\n      SWAP1 \t\t\tdate(address\n      PUSH 20\t\t\tdate(address\n      ADD \t\t\tdate(address\n      DUP1 \t\t\tdate(address\n      DUP4 \t\t\tdate(address\n      GT \t\t\tdate(address\n      PUSH [tag] 128\t\t\tdate(address\n      JUMPI \t\t\tdate(address\n      DUP3 \t\t\tdate(address\n      SWAP1 \t\t\tdate(address\n      SUB \t\t\tdate(address\n      PUSH 1F\t\t\tdate(address\n      AND \t\t\tdate(address\n      DUP3 \t\t\tdate(address\n      ADD \t\t\tdate(address\n      SWAP2 \t\t\tdate(address\n    tag 126\t\t\tdate(address\n      JUMPDEST \t\t\tdate(address\n      POP \t\t\tdate(address\n      POP \t\t\tdate(address\n      POP \t\t\tdate(address\n      POP \t\t\tdate(address\n      POP \t\t\tdate(address\n      SWAP1 \t\t\tdate(address\n      POP \t\t\tdate(address\n      SWAP1 \t\t\tnlyOwner {\\r\\n        devWalle...\n      JUMP \t\t\tnlyOwner {\\r\\n        devWalle...\n    tag 39\t\t\t\n      JUMPDEST \t\t\t\n      PUSH 0\t\t\t\n      PUSH 0\t\t\t\n      PUSH [tag] 130\t\t\t\n      PUSH [tag] 131\t\t\t\n      JUMP \t\t\t\n    tag 130\t\t\t\n      JUMPDEST \t\t\t\n      SWAP1 \t\t\t\n      POP \t\t\t\n      PUSH [tag] 132\t\t\t\n      DUP2 \t\t\t\n      DUP6 \t\t\t\n      DUP6 \t\t\t\n      PUSH [tag] 133\t\t\t\n      JUMP \t\t\t\n    tag 132\t\t\t\n      JUMPDEST \t\t\t\n      PUSH 1\t\t\t\n      SWAP2 \t\t\t\n      POP \t\t\t\n      POP \t\t\t\n      SWAP3 \t\t\t\n      SWAP2 \t\t\t\n      POP \t\t\t\n      POP \t\t\t\n      JUMP \t\t\t\n    tag 45\t\t\tfunction setBlacklist(address ...\n      JUMPDEST \t\t\tfunction setBlacklist(address ...\n      PUSH [tag] 135\t\t\t       devFee\n      PUSH [tag] 136\t\t\t       devF\n      JUMP \t\t\t       devFee\n    tag 135\t\t\t       devFee\n      JUMPDEST \t\t\t       devFee\n      DUP1 \t\t\tstatus\n      PUSH 6\t\t\tisBlacklisted\n      PUSH 0\t\t\tisBlacklisted[account]\n      DUP5 \t\t\taccount\n      PUSH FFFFFFFFFFFFFFFFFFFFFFFFFFFFFFFFFFFFFFFF\t\t\tisBlacklisted[account]\n      AND \t\t\tisBlacklisted[account]\n      PUSH FFFFFFFFFFFFFFFFFFFFFFFFFFFFFFFFFFFFFFFF\t\t\tisBlacklisted[account]\n      AND \t\t\tisBlacklisted[account]\n      DUP2 \t\t\tisBlacklisted[account]\n      MSTORE \t\t\tisBlacklisted[account]\n      PUSH 20\t\t\tisBlacklisted[account]\n      ADD \t\t\tisBlacklisted[account]\n      SWAP1 \t\t\tisBlacklisted[account]\n      DUP2 \t\t\tisBlacklisted[account]\n      MSTORE \t\t\tisBlacklisted[account]\n      PUSH 20\t\t\tisBlacklisted[account]\n      ADD \t\t\tisBlacklisted[account]\n      PUSH 0\t\t\tisBlacklisted[account]\n      KECCAK256 \t\t\tisBlacklisted[account]\n      PUSH 0\t\t\tisBlacklisted[account]\n      PUSH 100\t\t\tisBlacklisted[account] = statu...\n      EXP \t\t\tisBlacklisted[account] = statu...\n      DUP2 \t\t\tisBlacklisted[account] = statu...\n      SLOAD \t\t\tisBlacklisted[account] = statu...\n      DUP2 \t\t\tisBlacklisted[account] = statu...\n      PUSH FF\t\t\tisBlacklisted[account] = statu...\n      MUL \t\t\tisBlacklisted[account] = statu...\n      NOT \t\t\tisBlacklisted[account] = statu...\n      AND \t\t\tisBlacklisted[account] = statu...\n      SWAP1 \t\t\tisBlacklisted[account] = statu...\n      DUP4 \t\t\tisBlacklisted[account] = statu...\n      ISZERO \t\t\tisBlacklisted[account] = statu...\n      ISZERO \t\t\tisBlacklisted[account] = statu...\n      MUL \t\t\tisBlacklisted[account] = statu...\n      OR \t\t\tisBlacklisted[account] = statu...\n      SWAP1 \t\t\tisBlacklisted[account] = statu...\n      SSTORE \t\t\tisBlacklisted[account] = statu...\n      POP \t\t\tisBlacklisted[account] = statu...\n      POP \t\t\tfunction setBlacklist(address ...\n      POP \t\t\tfunction setBlacklist(address ...\n      JUMP \t\t\tfunction setBlacklist(address ...\n    tag 47\t\t\t\n      JUMPDEST \t\t\t\n      PUSH 0\t\t\t\n      PUSH 2\t\t\t\n      SLOAD \t\t\t\n      SWAP1 \t\t\t\n      POP \t\t\t\n      SWAP1 \t\t\t\n      JUMP \t\t\t\n    tag 53\t\t\tfunction setDevWallet(address ...\n      JUMPDEST \t\t\tfunction setDevWallet(address ...\n      PUSH [tag] 140\t\t\t       devFee\n      PUSH [tag] 136\t\t\t       devF\n      JUMP \t\t\t       devFee\n    tag 140\t\t\t       devFee\n      JUMPDEST \t\t\t       devFee\n      DUP1 \t\t\t_devWallet\n      PUSH D\t\t\tdevWallet\n      PUSH 1\t\t\tdevWallet\n      PUSH 100\t\t\tdevWallet = _devWallet\n      EXP \t\t\tdevWallet = _devWallet\n      DUP2 \t\t\tdevWallet = _devWallet\n      SLOAD \t\t\tdevWallet = _devWallet\n      DUP2 \t\t\tdevWallet = _devWallet\n      PUSH FFFFFFFFFFFFFFFFFFFFFFFFFFFFFFFFFFFFFFFF\t\t\tdevWallet = _devWallet\n      MUL \t\t\tdevWallet = _devWallet\n      NOT \t\t\tdevWallet = _devWallet\n      AND \t\t\tdevWallet = _devWallet\n      SWAP1 \t\t\tdevWallet = _devWallet\n      DUP4 \t\t\tdevWallet = _devWallet\n      PUSH FFFFFFFFFFFFFFFFFFFFFFFFFFFFFFFFFFFFFFFF\t\t\tdevWallet = _devWallet\n      AND \t\t\tdevWallet = _devWallet\n      MUL \t\t\tdevWallet = _devWallet\n      OR \t\t\tdevWallet = _devWallet\n      SWAP1 \t\t\tdevWallet = _devWallet\n      SSTORE \t\t\tdevWallet = _devWallet\n      POP \t\t\tdevWallet = _devWallet\n      POP \t\t\tfunction setDevWallet(address ...\n      JUMP \t\t\tfunction setDevWallet(address ...\n    tag 57\t\t\t\n      JUMPDEST \t\t\t\n      PUSH 0\t\t\t\n      PUSH 0\t\t\t\n      PUSH [tag] 143\t\t\t\n      PUSH [tag] 131\t\t\t\n      JUMP \t\t\t\n    tag 143\t\t\t\n      JUMPDEST \t\t\t\n      SWAP1 \t\t\t\n      POP \t\t\t\n      PUSH [tag] 144\t\t\t\n      DUP6 \t\t\t\n      DUP3 \t\t\t\n      DUP6 \t\t\t\n      PUSH [tag] 145\t\t\t\n      JUMP \t\t\t\n    tag 144\t\t\t\n      JUMPDEST \t\t\t\n      PUSH [tag] 146\t\t\t\n      DUP6 \t\t\t\n      DUP6 \t\t\t\n      DUP6 \t\t\t\n      PUSH [tag] 147\t\t\t\n      JUMP \t\t\t\n    tag 146\t\t\t\n      JUMPDEST \t\t\t\n      PUSH 1\t\t\t\n      SWAP2 \t\t\t\n      POP \t\t\t\n      POP \t\t\t\n      SWAP4 \t\t\t\n      SWAP3 \t\t\t\n      POP \t\t\t\n      POP \t\t\t\n      POP \t\t\t\n      JUMP \t\t\t\n    tag 60\t\t\t      }\\r\\n\\r\\n        super._...\n      JUMPDEST \t\t\t      }\\r\\n\\r\\n        super._...\n      PUSH 0\t\t\tount)\n      PUSH 12\t\t\t\n      SWAP1 \t\t\t\n      POP \t\t\t\n      SWAP1 \t\t\t      }\\r\\n\\r\\n        super._...\n      JUMP \t\t\t      }\\r\\n\\r\\n        super._...\n    tag 64\t\t\tbool public tradingEnabled = f...\n      JUMPDEST \t\t\tbool public tradingEnabled = f...\n      PUSH D\t\t\tbool public tradingEnabled = f...\n      PUSH 0\t\t\tbool public tradingEnabled = f...\n      SWAP1 \t\t\tbool public tradingEnabled = f...\n      SLOAD \t\t\tbool public tradingEnabled = f...\n      SWAP1 \t\t\tbool public tradingEnabled = f...\n      PUSH 100\t\t\tbool public tradingEnabled = f...\n      EXP \t\t\tbool public tradingEnabled = f...\n      SWAP1 \t\t\tbool public tradingEnabled = f...\n      DIV \t\t\tbool public tradingEnabled = f...\n      PUSH FF\t\t\tbool public tradingEnabled = f...\n      AND \t\t\tbool public tradingEnabled = f...\n      DUP2 \t\t\tbool public tradingEnabled = f...\n      JUMP \t\t\tbool public tradingEnabled = f...\n    tag 67\t\t\tuint256 public devFee = 1\n      JUMPDEST \t\t\tuint256 public devFee = 1\n      PUSH A\t\t\tuint256 public devFee = 1\n      SLOAD \t\t\tuint256 public devFee = 1\n      DUP2 \t\t\tuint256 public devFee = 1\n      JUMP \t\t\tuint256 public devFee = 1\n    tag 72\t\t\tfunction setFees(uint256 _burn...\n      JUMPDEST \t\t\tfunction setFees(uint256 _burn...\n      PUSH [tag] 150\t\t\t       devFee\n      PUSH [tag] 136\t\t\t       devF\n      JUMP \t\t\t       devFee\n    tag 150\t\t\t       devFee\n      JUMPDEST \t\t\t       devFee\n      DUP4 \t\t\t_burnFee\n      PUSH 8\t\t\tburnFee\n      DUP2 \t\t\tburnFee = _burnFee\n      SWAP1 \t\t\tburnFee = _burnFee\n      SSTORE \t\t\tburnFee = _burnFee\n      POP \t\t\tburnFee = _burnFee\n      DUP3 \t\t\t_rewardFee\n      PUSH 9\t\t\trewardFee\n      DUP2 \t\t\trewardFee = _rewardFee\n      SWAP1 \t\t\trewardFee = _rewardFee\n      SSTORE \t\t\trewardFee = _rewardFee\n      POP \t\t\trewardFee = _rewardFee\n      DUP2 \t\t\t_devFee\n      PUSH A\t\t\tdevFee\n      DUP2 \t\t\tdevFee = _devFee\n      SWAP1 \t\t\tdevFee = _devFee\n      SSTORE \t\t\tdevFee = _devFee\n      POP \t\t\tdevFee = _devFee\n      DUP1 \t\t\t_liquidityFee\n      PUSH B\t\t\tliquidityFee\n      DUP2 \t\t\tliquidityFee = _liquidityFee\n      SWAP1 \t\t\tliquidityFee = _liquidityFee\n      SSTORE \t\t\tliquidityFee = _liquidityFee\n      POP \t\t\tliquidityFee = _liquidityFee\n      POP \t\t\tfunction setFees(uint256 _burn...\n      POP \t\t\tfunction setFees(uint256 _burn...\n      POP \t\t\tfunction setFees(uint256 _burn...\n      POP \t\t\tfunction setFees(uint256 _burn...\n      JUMP \t\t\tfunction setFees(uint256 _burn...\n    tag 75\t\t\t\n      JUMPDEST \t\t\t\n      PUSH 0\t\t\t\n      PUSH 0\t\t\t\n      PUSH 0\t\t\t\n      DUP4 \t\t\t\n      PUSH FFFFFFFFFFFFFFFFFFFFFFFFFFFFFFFFFFFFFFFF\t\t\t\n      AND \t\t\t\n      PUSH FFFFFFFFFFFFFFFFFFFFFFFFFFFFFFFFFFFFFFFF\t\t\t\n      AND \t\t\t\n      DUP2 \t\t\t\n      MSTORE \t\t\t\n      PUSH 20\t\t\t\n      ADD \t\t\t\n      SWAP1 \t\t\t\n      DUP2 \t\t\t\n      MSTORE \t\t\t\n      PUSH 20\t\t\t\n      ADD \t\t\t\n      PUSH 0\t\t\t\n      KECCAK256 \t\t\t\n      SLOAD \t\t\t\n      SWAP1 \t\t\t\n      POP \t\t\t\n      SWAP2 \t\t\t\n      SWAP1 \t\t\t\n      POP \t\t\t\n      JUMP \t\t\t\n    tag 78\t\t\tamount * rewardFee) / 100;\\r\\n...\n      JUMPDEST \t\t\tamount * rewardFee) / 100;\\r\\n...\n      PUSH [tag] 154\t\t\t       devFee\n      PUSH [tag] 136\t\t\t       devF\n      JUMP \t\t\t       devFee\n    tag 154\t\t\t       devFee\n      JUMPDEST \t\t\t       devFee\n      PUSH [tag] 156\t\t\t* devFee) / 100;\\r\\n        ui...\n      PUSH 0\t\t\ti\n      PUSH [tag] 157\t\t\t* devFee) / 100;\\r\\n\n      JUMP \t\t\t* devFee) / 100;\\r\\n        ui...\n    tag 156\t\t\t* devFee) / 100;\\r\\n        ui...\n      JUMPDEST \t\t\t* devFee) / 100;\\r\\n        ui...\n      JUMP \t\t\tamount * rewardFee) / 100;\\r\\n...\n    tag 80\t\t\tfunction enableTrading() exter...\n      JUMPDEST \t\t\tfunction enableTrading() exter...\n      PUSH [tag] 159\t\t\t       devFee\n      PUSH [tag] 136\t\t\t       devF\n      JUMP \t\t\t       devFee\n    tag 159\t\t\t       devFee\n      JUMPDEST \t\t\t       devFee\n      PUSH 1\t\t\ttrue\n      PUSH D\t\t\ttradingEnabled\n      PUSH 0\t\t\ttradingEnabled\n      PUSH 100\t\t\ttradingEnabled = true\n      EXP \t\t\ttradingEnabled = true\n      DUP2 \t\t\ttradingEnabled = true\n      SLOAD \t\t\ttradingEnabled = true\n      DUP2 \t\t\ttradingEnabled = true\n      PUSH FF\t\t\ttradingEnabled = true\n      MUL \t\t\ttradingEnabled = true\n      NOT \t\t\ttradingEnabled = true\n      AND \t\t\ttradingEnabled = true\n      SWAP1 \t\t\ttradingEnabled = true\n      DUP4 \t\t\ttradingEnabled = true\n      ISZERO \t\t\ttradingEnabled = true\n      ISZERO \t\t\ttradingEnabled = true\n      MUL \t\t\ttradingEnabled = true\n      OR \t\t\ttradingEnabled = true\n      SWAP1 \t\t\ttradingEnabled = true\n      SSTORE \t\t\ttradingEnabled = true\n      POP \t\t\ttradingEnabled = true\n      JUMP \t\t\tfunction enableTrading() exter...\n    tag 82\t\t\tuint256 public rewardFee = 1\n      JUMPDEST \t\t\tuint256 public rewardFee = 1\n      PUSH 9\t\t\tuint256 public rewardFee = 1\n      SLOAD \t\t\tuint256 public rewardFee = 1\n      DUP2 \t\t\tuint256 public rewardFee = 1\n      JUMP \t\t\tuint256 public rewardFee = 1\n    tag 85\t\t\tuint256 public maxTxAmount\n      JUMPDEST \t\t\tuint256 public maxTxAmount\n      PUSH C\t\t\tuint256 public maxTxAmount\n      SLOAD \t\t\tuint256 public maxTxAmount\n      DUP2 \t\t\tuint256 public maxTxAmount\n      JUMP \t\t\tuint256 public maxTxAmount\n    tag 88\t\t\t56 _maxTxAmount) external only...\n      JUMPDEST \t\t\t56 _maxTxAmount) external only...\n      PUSH 0\t\t\t maxTxA\n      PUSH 5\t\t\tt;\\r\\n  \n      PUSH 0\t\t\tt;\\r\\n  \n      SWAP1 \t\t\tt;\\r\\n  \n      SLOAD \t\t\tt;\\r\\n  \n      SWAP1 \t\t\tt;\\r\\n  \n      PUSH 100\t\t\tt;\\r\\n  \n      EXP \t\t\tt;\\r\\n  \n      SWAP1 \t\t\tt;\\r\\n  \n      DIV \t\t\tt;\\r\\n  \n      PUSH FFFFFFFFFFFFFFFFFFFFFFFFFFFFFFFFFFFFFFFF\t\t\tt;\\r\\n  \n      AND \t\t\tt;\\r\\n  \n      SWAP1 \t\t\tTxAmount;\\r\\n  \n      POP \t\t\tTxAmount;\\r\\n  \n      SWAP1 \t\t\t56 _maxTxAmount) external only...\n      JUMP \t\t\t56 _maxTxAmount) external only...\n    tag 92\t\t\taddress public devWallet\n      JUMPDEST \t\t\taddress public devWallet\n      PUSH D\t\t\taddress public devWallet\n      PUSH 1\t\t\taddress public devWallet\n      SWAP1 \t\t\taddress public devWallet\n      SLOAD \t\t\taddress public devWallet\n      SWAP1 \t\t\taddress public devWallet\n      PUSH 100\t\t\taddress public devWallet\n      EXP \t\t\taddress public devWallet\n      SWAP1 \t\t\taddress public devWallet\n      DIV \t\t\taddress public devWallet\n      PUSH FFFFFFFFFFFFFFFFFFFFFFFFFFFFFFFFFFFFFFFF\t\t\taddress public devWallet\n      AND \t\t\taddress public devWallet\n      DUP2 \t\t\taddress public devWallet\n      JUMP \t\t\taddress public devWallet\n    tag 95\t\t\tress is blacklisted\");\\r\\n    ...\n      JUMPDEST \t\t\tress is blacklisted\");\\r\\n    ...\n      PUSH 60\t\t\tEnabled || is\n      PUSH 4\t\t\tom], \"T\n      DUP1 \t\t\tFees[from], \"T\n      SLOAD \t\t\tFees[from], \"T\n      PUSH [tag] 163\t\t\tFees[from], \"T\n      SWAP1 \t\t\tFees[from], \"T\n      PUSH [tag] 124\t\t\tFees[from], \"T\n      JUMP \t\t\tFees[from], \"T\n    tag 163\t\t\tFees[from], \"T\n      JUMPDEST \t\t\tFees[from], \"T\n      DUP1 \t\t\tFees[from], \"T\n      PUSH 1F\t\t\tFees[from], \"T\n      ADD \t\t\tFees[from], \"T\n      PUSH 20\t\t\tFees[from], \"T\n      DUP1 \t\t\tFees[from], \"T\n      SWAP2 \t\t\tFees[from], \"T\n      DIV \t\t\tFees[from], \"T\n      MUL \t\t\tFees[from], \"T\n      PUSH 20\t\t\tFees[from], \"T\n      ADD \t\t\tFees[from], \"T\n      PUSH 40\t\t\tFees[from], \"T\n      MLOAD \t\t\tFees[from], \"T\n      SWAP1 \t\t\tFees[from], \"T\n      DUP2 \t\t\tFees[from], \"T\n      ADD \t\t\tFees[from], \"T\n      PUSH 40\t\t\tFees[from], \"T\n      MSTORE \t\t\tFees[from], \"T\n      DUP1 \t\t\tFees[from], \"T\n      SWAP3 \t\t\tFees[from], \"T\n      SWAP2 \t\t\tFees[from], \"T\n      SWAP1 \t\t\tFees[from], \"T\n      DUP2 \t\t\tFees[from], \"T\n      DUP2 \t\t\tFees[from], \"T\n      MSTORE \t\t\tFees[from], \"T\n      PUSH 20\t\t\tFees[from], \"T\n      ADD \t\t\tFees[from], \"T\n      DUP3 \t\t\tFees[from], \"T\n      DUP1 \t\t\tFees[from], \"T\n      SLOAD \t\t\tFees[from], \"T\n      PUSH [tag] 164\t\t\tFees[from], \"T\n      SWAP1 \t\t\tFees[from], \"T\n      PUSH [tag] 124\t\t\tFees[from], \"T\n      JUMP \t\t\tFees[from], \"T\n    tag 164\t\t\tFees[from], \"T\n      JUMPDEST \t\t\tFees[from], \"T\n      DUP1 \t\t\tFees[from], \"T\n      ISZERO \t\t\tFees[from], \"T\n      PUSH [tag] 165\t\t\tFees[from], \"T\n      JUMPI \t\t\tFees[from], \"T\n      DUP1 \t\t\tFees[from], \"T\n      PUSH 1F\t\t\tFees[from], \"T\n      LT \t\t\tFees[from], \"T\n      PUSH [tag] 166\t\t\tFees[from], \"T\n      JUMPI \t\t\tFees[from], \"T\n      PUSH 100\t\t\tFees[from], \"T\n      DUP1 \t\t\tFees[from], \"T\n      DUP4 \t\t\tFees[from], \"T\n      SLOAD \t\t\tFees[from], \"T\n      DIV \t\t\tFees[from], \"T\n      MUL \t\t\tFees[from], \"T\n      DUP4 \t\t\tFees[from], \"T\n      MSTORE \t\t\tFees[from], \"T\n      SWAP2 \t\t\tFees[from], \"T\n      PUSH 20\t\t\tFees[from], \"T\n      ADD \t\t\tFees[from], \"T\n      SWAP2 \t\t\tFees[from], \"T\n      PUSH [tag] 165\t\t\tFees[from], \"T\n      JUMP \t\t\tFees[from], \"T\n    tag 166\t\t\tFees[from], \"T\n      JUMPDEST \t\t\tFees[from], \"T\n      DUP3 \t\t\tFees[from], \"T\n      ADD \t\t\tFees[from], \"T\n      SWAP2 \t\t\tFees[from], \"T\n      SWAP1 \t\t\tFees[from], \"T\n      PUSH 0\t\t\tFees[from], \"T\n      MSTORE \t\t\tFees[from], \"T\n      PUSH 20\t\t\tFees[from], \"T\n      PUSH 0\t\t\tFees[from], \"T\n      KECCAK256 \t\t\tFees[from], \"T\n      SWAP1 \t\t\tFees[from], \"T\n    tag 167\t\t\tFees[from], \"T\n      JUMPDEST \t\t\tFees[from], \"T\n      DUP2 \t\t\tFees[from], \"T\n      SLOAD \t\t\tFees[from], \"T\n      DUP2 \t\t\tFees[from], \"T\n      MSTORE \t\t\tFees[from], \"T\n      SWAP1 \t\t\tFees[from], \"T\n      PUSH 1\t\t\tFees[from], \"T\n      ADD \t\t\tFees[from], \"T\n      SWAP1 \t\t\tFees[from], \"T\n      PUSH 20\t\t\tFees[from], \"T\n      ADD \t\t\tFees[from], \"T\n      DUP1 \t\t\tFees[from], \"T\n      DUP4 \t\t\tFees[from], \"T\n      GT \t\t\tFees[from], \"T\n      PUSH [tag] 167\t\t\tFees[from], \"T\n      JUMPI \t\t\tFees[from], \"T\n      DUP3 \t\t\tFees[from], \"T\n      SWAP1 \t\t\tFees[from], \"T\n      SUB \t\t\tFees[from], \"T\n      PUSH 1F\t\t\tFees[from], \"T\n      AND \t\t\tFees[from], \"T\n      DUP3 \t\t\tFees[from], \"T\n      ADD \t\t\tFees[from], \"T\n      SWAP2 \t\t\tFees[from], \"T\n    tag 165\t\t\tFees[from], \"T\n      JUMPDEST \t\t\tFees[from], \"T\n      POP \t\t\tFees[from], \"T\n      POP \t\t\tFees[from], \"T\n      POP \t\t\tFees[from], \"T\n      POP \t\t\tFees[from], \"T\n      POP \t\t\tFees[from], \"T\n      SWAP1 \t\t\tFees[from], \"T\n      POP \t\t\tFees[from], \"T\n      SWAP1 \t\t\tress is blacklisted\");\\r\\n    ...\n      JUMP \t\t\tress is blacklisted\");\\r\\n    ...\n    tag 98\t\t\tuint256 public liquidityFee = ...\n      JUMPDEST \t\t\tuint256 public liquidityFee = ...\n      PUSH B\t\t\tuint256 public liquidityFee = ...\n      SLOAD \t\t\tuint256 public liquidityFee = ...\n      DUP2 \t\t\tuint256 public liquidityFee = ...\n      JUMP \t\t\tuint256 public liquidityFee = ...\n    tag 102\t\t\t\n      JUMPDEST \t\t\t\n      PUSH 0\t\t\t\n      PUSH 0\t\t\t\n      PUSH [tag] 169\t\t\t\n      PUSH [tag] 131\t\t\t\n      JUMP \t\t\t\n    tag 169\t\t\t\n      JUMPDEST \t\t\t\n      SWAP1 \t\t\t\n      POP \t\t\t\n      PUSH [tag] 170\t\t\t\n      DUP2 \t\t\t\n      DUP6 \t\t\t\n      DUP6 \t\t\t\n      PUSH [tag] 147\t\t\t\n      JUMP \t\t\t\n    tag 170\t\t\t\n      JUMPDEST \t\t\t\n      PUSH 1\t\t\t\n      SWAP2 \t\t\t\n      POP \t\t\t\n      POP \t\t\t\n      SWAP3 \t\t\t\n      SWAP2 \t\t\t\n      POP \t\t\t\n      POP \t\t\t\n      JUMP \t\t\t\n    tag 106\t\t\tfunction excludeFromFees(addre...\n      JUMPDEST \t\t\tfunction excludeFromFees(addre...\n      PUSH [tag] 172\t\t\t       devFee\n      PUSH [tag] 136\t\t\t       devF\n      JUMP \t\t\t       devFee\n    tag 172\t\t\t       devFee\n      JUMPDEST \t\t\t       devFee\n      DUP1 \t\t\tstatus\n      PUSH 7\t\t\tisExcludedFromFees\n      PUSH 0\t\t\tisExcludedFromFees[account]\n      DUP5 \t\t\taccount\n      PUSH FFFFFFFFFFFFFFFFFFFFFFFFFFFFFFFFFFFFFFFF\t\t\tisExcludedFromFees[account]\n      AND \t\t\tisExcludedFromFees[account]\n      PUSH FFFFFFFFFFFFFFFFFFFFFFFFFFFFFFFFFFFFFFFF\t\t\tisExcludedFromFees[account]\n      AND \t\t\tisExcludedFromFees[account]\n      DUP2 \t\t\tisExcludedFromFees[account]\n      MSTORE \t\t\tisExcludedFromFees[account]\n      PUSH 20\t\t\tisExcludedFromFees[account]\n      ADD \t\t\tisExcludedFromFees[account]\n      SWAP1 \t\t\tisExcludedFromFees[account]\n      DUP2 \t\t\tisExcludedFromFees[account]\n      MSTORE \t\t\tisExcludedFromFees[account]\n      PUSH 20\t\t\tisExcludedFromFees[account]\n      ADD \t\t\tisExcludedFromFees[account]\n      PUSH 0\t\t\tisExcludedFromFees[account]\n      KECCAK256 \t\t\tisExcludedFromFees[account]\n      PUSH 0\t\t\tisExcludedFromFees[account]\n      PUSH 100\t\t\tisExcludedFromFees[account] = ...\n      EXP \t\t\tisExcludedFromFees[account] = ...\n      DUP2 \t\t\tisExcludedFromFees[account] = ...\n      SLOAD \t\t\tisExcludedFromFees[account] = ...\n      DUP2 \t\t\tisExcludedFromFees[account] = ...\n      PUSH FF\t\t\tisExcludedFromFees[account] = ...\n      MUL \t\t\tisExcludedFromFees[account] = ...\n      NOT \t\t\tisExcludedFromFees[account] = ...\n      AND \t\t\tisExcludedFromFees[account] = ...\n      SWAP1 \t\t\tisExcludedFromFees[account] = ...\n      DUP4 \t\t\tisExcludedFromFees[account] = ...\n      ISZERO \t\t\tisExcludedFromFees[account] = ...\n      ISZERO \t\t\tisExcludedFromFees[account] = ...\n      MUL \t\t\tisExcludedFromFees[account] = ...\n      OR \t\t\tisExcludedFromFees[account] = ...\n      SWAP1 \t\t\tisExcludedFromFees[account] = ...\n      SSTORE \t\t\tisExcludedFromFees[account] = ...\n      POP \t\t\tisExcludedFromFees[account] = ...\n      POP \t\t\tfunction excludeFromFees(addre...\n      POP \t\t\tfunction excludeFromFees(addre...\n      JUMP \t\t\tfunction excludeFromFees(addre...\n    tag 110\t\t\t\n      JUMPDEST \t\t\t\n      PUSH 0\t\t\t\n      PUSH 1\t\t\t\n      PUSH 0\t\t\t\n      DUP5 \t\t\t\n      PUSH FFFFFFFFFFFFFFFFFFFFFFFFFFFFFFFFFFFFFFFF\t\t\t\n      AND \t\t\t\n      PUSH FFFFFFFFFFFFFFFFFFFFFFFFFFFFFFFFFFFFFFFF\t\t\t\n      AND \t\t\t\n      DUP2 \t\t\t\n      MSTORE \t\t\t\n      PUSH 20\t\t\t\n      ADD \t\t\t\n      SWAP1 \t\t\t\n      DUP2 \t\t\t\n      MSTORE \t\t\t\n      PUSH 20\t\t\t\n      ADD \t\t\t\n      PUSH 0\t\t\t\n      KECCAK256 \t\t\t\n      PUSH 0\t\t\t\n      DUP4 \t\t\t\n      PUSH FFFFFFFFFFFFFFFFFFFFFFFFFFFFFFFFFFFFFFFF\t\t\t\n      AND \t\t\t\n      PUSH FFFFFFFFFFFFFFFFFFFFFFFFFFFFFFFFFFFFFFFF\t\t\t\n      AND \t\t\t\n      DUP2 \t\t\t\n      MSTORE \t\t\t\n      PUSH 20\t\t\t\n      ADD \t\t\t\n      SWAP1 \t\t\t\n      DUP2 \t\t\t\n      MSTORE \t\t\t\n      PUSH 20\t\t\t\n      ADD \t\t\t\n      PUSH 0\t\t\t\n      KECCAK256 \t\t\t\n      SLOAD \t\t\t\n      SWAP1 \t\t\t\n      POP \t\t\t\n      SWAP3 \t\t\t\n      SWAP2 \t\t\t\n      POP \t\t\t\n      POP \t\t\t\n      JUMP \t\t\t\n    tag 115\t\t\tfunction setMaxTxAmount(uint25...\n      JUMPDEST \t\t\tfunction setMaxTxAmount(uint25...\n      PUSH [tag] 176\t\t\t       devFee\n      PUSH [tag] 136\t\t\t       devF\n      JUMP \t\t\t       devFee\n    tag 176\t\t\t       devFee\n      JUMPDEST \t\t\t       devFee\n      DUP1 \t\t\t_maxTxAmount\n      PUSH C\t\t\tmaxTxAmount\n      DUP2 \t\t\tmaxTxAmount = _maxTxAmount\n      SWAP1 \t\t\tmaxTxAmount = _maxTxAmount\n      SSTORE \t\t\tmaxTxAmount = _maxTxAmount\n      POP \t\t\tmaxTxAmount = _maxTxAmount\n      POP \t\t\tfunction setMaxTxAmount(uint25...\n      JUMP \t\t\tfunction setMaxTxAmount(uint25...\n    tag 118\t\t\t    if (burnAmount > 0) {\\r\\n ...\n      JUMPDEST \t\t\t    if (burnAmount > 0) {\\r\\n ...\n      PUSH [tag] 179\t\t\t       devFee\n      PUSH [tag] 136\t\t\t       devF\n      JUMP \t\t\t       devFee\n    tag 179\t\t\t       devFee\n      JUMPDEST \t\t\t       devFee\n      PUSH 0\t\t\t\\r\n      PUSH FFFFFFFFFFFFFFFFFFFFFFFFFFFFFFFFFFFFFFFF\t\t\tif (devAmount > 0) {\\r\\n\n      AND \t\t\tif (devAmount > 0) {\\r\\n\n      DUP2 \t\t\tif (devA\n      PUSH FFFFFFFFFFFFFFFFFFFFFFFFFFFFFFFFFFFFFFFF\t\t\tif (devAmount > 0) {\\r\\n\n      AND \t\t\tif (devAmount > 0) {\\r\\n\n      SUB \t\t\tif (devAmount > 0) {\\r\\n\n      PUSH [tag] 181\t\t\t    if (devAmount > 0) {\\r\\n  ...\n      JUMPI \t\t\t    if (devAmount > 0) {\\r\\n  ...\n      PUSH 0\t\t\tt\n      PUSH 40\t\t\tte(from, devWallet, devAmount)...\n      MLOAD \t\t\tte(from, devWallet, devAmount)...\n      PUSH 1E4FBDF700000000000000000000000000000000000000000000000000000000\t\t\tte(from, devWallet, devAmount)...\n      DUP2 \t\t\tte(from, devWallet, devAmount)...\n      MSTORE \t\t\tte(from, devWallet, devAmount)...\n      PUSH 4\t\t\tte(from, devWallet, devAmount)...\n      ADD \t\t\tte(from, devWallet, devAmount)...\n      PUSH [tag] 182\t\t\tte(from, devWallet, devAmount)...\n      SWAP2 \t\t\tte(from, devWallet, devAmount)...\n      SWAP1 \t\t\tte(from, devWallet, devAmount)...\n      PUSH [tag] 90\t\t\tte(from, devWallet, devAmount)...\n      JUMP \t\t\tte(from, devWallet, devAmount)...\n    tag 182\t\t\tte(from, devWallet, devAmount)...\n      JUMPDEST \t\t\tte(from, devWallet, devAmount)...\n      PUSH 40\t\t\tte(from, devWallet, devAmount)...\n      MLOAD \t\t\tte(from, devWallet, devAmount)...\n      DUP1 \t\t\tte(from, devWallet, devAmount)...\n      SWAP2 \t\t\tte(from, devWallet, devAmount)...\n      SUB \t\t\tte(from, devWallet, devAmount)...\n      SWAP1 \t\t\tte(from, devWallet, devAmount)...\n      REVERT \t\t\tte(from, devWallet, devAmount)...\n    tag 181\t\t\t    if (devAmount > 0) {\\r\\n  ...\n      JUMPDEST \t\t\t    if (devAmount > 0) {\\r\\n  ...\n      PUSH [tag] 183\t\t\t   super._update(from, to, s\n      DUP2 \t\t\tom, to, \n      PUSH [tag] 157\t\t\t   super._update(f\n      JUMP \t\t\t   super._update(from, to, s\n    tag 183\t\t\t   super._update(from, to, s\n      JUMPDEST \t\t\t   super._update(from, to, s\n      POP \t\t\t    if (burnAmount > 0) {\\r\\n ...\n      JUMP \t\t\t    if (burnAmount > 0) {\\r\\n ...\n    tag 120\t\t\tuint256 public burnFee = 2\n      JUMPDEST \t\t\tuint256 public burnFee = 2\n      PUSH 8\t\t\tuint256 public burnFee = 2\n      SLOAD \t\t\tuint256 public burnFee = 2\n      DUP2 \t\t\tuint256 public burnFee = 2\n      JUMP \t\t\tuint256 public burnFee = 2\n    tag 131\t\t\tvWallet;\\r\\n\\r\\n    constructo...\n      JUMPDEST \t\t\tvWallet;\\r\\n\\r\\n    constructo...\n      PUSH 0\t\t\t Ownabl\n      CALLER \t\t\t      uint\n      SWAP1 \t\t\t) {\\r\\n        uint\n      POP \t\t\t) {\\r\\n        uint\n      SWAP1 \t\t\tvWallet;\\r\\n\\r\\n    constructo...\n      JUMP \t\t\tvWallet;\\r\\n\\r\\n    constructo...\n    tag 133\t\t\t\n      JUMPDEST \t\t\t\n      PUSH [tag] 186\t\t\t\n      DUP4 \t\t\t\n      DUP4 \t\t\t\n      DUP4 \t\t\t\n      PUSH 1\t\t\t\n      PUSH [tag] 187\t\t\t\n      JUMP \t\t\t\n    tag 186\t\t\t\n      JUMPDEST \t\t\t\n      POP \t\t\t\n      POP \t\t\t\n      POP \t\t\t\n      JUMP \t\t\t\n    tag 136\t\t\t   devWallet = _devWallet;\\r\\n...\n      JUMPDEST \t\t\t   devWallet = _devWallet;\\r\\n...\n      PUSH [tag] 189\t\t\t, address to\n      PUSH [tag] 131\t\t\t, address \n      JUMP \t\t\t, address to\n    tag 189\t\t\t, address to\n      JUMPDEST \t\t\t, address to\n      PUSH FFFFFFFFFFFFFFFFFFFFFFFFFFFFFFFFFFFFFFFF\t\t\tddress from, address to\n      AND \t\t\tddress from, address to\n      PUSH [tag] 190\t\t\tddress \n      PUSH [tag] 88\t\t\tddres\n      JUMP \t\t\tddress \n    tag 190\t\t\tddress \n      JUMPDEST \t\t\tddress \n      PUSH FFFFFFFFFFFFFFFFFFFFFFFFFFFFFFFFFFFFFFFF\t\t\tddress from, address to\n      AND \t\t\tddress from, address to\n      EQ \t\t\tddress from, address to\n      PUSH [tag] 191\t\t\tte(address from, address to, u...\n      JUMPI \t\t\tte(address from, address to, u...\n      PUSH [tag] 192\t\t\tuire(!isBlac\n      PUSH [tag] 131\t\t\tuire(!isBl\n      JUMP \t\t\tuire(!isBlac\n    tag 192\t\t\tuire(!isBlac\n      JUMPDEST \t\t\tuire(!isBlac\n      PUSH 40\t\t\tnal override {\\r\\n        requ...\n      MLOAD \t\t\tnal override {\\r\\n        requ...\n      PUSH 118CDAA700000000000000000000000000000000000000000000000000000000\t\t\tnal override {\\r\\n        requ...\n      DUP2 \t\t\tnal override {\\r\\n        requ...\n      MSTORE \t\t\tnal override {\\r\\n        requ...\n      PUSH 4\t\t\tnal override {\\r\\n        requ...\n      ADD \t\t\tnal override {\\r\\n        requ...\n      PUSH [tag] 193\t\t\tnal override {\\r\\n        requ...\n      SWAP2 \t\t\tnal override {\\r\\n        requ...\n      SWAP1 \t\t\tnal override {\\r\\n        requ...\n      PUSH [tag] 90\t\t\tnal override {\\r\\n        requ...\n      JUMP \t\t\tnal override {\\r\\n        requ...\n    tag 193\t\t\tnal override {\\r\\n        requ...\n      JUMPDEST \t\t\tnal override {\\r\\n        requ...\n      PUSH 40\t\t\tnal override {\\r\\n        requ...\n      MLOAD \t\t\tnal override {\\r\\n        requ...\n      DUP1 \t\t\tnal override {\\r\\n        requ...\n      SWAP2 \t\t\tnal override {\\r\\n        requ...\n      SUB \t\t\tnal override {\\r\\n        requ...\n      SWAP1 \t\t\tnal override {\\r\\n        requ...\n      REVERT \t\t\tnal override {\\r\\n        requ...\n    tag 191\t\t\tte(address from, address to, u...\n      JUMPDEST \t\t\tte(address from, address to, u...\n      JUMP \t\t\t   devWallet = _devWallet;\\r\\n...\n    tag 145\t\t\t\n      JUMPDEST \t\t\t\n      PUSH 0\t\t\t\n      PUSH [tag] 195\t\t\t\n      DUP5 \t\t\t\n      DUP5 \t\t\t\n      PUSH [tag] 110\t\t\t\n      JUMP \t\t\t\n    tag 195\t\t\t\n      JUMPDEST \t\t\t\n      SWAP1 \t\t\t\n      POP \t\t\t\n      PUSH FFFFFFFFFFFFFFFFFFFFFFFFFFFFFFFFFFFFFFFFFFFFFFFFFFFFFFFFFFFFFFFF\t\t\t\n      DUP2 \t\t\t\n      LT \t\t\t\n      ISZERO \t\t\t\n      PUSH [tag] 196\t\t\t\n      JUMPI \t\t\t\n      DUP2 \t\t\t\n      DUP2 \t\t\t\n      LT \t\t\t\n      ISZERO \t\t\t\n      PUSH [tag] 197\t\t\t\n      JUMPI \t\t\t\n      DUP3 \t\t\t\n      DUP2 \t\t\t\n      DUP4 \t\t\t\n      PUSH 40\t\t\t\n      MLOAD \t\t\t\n      PUSH FB8F41B200000000000000000000000000000000000000000000000000000000\t\t\t\n      DUP2 \t\t\t\n      MSTORE \t\t\t\n      PUSH 4\t\t\t\n      ADD \t\t\t\n      PUSH [tag] 198\t\t\t\n      SWAP4 \t\t\t\n      SWAP3 \t\t\t\n      SWAP2 \t\t\t\n      SWAP1 \t\t\t\n      PUSH [tag] 199\t\t\t\n      JUMP \t\t\t\n    tag 198\t\t\t\n      JUMPDEST \t\t\t\n      PUSH 40\t\t\t\n      MLOAD \t\t\t\n      DUP1 \t\t\t\n      SWAP2 \t\t\t\n      SUB \t\t\t\n      SWAP1 \t\t\t\n      REVERT \t\t\t\n    tag 197\t\t\t\n      JUMPDEST \t\t\t\n      PUSH [tag] 200\t\t\t\n      DUP5 \t\t\t\n      DUP5 \t\t\t\n      DUP5 \t\t\t\n      DUP5 \t\t\t\n      SUB \t\t\t\n      PUSH 0\t\t\t\n      PUSH [tag] 187\t\t\t\n      JUMP \t\t\t\n    tag 200\t\t\t\n      JUMPDEST \t\t\t\n    tag 196\t\t\t\n      JUMPDEST \t\t\t\n      POP \t\t\t\n      POP \t\t\t\n      POP \t\t\t\n      POP \t\t\t\n      JUMP \t\t\t\n    tag 147\t\t\t\n      JUMPDEST \t\t\t\n      PUSH 0\t\t\t\n      PUSH FFFFFFFFFFFFFFFFFFFFFFFFFFFFFFFFFFFFFFFF\t\t\t\n      AND \t\t\t\n      DUP4 \t\t\t\n      PUSH FFFFFFFFFFFFFFFFFFFFFFFFFFFFFFFFFFFFFFFF\t\t\t\n      AND \t\t\t\n      SUB \t\t\t\n      PUSH [tag] 202\t\t\t\n      JUMPI \t\t\t\n      PUSH 0\t\t\t\n      PUSH 40\t\t\t\n      MLOAD \t\t\t\n      PUSH 96C6FD1E00000000000000000000000000000000000000000000000000000000\t\t\t\n      DUP2 \t\t\t\n      MSTORE \t\t\t\n      PUSH 4\t\t\t\n      ADD \t\t\t\n      PUSH [tag] 203\t\t\t\n      SWAP2 \t\t\t\n      SWAP1 \t\t\t\n      PUSH [tag] 90\t\t\t\n      JUMP \t\t\t\n    tag 203\t\t\t\n      JUMPDEST \t\t\t\n      PUSH 40\t\t\t\n      MLOAD \t\t\t\n      DUP1 \t\t\t\n      SWAP2 \t\t\t\n      SUB \t\t\t\n      SWAP1 \t\t\t\n      REVERT \t\t\t\n    tag 202\t\t\t\n      JUMPDEST \t\t\t\n      PUSH 0\t\t\t\n      PUSH FFFFFFFFFFFFFFFFFFFFFFFFFFFFFFFFFFFFFFFF\t\t\t\n      AND \t\t\t\n      DUP3 \t\t\t\n      PUSH FFFFFFFFFFFFFFFFFFFFFFFFFFFFFFFFFFFFFFFF\t\t\t\n      AND \t\t\t\n      SUB \t\t\t\n      PUSH [tag] 204\t\t\t\n      JUMPI \t\t\t\n      PUSH 0\t\t\t\n      PUSH 40\t\t\t\n      MLOAD \t\t\t\n      PUSH EC442F0500000000000000000000000000000000000000000000000000000000\t\t\t\n      DUP2 \t\t\t\n      MSTORE \t\t\t\n      PUSH 4\t\t\t\n      ADD \t\t\t\n      PUSH [tag] 205\t\t\t\n      SWAP2 \t\t\t\n      SWAP1 \t\t\t\n      PUSH [tag] 90\t\t\t\n      JUMP \t\t\t\n    tag 205\t\t\t\n      JUMPDEST \t\t\t\n      PUSH 40\t\t\t\n      MLOAD \t\t\t\n      DUP1 \t\t\t\n      SWAP2 \t\t\t\n      SUB \t\t\t\n      SWAP1 \t\t\t\n      REVERT \t\t\t\n    tag 204\t\t\t\n      JUMPDEST \t\t\t\n      PUSH [tag] 206\t\t\t\n      DUP4 \t\t\t\n      DUP4 \t\t\t\n      DUP4 \t\t\t\n      PUSH [tag] 207\t\t\t\n      JUMP \t\t\t\n    tag 206\t\t\t\n      JUMPDEST \t\t\t\n      POP \t\t\t\n      POP \t\t\t\n      POP \t\t\t\n      JUMP \t\t\t\n    tag 157\t\t\t\n      JUMPDEST \t\t\t\n      PUSH 0\t\t\t\n      PUSH 5\t\t\t\n      PUSH 0\t\t\t\n      SWAP1 \t\t\t\n      SLOAD \t\t\t\n      SWAP1 \t\t\t\n      PUSH 100\t\t\t\n      EXP \t\t\t\n      SWAP1 \t\t\t\n      DIV \t\t\t\n      PUSH FFFFFFFFFFFFFFFFFFFFFFFFFFFFFFFFFFFFFFFF\t\t\t\n      AND \t\t\t\n      SWAP1 \t\t\t\n      POP \t\t\t\n      DUP2 \t\t\t\n      PUSH 5\t\t\t\n      PUSH 0\t\t\t\n      PUSH 100\t\t\t\n      EXP \t\t\t\n      DUP2 \t\t\t\n      SLOAD \t\t\t\n      DUP2 \t\t\t\n      PUSH FFFFFFFFFFFFFFFFFFFFFFFFFFFFFFFFFFFFFFFF\t\t\t\n      MUL \t\t\t\n      NOT \t\t\t\n      AND \t\t\t\n      SWAP1 \t\t\t\n      DUP4 \t\t\t\n      PUSH FFFFFFFFFFFFFFFFFFFFFFFFFFFFFFFFFFFFFFFF\t\t\t\n      AND \t\t\t\n      MUL \t\t\t\n      OR \t\t\t\n      SWAP1 \t\t\t\n      SSTORE \t\t\t\n      POP \t\t\t\n      DUP2 \t\t\t\n      PUSH FFFFFFFFFFFFFFFFFFFFFFFFFFFFFFFFFFFFFFFF\t\t\t\n      AND \t\t\t\n      DUP2 \t\t\t\n      PUSH FFFFFFFFFFFFFFFFFFFFFFFFFFFFFFFFFFFFFFFF\t\t\t\n      AND \t\t\t\n      PUSH 8BE0079C531659141344CD1FD0A4F28419497F9722A3DAAFE3B4186F6B6457E0\t\t\t\n      PUSH 40\t\t\t\n      MLOAD \t\t\t\n      PUSH 40\t\t\t\n      MLOAD \t\t\t\n      DUP1 \t\t\t\n      SWAP2 \t\t\t\n      SUB \t\t\t\n      SWAP1 \t\t\t\n      LOG3 \t\t\t\n      POP \t\t\t\n      POP \t\t\t\n      JUMP \t\t\t\n    tag 187\t\t\t\n      JUMPDEST \t\t\t\n      PUSH 0\t\t\t\n      PUSH FFFFFFFFFFFFFFFFFFFFFFFFFFFFFFFFFFFFFFFF\t\t\t\n      AND \t\t\t\n      DUP5 \t\t\t\n      PUSH FFFFFFFFFFFFFFFFFFFFFFFFFFFFFFFFFFFFFFFF\t\t\t\n      AND \t\t\t\n      SUB \t\t\t\n      PUSH [tag] 210\t\t\t\n      JUMPI \t\t\t\n      PUSH 0\t\t\t\n      PUSH 40\t\t\t\n      MLOAD \t\t\t\n      PUSH E602DF0500000000000000000000000000000000000000000000000000000000\t\t\t\n      DUP2 \t\t\t\n      MSTORE \t\t\t\n      PUSH 4\t\t\t\n      ADD \t\t\t\n      PUSH [tag] 211\t\t\t\n      SWAP2 \t\t\t\n      SWAP1 \t\t\t\n      PUSH [tag] 90\t\t\t\n      JUMP \t\t\t\n    tag 211\t\t\t\n      JUMPDEST \t\t\t\n      PUSH 40\t\t\t\n      MLOAD \t\t\t\n      DUP1 \t\t\t\n      SWAP2 \t\t\t\n      SUB \t\t\t\n      SWAP1 \t\t\t\n      REVERT \t\t\t\n    tag 210\t\t\t\n      JUMPDEST \t\t\t\n      PUSH 0\t\t\t\n      PUSH FFFFFFFFFFFFFFFFFFFFFFFFFFFFFFFFFFFFFFFF\t\t\t\n      AND \t\t\t\n      DUP4 \t\t\t\n      PUSH FFFFFFFFFFFFFFFFFFFFFFFFFFFFFFFFFFFFFFFF\t\t\t\n      AND \t\t\t\n      SUB \t\t\t\n      PUSH [tag] 212\t\t\t\n      JUMPI \t\t\t\n      PUSH 0\t\t\t\n      PUSH 40\t\t\t\n      MLOAD \t\t\t\n      PUSH 94280D6200000000000000000000000000000000000000000000000000000000\t\t\t\n      DUP2 \t\t\t\n      MSTORE \t\t\t\n      PUSH 4\t\t\t\n      ADD \t\t\t\n      PUSH [tag] 213\t\t\t\n      SWAP2 \t\t\t\n      SWAP1 \t\t\t\n      PUSH [tag] 90\t\t\t\n      JUMP \t\t\t\n    tag 213\t\t\t\n      JUMPDEST \t\t\t\n      PUSH 40\t\t\t\n      MLOAD \t\t\t\n      DUP1 \t\t\t\n      SWAP2 \t\t\t\n      SUB \t\t\t\n      SWAP1 \t\t\t\n      REVERT \t\t\t\n    tag 212\t\t\t\n      JUMPDEST \t\t\t\n      DUP2 \t\t\t\n      PUSH 1\t\t\t\n      PUSH 0\t\t\t\n      DUP7 \t\t\t\n      PUSH FFFFFFFFFFFFFFFFFFFFFFFFFFFFFFFFFFFFFFFF\t\t\t\n      AND \t\t\t\n      PUSH FFFFFFFFFFFFFFFFFFFFFFFFFFFFFFFFFFFFFFFF\t\t\t\n      AND \t\t\t\n      DUP2 \t\t\t\n      MSTORE \t\t\t\n      PUSH 20\t\t\t\n      ADD \t\t\t\n      SWAP1 \t\t\t\n      DUP2 \t\t\t\n      MSTORE \t\t\t\n      PUSH 20\t\t\t\n      ADD \t\t\t\n      PUSH 0\t\t\t\n      KECCAK256 \t\t\t\n      PUSH 0\t\t\t\n      DUP6 \t\t\t\n      PUSH FFFFFFFFFFFFFFFFFFFFFFFFFFFFFFFFFFFFFFFF\t\t\t\n      AND \t\t\t\n      PUSH FFFFFFFFFFFFFFFFFFFFFFFFFFFFFFFFFFFFFFFF\t\t\t\n      AND \t\t\t\n      DUP2 \t\t\t\n      MSTORE \t\t\t\n      PUSH 20\t\t\t\n      ADD \t\t\t\n      SWAP1 \t\t\t\n      DUP2 \t\t\t\n      MSTORE \t\t\t\n      PUSH 20\t\t\t\n      ADD \t\t\t\n      PUSH 0\t\t\t\n      KECCAK256 \t\t\t\n      DUP2 \t\t\t\n      SWAP1 \t\t\t\n      SSTORE \t\t\t\n      POP \t\t\t\n      DUP1 \t\t\t\n      ISZERO \t\t\t\n      PUSH [tag] 214\t\t\t\n      JUMPI \t\t\t\n      DUP3 \t\t\t\n      PUSH FFFFFFFFFFFFFFFFFFFFFFFFFFFFFFFFFFFFFFFF\t\t\t\n      AND \t\t\t\n      DUP5 \t\t\t\n      PUSH FFFFFFFFFFFFFFFFFFFFFFFFFFFFFFFFFFFFFFFF\t\t\t\n      AND \t\t\t\n      PUSH 8C5BE1E5EBEC7D5BD14F71427D1E84F3DD0314C0F7B2291E5B200AC8C7C3B925\t\t\t\n      DUP5 \t\t\t\n      PUSH 40\t\t\t\n      MLOAD \t\t\t\n      PUSH [tag] 215\t\t\t\n      SWAP2 \t\t\t\n      SWAP1 \t\t\t\n      PUSH [tag] 49\t\t\t\n      JUMP \t\t\t\n    tag 215\t\t\t\n      JUMPDEST \t\t\t\n      PUSH 40\t\t\t\n      MLOAD \t\t\t\n      DUP1 \t\t\t\n      SWAP2 \t\t\t\n      SUB \t\t\t\n      SWAP1 \t\t\t\n      LOG3 \t\t\t\n    tag 214\t\t\t\n      JUMPDEST \t\t\t\n      POP \t\t\t\n      POP \t\t\t\n      POP \t\t\t\n      POP \t\t\t\n      JUMP \t\t\t\n    tag 207\t\t\tfunction _update(address from,...\n      JUMPDEST \t\t\tfunction _update(address from,...\n      PUSH 6\t\t\tisBlacklisted\n      PUSH 0\t\t\tisBlacklisted[from]\n      DUP5 \t\t\tfrom\n      PUSH FFFFFFFFFFFFFFFFFFFFFFFFFFFFFFFFFFFFFFFF\t\t\tisBlacklisted[from]\n      AND \t\t\tisBlacklisted[from]\n      PUSH FFFFFFFFFFFFFFFFFFFFFFFFFFFFFFFFFFFFFFFF\t\t\tisBlacklisted[from]\n      AND \t\t\tisBlacklisted[from]\n      DUP2 \t\t\tisBlacklisted[from]\n      MSTORE \t\t\tisBlacklisted[from]\n      PUSH 20\t\t\tisBlacklisted[from]\n      ADD \t\t\tisBlacklisted[from]\n      SWAP1 \t\t\tisBlacklisted[from]\n      DUP2 \t\t\tisBlacklisted[from]\n      MSTORE \t\t\tisBlacklisted[from]\n      PUSH 20\t\t\tisBlacklisted[from]\n      ADD \t\t\tisBlacklisted[from]\n      PUSH 0\t\t\tisBlacklisted[from]\n      KECCAK256 \t\t\tisBlacklisted[from]\n      PUSH 0\t\t\tisBlacklisted[from]\n      SWAP1 \t\t\tisBlacklisted[from]\n      SLOAD \t\t\tisBlacklisted[from]\n      SWAP1 \t\t\tisBlacklisted[from]\n      PUSH 100\t\t\tisBlacklisted[from]\n      EXP \t\t\tisBlacklisted[from]\n      SWAP1 \t\t\tisBlacklisted[from]\n      DIV \t\t\tisBlacklisted[from]\n      PUSH FF\t\t\tisBlacklisted[from]\n      AND \t\t\tisBlacklisted[from]\n      ISZERO \t\t\t!isBlacklisted[from]\n      DUP1 \t\t\t!isBlacklisted[from] && !isBla...\n      ISZERO \t\t\t!isBlacklisted[from] && !isBla...\n      PUSH [tag] 217\t\t\t!isBlacklisted[from] && !isBla...\n      JUMPI \t\t\t!isBlacklisted[from] && !isBla...\n      POP \t\t\t!isBlacklisted[from] && !isBla...\n      PUSH 6\t\t\tisBlacklisted\n      PUSH 0\t\t\tisBlacklisted[to]\n      DUP4 \t\t\tto\n      PUSH FFFFFFFFFFFFFFFFFFFFFFFFFFFFFFFFFFFFFFFF\t\t\tisBlacklisted[to]\n      AND \t\t\tisBlacklisted[to]\n      PUSH FFFFFFFFFFFFFFFFFFFFFFFFFFFFFFFFFFFFFFFF\t\t\tisBlacklisted[to]\n      AND \t\t\tisBlacklisted[to]\n      DUP2 \t\t\tisBlacklisted[to]\n      MSTORE \t\t\tisBlacklisted[to]\n      PUSH 20\t\t\tisBlacklisted[to]\n      ADD \t\t\tisBlacklisted[to]\n      SWAP1 \t\t\tisBlacklisted[to]\n      DUP2 \t\t\tisBlacklisted[to]\n      MSTORE \t\t\tisBlacklisted[to]\n      PUSH 20\t\t\tisBlacklisted[to]\n      ADD \t\t\tisBlacklisted[to]\n      PUSH 0\t\t\tisBlacklisted[to]\n      KECCAK256 \t\t\tisBlacklisted[to]\n      PUSH 0\t\t\tisBlacklisted[to]\n      SWAP1 \t\t\tisBlacklisted[to]\n      SLOAD \t\t\tisBlacklisted[to]\n      SWAP1 \t\t\tisBlacklisted[to]\n      PUSH 100\t\t\tisBlacklisted[to]\n      EXP \t\t\tisBlacklisted[to]\n      SWAP1 \t\t\tisBlacklisted[to]\n      DIV \t\t\tisBlacklisted[to]\n      PUSH FF\t\t\tisBlacklisted[to]\n      AND \t\t\tisBlacklisted[to]\n      ISZERO \t\t\t!isBlacklisted[to]\n    tag 217\t\t\t!isBlacklisted[from] && !isBla...\n      JUMPDEST \t\t\t!isBlacklisted[from] && !isBla...\n      PUSH [tag] 218\t\t\trequire(!isBlacklisted[from] &...\n      JUMPI \t\t\trequire(!isBlacklisted[from] &...\n      PUSH 40\t\t\trequire(!isBlacklisted[from] &...\n      MLOAD \t\t\trequire(!isBlacklisted[from] &...\n      PUSH 8C379A000000000000000000000000000000000000000000000000000000000\t\t\trequire(!isBlacklisted[from] &...\n      DUP2 \t\t\trequire(!isBlacklisted[from] &...\n      MSTORE \t\t\trequire(!isBlacklisted[from] &...\n      PUSH 4\t\t\trequire(!isBlacklisted[from] &...\n      ADD \t\t\trequire(!isBlacklisted[from] &...\n      PUSH [tag] 219\t\t\trequire(!isBlacklisted[from] &...\n      SWAP1 \t\t\trequire(!isBlacklisted[from] &...\n      PUSH [tag] 220\t\t\trequire(!isBlacklisted[from] &...\n      JUMP \t\t\trequire(!isBlacklisted[from] &...\n    tag 219\t\t\trequire(!isBlacklisted[from] &...\n      JUMPDEST \t\t\trequire(!isBlacklisted[from] &...\n      PUSH 40\t\t\trequire(!isBlacklisted[from] &...\n      MLOAD \t\t\trequire(!isBlacklisted[from] &...\n      DUP1 \t\t\trequire(!isBlacklisted[from] &...\n      SWAP2 \t\t\trequire(!isBlacklisted[from] &...\n      SUB \t\t\trequire(!isBlacklisted[from] &...\n      SWAP1 \t\t\trequire(!isBlacklisted[from] &...\n      REVERT \t\t\trequire(!isBlacklisted[from] &...\n    tag 218\t\t\trequire(!isBlacklisted[from] &...\n      JUMPDEST \t\t\trequire(!isBlacklisted[from] &...\n      PUSH D\t\t\ttradingEnabled\n      PUSH 0\t\t\ttradingEnabled\n      SWAP1 \t\t\ttradingEnabled\n      SLOAD \t\t\ttradingEnabled\n      SWAP1 \t\t\ttradingEnabled\n      PUSH 100\t\t\ttradingEnabled\n      EXP \t\t\ttradingEnabled\n      SWAP1 \t\t\ttradingEnabled\n      DIV \t\t\ttradingEnabled\n      PUSH FF\t\t\ttradingEnabled\n      AND \t\t\ttradingEnabled\n      DUP1 \t\t\ttradingEnabled || isExcludedFr...\n      PUSH [tag] 221\t\t\ttradingEnabled || isExcludedFr...\n      JUMPI \t\t\ttradingEnabled || isExcludedFr...\n      POP \t\t\ttradingEnabled || isExcludedFr...\n      PUSH 7\t\t\tisExcludedFromFees\n      PUSH 0\t\t\tisExcludedFromFees[from]\n      DUP5 \t\t\tfrom\n      PUSH FFFFFFFFFFFFFFFFFFFFFFFFFFFFFFFFFFFFFFFF\t\t\tisExcludedFromFees[from]\n      AND \t\t\tisExcludedFromFees[from]\n      PUSH FFFFFFFFFFFFFFFFFFFFFFFFFFFFFFFFFFFFFFFF\t\t\tisExcludedFromFees[from]\n      AND \t\t\tisExcludedFromFees[from]\n      DUP2 \t\t\tisExcludedFromFees[from]\n      MSTORE \t\t\tisExcludedFromFees[from]\n      PUSH 20\t\t\tisExcludedFromFees[from]\n      ADD \t\t\tisExcludedFromFees[from]\n      SWAP1 \t\t\tisExcludedFromFees[from]\n      DUP2 \t\t\tisExcludedFromFees[from]\n      MSTORE \t\t\tisExcludedFromFees[from]\n      PUSH 20\t\t\tisExcludedFromFees[from]\n      ADD \t\t\tisExcludedFromFees[from]\n      PUSH 0\t\t\tisExcludedFromFees[from]\n      KECCAK256 \t\t\tisExcludedFromFees[from]\n      PUSH 0\t\t\tisExcludedFromFees[from]\n      SWAP1 \t\t\tisExcludedFromFees[from]\n      SLOAD \t\t\tisExcludedFromFees[from]\n      SWAP1 \t\t\tisExcludedFromFees[from]\n      PUSH 100\t\t\tisExcludedFromFees[from]\n      EXP \t\t\tisExcludedFromFees[from]\n      SWAP1 \t\t\tisExcludedFromFees[from]\n      DIV \t\t\tisExcludedFromFees[from]\n      PUSH FF\t\t\tisExcludedFromFees[from]\n      AND \t\t\tisExcludedFromFees[from]\n    tag 221\t\t\ttradingEnabled || isExcludedFr...\n      JUMPDEST \t\t\ttradingEnabled || isExcludedFr...\n      PUSH [tag] 222\t\t\trequire(tradingEnabled || isEx...\n      JUMPI \t\t\trequire(tradingEnabled || isEx...\n      PUSH 40\t\t\trequire(tradingEnabled || isEx...\n      MLOAD \t\t\trequire(tradingEnabled || isEx...\n      PUSH 8C379A000000000000000000000000000000000000000000000000000000000\t\t\trequire(tradingEnabled || isEx...\n      DUP2 \t\t\trequire(tradingEnabled || isEx...\n      MSTORE \t\t\trequire(tradingEnabled || isEx...\n      PUSH 4\t\t\trequire(tradingEnabled || isEx...\n      ADD \t\t\trequire(tradingEnabled || isEx...\n      PUSH [tag] 223\t\t\trequire(tradingEnabled || isEx...\n      SWAP1 \t\t\trequire(tradingEnabled || isEx...\n      PUSH [tag] 224\t\t\trequire(tradingEnabled || isEx...\n      JUMP \t\t\trequire(tradingEnabled || isEx...\n    tag 223\t\t\trequire(tradingEnabled || isEx...\n      JUMPDEST \t\t\trequire(tradingEnabled || isEx...\n      PUSH 40\t\t\trequire(tradingEnabled || isEx...\n      MLOAD \t\t\trequire(tradingEnabled || isEx...\n      DUP1 \t\t\trequire(tradingEnabled || isEx...\n      SWAP2 \t\t\trequire(tradingEnabled || isEx...\n      SUB \t\t\trequire(tradingEnabled || isEx...\n      SWAP1 \t\t\trequire(tradingEnabled || isEx...\n      REVERT \t\t\trequire(tradingEnabled || isEx...\n    tag 222\t\t\trequire(tradingEnabled || isEx...\n      JUMPDEST \t\t\trequire(tradingEnabled || isEx...\n      PUSH C\t\t\tmaxTxAmount\n      SLOAD \t\t\tmaxTxAmount\n      DUP2 \t\t\tamount\n      GT \t\t\tamount <= maxTxAmount\n      ISZERO \t\t\tamount <= maxTxAmount\n      DUP1 \t\t\tamount <= maxTxAmount || isExc...\n      PUSH [tag] 225\t\t\tamount <= maxTxAmount || isExc...\n      JUMPI \t\t\tamount <= maxTxAmount || isExc...\n      POP \t\t\tamount <= maxTxAmount || isExc...\n      PUSH 7\t\t\tisExcludedFromFees\n      PUSH 0\t\t\tisExcludedFromFees[from]\n      DUP5 \t\t\tfrom\n      PUSH FFFFFFFFFFFFFFFFFFFFFFFFFFFFFFFFFFFFFFFF\t\t\tisExcludedFromFees[from]\n      AND \t\t\tisExcludedFromFees[from]\n      PUSH FFFFFFFFFFFFFFFFFFFFFFFFFFFFFFFFFFFFFFFF\t\t\tisExcludedFromFees[from]\n      AND \t\t\tisExcludedFromFees[from]\n      DUP2 \t\t\tisExcludedFromFees[from]\n      MSTORE \t\t\tisExcludedFromFees[from]\n      PUSH 20\t\t\tisExcludedFromFees[from]\n      ADD \t\t\tisExcludedFromFees[from]\n      SWAP1 \t\t\tisExcludedFromFees[from]\n      DUP2 \t\t\tisExcludedFromFees[from]\n      MSTORE \t\t\tisExcludedFromFees[from]\n      PUSH 20\t\t\tisExcludedFromFees[from]\n      ADD \t\t\tisExcludedFromFees[from]\n      PUSH 0\t\t\tisExcludedFromFees[from]\n      KECCAK256 \t\t\tisExcludedFromFees[from]\n      PUSH 0\t\t\tisExcludedFromFees[from]\n      SWAP1 \t\t\tisExcludedFromFees[from]\n      SLOAD \t\t\tisExcludedFromFees[from]\n      SWAP1 \t\t\tisExcludedFromFees[from]\n      PUSH 100\t\t\tisExcludedFromFees[from]\n      EXP \t\t\tisExcludedFromFees[from]\n      SWAP1 \t\t\tisExcludedFromFees[from]\n      DIV \t\t\tisExcludedFromFees[from]\n      PUSH FF\t\t\tisExcludedFromFees[from]\n      AND \t\t\tisExcludedFromFees[from]\n    tag 225\t\t\tamount <= maxTxAmount || isExc...\n      JUMPDEST \t\t\tamount <= maxTxAmount || isExc...\n      PUSH [tag] 226\t\t\trequire(amount <= maxTxAmount ...\n      JUMPI \t\t\trequire(amount <= maxTxAmount ...\n      PUSH 40\t\t\trequire(amount <= maxTxAmount ...\n      MLOAD \t\t\trequire(amount <= maxTxAmount ...\n      PUSH 8C379A000000000000000000000000000000000000000000000000000000000\t\t\trequire(amount <= maxTxAmount ...\n      DUP2 \t\t\trequire(amount <= maxTxAmount ...\n      MSTORE \t\t\trequire(amount <= maxTxAmount ...\n      PUSH 4\t\t\trequire(amount <= maxTxAmount ...\n      ADD \t\t\trequire(amount <= maxTxAmount ...\n      PUSH [tag] 227\t\t\trequire(amount <= maxTxAmount ...\n      SWAP1 \t\t\trequire(amount <= maxTxAmount ...\n      PUSH [tag] 228\t\t\trequire(amount <= maxTxAmount ...\n      JUMP \t\t\trequire(amount <= maxTxAmount ...\n    tag 227\t\t\trequire(amount <= maxTxAmount ...\n      JUMPDEST \t\t\trequire(amount <= maxTxAmount ...\n      PUSH 40\t\t\trequire(amount <= maxTxAmount ...\n      MLOAD \t\t\trequire(amount <= maxTxAmount ...\n      DUP1 \t\t\trequire(amount <= maxTxAmount ...\n      SWAP2 \t\t\trequire(amount <= maxTxAmount ...\n      SUB \t\t\trequire(amount <= maxTxAmount ...\n      SWAP1 \t\t\trequire(amount <= maxTxAmount ...\n      REVERT \t\t\trequire(amount <= maxTxAmount ...\n    tag 226\t\t\trequire(amount <= maxTxAmount ...\n      JUMPDEST \t\t\trequire(amount <= maxTxAmount ...\n      PUSH 0\t\t\tuint256 burnAmount\n      PUSH 64\t\t\t100\n      PUSH 8\t\t\tburnFee\n      SLOAD \t\t\tburnFee\n      DUP4 \t\t\tamount\n      PUSH [tag] 229\t\t\tamount * burnFee\n      SWAP2 \t\t\tamount * burnFee\n      SWAP1 \t\t\tamount * burnFee\n      PUSH [tag] 230\t\t\tamount * burnFee\n      JUMP \t\t\tamount * burnFee\n    tag 229\t\t\tamount * burnFee\n      JUMPDEST \t\t\tamount * burnFee\n      PUSH [tag] 231\t\t\t(amount * burnFee) / 100\n      SWAP2 \t\t\t(amount * burnFee) / 100\n      SWAP1 \t\t\t(amount * burnFee) / 100\n      PUSH [tag] 232\t\t\t(amount * burnFee) / 100\n      JUMP \t\t\t(amount * burnFee) / 100\n    tag 231\t\t\t(amount * burnFee) / 100\n      JUMPDEST \t\t\t(amount * burnFee) / 100\n      SWAP1 \t\t\tuint256 burnAmount = (amount *...\n      POP \t\t\tuint256 burnAmount = (amount *...\n      PUSH 0\t\t\tuint256 rewardAmount\n      PUSH 64\t\t\t100\n      PUSH 9\t\t\trewardFee\n      SLOAD \t\t\trewardFee\n      DUP5 \t\t\tamount\n      PUSH [tag] 233\t\t\tamount * rewardFee\n      SWAP2 \t\t\tamount * rewardFee\n      SWAP1 \t\t\tamount * rewardFee\n      PUSH [tag] 230\t\t\tamount * rewardFee\n      JUMP \t\t\tamount * rewardFee\n    tag 233\t\t\tamount * rewardFee\n      JUMPDEST \t\t\tamount * rewardFee\n      PUSH [tag] 234\t\t\t(amount * rewardFee) / 100\n      SWAP2 \t\t\t(amount * rewardFee) / 100\n      SWAP1 \t\t\t(amount * rewardFee) / 100\n      PUSH [tag] 232\t\t\t(amount * rewardFee) / 100\n      JUMP \t\t\t(amount * rewardFee) / 100\n    tag 234\t\t\t(amount * rewardFee) / 100\n      JUMPDEST \t\t\t(amount * rewardFee) / 100\n      SWAP1 \t\t\tuint256 rewardAmount = (amount...\n      POP \t\t\tuint256 rewardAmount = (amount...\n      PUSH 0\t\t\tuint256 devAmount\n      PUSH 64\t\t\t100\n      PUSH A\t\t\tdevFee\n      SLOAD \t\t\tdevFee\n      DUP6 \t\t\tamount\n      PUSH [tag] 235\t\t\tamount * devFee\n      SWAP2 \t\t\tamount * devFee\n      SWAP1 \t\t\tamount * devFee\n      PUSH [tag] 230\t\t\tamount * devFee\n      JUMP \t\t\tamount * devFee\n    tag 235\t\t\tamount * devFee\n      JUMPDEST \t\t\tamount * devFee\n      PUSH [tag] 236\t\t\t(amount * devFee) / 100\n      SWAP2 \t\t\t(amount * devFee) / 100\n      SWAP1 \t\t\t(amount * devFee) / 100\n      PUSH [tag] 232\t\t\t(amount * devFee) / 100\n      JUMP \t\t\t(amount * devFee) / 100\n    tag 236\t\t\t(amount * devFee) / 100\n      JUMPDEST \t\t\t(amount * devFee) / 100\n      SWAP1 \t\t\tuint256 devAmount = (amount * ...\n      POP \t\t\tuint256 devAmount = (amount * ...\n      PUSH 0\t\t\tuint256 liquidityAmount\n      PUSH 64\t\t\t100\n      PUSH B\t\t\tliquidityFee\n      SLOAD \t\t\tliquidityFee\n      DUP7 \t\t\tamount\n      PUSH [tag] 237\t\t\tamount * liquidityFee\n      SWAP2 \t\t\tamount * liquidityFee\n      SWAP1 \t\t\tamount * liquidityFee\n      PUSH [tag] 230\t\t\tamount * liquidityFee\n      JUMP \t\t\tamount * liquidityFee\n    tag 237\t\t\tamount * liquidityFee\n      JUMPDEST \t\t\tamount * liquidityFee\n      PUSH [tag] 238\t\t\t(amount * liquidityFee) / 100\n      SWAP2 \t\t\t(amount * liquidityFee) / 100\n      SWAP1 \t\t\t(amount * liquidityFee) / 100\n      PUSH [tag] 232\t\t\t(amount * liquidityFee) / 100\n      JUMP \t\t\t(amount * liquidityFee) / 100\n    tag 238\t\t\t(amount * liquidityFee) / 100\n      JUMPDEST \t\t\t(amount * liquidityFee) / 100\n      SWAP1 \t\t\tuint256 liquidityAmount = (amo...\n      POP \t\t\tuint256 liquidityAmount = (amo...\n      PUSH 0\t\t\tuint256 sendAmount\n      DUP2 \t\t\tliquidityAmount\n      DUP4 \t\t\tdevAmount\n      DUP6 \t\t\trewardAmount\n      DUP8 \t\t\tburnAmount\n      DUP10 \t\t\tamount\n      PUSH [tag] 239\t\t\tamount - burnAmount\n      SWAP2 \t\t\tamount - burnAmount\n      SWAP1 \t\t\tamount - burnAmount\n      PUSH [tag] 240\t\t\tamount - burnAmount\n      JUMP \t\t\tamount - burnAmount\n    tag 239\t\t\tamount - burnAmount\n      JUMPDEST \t\t\tamount - burnAmount\n      PUSH [tag] 241\t\t\tamount - burnAmount - rewardAm...\n      SWAP2 \t\t\tamount - burnAmount - rewardAm...\n      SWAP1 \t\t\tamount - burnAmount - rewardAm...\n      PUSH [tag] 240\t\t\tamount - burnAmount - rewardAm...\n      JUMP \t\t\tamount - burnAmount - rewardAm...\n    tag 241\t\t\tamount - burnAmount - rewardAm...\n      JUMPDEST \t\t\tamount - burnAmount - rewardAm...\n      PUSH [tag] 242\t\t\tamount - burnAmount - rewardAm...\n      SWAP2 \t\t\tamount - burnAmount - rewardAm...\n      SWAP1 \t\t\tamount - burnAmount - rewardAm...\n      PUSH [tag] 240\t\t\tamount - burnAmount - rewardAm...\n      JUMP \t\t\tamount - burnAmount - rewardAm...\n    tag 242\t\t\tamount - burnAmount - rewardAm...\n      JUMPDEST \t\t\tamount - burnAmount - rewardAm...\n      PUSH [tag] 243\t\t\tamount - burnAmount - rewardAm...\n      SWAP2 \t\t\tamount - burnAmount - rewardAm...\n      SWAP1 \t\t\tamount - burnAmount - rewardAm...\n      PUSH [tag] 240\t\t\tamount - burnAmount - rewardAm...\n      JUMP \t\t\tamount - burnAmount - rewardAm...\n    tag 243\t\t\tamount - burnAmount - rewardAm...\n      JUMPDEST \t\t\tamount - burnAmount - rewardAm...\n      SWAP1 \t\t\tuint256 sendAmount = amount - ...\n      POP \t\t\tuint256 sendAmount = amount - ...\n      PUSH 0\t\t\t0\n      DUP6 \t\t\tburnAmount\n      GT \t\t\tburnAmount > 0\n      ISZERO \t\t\tif (burnAmount > 0) {\\r\\n     ...\n      PUSH [tag] 244\t\t\tif (burnAmount > 0) {\\r\\n     ...\n      JUMPI \t\t\tif (burnAmount > 0) {\\r\\n     ...\n      PUSH [tag] 245\t\t\t_burn(from, burnAmount)\n      DUP9 \t\t\tfrom\n      DUP7 \t\t\tburnAmount\n      PUSH [tag] 246\t\t\t_burn\n      JUMP \t\t\t_burn(from, burnAmount)\n    tag 245\t\t\t_burn(from, burnAmount)\n      JUMPDEST \t\t\t_burn(from, burnAmount)\n    tag 244\t\t\tif (burnAmount > 0) {\\r\\n     ...\n      JUMPDEST \t\t\tif (burnAmount > 0) {\\r\\n     ...\n      PUSH 0\t\t\t0\n      DUP4 \t\t\tdevAmount\n      GT \t\t\tdevAmount > 0\n      ISZERO \t\t\tif (devAmount > 0) {\\r\\n      ...\n      PUSH [tag] 247\t\t\tif (devAmount > 0) {\\r\\n      ...\n      JUMPI \t\t\tif (devAmount > 0) {\\r\\n      ...\n      PUSH [tag] 248\t\t\tsuper._update(from, devWallet,...\n      DUP9 \t\t\tfrom\n      PUSH D\t\t\tdevWallet\n      PUSH 1\t\t\tdevWallet\n      SWAP1 \t\t\tdevWallet\n      SLOAD \t\t\tdevWallet\n      SWAP1 \t\t\tdevWallet\n      PUSH 100\t\t\tdevWallet\n      EXP \t\t\tdevWallet\n      SWAP1 \t\t\tdevWallet\n      DIV \t\t\tdevWallet\n      PUSH FFFFFFFFFFFFFFFFFFFFFFFFFFFFFFFFFFFFFFFF\t\t\tdevWallet\n      AND \t\t\tdevWallet\n      DUP6 \t\t\tdevAmount\n      PUSH [tag] 249\t\t\tsuper._update\n      JUMP \t\t\tsuper._update(from, devWallet,...\n    tag 248\t\t\tsuper._update(from, devWallet,...\n      JUMPDEST \t\t\tsuper._update(from, devWallet,...\n    tag 247\t\t\tif (devAmount > 0) {\\r\\n      ...\n      JUMPDEST \t\t\tif (devAmount > 0) {\\r\\n      ...\n      PUSH [tag] 250\t\t\tsuper._update(from, to, sendAm...\n      DUP9 \t\t\tfrom\n      DUP9 \t\t\tto\n      DUP4 \t\t\tsendAmount\n      PUSH [tag] 249\t\t\tsuper._update\n      JUMP \t\t\tsuper._update(from, to, sendAm...\n    tag 250\t\t\tsuper._update(from, to, sendAm...\n      JUMPDEST \t\t\tsuper._update(from, to, sendAm...\n      POP \t\t\t{\\r\\n        require(!isBlackl...\n      POP \t\t\t{\\r\\n        require(!isBlackl...\n      POP \t\t\t{\\r\\n        require(!isBlackl...\n      POP \t\t\t{\\r\\n        require(!isBlackl...\n      POP \t\t\t{\\r\\n        require(!isBlackl...\n      POP \t\t\tfunction _update(address from,...\n      POP \t\t\tfunction _update(address from,...\n      POP \t\t\tfunction _update(address from,...\n      JUMP \t\t\tfunction _update(address from,...\n    tag 246\t\t\t\n      JUMPDEST \t\t\t\n      PUSH 0\t\t\t\n      PUSH FFFFFFFFFFFFFFFFFFFFFFFFFFFFFFFFFFFFFFFF\t\t\t\n      AND \t\t\t\n      DUP3 \t\t\t\n      PUSH FFFFFFFFFFFFFFFFFFFFFFFFFFFFFFFFFFFFFFFF\t\t\t\n      AND \t\t\t\n      SUB \t\t\t\n      PUSH [tag] 252\t\t\t\n      JUMPI \t\t\t\n      PUSH 0\t\t\t\n      PUSH 40\t\t\t\n      MLOAD \t\t\t\n      PUSH 96C6FD1E00000000000000000000000000000000000000000000000000000000\t\t\t\n      DUP2 \t\t\t\n      MSTORE \t\t\t\n      PUSH 4\t\t\t\n      ADD \t\t\t\n      PUSH [tag] 253\t\t\t\n      SWAP2 \t\t\t\n      SWAP1 \t\t\t\n      PUSH [tag] 90\t\t\t\n      JUMP \t\t\t\n    tag 253\t\t\t\n      JUMPDEST \t\t\t\n      PUSH 40\t\t\t\n      MLOAD \t\t\t\n      DUP1 \t\t\t\n      SWAP2 \t\t\t\n      SUB \t\t\t\n      SWAP1 \t\t\t\n      REVERT \t\t\t\n    tag 252\t\t\t\n      JUMPDEST \t\t\t\n      PUSH [tag] 254\t\t\t\n      DUP3 \t\t\t\n      PUSH 0\t\t\t\n      DUP4 \t\t\t\n      PUSH [tag] 207\t\t\t\n      JUMP \t\t\t\n    tag 254\t\t\t\n      JUMPDEST \t\t\t\n      POP \t\t\t\n      POP \t\t\t\n      JUMP \t\t\t\n    tag 249\t\t\t\n      JUMPDEST \t\t\t\n      PUSH 0\t\t\t\n      PUSH FFFFFFFFFFFFFFFFFFFFFFFFFFFFFFFFFFFFFFFF\t\t\t\n      AND \t\t\t\n      DUP4 \t\t\t\n      PUSH FFFFFFFFFFFFFFFFFFFFFFFFFFFFFFFFFFFFFFFF\t\t\t\n      AND \t\t\t\n      SUB \t\t\t\n      PUSH [tag] 256\t\t\t\n      JUMPI \t\t\t\n      DUP1 \t\t\t\n      PUSH 2\t\t\t\n      PUSH 0\t\t\t\n      DUP3 \t\t\t\n      DUP3 \t\t\t\n      SLOAD \t\t\t\n      PUSH [tag] 257\t\t\t\n      SWAP2 \t\t\t\n      SWAP1 \t\t\t\n      PUSH [tag] 258\t\t\t\n      JUMP \t\t\t\n    tag 257\t\t\t\n      JUMPDEST \t\t\t\n      SWAP3 \t\t\t\n      POP \t\t\t\n      POP \t\t\t\n      DUP2 \t\t\t\n      SWAP1 \t\t\t\n      SSTORE \t\t\t\n      POP \t\t\t\n      PUSH [tag] 259\t\t\t\n      JUMP \t\t\t\n    tag 256\t\t\t\n      JUMPDEST \t\t\t\n      PUSH 0\t\t\t\n      PUSH 0\t\t\t\n      PUSH 0\t\t\t\n      DUP6 \t\t\t\n      PUSH FFFFFFFFFFFFFFFFFFFFFFFFFFFFFFFFFFFFFFFF\t\t\t\n      AND \t\t\t\n      PUSH FFFFFFFFFFFFFFFFFFFFFFFFFFFFFFFFFFFFFFFF\t\t\t\n      AND \t\t\t\n      DUP2 \t\t\t\n      MSTORE \t\t\t\n      PUSH 20\t\t\t\n      ADD \t\t\t\n      SWAP1 \t\t\t\n      DUP2 \t\t\t\n      MSTORE \t\t\t\n      PUSH 20\t\t\t\n      ADD \t\t\t\n      PUSH 0\t\t\t\n      KECCAK256 \t\t\t\n      SLOAD \t\t\t\n      SWAP1 \t\t\t\n      POP \t\t\t\n      DUP2 \t\t\t\n      DUP2 \t\t\t\n      LT \t\t\t\n      ISZERO \t\t\t\n      PUSH [tag] 260\t\t\t\n      JUMPI \t\t\t\n      DUP4 \t\t\t\n      DUP2 \t\t\t\n      DUP4 \t\t\t\n      PUSH 40\t\t\t\n      MLOAD \t\t\t\n      PUSH E450D38C00000000000000000000000000000000000000000000000000000000\t\t\t\n      DUP2 \t\t\t\n      MSTORE \t\t\t\n      PUSH 4\t\t\t\n      ADD \t\t\t\n      PUSH [tag] 261\t\t\t\n      SWAP4 \t\t\t\n      SWAP3 \t\t\t\n      SWAP2 \t\t\t\n      SWAP1 \t\t\t\n      PUSH [tag] 199\t\t\t\n      JUMP \t\t\t\n    tag 261\t\t\t\n      JUMPDEST \t\t\t\n      PUSH 40\t\t\t\n      MLOAD \t\t\t\n      DUP1 \t\t\t\n      SWAP2 \t\t\t\n      SUB \t\t\t\n      SWAP1 \t\t\t\n      REVERT \t\t\t\n    tag 260\t\t\t\n      JUMPDEST \t\t\t\n      DUP2 \t\t\t\n      DUP2 \t\t\t\n      SUB \t\t\t\n      PUSH 0\t\t\t\n      PUSH 0\t\t\t\n      DUP7 \t\t\t\n      PUSH FFFFFFFFFFFFFFFFFFFFFFFFFFFFFFFFFFFFFFFF\t\t\t\n      AND \t\t\t\n      PUSH FFFFFFFFFFFFFFFFFFFFFFFFFFFFFFFFFFFFFFFF\t\t\t\n      AND \t\t\t\n      DUP2 \t\t\t\n      MSTORE \t\t\t\n      PUSH 20\t\t\t\n      ADD \t\t\t\n      SWAP1 \t\t\t\n      DUP2 \t\t\t\n      MSTORE \t\t\t\n      PUSH 20\t\t\t\n      ADD \t\t\t\n      PUSH 0\t\t\t\n      KECCAK256 \t\t\t\n      DUP2 \t\t\t\n      SWAP1 \t\t\t\n      SSTORE \t\t\t\n      POP \t\t\t\n      POP \t\t\t\n    tag 259\t\t\t\n      JUMPDEST \t\t\t\n      PUSH 0\t\t\t\n      PUSH FFFFFFFFFFFFFFFFFFFFFFFFFFFFFFFFFFFFFFFF\t\t\t\n      AND \t\t\t\n      DUP3 \t\t\t\n      PUSH FFFFFFFFFFFFFFFFFFFFFFFFFFFFFFFFFFFFFFFF\t\t\t\n      AND \t\t\t\n      SUB \t\t\t\n      PUSH [tag] 262\t\t\t\n      JUMPI \t\t\t\n      DUP1 \t\t\t\n      PUSH 2\t\t\t\n      PUSH 0\t\t\t\n      DUP3 \t\t\t\n      DUP3 \t\t\t\n      SLOAD \t\t\t\n      SUB \t\t\t\n      SWAP3 \t\t\t\n      POP \t\t\t\n      POP \t\t\t\n      DUP2 \t\t\t\n      SWAP1 \t\t\t\n      SSTORE \t\t\t\n      POP \t\t\t\n      PUSH [tag] 263\t\t\t\n      JUMP \t\t\t\n    tag 262\t\t\t\n      JUMPDEST \t\t\t\n      DUP1 \t\t\t\n      PUSH 0\t\t\t\n      PUSH 0\t\t\t\n      DUP5 \t\t\t\n      PUSH FFFFFFFFFFFFFFFFFFFFFFFFFFFFFFFFFFFFFFFF\t\t\t\n      AND \t\t\t\n      PUSH FFFFFFFFFFFFFFFFFFFFFFFFFFFFFFFFFFFFFFFF\t\t\t\n      AND \t\t\t\n      DUP2 \t\t\t\n      MSTORE \t\t\t\n      PUSH 20\t\t\t\n      ADD \t\t\t\n      SWAP1 \t\t\t\n      DUP2 \t\t\t\n      MSTORE \t\t\t\n      PUSH 20\t\t\t\n      ADD \t\t\t\n      PUSH 0\t\t\t\n      KECCAK256 \t\t\t\n      PUSH 0\t\t\t\n      DUP3 \t\t\t\n      DUP3 \t\t\t\n      SLOAD \t\t\t\n      ADD \t\t\t\n      SWAP3 \t\t\t\n      POP \t\t\t\n      POP \t\t\t\n      DUP2 \t\t\t\n      SWAP1 \t\t\t\n      SSTORE \t\t\t\n      POP \t\t\t\n    tag 263\t\t\t\n      JUMPDEST \t\t\t\n      DUP2 \t\t\t\n      PUSH FFFFFFFFFFFFFFFFFFFFFFFFFFFFFFFFFFFFFFFF\t\t\t\n      AND \t\t\t\n      DUP4 \t\t\t\n      PUSH FFFFFFFFFFFFFFFFFFFFFFFFFFFFFFFFFFFFFFFF\t\t\t\n      AND \t\t\t\n      PUSH DDF252AD1BE2C89B69C2B068FC378DAA952BA7F163C4A11628F55A4DF523B3EF\t\t\t\n      DUP4 \t\t\t\n      PUSH 40\t\t\t\n      MLOAD \t\t\t\n      PUSH [tag] 264\t\t\t\n      SWAP2 \t\t\t\n      SWAP1 \t\t\t\n      PUSH [tag] 49\t\t\t\n      JUMP \t\t\t\n    tag 264\t\t\t\n      JUMPDEST \t\t\t\n      PUSH 40\t\t\t\n      MLOAD \t\t\t\n      DUP1 \t\t\t\n      SWAP2 \t\t\t\n      SUB \t\t\t\n      SWAP1 \t\t\t\n      LOG3 \t\t\t\n      POP \t\t\t\n      POP \t\t\t\n      POP \t\t\t\n      JUMP \t\t\t\n    tag 265\t\t\t-License-Identifier: MIT\\r\\npr...\n      JUMPDEST \t\t\t-License-Identifier: MIT\\r\\npr...\n      PUSH 0\t\t\t\\r\\nimpo\n      DUP2 \t\t\ttoken\n      MLOAD \t\t\tracts/token/\n      SWAP1 \t\t\tpelin/contracts/token/\n      POP \t\t\tpelin/contracts/token/\n      SWAP2 \t\t\t-License-Identifier: MIT\\r\\npr...\n      SWAP1 \t\t\t-License-Identifier: MIT\\r\\npr...\n      POP \t\t\t-License-Identifier: MIT\\r\\npr...\n      JUMP \t\t\t-License-Identifier: MIT\\r\\npr...\n    tag 266\t\t\tol\";\\r\\nimport \"@openzeppelin/...\n      JUMPDEST \t\t\tol\";\\r\\nimport \"@openzeppelin/...\n      PUSH 0\t\t\t ERC20, Own\n      DUP3 \t\t\tress =\n      DUP3 \t\t\tg(a\n      MSTORE \t\t\t mapping(address =>\n      PUSH 20\t\t\t  ma\n      DUP3 \t\t\t;\\r\\n\n      ADD \t\t\tsted;\\r\\n    map\n      SWAP1 \t\t\tivate isBlacklisted;\\r\\n    ma...\n      POP \t\t\tivate isBlacklisted;\\r\\n    ma...\n      SWAP3 \t\t\tol\";\\r\\nimport \"@openzeppelin/...\n      SWAP2 \t\t\tol\";\\r\\nimport \"@openzeppelin/...\n      POP \t\t\tol\";\\r\\nimport \"@openzeppelin/...\n      POP \t\t\tol\";\\r\\nimport \"@openzeppelin/...\n      JUMP \t\t\tol\";\\r\\nimport \"@openzeppelin/...\n    tag 267\t\t\t => bool) private isExcludedFr...\n      JUMPDEST \t\t\t => bool) private isExcludedFr...\n      DUP3 \t\t\t    ui\n      DUP2 \t\t\tFee\n      DUP4 \t\t\tBur\n      MCOPY \t\t\t// 2% Burn Fee\\r\\n    uin\n      PUSH 0\t\t\te\n      DUP4 \t\t\t; // 1\n      DUP4 \t\t\te =\n      ADD \t\t\trdFee = 1; // 1%\n      MSTORE \t\t\tic rewardFee = 1; // 1% Rew\n      POP \t\t\t => bool) private isExcludedFr...\n      POP \t\t\t => bool) private isExcludedFr...\n      POP \t\t\t => bool) private isExcludedFr...\n      JUMP \t\t\t => bool) private isExcludedFr...\n    tag 268\t\t\tuint256 public devFee = 1; // ...\n      JUMPDEST \t\t\tuint256 public devFee = 1; // ...\n      PUSH 0\t\t\t\\n    u\n      PUSH 1F\t\t\tty\n      NOT \t\t\tuidity \n      PUSH 1F\t\t\t% \n      DUP4 \t\t\t5; //\n      ADD \t\t\te = 5; // 5% L\n      AND \t\t\ttyFee = 5; // 5% Liquidity F\n      SWAP1 \t\t\tic liquidityFee = 5; // 5% Liq...\n      POP \t\t\tic liquidityFee = 5; // 5% Liq...\n      SWAP2 \t\t\tuint256 public devFee = 1; // ...\n      SWAP1 \t\t\tuint256 public devFee = 1; // ...\n      POP \t\t\tuint256 public devFee = 1; // ...\n      JUMP \t\t\tuint256 public devFee = 1; // ...\n    tag 269\t\t\t256 public maxTxAmount; // Max...\n      JUMPDEST \t\t\t256 public maxTxAmount; // Max...\n      PUSH 0\t\t\t\\n  \n      PUSH [tag] 303\t\t\tvWallet;\\r\\n\\r\\n    constructo...\n      DUP3 \t\t\t20(\"Z\n      PUSH [tag] 265\t\t\tvWallet;\\r\\n\\r\\n    constructo...\n      JUMP \t\t\tvWallet;\\r\\n\\r\\n    constructo...\n    tag 303\t\t\tvWallet;\\r\\n\\r\\n    constructo...\n      JUMPDEST \t\t\tvWallet;\\r\\n\\r\\n    constructo...\n      PUSH [tag] 304\t\t\twnable(msg.sender) {\\r\\n      ...\n      DUP2 \t\t\t10 ** \n      DUP6 \t\t\t00 \n      PUSH [tag] 266\t\t\twnable(msg.sender) {\\r\\n      ...\n      JUMP \t\t\twnable(msg.sender) {\\r\\n      ...\n    tag 304\t\t\twnable(msg.sender) {\\r\\n      ...\n      JUMPDEST \t\t\twnable(msg.sender) {\\r\\n      ...\n      SWAP4 \t\t\tGGI\") Ownable(msg.sender) {\\r\\...\n      POP \t\t\tGGI\") Ownable(msg.sender) {\\r\\...\n      PUSH [tag] 305\t\t\t;\\r\\n        _mint(msg.sender,...\n      DUP2 \t\t\tmount \n      DUP6 \t\t\taxT\n      PUSH 20\t\t\t    \n      DUP7 \t\t\ty);\\r\\n\n      ADD \t\t\tupply);\\r\\n       \n      PUSH [tag] 267\t\t\t;\\r\\n        _mint(msg.sender,...\n      JUMP \t\t\t;\\r\\n        _mint(msg.sender,...\n    tag 305\t\t\t;\\r\\n        _mint(msg.sender,...\n      JUMPDEST \t\t\t;\\r\\n        _mint(msg.sender,...\n      PUSH [tag] 306\t\t\t of total supply\\r\\n        de...\n      DUP2 \t\t\t    de\n      PUSH [tag] 268\t\t\t of total supply\\r\\n        de...\n      JUMP \t\t\t of total supply\\r\\n        de...\n    tag 306\t\t\t of total supply\\r\\n        de...\n      JUMPDEST \t\t\t of total supply\\r\\n        de...\n      DUP5 \t\t\t// \n      ADD \t\t\t00; // 1% of total supply\\r\\n ...\n      SWAP2 \t\t\tply / 100; // 1% of total supp...\n      POP \t\t\tply / 100; // 1% of total supp...\n      POP \t\t\t \\r\\n    address public devWal...\n      SWAP3 \t\t\t256 public maxTxAmount; // Max...\n      SWAP2 \t\t\t256 public maxTxAmount; // Max...\n      POP \t\t\t256 public maxTxAmount; // Max...\n      POP \t\t\t256 public maxTxAmount; // Max...\n      JUMP \t\t\t256 public maxTxAmount; // Max...\n    tag 35\t\t\tsender;\\r\\n        isExcludedF...\n      JUMPDEST \t\t\tsender;\\r\\n        isExcludedF...\n      PUSH 0\t\t\t {\\r\\n\n      PUSH 20\t\t\t  \n      DUP3 \t\t\t= true;\\r\\n\n      ADD \t\t\tled = true;\\r\\n    }\n      SWAP1 \t\t\tdingEnabled = true;\\r\\n    }\n      POP \t\t\tdingEnabled = true;\\r\\n    }\n      DUP2 \t\t\t bool sta\n      DUP2 \t\t\tcoun\n      SUB \t\t\ts account, bool stat\n      PUSH 0\t\t\td\n      DUP4 \t\t\tlacklist(\n      ADD \t\t\tsetBlacklist(addr\n      MSTORE \t\t\tnction setBlacklist(address ac...\n      PUSH [tag] 308\t\t\twner {\\r\\n        isBlackliste...\n      DUP2 \t\t\txclu\n      DUP5 \t\t\tunctio\n      PUSH [tag] 269\t\t\twner {\\r\\n        isBlackliste...\n      JUMP \t\t\twner {\\r\\n        isBlackliste...\n    tag 308\t\t\twner {\\r\\n        isBlackliste...\n      JUMPDEST \t\t\twner {\\r\\n        isBlackliste...\n      SWAP1 \t\t\tal onlyOwner {\\r\\n        isBl...\n      POP \t\t\tal onlyOwner {\\r\\n        isBl...\n      SWAP3 \t\t\tsender;\\r\\n        isExcludedF...\n      SWAP2 \t\t\tsender;\\r\\n        isExcludedF...\n      POP \t\t\tsender;\\r\\n        isExcludedF...\n      POP \t\t\tsender;\\r\\n        isExcludedF...\n      JUMP \t\t\tsender;\\r\\n        isExcludedF...\n    tag 271\t\t\tnt] = status;\\r\\n    }\\r\\n\\r\\n...\n      JUMPDEST \t\t\tnt] = status;\\r\\n    }\\r\\n\\r\\n...\n      PUSH 0\t\t\tl\n      PUSH 0\t\t\t6\n      REVERT \t\t\t uint256 _li\n    tag 273\t\t\tidityFee = _liquidityFee;\\r\\n ...\n      JUMPDEST \t\t\tidityFee = _liquidityFee;\\r\\n ...\n      PUSH 0\t\t\t   func\n      PUSH FFFFFFFFFFFFFFFFFFFFFFFFFFFFFFFFFFFFFFFF\t\t\txAmount) external onlyOwner {\\...\n      DUP3 \t\t\t6 _ma\n      AND \t\t\tnt256 _maxTxAmount) external o...\n      SWAP1 \t\t\tTxAmount(uint256 _maxTxAmount)...\n      POP \t\t\tTxAmount(uint256 _maxTxAmount)...\n      SWAP2 \t\t\tidityFee = _liquidityFee;\\r\\n ...\n      SWAP1 \t\t\tidityFee = _liquidityFee;\\r\\n ...\n      POP \t\t\tidityFee = _liquidityFee;\\r\\n ...\n      JUMP \t\t\tidityFee = _liquidityFee;\\r\\n ...\n    tag 274\t\t\taxTxAmount;\\r\\n    }\\r\\n\\r\\n  ...\n      JUMPDEST \t\t\taxTxAmount;\\r\\n    }\\r\\n\\r\\n  ...\n      PUSH 0\t\t\ttDevWal\n      PUSH [tag] 314\t\t\t) external onlyOwner {\\r\\n\n      DUP3 \t\t\ter {\\r\n      PUSH [tag] 273\t\t\t) external onlyOwner {\\r\\n\n      JUMP \t\t\t) external onlyOwner {\\r\\n\n    tag 314\t\t\t) external onlyOwner {\\r\\n\n      JUMPDEST \t\t\t) external onlyOwner {\\r\\n\n      SWAP1 \t\t\t _devWallet) external onlyOwne...\n      POP \t\t\t _devWallet) external onlyOwne...\n      SWAP2 \t\t\taxTxAmount;\\r\\n    }\\r\\n\\r\\n  ...\n      SWAP1 \t\t\taxTxAmount;\\r\\n    }\\r\\n\\r\\n  ...\n      POP \t\t\taxTxAmount;\\r\\n    }\\r\\n\\r\\n  ...\n      JUMP \t\t\taxTxAmount;\\r\\n    }\\r\\n\\r\\n  ...\n    tag 275\t\t\tallet = _devWallet;\\r\\n    }\\r...\n      JUMPDEST \t\t\tallet = _devWallet;\\r\\n    }\\r...\n      PUSH [tag] 316\t\t\tto, uint256 amount) inte\n      DUP2 \t\t\t) int\n      PUSH [tag] 274\t\t\tto, uint256 amount) inte\n      JUMP \t\t\tto, uint256 amount) inte\n    tag 316\t\t\tto, uint256 amount) inte\n      JUMPDEST \t\t\tto, uint256 amount) inte\n      DUP2 \t\t\tddres\n      EQ \t\t\t, address to, uint256 amount) ...\n      PUSH [tag] 317\t\t\tdress from, address to, uint25...\n      JUMPI \t\t\tdress from, address to, uint25...\n      PUSH 0\t\t\t\\r\n      PUSH 0\t\t\te\n      REVERT \t\t\toverride {\\r\\n\n    tag 317\t\t\tdress from, address to, uint25...\n      JUMPDEST \t\t\tdress from, address to, uint25...\n      POP \t\t\tallet = _devWallet;\\r\\n    }\\r...\n      JUMP \t\t\tallet = _devWallet;\\r\\n    }\\r...\n    tag 276\t\t\te(!isBlacklisted[from] && !isB...\n      JUMPDEST \t\t\te(!isBlacklisted[from] && !isB...\n      PUSH 0\t\t\t\"Addr\n      DUP2 \t\t\tquire(\n      CALLDATALOAD \t\t\t;\\r\\n        require(t\n      SWAP1 \t\t\tklisted\");\\r\\n        require(...\n      POP \t\t\tklisted\");\\r\\n        require(...\n      PUSH [tag] 319\t\t\tbled || isExcludedFromFees[fro...\n      DUP2 \t\t\tfrom]\n      PUSH [tag] 275\t\t\tbled || isExcludedFromFees[fro...\n      JUMP \t\t\tbled || isExcludedFromFees[fro...\n    tag 319\t\t\tbled || isExcludedFromFees[fro...\n      JUMPDEST \t\t\tbled || isExcludedFromFees[fro...\n      SWAP3 \t\t\te(!isBlacklisted[from] && !isB...\n      SWAP2 \t\t\te(!isBlacklisted[from] && !isB...\n      POP \t\t\te(!isBlacklisted[from] && !isB...\n      POP \t\t\te(!isBlacklisted[from] && !isB...\n      JUMP \t\t\te(!isBlacklisted[from] && !isB...\n    tag 277\t\t\t not enabled yet\");\\r\\n       ...\n      JUMPDEST \t\t\t not enabled yet\");\\r\\n       ...\n      PUSH 0\t\t\tamount \n      DUP2 \t\t\tclude\n      SWAP1 \t\t\tunt || isExclude\n      POP \t\t\tunt || isExclude\n      SWAP2 \t\t\t not enabled yet\");\\r\\n       ...\n      SWAP1 \t\t\t not enabled yet\");\\r\\n       ...\n      POP \t\t\t not enabled yet\");\\r\\n       ...\n      JUMP \t\t\t not enabled yet\");\\r\\n       ...\n    tag 278\t\t\tom], \"Transfer amount exceeds ...\n      JUMPDEST \t\t\tom], \"Transfer amount exceeds ...\n      PUSH [tag] 322\t\t\t= (amount * burnFee) / 1\n      DUP2 \t\t\te) / \n      PUSH [tag] 277\t\t\t= (amount * burnFee) / 1\n      JUMP \t\t\t= (amount * burnFee) / 1\n    tag 322\t\t\t= (amount * burnFee) / 1\n      JUMPDEST \t\t\t= (amount * burnFee) / 1\n      DUP2 \t\t\tAmoun\n      EQ \t\t\turnAmount = (amount * burnFee)...\n      PUSH [tag] 323\t\t\t uint256 burnAmount = (amount ...\n      JUMPI \t\t\t uint256 burnAmount = (amount ...\n      PUSH 0\t\t\tn\n      PUSH 0\t\t\t \n      REVERT \t\t\t        uint\n    tag 323\t\t\t uint256 burnAmount = (amount ...\n      JUMPDEST \t\t\t uint256 burnAmount = (amount ...\n      POP \t\t\tom], \"Transfer amount exceeds ...\n      JUMP \t\t\tom], \"Transfer amount exceeds ...\n    tag 279\t\t\tnt = (amount * rewardFee) / 10...\n      JUMPDEST \t\t\tnt = (amount * rewardFee) / 10...\n      PUSH 0\t\t\t256 d\n      DUP2 \t\t\t0;\\r\\n  \n      CALLDATALOAD \t\t\t devFee) / 100;\\r\\n   \n      SWAP1 \t\t\t(amount * devFee) / 100;\\r\\n  ...\n      POP \t\t\t(amount * devFee) / 100;\\r\\n  ...\n      PUSH [tag] 325\t\t\t256 liquidityAmount = (amount ...\n      DUP2 \t\t\tnt * \n      PUSH [tag] 278\t\t\t256 liquidityAmount = (amount ...\n      JUMP \t\t\t256 liquidityAmount = (amount ...\n    tag 325\t\t\t256 liquidityAmount = (amount ...\n      JUMPDEST \t\t\t256 liquidityAmount = (amount ...\n      SWAP3 \t\t\tnt = (amount * rewardFee) / 10...\n      SWAP2 \t\t\tnt = (amount * rewardFee) / 10...\n      POP \t\t\tnt = (amount * rewardFee) / 10...\n      POP \t\t\tnt = (amount * rewardFee) / 10...\n      JUMP \t\t\tnt = (amount * rewardFee) / 10...\n    tag 38\t\t\t / 100;\\r\\n        uint256 sen...\n      JUMPDEST \t\t\t / 100;\\r\\n        uint256 sen...\n      PUSH 0\t\t\tount -\n      PUSH 0\t\t\tevAmou\n      PUSH 40\t\t\tou\n      DUP4 \t\t\t  if (bur\n      DUP6 \t\t\t\\n\\r\\n    \n      SUB \t\t\tnt;\\r\\n\\r\\n        if (burn\n      SLT \t\t\tAmount;\\r\\n\\r\\n        if (bur...\n      ISZERO \t\t\tityAmount;\\r\\n\\r\\n        if (...\n      PUSH [tag] 327\t\t\tityAmount;\\r\\n\\r\\n        if (...\n      JUMPI \t\t\tityAmount;\\r\\n\\r\\n        if (...\n      PUSH [tag] 328\t\t\t 0) {\\r\\n            _burn(fro...\n      PUSH [tag] 271\t\t\t 0) {\\r\\n            _burn(fro...\n      JUMP \t\t\t 0) {\\r\\n            _burn(fro...\n    tag 328\t\t\t 0) {\\r\\n            _burn(fro...\n      JUMPDEST \t\t\t 0) {\\r\\n            _burn(fro...\n    tag 327\t\t\tityAmount;\\r\\n\\r\\n        if (...\n      JUMPDEST \t\t\tityAmount;\\r\\n\\r\\n        if (...\n      PUSH 0\t\t\tv\n      PUSH [tag] 329\t\t\t     }\\r\\n\\r\\n        super._u...\n      DUP6 \t\t\tdAmount\n      DUP3 \t\t\t, to, \n      DUP7 \t\t\tupdate(fr\n      ADD \t\t\ter._update(from, to, s\n      PUSH [tag] 276\t\t\t     }\\r\\n\\r\\n        super._u...\n      JUMP \t\t\t     }\\r\\n\\r\\n        super._u...\n    tag 329\t\t\t     }\\r\\n\\r\\n        super._u...\n      JUMPDEST \t\t\t     }\\r\\n\\r\\n        super._u...\n      SWAP3 \t\t\tunt);\\r\\n        }\\r\\n\\r\\n    ...\n      POP \t\t\tunt);\\r\\n        }\\r\\n\\r\\n    ...\n      POP \t\t\t       super._update(from, dev...\n      PUSH 20\t\t\t\n      PUSH [tag] 330\t\t\t\n      DUP6 \t\t\t\n      DUP3 \t\t\t\n      DUP7 \t\t\t\n      ADD \t\t\t\n      PUSH [tag] 279\t\t\t\n      JUMP \t\t\t\n    tag 330\t\t\t\n      JUMPDEST \t\t\t\n      SWAP2 \t\t\t\n      POP \t\t\t\n      POP \t\t\t\n      SWAP3 \t\t\t / 100;\\r\\n        uint256 sen...\n      POP \t\t\t / 100;\\r\\n        uint256 sen...\n      SWAP3 \t\t\t / 100;\\r\\n        uint256 sen...\n      SWAP1 \t\t\t / 100;\\r\\n        uint256 sen...\n      POP \t\t\t / 100;\\r\\n        uint256 sen...\n      JUMP \t\t\t / 100;\\r\\n        uint256 sen...\n    tag 280\t\t\t\n      JUMPDEST \t\t\t\n      PUSH 0\t\t\t\n      DUP2 \t\t\t\n      ISZERO \t\t\t\n      ISZERO \t\t\t\n      SWAP1 \t\t\t\n      POP \t\t\t\n      SWAP2 \t\t\t\n      SWAP1 \t\t\t\n      POP \t\t\t\n      JUMP \t\t\t\n    tag 281\t\t\t\n      JUMPDEST \t\t\t\n      PUSH [tag] 333\t\t\t\n      DUP2 \t\t\t\n      PUSH [tag] 280\t\t\t\n      JUMP \t\t\t\n    tag 333\t\t\t\n      JUMPDEST \t\t\t\n      DUP3 \t\t\t\n      MSTORE \t\t\t\n      POP \t\t\t\n      POP \t\t\t\n      JUMP \t\t\t\n    tag 41\t\t\t\n      JUMPDEST \t\t\t\n      PUSH 0\t\t\t\n      PUSH 20\t\t\t\n      DUP3 \t\t\t\n      ADD \t\t\t\n      SWAP1 \t\t\t\n      POP \t\t\t\n      PUSH [tag] 335\t\t\t\n      PUSH 0\t\t\t\n      DUP4 \t\t\t\n      ADD \t\t\t\n      DUP5 \t\t\t\n      PUSH [tag] 281\t\t\t\n      JUMP \t\t\t\n    tag 335\t\t\t\n      JUMPDEST \t\t\t\n      SWAP3 \t\t\t\n      SWAP2 \t\t\t\n      POP \t\t\t\n      POP \t\t\t\n      JUMP \t\t\t\n    tag 282\t\t\t\n      JUMPDEST \t\t\t\n      PUSH [tag] 337\t\t\t\n      DUP2 \t\t\t\n      PUSH [tag] 280\t\t\t\n      JUMP \t\t\t\n    tag 337\t\t\t\n      JUMPDEST \t\t\t\n      DUP2 \t\t\t\n      EQ \t\t\t\n      PUSH [tag] 338\t\t\t\n      JUMPI \t\t\t\n      PUSH 0\t\t\t\n      PUSH 0\t\t\t\n      REVERT \t\t\t\n    tag 338\t\t\t\n      JUMPDEST \t\t\t\n      POP \t\t\t\n      JUMP \t\t\t\n    tag 283\t\t\t\n      JUMPDEST \t\t\t\n      PUSH 0\t\t\t\n      DUP2 \t\t\t\n      CALLDATALOAD \t\t\t\n      SWAP1 \t\t\t\n      POP \t\t\t\n      PUSH [tag] 340\t\t\t\n      DUP2 \t\t\t\n      PUSH [tag] 282\t\t\t\n      JUMP \t\t\t\n    tag 340\t\t\t\n      JUMPDEST \t\t\t\n      SWAP3 \t\t\t\n      SWAP2 \t\t\t\n      POP \t\t\t\n      POP \t\t\t\n      JUMP \t\t\t\n    tag 44\t\t\t\n      JUMPDEST \t\t\t\n      PUSH 0\t\t\t\n      PUSH 0\t\t\t\n      PUSH 40\t\t\t\n      DUP4 \t\t\t\n      DUP6 \t\t\t\n      SUB \t\t\t\n      SLT \t\t\t\n      ISZERO \t\t\t\n      PUSH [tag] 342\t\t\t\n      JUMPI \t\t\t\n      PUSH [tag] 343\t\t\t\n      PUSH [tag] 271\t\t\t\n      JUMP \t\t\t\n    tag 343\t\t\t\n      JUMPDEST \t\t\t\n    tag 342\t\t\t\n      JUMPDEST \t\t\t\n      PUSH 0\t\t\t\n      PUSH [tag] 344\t\t\t\n      DUP6 \t\t\t\n      DUP3 \t\t\t\n      DUP7 \t\t\t\n      ADD \t\t\t\n      PUSH [tag] 276\t\t\t\n      JUMP \t\t\t\n    tag 344\t\t\t\n      JUMPDEST \t\t\t\n      SWAP3 \t\t\t\n      POP \t\t\t\n      POP \t\t\t\n      PUSH 20\t\t\t\n      PUSH [tag] 345\t\t\t\n      DUP6 \t\t\t\n      DUP3 \t\t\t\n      DUP7 \t\t\t\n      ADD \t\t\t\n      PUSH [tag] 283\t\t\t\n      JUMP \t\t\t\n    tag 345\t\t\t\n      JUMPDEST \t\t\t\n      SWAP2 \t\t\t\n      POP \t\t\t\n      POP \t\t\t\n      SWAP3 \t\t\t\n      POP \t\t\t\n      SWAP3 \t\t\t\n      SWAP1 \t\t\t\n      POP \t\t\t\n      JUMP \t\t\t\n    tag 284\t\t\t\n      JUMPDEST \t\t\t\n      PUSH [tag] 347\t\t\t\n      DUP2 \t\t\t\n      PUSH [tag] 277\t\t\t\n      JUMP \t\t\t\n    tag 347\t\t\t\n      JUMPDEST \t\t\t\n      DUP3 \t\t\t\n      MSTORE \t\t\t\n      POP \t\t\t\n      POP \t\t\t\n      JUMP \t\t\t\n    tag 49\t\t\t\n      JUMPDEST \t\t\t\n      PUSH 0\t\t\t\n      PUSH 20\t\t\t\n      DUP3 \t\t\t\n      ADD \t\t\t\n      SWAP1 \t\t\t\n      POP \t\t\t\n      PUSH [tag] 349\t\t\t\n      PUSH 0\t\t\t\n      DUP4 \t\t\t\n      ADD \t\t\t\n      DUP5 \t\t\t\n      PUSH [tag] 284\t\t\t\n      JUMP \t\t\t\n    tag 349\t\t\t\n      JUMPDEST \t\t\t\n      SWAP3 \t\t\t\n      SWAP2 \t\t\t\n      POP \t\t\t\n      POP \t\t\t\n      JUMP \t\t\t\n    tag 52\t\t\t\n      JUMPDEST \t\t\t\n      PUSH 0\t\t\t\n      PUSH 20\t\t\t\n      DUP3 \t\t\t\n      DUP5 \t\t\t\n      SUB \t\t\t\n      SLT \t\t\t\n      ISZERO \t\t\t\n      PUSH [tag] 351\t\t\t\n      JUMPI \t\t\t\n      PUSH [tag] 352\t\t\t\n      PUSH [tag] 271\t\t\t\n      JUMP \t\t\t\n    tag 352\t\t\t\n      JUMPDEST \t\t\t\n    tag 351\t\t\t\n      JUMPDEST \t\t\t\n      PUSH 0\t\t\t\n      PUSH [tag] 353\t\t\t\n      DUP5 \t\t\t\n      DUP3 \t\t\t\n      DUP6 \t\t\t\n      ADD \t\t\t\n      PUSH [tag] 276\t\t\t\n      JUMP \t\t\t\n    tag 353\t\t\t\n      JUMPDEST \t\t\t\n      SWAP2 \t\t\t\n      POP \t\t\t\n      POP \t\t\t\n      SWAP3 \t\t\t\n      SWAP2 \t\t\t\n      POP \t\t\t\n      POP \t\t\t\n      JUMP \t\t\t\n    tag 56\t\t\t\n      JUMPDEST \t\t\t\n      PUSH 0\t\t\t\n      PUSH 0\t\t\t\n      PUSH 0\t\t\t\n      PUSH 60\t\t\t\n      DUP5 \t\t\t\n      DUP7 \t\t\t\n      SUB \t\t\t\n      SLT \t\t\t\n      ISZERO \t\t\t\n      PUSH [tag] 355\t\t\t\n      JUMPI \t\t\t\n      PUSH [tag] 356\t\t\t\n      PUSH [tag] 271\t\t\t\n      JUMP \t\t\t\n    tag 356\t\t\t\n      JUMPDEST \t\t\t\n    tag 355\t\t\t\n      JUMPDEST \t\t\t\n      PUSH 0\t\t\t\n      PUSH [tag] 357\t\t\t\n      DUP7 \t\t\t\n      DUP3 \t\t\t\n      DUP8 \t\t\t\n      ADD \t\t\t\n      PUSH [tag] 276\t\t\t\n      JUMP \t\t\t\n    tag 357\t\t\t\n      JUMPDEST \t\t\t\n      SWAP4 \t\t\t\n      POP \t\t\t\n      POP \t\t\t\n      PUSH 20\t\t\t\n      PUSH [tag] 358\t\t\t\n      DUP7 \t\t\t\n      DUP3 \t\t\t\n      DUP8 \t\t\t\n      ADD \t\t\t\n      PUSH [tag] 276\t\t\t\n      JUMP \t\t\t\n    tag 358\t\t\t\n      JUMPDEST \t\t\t\n      SWAP3 \t\t\t\n      POP \t\t\t\n      POP \t\t\t\n      PUSH 40\t\t\t\n      PUSH [tag] 359\t\t\t\n      DUP7 \t\t\t\n      DUP3 \t\t\t\n      DUP8 \t\t\t\n      ADD \t\t\t\n      PUSH [tag] 279\t\t\t\n      JUMP \t\t\t\n    tag 359\t\t\t\n      JUMPDEST \t\t\t\n      SWAP2 \t\t\t\n      POP \t\t\t\n      POP \t\t\t\n      SWAP3 \t\t\t\n      POP \t\t\t\n      SWAP3 \t\t\t\n      POP \t\t\t\n      SWAP3 \t\t\t\n      JUMP \t\t\t\n    tag 285\t\t\t\n      JUMPDEST \t\t\t\n      PUSH 0\t\t\t\n      PUSH FF\t\t\t\n      DUP3 \t\t\t\n      AND \t\t\t\n      SWAP1 \t\t\t\n      POP \t\t\t\n      SWAP2 \t\t\t\n      SWAP1 \t\t\t\n      POP \t\t\t\n      JUMP \t\t\t\n    tag 286\t\t\t\n      JUMPDEST \t\t\t\n      PUSH [tag] 362\t\t\t\n      DUP2 \t\t\t\n      PUSH [tag] 285\t\t\t\n      JUMP \t\t\t\n    tag 362\t\t\t\n      JUMPDEST \t\t\t\n      DUP3 \t\t\t\n      MSTORE \t\t\t\n      POP \t\t\t\n      POP \t\t\t\n      JUMP \t\t\t\n    tag 62\t\t\t\n      JUMPDEST \t\t\t\n      PUSH 0\t\t\t\n      PUSH 20\t\t\t\n      DUP3 \t\t\t\n      ADD \t\t\t\n      SWAP1 \t\t\t\n      POP \t\t\t\n      PUSH [tag] 364\t\t\t\n      PUSH 0\t\t\t\n      DUP4 \t\t\t\n      ADD \t\t\t\n      DUP5 \t\t\t\n      PUSH [tag] 286\t\t\t\n      JUMP \t\t\t\n    tag 364\t\t\t\n      JUMPDEST \t\t\t\n      SWAP3 \t\t\t\n      SWAP2 \t\t\t\n      POP \t\t\t\n      POP \t\t\t\n      JUMP \t\t\t\n    tag 71\t\t\t\n      JUMPDEST \t\t\t\n      PUSH 0\t\t\t\n      PUSH 0\t\t\t\n      PUSH 0\t\t\t\n      PUSH 0\t\t\t\n      PUSH 80\t\t\t\n      DUP6 \t\t\t\n      DUP8 \t\t\t\n      SUB \t\t\t\n      SLT \t\t\t\n      ISZERO \t\t\t\n      PUSH [tag] 366\t\t\t\n      JUMPI \t\t\t\n      PUSH [tag] 367\t\t\t\n      PUSH [tag] 271\t\t\t\n      JUMP \t\t\t\n    tag 367\t\t\t\n      JUMPDEST \t\t\t\n    tag 366\t\t\t\n      JUMPDEST \t\t\t\n      PUSH 0\t\t\t\n      PUSH [tag] 368\t\t\t\n      DUP8 \t\t\t\n      DUP3 \t\t\t\n      DUP9 \t\t\t\n      ADD \t\t\t\n      PUSH [tag] 279\t\t\t\n      JUMP \t\t\t\n    tag 368\t\t\t\n      JUMPDEST \t\t\t\n      SWAP5 \t\t\t\n      POP \t\t\t\n      POP \t\t\t\n      PUSH 20\t\t\t\n      PUSH [tag] 369\t\t\t\n      DUP8 \t\t\t\n      DUP3 \t\t\t\n      DUP9 \t\t\t\n      ADD \t\t\t\n      PUSH [tag] 279\t\t\t\n      JUMP \t\t\t\n    tag 369\t\t\t\n      JUMPDEST \t\t\t\n      SWAP4 \t\t\t\n      POP \t\t\t\n      POP \t\t\t\n      PUSH 40\t\t\t\n      PUSH [tag] 370\t\t\t\n      DUP8 \t\t\t\n      DUP3 \t\t\t\n      DUP9 \t\t\t\n      ADD \t\t\t\n      PUSH [tag] 279\t\t\t\n      JUMP \t\t\t\n    tag 370\t\t\t\n      JUMPDEST \t\t\t\n      SWAP3 \t\t\t\n      POP \t\t\t\n      POP \t\t\t\n      PUSH 60\t\t\t\n      PUSH [tag] 371\t\t\t\n      DUP8 \t\t\t\n      DUP3 \t\t\t\n      DUP9 \t\t\t\n      ADD \t\t\t\n      PUSH [tag] 279\t\t\t\n      JUMP \t\t\t\n    tag 371\t\t\t\n      JUMPDEST \t\t\t\n      SWAP2 \t\t\t\n      POP \t\t\t\n      POP \t\t\t\n      SWAP3 \t\t\t\n      SWAP6 \t\t\t\n      SWAP2 \t\t\t\n      SWAP5 \t\t\t\n      POP \t\t\t\n      SWAP3 \t\t\t\n      POP \t\t\t\n      JUMP \t\t\t\n    tag 287\t\t\t\n      JUMPDEST \t\t\t\n      PUSH [tag] 373\t\t\t\n      DUP2 \t\t\t\n      PUSH [tag] 274\t\t\t\n      JUMP \t\t\t\n    tag 373\t\t\t\n      JUMPDEST \t\t\t\n      DUP3 \t\t\t\n      MSTORE \t\t\t\n      POP \t\t\t\n      POP \t\t\t\n      JUMP \t\t\t\n    tag 90\t\t\t\n      JUMPDEST \t\t\t\n      PUSH 0\t\t\t\n      PUSH 20\t\t\t\n      DUP3 \t\t\t\n      ADD \t\t\t\n      SWAP1 \t\t\t\n      POP \t\t\t\n      PUSH [tag] 375\t\t\t\n      PUSH 0\t\t\t\n      DUP4 \t\t\t\n      ADD \t\t\t\n      DUP5 \t\t\t\n      PUSH [tag] 287\t\t\t\n      JUMP \t\t\t\n    tag 375\t\t\t\n      JUMPDEST \t\t\t\n      SWAP3 \t\t\t\n      SWAP2 \t\t\t\n      POP \t\t\t\n      POP \t\t\t\n      JUMP \t\t\t\n    tag 109\t\t\t\n      JUMPDEST \t\t\t\n      PUSH 0\t\t\t\n      PUSH 0\t\t\t\n      PUSH 40\t\t\t\n      DUP4 \t\t\t\n      DUP6 \t\t\t\n      SUB \t\t\t\n      SLT \t\t\t\n      ISZERO \t\t\t\n      PUSH [tag] 377\t\t\t\n      JUMPI \t\t\t\n      PUSH [tag] 378\t\t\t\n      PUSH [tag] 271\t\t\t\n      JUMP \t\t\t\n    tag 378\t\t\t\n      JUMPDEST \t\t\t\n    tag 377\t\t\t\n      JUMPDEST \t\t\t\n      PUSH 0\t\t\t\n      PUSH [tag] 379\t\t\t\n      DUP6 \t\t\t\n      DUP3 \t\t\t\n      DUP7 \t\t\t\n      ADD \t\t\t\n      PUSH [tag] 276\t\t\t\n      JUMP \t\t\t\n    tag 379\t\t\t\n      JUMPDEST \t\t\t\n      SWAP3 \t\t\t\n      POP \t\t\t\n      POP \t\t\t\n      PUSH 20\t\t\t\n      PUSH [tag] 380\t\t\t\n      DUP6 \t\t\t\n      DUP3 \t\t\t\n      DUP7 \t\t\t\n      ADD \t\t\t\n      PUSH [tag] 276\t\t\t\n      JUMP \t\t\t\n    tag 380\t\t\t\n      JUMPDEST \t\t\t\n      SWAP2 \t\t\t\n      POP \t\t\t\n      POP \t\t\t\n      SWAP3 \t\t\t\n      POP \t\t\t\n      SWAP3 \t\t\t\n      SWAP1 \t\t\t\n      POP \t\t\t\n      JUMP \t\t\t\n    tag 114\t\t\t\n      JUMPDEST \t\t\t\n      PUSH 0\t\t\t\n      PUSH 20\t\t\t\n      DUP3 \t\t\t\n      DUP5 \t\t\t\n      SUB \t\t\t\n      SLT \t\t\t\n      ISZERO \t\t\t\n      PUSH [tag] 382\t\t\t\n      JUMPI \t\t\t\n      PUSH [tag] 383\t\t\t\n      PUSH [tag] 271\t\t\t\n      JUMP \t\t\t\n    tag 383\t\t\t\n      JUMPDEST \t\t\t\n    tag 382\t\t\t\n      JUMPDEST \t\t\t\n      PUSH 0\t\t\t\n      PUSH [tag] 384\t\t\t\n      DUP5 \t\t\t\n      DUP3 \t\t\t\n      DUP6 \t\t\t\n      ADD \t\t\t\n      PUSH [tag] 279\t\t\t\n      JUMP \t\t\t\n    tag 384\t\t\t\n      JUMPDEST \t\t\t\n      SWAP2 \t\t\t\n      POP \t\t\t\n      POP \t\t\t\n      SWAP3 \t\t\t\n      SWAP2 \t\t\t\n      POP \t\t\t\n      POP \t\t\t\n      JUMP \t\t\t\n    tag 288\t\t\t\n      JUMPDEST \t\t\t\n      PUSH 4E487B7100000000000000000000000000000000000000000000000000000000\t\t\t\n      PUSH 0\t\t\t\n      MSTORE \t\t\t\n      PUSH 22\t\t\t\n      PUSH 4\t\t\t\n      MSTORE \t\t\t\n      PUSH 24\t\t\t\n      PUSH 0\t\t\t\n      REVERT \t\t\t\n    tag 124\t\t\t\n      JUMPDEST \t\t\t\n      PUSH 0\t\t\t\n      PUSH 2\t\t\t\n      DUP3 \t\t\t\n      DIV \t\t\t\n      SWAP1 \t\t\t\n      POP \t\t\t\n      PUSH 1\t\t\t\n      DUP3 \t\t\t\n      AND \t\t\t\n      DUP1 \t\t\t\n      PUSH [tag] 387\t\t\t\n      JUMPI \t\t\t\n      PUSH 7F\t\t\t\n      DUP3 \t\t\t\n      AND \t\t\t\n      SWAP2 \t\t\t\n      POP \t\t\t\n    tag 387\t\t\t\n      JUMPDEST \t\t\t\n      PUSH 20\t\t\t\n      DUP3 \t\t\t\n      LT \t\t\t\n      DUP2 \t\t\t\n      SUB \t\t\t\n      PUSH [tag] 388\t\t\t\n      JUMPI \t\t\t\n      PUSH [tag] 389\t\t\t\n      PUSH [tag] 288\t\t\t\n      JUMP \t\t\t\n    tag 389\t\t\t\n      JUMPDEST \t\t\t\n    tag 388\t\t\t\n      JUMPDEST \t\t\t\n      POP \t\t\t\n      SWAP2 \t\t\t\n      SWAP1 \t\t\t\n      POP \t\t\t\n      JUMP \t\t\t\n    tag 199\t\t\t\n      JUMPDEST \t\t\t\n      PUSH 0\t\t\t\n      PUSH 60\t\t\t\n      DUP3 \t\t\t\n      ADD \t\t\t\n      SWAP1 \t\t\t\n      POP \t\t\t\n      PUSH [tag] 391\t\t\t\n      PUSH 0\t\t\t\n      DUP4 \t\t\t\n      ADD \t\t\t\n      DUP7 \t\t\t\n      PUSH [tag] 287\t\t\t\n      JUMP \t\t\t\n    tag 391\t\t\t\n      JUMPDEST \t\t\t\n      PUSH [tag] 392\t\t\t\n      PUSH 20\t\t\t\n      DUP4 \t\t\t\n      ADD \t\t\t\n      DUP6 \t\t\t\n      PUSH [tag] 284\t\t\t\n      JUMP \t\t\t\n    tag 392\t\t\t\n      JUMPDEST \t\t\t\n      PUSH [tag] 393\t\t\t\n      PUSH 40\t\t\t\n      DUP4 \t\t\t\n      ADD \t\t\t\n      DUP5 \t\t\t\n      PUSH [tag] 284\t\t\t\n      JUMP \t\t\t\n    tag 393\t\t\t\n      JUMPDEST \t\t\t\n      SWAP5 \t\t\t\n      SWAP4 \t\t\t\n      POP \t\t\t\n      POP \t\t\t\n      POP \t\t\t\n      POP \t\t\t\n      JUMP \t\t\t\n    tag 289\t\t\t\n      JUMPDEST \t\t\t\n      PUSH 4164647265737320697320626C61636B6C697374656400000000000000000000\t\t\t\n      PUSH 0\t\t\t\n      DUP3 \t\t\t\n      ADD \t\t\t\n      MSTORE \t\t\t\n      POP \t\t\t\n      JUMP \t\t\t\n    tag 290\t\t\t\n      JUMPDEST \t\t\t\n      PUSH 0\t\t\t\n      PUSH [tag] 396\t\t\t\n      PUSH 16\t\t\t\n      DUP4 \t\t\t\n      PUSH [tag] 266\t\t\t\n      JUMP \t\t\t\n    tag 396\t\t\t\n      JUMPDEST \t\t\t\n      SWAP2 \t\t\t\n      POP \t\t\t\n      PUSH [tag] 397\t\t\t\n      DUP3 \t\t\t\n      PUSH [tag] 289\t\t\t\n      JUMP \t\t\t\n    tag 397\t\t\t\n      JUMPDEST \t\t\t\n      PUSH 20\t\t\t\n      DUP3 \t\t\t\n      ADD \t\t\t\n      SWAP1 \t\t\t\n      POP \t\t\t\n      SWAP2 \t\t\t\n      SWAP1 \t\t\t\n      POP \t\t\t\n      JUMP \t\t\t\n    tag 220\t\t\t\n      JUMPDEST \t\t\t\n      PUSH 0\t\t\t\n      PUSH 20\t\t\t\n      DUP3 \t\t\t\n      ADD \t\t\t\n      SWAP1 \t\t\t\n      POP \t\t\t\n      DUP2 \t\t\t\n      DUP2 \t\t\t\n      SUB \t\t\t\n      PUSH 0\t\t\t\n      DUP4 \t\t\t\n      ADD \t\t\t\n      MSTORE \t\t\t\n      PUSH [tag] 399\t\t\t\n      DUP2 \t\t\t\n      PUSH [tag] 290\t\t\t\n      JUMP \t\t\t\n    tag 399\t\t\t\n      JUMPDEST \t\t\t\n      SWAP1 \t\t\t\n      POP \t\t\t\n      SWAP2 \t\t\t\n      SWAP1 \t\t\t\n      POP \t\t\t\n      JUMP \t\t\t\n    tag 291\t\t\t\n      JUMPDEST \t\t\t\n      PUSH 54726164696E67206973206E6F7420656E61626C656420796574000000000000\t\t\t\n      PUSH 0\t\t\t\n      DUP3 \t\t\t\n      ADD \t\t\t\n      MSTORE \t\t\t\n      POP \t\t\t\n      JUMP \t\t\t\n    tag 292\t\t\t\n      JUMPDEST \t\t\t\n      PUSH 0\t\t\t\n      PUSH [tag] 402\t\t\t\n      PUSH 1A\t\t\t\n      DUP4 \t\t\t\n      PUSH [tag] 266\t\t\t\n      JUMP \t\t\t\n    tag 402\t\t\t\n      JUMPDEST \t\t\t\n      SWAP2 \t\t\t\n      POP \t\t\t\n      PUSH [tag] 403\t\t\t\n      DUP3 \t\t\t\n      PUSH [tag] 291\t\t\t\n      JUMP \t\t\t\n    tag 403\t\t\t\n      JUMPDEST \t\t\t\n      PUSH 20\t\t\t\n      DUP3 \t\t\t\n      ADD \t\t\t\n      SWAP1 \t\t\t\n      POP \t\t\t\n      SWAP2 \t\t\t\n      SWAP1 \t\t\t\n      POP \t\t\t\n      JUMP \t\t\t\n    tag 224\t\t\t\n      JUMPDEST \t\t\t\n      PUSH 0\t\t\t\n      PUSH 20\t\t\t\n      DUP3 \t\t\t\n      ADD \t\t\t\n      SWAP1 \t\t\t\n      POP \t\t\t\n      DUP2 \t\t\t\n      DUP2 \t\t\t\n      SUB \t\t\t\n      PUSH 0\t\t\t\n      DUP4 \t\t\t\n      ADD \t\t\t\n      MSTORE \t\t\t\n      PUSH [tag] 405\t\t\t\n      DUP2 \t\t\t\n      PUSH [tag] 292\t\t\t\n      JUMP \t\t\t\n    tag 405\t\t\t\n      JUMPDEST \t\t\t\n      SWAP1 \t\t\t\n      POP \t\t\t\n      SWAP2 \t\t\t\n      SWAP1 \t\t\t\n      POP \t\t\t\n      JUMP \t\t\t\n    tag 293\t\t\t\n      JUMPDEST \t\t\t\n      PUSH 5472616E7366657220616D6F756E742065786365656473206D6178206C696D69\t\t\t\n      PUSH 0\t\t\t\n      DUP3 \t\t\t\n      ADD \t\t\t\n      MSTORE \t\t\t\n      PUSH 7400000000000000000000000000000000000000000000000000000000000000\t\t\t\n      PUSH 20\t\t\t\n      DUP3 \t\t\t\n      ADD \t\t\t\n      MSTORE \t\t\t\n      POP \t\t\t\n      JUMP \t\t\t\n    tag 294\t\t\t\n      JUMPDEST \t\t\t\n      PUSH 0\t\t\t\n      PUSH [tag] 408\t\t\t\n      PUSH 21\t\t\t\n      DUP4 \t\t\t\n      PUSH [tag] 266\t\t\t\n      JUMP \t\t\t\n    tag 408\t\t\t\n      JUMPDEST \t\t\t\n      SWAP2 \t\t\t\n      POP \t\t\t\n      PUSH [tag] 409\t\t\t\n      DUP3 \t\t\t\n      PUSH [tag] 293\t\t\t\n      JUMP \t\t\t\n    tag 409\t\t\t\n      JUMPDEST \t\t\t\n      PUSH 40\t\t\t\n      DUP3 \t\t\t\n      ADD \t\t\t\n      SWAP1 \t\t\t\n      POP \t\t\t\n      SWAP2 \t\t\t\n      SWAP1 \t\t\t\n      POP \t\t\t\n      JUMP \t\t\t\n    tag 228\t\t\t\n      JUMPDEST \t\t\t\n      PUSH 0\t\t\t\n      PUSH 20\t\t\t\n      DUP3 \t\t\t\n      ADD \t\t\t\n      SWAP1 \t\t\t\n      POP \t\t\t\n      DUP2 \t\t\t\n      DUP2 \t\t\t\n      SUB \t\t\t\n      PUSH 0\t\t\t\n      DUP4 \t\t\t\n      ADD \t\t\t\n      MSTORE \t\t\t\n      PUSH [tag] 411\t\t\t\n      DUP2 \t\t\t\n      PUSH [tag] 294\t\t\t\n      JUMP \t\t\t\n    tag 411\t\t\t\n      JUMPDEST \t\t\t\n      SWAP1 \t\t\t\n      POP \t\t\t\n      SWAP2 \t\t\t\n      SWAP1 \t\t\t\n      POP \t\t\t\n      JUMP \t\t\t\n    tag 295\t\t\t\n      JUMPDEST \t\t\t\n      PUSH 4E487B7100000000000000000000000000000000000000000000000000000000\t\t\t\n      PUSH 0\t\t\t\n      MSTORE \t\t\t\n      PUSH 11\t\t\t\n      PUSH 4\t\t\t\n      MSTORE \t\t\t\n      PUSH 24\t\t\t\n      PUSH 0\t\t\t\n      REVERT \t\t\t\n    tag 230\t\t\t\n      JUMPDEST \t\t\t\n      PUSH 0\t\t\t\n      PUSH [tag] 414\t\t\t\n      DUP3 \t\t\t\n      PUSH [tag] 277\t\t\t\n      JUMP \t\t\t\n    tag 414\t\t\t\n      JUMPDEST \t\t\t\n      SWAP2 \t\t\t\n      POP \t\t\t\n      PUSH [tag] 415\t\t\t\n      DUP4 \t\t\t\n      PUSH [tag] 277\t\t\t\n      JUMP \t\t\t\n    tag 415\t\t\t\n      JUMPDEST \t\t\t\n      SWAP3 \t\t\t\n      POP \t\t\t\n      DUP3 \t\t\t\n      DUP3 \t\t\t\n      MUL \t\t\t\n      PUSH [tag] 416\t\t\t\n      DUP2 \t\t\t\n      PUSH [tag] 277\t\t\t\n      JUMP \t\t\t\n    tag 416\t\t\t\n      JUMPDEST \t\t\t\n      SWAP2 \t\t\t\n      POP \t\t\t\n      DUP3 \t\t\t\n      DUP3 \t\t\t\n      DIV \t\t\t\n      DUP5 \t\t\t\n      EQ \t\t\t\n      DUP4 \t\t\t\n      ISZERO \t\t\t\n      OR \t\t\t\n      PUSH [tag] 417\t\t\t\n      JUMPI \t\t\t\n      PUSH [tag] 418\t\t\t\n      PUSH [tag] 295\t\t\t\n      JUMP \t\t\t\n    tag 418\t\t\t\n      JUMPDEST \t\t\t\n    tag 417\t\t\t\n      JUMPDEST \t\t\t\n      POP \t\t\t\n      SWAP3 \t\t\t\n      SWAP2 \t\t\t\n      POP \t\t\t\n      POP \t\t\t\n      JUMP \t\t\t\n    tag 296\t\t\t\n      JUMPDEST \t\t\t\n      PUSH 4E487B7100000000000000000000000000000000000000000000000000000000\t\t\t\n      PUSH 0\t\t\t\n      MSTORE \t\t\t\n      PUSH 12\t\t\t\n      PUSH 4\t\t\t\n      MSTORE \t\t\t\n      PUSH 24\t\t\t\n      PUSH 0\t\t\t\n      REVERT \t\t\t\n    tag 232\t\t\t\n      JUMPDEST \t\t\t\n      PUSH 0\t\t\t\n      PUSH [tag] 421\t\t\t\n      DUP3 \t\t\t\n      PUSH [tag] 277\t\t\t\n      JUMP \t\t\t\n    tag 421\t\t\t\n      JUMPDEST \t\t\t\n      SWAP2 \t\t\t\n      POP \t\t\t\n      PUSH [tag] 422\t\t\t\n      DUP4 \t\t\t\n      PUSH [tag] 277\t\t\t\n      JUMP \t\t\t\n    tag 422\t\t\t\n      JUMPDEST \t\t\t\n      SWAP3 \t\t\t\n      POP \t\t\t\n      DUP3 \t\t\t\n      PUSH [tag] 423\t\t\t\n      JUMPI \t\t\t\n      PUSH [tag] 424\t\t\t\n      PUSH [tag] 296\t\t\t\n      JUMP \t\t\t\n    tag 424\t\t\t\n      JUMPDEST \t\t\t\n    tag 423\t\t\t\n      JUMPDEST \t\t\t\n      DUP3 \t\t\t\n      DUP3 \t\t\t\n      DIV \t\t\t\n      SWAP1 \t\t\t\n      POP \t\t\t\n      SWAP3 \t\t\t\n      SWAP2 \t\t\t\n      POP \t\t\t\n      POP \t\t\t\n      JUMP \t\t\t\n    tag 240\t\t\t\n      JUMPDEST \t\t\t\n      PUSH 0\t\t\t\n      PUSH [tag] 426\t\t\t\n      DUP3 \t\t\t\n      PUSH [tag] 277\t\t\t\n      JUMP \t\t\t\n    tag 426\t\t\t\n      JUMPDEST \t\t\t\n      SWAP2 \t\t\t\n      POP \t\t\t\n      PUSH [tag] 427\t\t\t\n      DUP4 \t\t\t\n      PUSH [tag] 277\t\t\t\n      JUMP \t\t\t\n    tag 427\t\t\t\n      JUMPDEST \t\t\t\n      SWAP3 \t\t\t\n      POP \t\t\t\n      DUP3 \t\t\t\n      DUP3 \t\t\t\n      SUB \t\t\t\n      SWAP1 \t\t\t\n      POP \t\t\t\n      DUP2 \t\t\t\n      DUP2 \t\t\t\n      GT \t\t\t\n      ISZERO \t\t\t\n      PUSH [tag] 428\t\t\t\n      JUMPI \t\t\t\n      PUSH [tag] 429\t\t\t\n      PUSH [tag] 295\t\t\t\n      JUMP \t\t\t\n    tag 429\t\t\t\n      JUMPDEST \t\t\t\n    tag 428\t\t\t\n      JUMPDEST \t\t\t\n      SWAP3 \t\t\t\n      SWAP2 \t\t\t\n      POP \t\t\t\n      POP \t\t\t\n      JUMP \t\t\t\n    tag 258\t\t\t\n      JUMPDEST \t\t\t\n      PUSH 0\t\t\t\n      PUSH [tag] 431\t\t\t\n      DUP3 \t\t\t\n      PUSH [tag] 277\t\t\t\n      JUMP \t\t\t\n    tag 431\t\t\t\n      JUMPDEST \t\t\t\n      SWAP2 \t\t\t\n      POP \t\t\t\n      PUSH [tag] 432\t\t\t\n      DUP4 \t\t\t\n      PUSH [tag] 277\t\t\t\n      JUMP \t\t\t\n    tag 432\t\t\t\n      JUMPDEST \t\t\t\n      SWAP3 \t\t\t\n      POP \t\t\t\n      DUP3 \t\t\t\n      DUP3 \t\t\t\n      ADD \t\t\t\n      SWAP1 \t\t\t\n      POP \t\t\t\n      DUP1 \t\t\t\n      DUP3 \t\t\t\n      GT \t\t\t\n      ISZERO \t\t\t\n      PUSH [tag] 433\t\t\t\n      JUMPI \t\t\t\n      PUSH [tag] 434\t\t\t\n      PUSH [tag] 295\t\t\t\n      JUMP \t\t\t\n    tag 434\t\t\t\n      JUMPDEST \t\t\t\n    tag 433\t\t\t\n      JUMPDEST \t\t\t\n      SWAP3 \t\t\t\n      SWAP2 \t\t\t\n      POP \t\t\t\n      POP \t\t\t\n      JUMP \t\t\t\n    .data\n"
}